{
  "address": "0x61A800b52b8bF8C8DA58D94EE95191b083F86D45",
  "abi": [
    {
      "anonymous": false,
      "inputs": [
        {
          "indexed": true,
          "internalType": "uint256",
          "name": "airdropId",
          "type": "uint256"
        },
        {
          "indexed": true,
          "internalType": "address",
          "name": "beneficiary",
          "type": "address"
        },
        {
          "indexed": false,
          "internalType": "bytes32[]",
          "name": "proof",
          "type": "bytes32[]"
        },
        {
          "indexed": false,
          "internalType": "uint256",
          "name": "amount",
          "type": "uint256"
        }
      ],
      "name": "AirdropRedeemed",
      "type": "event"
    },
    {
      "anonymous": false,
      "inputs": [
        {
          "indexed": false,
          "internalType": "uint256",
          "name": "tokenSaleId",
          "type": "uint256"
        },
        {
          "indexed": true,
          "internalType": "address",
          "name": "purchaser",
          "type": "address"
        },
        {
          "indexed": false,
          "internalType": "uint256",
          "name": "tokenId",
          "type": "uint256"
        },
        {
          "indexed": false,
          "internalType": "uint256",
          "name": "quantity",
          "type": "uint256"
        }
      ],
      "name": "TokenPurchased",
      "type": "event"
    },
    {
      "anonymous": false,
      "inputs": [
        {
          "indexed": false,
          "internalType": "uint256",
          "name": "tokenSaleId",
          "type": "uint256"
        },
        {
          "components": [
            {
              "internalType": "address",
              "name": "contractAddress",
              "type": "address"
            },
            {
              "internalType": "address",
              "name": "token",
              "type": "address"
            },
            {
              "internalType": "uint256",
              "name": "tokenHash",
              "type": "uint256"
            },
            {
              "internalType": "uint256",
              "name": "collectionHash",
              "type": "uint256"
            },
            {
              "internalType": "address",
              "name": "owner",
              "type": "address"
            },
            {
              "internalType": "address",
              "name": "payee",
              "type": "address"
            },
            {
              "internalType": "string",
              "name": "symbol",
              "type": "string"
            },
            {
              "internalType": "string",
              "name": "name",
              "type": "string"
            },
            {
              "internalType": "string",
              "name": "description",
              "type": "string"
            },
            {
              "internalType": "bool",
              "name": "openState",
              "type": "bool"
            },
            {
              "internalType": "uint256",
              "name": "startTime",
              "type": "uint256"
            },
            {
              "internalType": "uint256",
              "name": "endTime",
              "type": "uint256"
            },
            {
              "internalType": "uint256",
              "name": "maxQuantity",
              "type": "uint256"
            },
            {
              "internalType": "uint256",
              "name": "maxQuantityPerSale",
              "type": "uint256"
            },
            {
              "internalType": "uint256",
              "name": "minQuantityPerSale",
              "type": "uint256"
            },
            {
              "internalType": "uint256",
              "name": "maxQuantityPerAccount",
              "type": "uint256"
            },
            {
              "components": [
                {
                  "internalType": "uint256",
                  "name": "price",
                  "type": "uint256"
                },
                {
                  "internalType": "enum ITokenPrice.PriceModifier",
                  "name": "priceModifier",
                  "type": "uint8"
                },
                {
                  "internalType": "uint256",
                  "name": "priceModifierFactor",
                  "type": "uint256"
                },
                {
                  "internalType": "uint256",
                  "name": "maxPrice",
                  "type": "uint256"
                }
              ],
              "internalType": "struct ITokenPrice.TokenPriceData",
              "name": "initialPrice",
              "type": "tuple"
            },
            {
              "internalType": "enum IAirdropTokenSale.PaymentType",
              "name": "paymentType",
              "type": "uint8"
            },
            {
              "internalType": "address",
              "name": "tokenAddress",
              "type": "address"
            }
          ],
          "indexed": false,
          "internalType": "struct IAirdropTokenSale.TokenSaleSettings",
          "name": "tokenSale",
          "type": "tuple"
        }
      ],
      "name": "TokenSaleClosed",
      "type": "event"
    },
    {
      "anonymous": false,
      "inputs": [
        {
          "indexed": false,
          "internalType": "uint256",
          "name": "tokenSaleId",
          "type": "uint256"
        },
        {
          "components": [
            {
              "internalType": "address",
              "name": "contractAddress",
              "type": "address"
            },
            {
              "internalType": "address",
              "name": "token",
              "type": "address"
            },
            {
              "internalType": "uint256",
              "name": "tokenHash",
              "type": "uint256"
            },
            {
              "internalType": "uint256",
              "name": "collectionHash",
              "type": "uint256"
            },
            {
              "internalType": "address",
              "name": "owner",
              "type": "address"
            },
            {
              "internalType": "address",
              "name": "payee",
              "type": "address"
            },
            {
              "internalType": "string",
              "name": "symbol",
              "type": "string"
            },
            {
              "internalType": "string",
              "name": "name",
              "type": "string"
            },
            {
              "internalType": "string",
              "name": "description",
              "type": "string"
            },
            {
              "internalType": "bool",
              "name": "openState",
              "type": "bool"
            },
            {
              "internalType": "uint256",
              "name": "startTime",
              "type": "uint256"
            },
            {
              "internalType": "uint256",
              "name": "endTime",
              "type": "uint256"
            },
            {
              "internalType": "uint256",
              "name": "maxQuantity",
              "type": "uint256"
            },
            {
              "internalType": "uint256",
              "name": "maxQuantityPerSale",
              "type": "uint256"
            },
            {
              "internalType": "uint256",
              "name": "minQuantityPerSale",
              "type": "uint256"
            },
            {
              "internalType": "uint256",
              "name": "maxQuantityPerAccount",
              "type": "uint256"
            },
            {
              "components": [
                {
                  "internalType": "uint256",
                  "name": "price",
                  "type": "uint256"
                },
                {
                  "internalType": "enum ITokenPrice.PriceModifier",
                  "name": "priceModifier",
                  "type": "uint8"
                },
                {
                  "internalType": "uint256",
                  "name": "priceModifierFactor",
                  "type": "uint256"
                },
                {
                  "internalType": "uint256",
                  "name": "maxPrice",
                  "type": "uint256"
                }
              ],
              "internalType": "struct ITokenPrice.TokenPriceData",
              "name": "initialPrice",
              "type": "tuple"
            },
            {
              "internalType": "enum IAirdropTokenSale.PaymentType",
              "name": "paymentType",
              "type": "uint8"
            },
            {
              "internalType": "address",
              "name": "tokenAddress",
              "type": "address"
            }
          ],
          "indexed": false,
          "internalType": "struct IAirdropTokenSale.TokenSaleSettings",
          "name": "tokenSale",
          "type": "tuple"
        }
      ],
      "name": "TokenSaleOpen",
      "type": "event"
    },
    {
      "anonymous": false,
      "inputs": [
        {
          "indexed": true,
          "internalType": "address",
          "name": "token",
          "type": "address"
        },
        {
          "indexed": true,
          "internalType": "uint256",
          "name": "tokenId",
          "type": "uint256"
        },
        {
          "indexed": false,
          "internalType": "uint256",
          "name": "price",
          "type": "uint256"
        },
        {
          "indexed": false,
          "internalType": "uint256",
          "name": "quantity",
          "type": "uint256"
        }
      ],
      "name": "TokenSaleSet",
      "type": "event"
    },
    {
      "anonymous": false,
      "inputs": [
        {
          "indexed": false,
          "internalType": "uint256",
          "name": "tokenSaleId",
          "type": "uint256"
        },
        {
          "components": [
            {
              "internalType": "address",
              "name": "contractAddress",
              "type": "address"
            },
            {
              "internalType": "address",
              "name": "token",
              "type": "address"
            },
            {
              "internalType": "uint256",
              "name": "tokenHash",
              "type": "uint256"
            },
            {
              "internalType": "uint256",
              "name": "collectionHash",
              "type": "uint256"
            },
            {
              "internalType": "address",
              "name": "owner",
              "type": "address"
            },
            {
              "internalType": "address",
              "name": "payee",
              "type": "address"
            },
            {
              "internalType": "string",
              "name": "symbol",
              "type": "string"
            },
            {
              "internalType": "string",
              "name": "name",
              "type": "string"
            },
            {
              "internalType": "string",
              "name": "description",
              "type": "string"
            },
            {
              "internalType": "bool",
              "name": "openState",
              "type": "bool"
            },
            {
              "internalType": "uint256",
              "name": "startTime",
              "type": "uint256"
            },
            {
              "internalType": "uint256",
              "name": "endTime",
              "type": "uint256"
            },
            {
              "internalType": "uint256",
              "name": "maxQuantity",
              "type": "uint256"
            },
            {
              "internalType": "uint256",
              "name": "maxQuantityPerSale",
              "type": "uint256"
            },
            {
              "internalType": "uint256",
              "name": "minQuantityPerSale",
              "type": "uint256"
            },
            {
              "internalType": "uint256",
              "name": "maxQuantityPerAccount",
              "type": "uint256"
            },
            {
              "components": [
                {
                  "internalType": "uint256",
                  "name": "price",
                  "type": "uint256"
                },
                {
                  "internalType": "enum ITokenPrice.PriceModifier",
                  "name": "priceModifier",
                  "type": "uint8"
                },
                {
                  "internalType": "uint256",
                  "name": "priceModifierFactor",
                  "type": "uint256"
                },
                {
                  "internalType": "uint256",
                  "name": "maxPrice",
                  "type": "uint256"
                }
              ],
              "internalType": "struct ITokenPrice.TokenPriceData",
              "name": "initialPrice",
              "type": "tuple"
            },
            {
              "internalType": "enum IAirdropTokenSale.PaymentType",
              "name": "paymentType",
              "type": "uint8"
            },
            {
              "internalType": "address",
              "name": "tokenAddress",
              "type": "address"
            }
          ],
          "indexed": false,
          "internalType": "struct IAirdropTokenSale.TokenSaleSettings",
          "name": "tokenSale",
          "type": "tuple"
        }
      ],
      "name": "TokenSaleSettingsUpdated",
      "type": "event"
    },
    {
      "anonymous": false,
      "inputs": [
        {
          "indexed": true,
          "internalType": "address",
          "name": "buyer",
          "type": "address"
        },
        {
          "indexed": true,
          "internalType": "address",
          "name": "tokenAddress",
          "type": "address"
        },
        {
          "indexed": true,
          "internalType": "uint256",
          "name": "tokenId",
          "type": "uint256"
        },
        {
          "indexed": false,
          "internalType": "uint256",
          "name": "salePrice",
          "type": "uint256"
        }
      ],
      "name": "TokenSold",
      "type": "event"
    },
    {
      "anonymous": false,
      "inputs": [
        {
          "indexed": true,
          "internalType": "address",
          "name": "tokenAddress",
          "type": "address"
        },
        {
          "components": [
            {
              "internalType": "address payable",
              "name": "receiver",
              "type": "address"
            },
            {
              "internalType": "address",
              "name": "sourceToken",
              "type": "address"
            },
            {
              "internalType": "uint256",
              "name": "sourceTokenId",
              "type": "uint256"
            },
            {
              "internalType": "address",
              "name": "token",
              "type": "address"
            },
            {
              "internalType": "uint256",
              "name": "quantity",
              "type": "uint256"
            },
            {
              "internalType": "uint256",
              "name": "price",
              "type": "uint256"
            },
            {
              "internalType": "uint256",
              "name": "quantitySold",
              "type": "uint256"
            }
          ],
          "indexed": false,
          "internalType": "struct ITokenSale.TokenSaleEntry",
          "name": "tokens",
          "type": "tuple"
        }
      ],
      "name": "TokensSet",
      "type": "event"
    },
    {
      "anonymous": false,
      "inputs": [
        {
          "indexed": true,
          "internalType": "uint256",
          "name": "tokensaleId",
          "type": "uint256"
        },
        {
          "components": [
            {
              "internalType": "address",
              "name": "contractAddress",
              "type": "address"
            },
            {
              "internalType": "address",
              "name": "token",
              "type": "address"
            },
            {
              "internalType": "uint256",
              "name": "tokenHash",
              "type": "uint256"
            },
            {
              "internalType": "uint256",
              "name": "collectionHash",
              "type": "uint256"
            },
            {
              "internalType": "address",
              "name": "owner",
              "type": "address"
            },
            {
              "internalType": "address",
              "name": "payee",
              "type": "address"
            },
            {
              "internalType": "string",
              "name": "symbol",
              "type": "string"
            },
            {
              "internalType": "string",
              "name": "name",
              "type": "string"
            },
            {
              "internalType": "string",
              "name": "description",
              "type": "string"
            },
            {
              "internalType": "bool",
              "name": "openState",
              "type": "bool"
            },
            {
              "internalType": "uint256",
              "name": "startTime",
              "type": "uint256"
            },
            {
              "internalType": "uint256",
              "name": "endTime",
              "type": "uint256"
            },
            {
              "internalType": "uint256",
              "name": "maxQuantity",
              "type": "uint256"
            },
            {
              "internalType": "uint256",
              "name": "maxQuantityPerSale",
              "type": "uint256"
            },
            {
              "internalType": "uint256",
              "name": "minQuantityPerSale",
              "type": "uint256"
            },
            {
              "internalType": "uint256",
              "name": "maxQuantityPerAccount",
              "type": "uint256"
            },
            {
              "components": [
                {
                  "internalType": "uint256",
                  "name": "price",
                  "type": "uint256"
                },
                {
                  "internalType": "enum ITokenPrice.PriceModifier",
                  "name": "priceModifier",
                  "type": "uint8"
                },
                {
                  "internalType": "uint256",
                  "name": "priceModifierFactor",
                  "type": "uint256"
                },
                {
                  "internalType": "uint256",
                  "name": "maxPrice",
                  "type": "uint256"
                }
              ],
              "internalType": "struct ITokenPrice.TokenPriceData",
              "name": "initialPrice",
              "type": "tuple"
            },
            {
              "internalType": "enum IAirdropTokenSale.PaymentType",
              "name": "paymentType",
              "type": "uint8"
            },
            {
              "internalType": "address",
              "name": "tokenAddress",
              "type": "address"
            }
          ],
          "indexed": false,
          "internalType": "struct IAirdropTokenSale.TokenSaleSettings",
          "name": "settings",
          "type": "tuple"
        }
      ],
      "name": "TokensaleCreated",
      "type": "event"
    },
    {
      "inputs": [
        {
          "internalType": "uint256",
          "name": "tokenSaleId",
          "type": "uint256"
        },
        {
          "internalType": "uint256",
          "name": "tHash",
          "type": "uint256"
        },
        {
          "internalType": "address",
          "name": "recipient",
          "type": "address"
        },
        {
          "internalType": "uint256",
          "name": "amount",
          "type": "uint256"
        }
      ],
      "name": "airdropRedeemed",
      "outputs": [
        {
          "internalType": "uint256",
          "name": "tokenHash_",
          "type": "uint256"
        }
      ],
      "stateMutability": "nonpayable",
      "type": "function"
    },
    {
      "inputs": [
        {
          "components": [
            {
              "internalType": "address",
              "name": "contractAddress",
              "type": "address"
            },
            {
              "internalType": "address",
              "name": "token",
              "type": "address"
            },
            {
              "internalType": "uint256",
              "name": "tokenHash",
              "type": "uint256"
            },
            {
              "internalType": "uint256",
              "name": "collectionHash",
              "type": "uint256"
            },
            {
              "internalType": "address",
              "name": "owner",
              "type": "address"
            },
            {
              "internalType": "address",
              "name": "payee",
              "type": "address"
            },
            {
              "internalType": "string",
              "name": "symbol",
              "type": "string"
            },
            {
              "internalType": "string",
              "name": "name",
              "type": "string"
            },
            {
              "internalType": "string",
              "name": "description",
              "type": "string"
            },
            {
              "internalType": "bool",
              "name": "openState",
              "type": "bool"
            },
            {
              "internalType": "uint256",
              "name": "startTime",
              "type": "uint256"
            },
            {
              "internalType": "uint256",
              "name": "endTime",
              "type": "uint256"
            },
            {
              "internalType": "uint256",
              "name": "maxQuantity",
              "type": "uint256"
            },
            {
              "internalType": "uint256",
              "name": "maxQuantityPerSale",
              "type": "uint256"
            },
            {
              "internalType": "uint256",
              "name": "minQuantityPerSale",
              "type": "uint256"
            },
            {
              "internalType": "uint256",
              "name": "maxQuantityPerAccount",
              "type": "uint256"
            },
            {
              "components": [
                {
                  "internalType": "uint256",
                  "name": "price",
                  "type": "uint256"
                },
                {
                  "internalType": "enum ITokenPrice.PriceModifier",
                  "name": "priceModifier",
                  "type": "uint8"
                },
                {
                  "internalType": "uint256",
                  "name": "priceModifierFactor",
                  "type": "uint256"
                },
                {
                  "internalType": "uint256",
                  "name": "maxPrice",
                  "type": "uint256"
                }
              ],
              "internalType": "struct ITokenPrice.TokenPriceData",
              "name": "initialPrice",
              "type": "tuple"
            },
            {
              "internalType": "enum IAirdropTokenSale.PaymentType",
              "name": "paymentType",
              "type": "uint8"
            },
            {
              "internalType": "address",
              "name": "tokenAddress",
              "type": "address"
            }
          ],
          "internalType": "struct IAirdropTokenSale.TokenSaleSettings",
          "name": "tokenSaleInit",
          "type": "tuple"
        }
      ],
      "name": "createTokenSale",
      "outputs": [
        {
          "internalType": "uint256",
          "name": "tokenSaleId",
          "type": "uint256"
        }
      ],
      "stateMutability": "nonpayable",
      "type": "function"
    },
    {
      "inputs": [
        {
          "internalType": "uint256",
          "name": "tokenSaleId",
          "type": "uint256"
        }
      ],
      "name": "getTokenSaleSettings",
      "outputs": [
        {
          "components": [
            {
              "internalType": "address",
              "name": "contractAddress",
              "type": "address"
            },
            {
              "internalType": "address",
              "name": "token",
              "type": "address"
            },
            {
              "internalType": "uint256",
              "name": "tokenHash",
              "type": "uint256"
            },
            {
              "internalType": "uint256",
              "name": "collectionHash",
              "type": "uint256"
            },
            {
              "internalType": "address",
              "name": "owner",
              "type": "address"
            },
            {
              "internalType": "address",
              "name": "payee",
              "type": "address"
            },
            {
              "internalType": "string",
              "name": "symbol",
              "type": "string"
            },
            {
              "internalType": "string",
              "name": "name",
              "type": "string"
            },
            {
              "internalType": "string",
              "name": "description",
              "type": "string"
            },
            {
              "internalType": "bool",
              "name": "openState",
              "type": "bool"
            },
            {
              "internalType": "uint256",
              "name": "startTime",
              "type": "uint256"
            },
            {
              "internalType": "uint256",
              "name": "endTime",
              "type": "uint256"
            },
            {
              "internalType": "uint256",
              "name": "maxQuantity",
              "type": "uint256"
            },
            {
              "internalType": "uint256",
              "name": "maxQuantityPerSale",
              "type": "uint256"
            },
            {
              "internalType": "uint256",
              "name": "minQuantityPerSale",
              "type": "uint256"
            },
            {
              "internalType": "uint256",
              "name": "maxQuantityPerAccount",
              "type": "uint256"
            },
            {
              "components": [
                {
                  "internalType": "uint256",
                  "name": "price",
                  "type": "uint256"
                },
                {
                  "internalType": "enum ITokenPrice.PriceModifier",
                  "name": "priceModifier",
                  "type": "uint8"
                },
                {
                  "internalType": "uint256",
                  "name": "priceModifierFactor",
                  "type": "uint256"
                },
                {
                  "internalType": "uint256",
                  "name": "maxPrice",
                  "type": "uint256"
                }
              ],
              "internalType": "struct ITokenPrice.TokenPriceData",
              "name": "initialPrice",
              "type": "tuple"
            },
            {
              "internalType": "enum IAirdropTokenSale.PaymentType",
              "name": "paymentType",
              "type": "uint8"
            },
            {
              "internalType": "address",
              "name": "tokenAddress",
              "type": "address"
            }
          ],
          "internalType": "struct IAirdropTokenSale.TokenSaleSettings",
          "name": "settings",
          "type": "tuple"
        }
      ],
      "stateMutability": "view",
      "type": "function"
    },
    {
      "inputs": [
        {
          "components": [
            {
              "internalType": "bool",
              "name": "whitelistOnly",
              "type": "bool"
            },
            {
              "internalType": "uint256",
              "name": "whitelistId",
              "type": "uint256"
            },
            {
              "internalType": "bytes32",
              "name": "whitelistHash",
              "type": "bytes32"
            },
            {
              "internalType": "uint256",
              "name": "maxQuantity",
              "type": "uint256"
            },
            {
              "internalType": "uint256",
              "name": "maxQuantityPerSale",
              "type": "uint256"
            },
            {
              "internalType": "uint256",
              "name": "minQuantityPerSale",
              "type": "uint256"
            },
            {
              "internalType": "uint256",
              "name": "maxQuantityPerAccount",
              "type": "uint256"
            },
            {
              "internalType": "uint256",
              "name": "quantitySold",
              "type": "uint256"
            },
            {
              "internalType": "uint256",
              "name": "startTime",
              "type": "uint256"
            },
            {
              "internalType": "uint256",
              "name": "endTime",
              "type": "uint256"
            },
            {
              "components": [
                {
                  "internalType": "uint256",
                  "name": "price",
                  "type": "uint256"
                },
                {
                  "internalType": "enum ITokenPrice.PriceModifier",
                  "name": "priceModifier",
                  "type": "uint8"
                },
                {
                  "internalType": "uint256",
                  "name": "priceModifierFactor",
                  "type": "uint256"
                },
                {
                  "internalType": "uint256",
                  "name": "maxPrice",
                  "type": "uint256"
                }
              ],
              "internalType": "struct ITokenPrice.TokenPriceData",
              "name": "initialPrice",
              "type": "tuple"
            },
            {
              "internalType": "uint256",
              "name": "tokenHash",
              "type": "uint256"
            },
            {
              "internalType": "enum IAirdropTokenSale.PaymentType",
              "name": "paymentType",
              "type": "uint8"
            },
            {
              "internalType": "address",
              "name": "tokenAddress",
              "type": "address"
            }
          ],
          "internalType": "struct IAirdrop.AirdropSettings",
          "name": "_airdrop",
          "type": "tuple"
        }
      ],
      "name": "newAirdrop",
      "outputs": [],
      "stateMutability": "nonpayable",
      "type": "function"
    },
    {
      "inputs": [
        {
          "internalType": "uint256",
          "name": "tokenSaleId",
          "type": "uint256"
        },
        {
          "internalType": "address",
          "name": "receiver",
          "type": "address"
        },
        {
          "internalType": "uint256",
          "name": "quantity",
          "type": "uint256"
        },
        {
          "internalType": "uint256",
          "name": "total",
          "type": "uint256"
        },
        {
          "internalType": "uint256",
          "name": "drop",
          "type": "uint256"
        },
        {
          "internalType": "uint256",
          "name": "index",
          "type": "uint256"
        },
        {
          "internalType": "bytes32[]",
          "name": "merkleProof",
          "type": "bytes32[]"
        }
      ],
      "name": "purchase",
      "outputs": [],
      "stateMutability": "payable",
      "type": "function"
    },
    {
      "inputs": [
        {
          "internalType": "uint256",
          "name": "tokenSaleId",
          "type": "uint256"
        },
        {
          "internalType": "uint256",
          "name": "drop",
          "type": "uint256"
        },
        {
          "internalType": "uint256",
          "name": "leaf",
          "type": "uint256"
        },
        {
          "internalType": "address",
          "name": "recipient",
          "type": "address"
        },
        {
          "internalType": "uint256",
          "name": "amount",
          "type": "uint256"
        },
        {
          "internalType": "uint256",
          "name": "total",
          "type": "uint256"
        },
        {
          "internalType": "bytes32[]",
          "name": "merkleProof",
          "type": "bytes32[]"
        }
      ],
      "name": "redeemToken",
      "outputs": [],
      "stateMutability": "payable",
      "type": "function"
    },
    {
      "inputs": [
        {
          "internalType": "uint256",
          "name": "tokenSaleId",
          "type": "uint256"
        },
        {
          "components": [
            {
              "internalType": "address",
              "name": "contractAddress",
              "type": "address"
            },
            {
              "internalType": "address",
              "name": "token",
              "type": "address"
            },
            {
              "internalType": "uint256",
              "name": "tokenHash",
              "type": "uint256"
            },
            {
              "internalType": "uint256",
              "name": "collectionHash",
              "type": "uint256"
            },
            {
              "internalType": "address",
              "name": "owner",
              "type": "address"
            },
            {
              "internalType": "address",
              "name": "payee",
              "type": "address"
            },
            {
              "internalType": "string",
              "name": "symbol",
              "type": "string"
            },
            {
              "internalType": "string",
              "name": "name",
              "type": "string"
            },
            {
              "internalType": "string",
              "name": "description",
              "type": "string"
            },
            {
              "internalType": "bool",
              "name": "openState",
              "type": "bool"
            },
            {
              "internalType": "uint256",
              "name": "startTime",
              "type": "uint256"
            },
            {
              "internalType": "uint256",
              "name": "endTime",
              "type": "uint256"
            },
            {
              "internalType": "uint256",
              "name": "maxQuantity",
              "type": "uint256"
            },
            {
              "internalType": "uint256",
              "name": "maxQuantityPerSale",
              "type": "uint256"
            },
            {
              "internalType": "uint256",
              "name": "minQuantityPerSale",
              "type": "uint256"
            },
            {
              "internalType": "uint256",
              "name": "maxQuantityPerAccount",
              "type": "uint256"
            },
            {
              "components": [
                {
                  "internalType": "uint256",
                  "name": "price",
                  "type": "uint256"
                },
                {
                  "internalType": "enum ITokenPrice.PriceModifier",
                  "name": "priceModifier",
                  "type": "uint8"
                },
                {
                  "internalType": "uint256",
                  "name": "priceModifierFactor",
                  "type": "uint256"
                },
                {
                  "internalType": "uint256",
                  "name": "maxPrice",
                  "type": "uint256"
                }
              ],
              "internalType": "struct ITokenPrice.TokenPriceData",
              "name": "initialPrice",
              "type": "tuple"
            },
            {
              "internalType": "enum IAirdropTokenSale.PaymentType",
              "name": "paymentType",
              "type": "uint8"
            },
            {
              "internalType": "address",
              "name": "tokenAddress",
              "type": "address"
            }
          ],
          "internalType": "struct IAirdropTokenSale.TokenSaleSettings",
          "name": "settings",
          "type": "tuple"
        }
      ],
      "name": "updateTokenSaleSettings",
      "outputs": [],
      "stateMutability": "nonpayable",
      "type": "function"
    }
  ],
  "transactionHash": "0x2b6d9d1c9e9dcf0effa145b1c2fef6980600c03850ae698f495b751efea35d7b",
  "args": [],
  "numDeployments": 4,
  "solcInputHash": "afe5007c1f3b66f010b53beae8f59210",
  "bytecode": "0x608060405234801561001057600080fd5b506124ca806100206000396000f3fe6080604052600436106100605760003560e01c8063137b4827146100655780639d763be014610098578063d7c84a2a146100b8578063da8dadef146100da578063e4c1c461146100ed578063e95ede061461010d578063fef48a511461013a575b600080fd5b34801561007157600080fd5b50610085610080366004611c2b565b61014d565b6040519081526020015b60405180910390f35b3480156100a457600080fd5b506100856100b3366004611d5c565b610421565b3480156100c457600080fd5b506100d86100d3366004611b5b565b610755565b005b6100d86100e8366004611c99565b6107e6565b3480156100f957600080fd5b506100d8610108366004611d16565b6107ff565b34801561011957600080fd5b5061012d610128366004611c67565b610ad4565b60405161008f91906122e2565b6100d8610148366004611d99565b610e4d565b60208101516000906001600160a01b03166101af5760405162461bcd60e51b815260206004820152601e60248201527f4d756c7469746f6b656e2061646472657373206d75737420626520736574000060448201526064015b60405180910390fd5b6005546040805160208101929092526001600160601b03193060601b169082015260540160408051808303601f190181529181528151602092830120600081815260078452829020855181546001600160a01b03199081166001600160a01b03928316178355878601516001840180548316918416919091179055938701516002830155606087015160038301556080870151600483018054861691831691909117905560a087015160058301805490951691161790925560c085015180519194508593610285926006850192909101906116a5565b5060e082015180516102a19160078401916020909101906116a5565b5061010082015180516102be9160088401916020909101906116a5565b5061012082015160098201805491151560ff19928316179055610140830151600a830155610160830151600b830155610180830151600c8301556101a0830151600d8301556101c0830151600e8301556101e0830151600f8301556102008301518051601084019081556020820151601185018054939492939192909116600183600381111561035057610350612457565b02179055506040820151600282015560609091015160039091015561022082015160148201805460ff19166001838181111561038e5761038e612457565b02179055506102409190910151601490910180546001600160a01b0390921661010002610100600160a81b03199092169190911790556000818152600760205260409081902080546001600160a01b031916301790555181907f6d3990d0ece16d3b43fb0736a9c9ca0f0aa77b6e4153ab8f8f18ee7dca251585906104149085906122e2565b60405180910390a2919050565b60008481526007602052604080822060010154905163263e0c1b60e01b81526001600160a01b0390911690735ddA1aCa8aF2E4751208877C15730D51Ac965eF59063263e0c1b90610476908490600401612022565b60206040518083038186803b15801561048e57600080fd5b505af41580156104a2573d6000803e3d6000fd5b505050506040513d601f19601f820116820180604052508101906104c69190611b37565b15610530576040516308934a5f60e31b81526001600160a01b0382169063449a52f8906104f99087908790600401612036565b600060405180830381600087803b15801561051357600080fd5b505af1158015610527573d6000803e3d6000fd5b5050505061074c565b6040516336a8279560e21b8152735ddA1aCa8aF2E4751208877C15730D51Ac965eF59063daa09e5490610567908490600401612022565b60206040518083038186803b15801561057f57600080fd5b505af4158015610593573d6000803e3d6000fd5b505050506040513d601f19601f820116820180604052508101906105b79190611b37565b1561063a576040516308934a5f60e31b8152309063449a52f8906105e19087908990600401612036565b602060405180830381600087803b1580156105fb57600080fd5b505af115801561060f573d6000803e3d6000fd5b505050506040513d601f19601f820116820180604052508101906106339190611c80565b915061074c565b604051631417230560e11b8152735ddA1aCa8aF2E4751208877C15730D51Ac965eF59063282e460a90610671908490600401612022565b60206040518083038186803b15801561068957600080fd5b505af415801561069d573d6000803e3d6000fd5b505050506040513d601f19601f820116820180604052508101906106c19190611b37565b1561070e57604051630501e9c560e31b81526001600160a01b038516600482015260248101869052604481018490526080606482015260006084820152309063280f4e289060a4016105e1565b60405162461bcd60e51b8152602060048201526013602482015272151bdad95b881b9bdd081cdd5c1c1bdc9d1959606a1b60448201526064016101a6565b50949350505050565b3361075e610e5d565b6001600160a01b0316148061077257503033145b61078e5760405162461bcd60e51b81526004016101a6906121a5565b604051636bade82d60e11b8152309063d75bd05a906107b1908490600401612228565b600060405180830381600087803b1580156107cb57600080fd5b505af11580156107df573d6000803e3d6000fd5b5050505050565b6107f68787878787878734610e8b565b50505050505050565b33610808610e5d565b6001600160a01b0316148061081c57503033145b6108385760405162461bcd60e51b81526004016101a6906121a5565b6000828152600760205260409020600401546001600160a01b031633146108bb5760405162461bcd60e51b815260206004820152603160248201527f4f6e6c7920746865206f776e65722063616e207570646174652074686520746f6044820152706b656e2073616c652073657474696e677360781b60648201526084016101a6565b600082815260076020908152604091829020835181546001600160a01b03199081166001600160a01b03928316178355858401516001840180548316918416919091179055938501516002830155606085015160038301556080850151600483018054861691831691909117905560a085015160058301805490951691161790925560c083015180518493926109589260068501929101906116a5565b5060e082015180516109749160078401916020909101906116a5565b5061010082015180516109919160088401916020909101906116a5565b5061012082015160098201805491151560ff19928316179055610140830151600a830155610160830151600b830155610180830151600c8301556101a0830151600d8301556101c0830151600e8301556101e0830151600f83015561020083015180516010840190815560208201516011850180549394929391929091166001836003811115610a2357610a23612457565b02179055506040820151600282015560609091015160039091015561022082015160148201805460ff191660018381811115610a6157610a61612457565b02179055506102408201518160140160016101000a8154816001600160a01b0302191690836001600160a01b031602179055509050507f2ffd32606a2fb084c62deeb9690a02611ed6f9b4d945ed10ee0eb7b712be8df18282604051610ac89291906122f5565b60405180910390a15050565b610adc611729565b604080516102608101825260008481526007602081815284832080546001600160a01b039081168652600182015481168387015260028201549686019690965260038101546060860152600481015486166080860152600581015490951660a08501529186905290526006909101805460c083019190610b5b90612406565b80601f0160208091040260200160405190810160405280929190818152602001828054610b8790612406565b8015610bd45780601f10610ba957610100808354040283529160200191610bd4565b820191906000526020600020905b815481529060010190602001808311610bb757829003601f168201915b50505091835250506000848152600760208181526040909220018054919092019190610bff90612406565b80601f0160208091040260200160405190810160405280929190818152602001828054610c2b90612406565b8015610c785780601f10610c4d57610100808354040283529160200191610c78565b820191906000526020600020905b815481529060010190602001808311610c5b57829003601f168201915b50505050508152602001600060050160020160008581526020019081526020016000206008018054610ca990612406565b80601f0160208091040260200160405190810160405280929190818152602001828054610cd590612406565b8015610d225780601f10610cf757610100808354040283529160200191610d22565b820191906000526020600020905b815481529060010190602001808311610d0557829003601f168201915b50505091835250506000848152600760208181526040808420600981015460ff908116151584880152600a82015483880152600b8201546060880152600c820154608080890191909152600d83015460a0890152600e83015460c0890152600f83015460e0890152958a90529383528151948501909152601081018054855260119091015461010090950194909291840191166003811115610dc657610dc6612457565b6003811115610dd757610dd7612457565b81526002820154602080830191909152600390920154604091820152918352600086815260078252919091206014015491019060ff166001811115610e1e57610e1e612457565b815260009384526007602090815260409094206014015461010090046001600160a01b03169301929092525090565b6107f6878585858a8a8734610e8b565b7fc8fcad8db84d3cc18b4c41d551ea0ee66dd599cde068d998e57d5e09332c1320546001600160a01b031690565b83156111f457600084815260208190526040902060018101548514610ec25760405162461bcd60e51b81526004016101a690612071565b60405163434705f160e11b8152600481018690526001600160a01b0389166024820152309063868e0be29060440160206040518083038186803b158015610f0857600080fd5b505afa158015610f1c573d6000803e3d6000fd5b505050506040513d601f19601f82011682018060405250810190610f409190611b37565b15610f885760405162461bcd60e51b8152602060048201526018602482015277105a5c991c9bdc08185b1c9958591e481c995919595b595960421b60448201526064016101a6565b60038101541580610fba5750600381015415801590610fba57508060030154878260070154610fb791906123cf565b11155b610fd65760405162461bcd60e51b81526004016101a69061209f565b6000600f82015460ff166001811115610ff157610ff1612457565b141561105357600a81015482906110099089906123e7565b11156110535760405162461bcd60e51b8152602060048201526019602482015278139bdd08195b9bdd59da081c1c9a58d948185d1d1858da1959603a1b60448201526064016101a6565b600581015415806110765750600581015415801590611076575080600501548710155b6110925760405162461bcd60e51b81526004016101a69061212e565b600481015415806110b557506004810154158015906110b5575080600401548711155b6110d15760405162461bcd60e51b81526004016101a6906120ec565b8060080154421015806110e657506008810154155b6111025760405162461bcd60e51b81526004016101a69061216f565b80600901544211158061111757506009810154155b6111335760405162461bcd60e51b81526004016101a6906121fc565b805460ff161561119d5760405163378e98bb60e01b8152309063378e98bb9061116a90889088908d908d908d908b9060040161230e565b600060405180830381600087803b15801561118457600080fd5b505af1158015611198573d6000803e3d6000fd5b505050505b6111a989868a8a6113e1565b50876001600160a01b0316857fcab378d19b1950615aa3acf93c1d36654ad5200ab340d952bde8072bfec95d19858a6040516111e692919061204f565b60405180910390a3506113d7565b600088815260076020526040812090601482015460ff16600181111561121c5761121c612457565b141561128057601081015482906112349089906123e7565b11156112805760405162461bcd60e51b815260206004820152601b60248201527a139bdd08195b9bdd59da081c185e5b595b9d08185d1d1858da1959602a1b60448201526064016101a6565b600c81015415806112cc5750600c810154158015906112cc5750600c81015460008052600a6020527f13da86008ba1c6922daee3e07db95305ef49ebced9f5467a0b8613fcc6b343e354105b6112e85760405162461bcd60e51b81526004016101a69061209f565b600e810154158061130b5750600e8101541580159061130b575080600e01548710155b6113275760405162461bcd60e51b81526004016101a69061212e565b600d810154158061134a5750600d8101541580159061134a575080600d01548711155b6113665760405162461bcd60e51b81526004016101a6906120ec565b80600a01544210158061137b5750600a810154155b6113975760405162461bcd60e51b81526004016101a69061216f565b80600b0154421115806113ac5750600b810154155b6113c85760405162461bcd60e51b81526004016101a6906121fc565b6113d489868a8a6113e1565b50505b5050505050505050565b600060016000858152602081905260409020600f015460ff16600181111561140b5761140b612457565b14801561143657506000848152602081905260409020600f015461010090046001600160a01b031615155b156114fd576000848152602081905260408120600f810154600a909101546101009091046001600160a01b031691906114709085906123e7565b6040516323b872dd60e01b8152336004820152306024820152604481018290529091506001600160a01b038316906323b872dd90606401602060405180830381600087803b1580156114c157600080fd5b505af11580156114d5573d6000803e3d6000fd5b505050506040513d601f19601f820116820180604052508101906114f99190611b37565b5050505b6000841561154d5760008581526020819052604090206001015485146115355760405162461bcd60e51b81526004016101a690612071565b506000848152602081905260409020600e0154611561565b506000858152600760205260409020600201545b6040516304ebb1df60e51b815260048101879052602481018290526001600160a01b0385166044820152600160648201523090639d763be090608401602060405180830381600087803b1580156115b757600080fd5b505af11580156115cb573d6000803e3d6000fd5b505050506040513d601f19601f820116820180604052508101906115ef9190611c80565b6000868152600a6020526040812080549293506001929091906116139084906123cf565b909155505060008581526009602090815260408083206001600160a01b0388168452909152812080546001929061164b9084906123cf565b9091555050604080518781526020810183905260018183015290516001600160a01b038616917f9724b007b03edd022b805a7acc9bbc33ce21a84b5c9e360a5f71b367b97db86d919081900360600190a295945050505050565b8280546116b190612406565b90600052602060002090601f0160209004810192826116d35760008555611719565b82601f106116ec57805160ff1916838001178555611719565b82800160010185558215611719579182015b828111156117195782518255916020019190600101906116fe565b5061172592915061180b565b5090565b60405180610260016040528060006001600160a01b0316815260200160006001600160a01b03168152602001600081526020016000815260200160006001600160a01b0316815260200160006001600160a01b031681526020016060815260200160608152602001606081526020016000151581526020016000815260200160008152602001600081526020016000815260200160008152602001600081526020016117f7604080516080810190915260008082526020820190815260200160008152602001600081525090565b815260200160008152600060209091015290565b5b80821115611725576000815560010161180c565b80356001600160a01b038116811461183757600080fd5b919050565b600082601f83011261184d57600080fd5b813560206001600160401b038211156118685761186861246d565b8160051b61187782820161239f565b83815282810190868401838801850189101561189257600080fd5b600093505b858410156118b5578035835260019390930192918401918401611897565b50979650505050505050565b803561183781612483565b80356002811061183757600080fd5b600082601f8301126118ec57600080fd5b81356001600160401b038111156119055761190561246d565b611918601f8201601f191660200161239f565b81815284602083860101111561192d57600080fd5b816020850160208301376000918101602001919091529392505050565b60006080828403121561195c57600080fd5b604051608081016001600160401b038111828210171561197e5761197e61246d565b6040528235815290508060208301356004811061199a57600080fd5b8060208301525060408301356040820152606083013560608201525092915050565b60006102c082840312156119cf57600080fd5b6119d7612353565b90506119e282611820565b81526119f060208301611820565b60208201526040820135604082015260608201356060820152611a1560808301611820565b6080820152611a2660a08301611820565b60a082015260c08201356001600160401b0380821115611a4557600080fd5b611a51858386016118db565b60c084015260e0840135915080821115611a6a57600080fd5b611a76858386016118db565b60e084015261010091508184013581811115611a9157600080fd5b611a9d868287016118db565b83850152505050610120611ab28184016118c1565b908201526101408281013590820152610160808301359082015261018080830135908201526101a080830135908201526101c080830135908201526101e08083013590820152610200611b078482850161194a565b90820152611b1861028083016118cc565b610220820152611b2b6102a08301611820565b61024082015292915050565b600060208284031215611b4957600080fd5b8151611b5481612483565b9392505050565b60006102208284031215611b6e57600080fd5b611b7661237c565b611b7f836118c1565b81526020830135602082015260408301356040820152606083013560608201526080830135608082015260a083013560a082015260c083013560c082015260e083013560e0820152610100808401358183015250610120808401358183015250610140611bee8582860161194a565b908201526101c0830135610160820152611c0b6101e084016118cc565b610180820152611c1e6102008401611820565b6101a08201529392505050565b600060208284031215611c3d57600080fd5b81356001600160401b03811115611c5357600080fd5b611c5f848285016119bc565b949350505050565b600060208284031215611c7957600080fd5b5035919050565b600060208284031215611c9257600080fd5b5051919050565b600080600080600080600060e0888a031215611cb457600080fd5b87359650611cc460208901611820565b955060408801359450606088013593506080880135925060a0880135915060c08801356001600160401b03811115611cfb57600080fd5b611d078a828b0161183c565b91505092959891949750929550565b60008060408385031215611d2957600080fd5b8235915060208301356001600160401b03811115611d4657600080fd5b611d52858286016119bc565b9150509250929050565b60008060008060808587031215611d7257600080fd5b8435935060208501359250611d8960408601611820565b9396929550929360600135925050565b600080600080600080600060e0888a031215611db457600080fd5b873596506020880135955060408801359450611dd260608901611820565b93506080880135925060a0880135915060c08801356001600160401b03811115611cfb57600080fd5b6001600160a01b03169052565b600081518084526020808501945080840160005b83811015611e3857815187529582019590820190600101611e1c565b509495945050505050565b60028110611e5357611e53612457565b9052565b6000815180845260005b81811015611e7d57602081850181015186830182015201611e61565b81811115611e8f576000602083870101525b50601f01601f19169290920160200192915050565b80518252602081015160048110611ebd57611ebd612457565b602083015260408181015190830152606090810151910152565b60006102c0611ee7848451611dfb565b6020830151611ef96020860182611dfb565b5060408301516040850152606083015160608501526080830151611f206080860182611dfb565b5060a0830151611f3360a0860182611dfb565b5060c08301518160c0860152611f4b82860182611e57565b91505060e083015184820360e0860152611f658282611e57565b9150506101008084015185830382870152611f808382611e57565b9250505061012080840151611f988287018215159052565b50506101408381015190850152610160808401519085015261018080840151908501526101a080840151908501526101c080840151908501526101e0808401519085015261020080840151611fef82870182611ea4565b5050610220830151612005610280860182611e43565b5061024083015161201a6102a0860182611dfb565b509392505050565b6001600160a01b0391909116815260200190565b6001600160a01b03929092168252602082015260400190565b6040815260006120626040830185611e08565b90508260208301529392505050565b602080825260149082015273105a5c991c9bdc08191bd95cdb9d08195e1a5cdd60621b604082015260600190565b6020808252602d908201527f546865206d6178696d756d20616d6f756e74206f6620746f6b656e732068617360408201526c103132b2b7103137bab3b43a1760991b606082015260800190565b60208082526022908201527f4d6178696d756d207175616e74697479207065722073616c6520657863656564604082015261195960f21b606082015260800190565b60208082526021908201527f4d696e696d756d207175616e74697479207065722073616c65206e6f74206d656040820152601d60fa1b606082015260800190565b6020808252601c908201527b151a19481cd85b19481a185cc81b9bdd081cdd185c9d1959081e595d60221b604082015260600190565b60208082526037908201527f455243313135353a206f6e6c792074686520636f6e7472616374206f776e65726040820152761031b0b71031b0b636103a3434b990333ab731ba34b7b760491b606082015260800190565b602080825260129082015271151a19481cd85b19481a185cc8195b99195960721b604082015260600190565b81511515815261022081016020830151602083015260408301516040830152606083015160608301526080830151608083015260a083015160a083015260c083015160c083015260e083015160e0830152610100808401518184015250610120808401518184015250610140808401516122a482850182611ea4565b50506101608301516101c08301526101808301516122c66101e0840182611e43565b506101a08301516122db610200840182611dfb565b5092915050565b602081526000611b546020830184611ed7565b828152604060208201526000611c5f6040830184611ed7565b86815285602082015260018060a01b038516604082015283606082015282608082015260c060a0820152600061234760c0830184611e08565b98975050505050505050565b60405161026081016001600160401b03811182821017156123765761237661246d565b60405290565b6040516101c081016001600160401b03811182821017156123765761237661246d565b604051601f8201601f191681016001600160401b03811182821017156123c7576123c761246d565b604052919050565b600082198211156123e2576123e2612441565b500190565b600081600019048311821515161561240157612401612441565b500290565b600181811c9082168061241a57607f821691505b6020821081141561243b57634e487b7160e01b600052602260045260246000fd5b50919050565b634e487b7160e01b600052601160045260246000fd5b634e487b7160e01b600052602160045260246000fd5b634e487b7160e01b600052604160045260246000fd5b801515811461249157600080fd5b5056fea264697066735822122004261521f022346236790a6d03be04e79c75f326ed1508cf016b010e7bbcb5bf64736f6c63430008060033",
  "deployedBytecode": "0x6080604052600436106100605760003560e01c8063137b4827146100655780639d763be014610098578063d7c84a2a146100b8578063da8dadef146100da578063e4c1c461146100ed578063e95ede061461010d578063fef48a511461013a575b600080fd5b34801561007157600080fd5b50610085610080366004611c2b565b61014d565b6040519081526020015b60405180910390f35b3480156100a457600080fd5b506100856100b3366004611d5c565b610421565b3480156100c457600080fd5b506100d86100d3366004611b5b565b610755565b005b6100d86100e8366004611c99565b6107e6565b3480156100f957600080fd5b506100d8610108366004611d16565b6107ff565b34801561011957600080fd5b5061012d610128366004611c67565b610ad4565b60405161008f91906122e2565b6100d8610148366004611d99565b610e4d565b60208101516000906001600160a01b03166101af5760405162461bcd60e51b815260206004820152601e60248201527f4d756c7469746f6b656e2061646472657373206d75737420626520736574000060448201526064015b60405180910390fd5b6005546040805160208101929092526001600160601b03193060601b169082015260540160408051808303601f190181529181528151602092830120600081815260078452829020855181546001600160a01b03199081166001600160a01b03928316178355878601516001840180548316918416919091179055938701516002830155606087015160038301556080870151600483018054861691831691909117905560a087015160058301805490951691161790925560c085015180519194508593610285926006850192909101906116a5565b5060e082015180516102a19160078401916020909101906116a5565b5061010082015180516102be9160088401916020909101906116a5565b5061012082015160098201805491151560ff19928316179055610140830151600a830155610160830151600b830155610180830151600c8301556101a0830151600d8301556101c0830151600e8301556101e0830151600f8301556102008301518051601084019081556020820151601185018054939492939192909116600183600381111561035057610350612457565b02179055506040820151600282015560609091015160039091015561022082015160148201805460ff19166001838181111561038e5761038e612457565b02179055506102409190910151601490910180546001600160a01b0390921661010002610100600160a81b03199092169190911790556000818152600760205260409081902080546001600160a01b031916301790555181907f6d3990d0ece16d3b43fb0736a9c9ca0f0aa77b6e4153ab8f8f18ee7dca251585906104149085906122e2565b60405180910390a2919050565b60008481526007602052604080822060010154905163263e0c1b60e01b81526001600160a01b039091169073__$37c7ec0c0732e24e320253a62eeabf3f4f$__9063263e0c1b90610476908490600401612022565b60206040518083038186803b15801561048e57600080fd5b505af41580156104a2573d6000803e3d6000fd5b505050506040513d601f19601f820116820180604052508101906104c69190611b37565b15610530576040516308934a5f60e31b81526001600160a01b0382169063449a52f8906104f99087908790600401612036565b600060405180830381600087803b15801561051357600080fd5b505af1158015610527573d6000803e3d6000fd5b5050505061074c565b6040516336a8279560e21b815273__$37c7ec0c0732e24e320253a62eeabf3f4f$__9063daa09e5490610567908490600401612022565b60206040518083038186803b15801561057f57600080fd5b505af4158015610593573d6000803e3d6000fd5b505050506040513d601f19601f820116820180604052508101906105b79190611b37565b1561063a576040516308934a5f60e31b8152309063449a52f8906105e19087908990600401612036565b602060405180830381600087803b1580156105fb57600080fd5b505af115801561060f573d6000803e3d6000fd5b505050506040513d601f19601f820116820180604052508101906106339190611c80565b915061074c565b604051631417230560e11b815273__$37c7ec0c0732e24e320253a62eeabf3f4f$__9063282e460a90610671908490600401612022565b60206040518083038186803b15801561068957600080fd5b505af415801561069d573d6000803e3d6000fd5b505050506040513d601f19601f820116820180604052508101906106c19190611b37565b1561070e57604051630501e9c560e31b81526001600160a01b038516600482015260248101869052604481018490526080606482015260006084820152309063280f4e289060a4016105e1565b60405162461bcd60e51b8152602060048201526013602482015272151bdad95b881b9bdd081cdd5c1c1bdc9d1959606a1b60448201526064016101a6565b50949350505050565b3361075e610e5d565b6001600160a01b0316148061077257503033145b61078e5760405162461bcd60e51b81526004016101a6906121a5565b604051636bade82d60e11b8152309063d75bd05a906107b1908490600401612228565b600060405180830381600087803b1580156107cb57600080fd5b505af11580156107df573d6000803e3d6000fd5b5050505050565b6107f68787878787878734610e8b565b50505050505050565b33610808610e5d565b6001600160a01b0316148061081c57503033145b6108385760405162461bcd60e51b81526004016101a6906121a5565b6000828152600760205260409020600401546001600160a01b031633146108bb5760405162461bcd60e51b815260206004820152603160248201527f4f6e6c7920746865206f776e65722063616e207570646174652074686520746f6044820152706b656e2073616c652073657474696e677360781b60648201526084016101a6565b600082815260076020908152604091829020835181546001600160a01b03199081166001600160a01b03928316178355858401516001840180548316918416919091179055938501516002830155606085015160038301556080850151600483018054861691831691909117905560a085015160058301805490951691161790925560c083015180518493926109589260068501929101906116a5565b5060e082015180516109749160078401916020909101906116a5565b5061010082015180516109919160088401916020909101906116a5565b5061012082015160098201805491151560ff19928316179055610140830151600a830155610160830151600b830155610180830151600c8301556101a0830151600d8301556101c0830151600e8301556101e0830151600f83015561020083015180516010840190815560208201516011850180549394929391929091166001836003811115610a2357610a23612457565b02179055506040820151600282015560609091015160039091015561022082015160148201805460ff191660018381811115610a6157610a61612457565b02179055506102408201518160140160016101000a8154816001600160a01b0302191690836001600160a01b031602179055509050507f2ffd32606a2fb084c62deeb9690a02611ed6f9b4d945ed10ee0eb7b712be8df18282604051610ac89291906122f5565b60405180910390a15050565b610adc611729565b604080516102608101825260008481526007602081815284832080546001600160a01b039081168652600182015481168387015260028201549686019690965260038101546060860152600481015486166080860152600581015490951660a08501529186905290526006909101805460c083019190610b5b90612406565b80601f0160208091040260200160405190810160405280929190818152602001828054610b8790612406565b8015610bd45780601f10610ba957610100808354040283529160200191610bd4565b820191906000526020600020905b815481529060010190602001808311610bb757829003601f168201915b50505091835250506000848152600760208181526040909220018054919092019190610bff90612406565b80601f0160208091040260200160405190810160405280929190818152602001828054610c2b90612406565b8015610c785780601f10610c4d57610100808354040283529160200191610c78565b820191906000526020600020905b815481529060010190602001808311610c5b57829003601f168201915b50505050508152602001600060050160020160008581526020019081526020016000206008018054610ca990612406565b80601f0160208091040260200160405190810160405280929190818152602001828054610cd590612406565b8015610d225780601f10610cf757610100808354040283529160200191610d22565b820191906000526020600020905b815481529060010190602001808311610d0557829003601f168201915b50505091835250506000848152600760208181526040808420600981015460ff908116151584880152600a82015483880152600b8201546060880152600c820154608080890191909152600d83015460a0890152600e83015460c0890152600f83015460e0890152958a90529383528151948501909152601081018054855260119091015461010090950194909291840191166003811115610dc657610dc6612457565b6003811115610dd757610dd7612457565b81526002820154602080830191909152600390920154604091820152918352600086815260078252919091206014015491019060ff166001811115610e1e57610e1e612457565b815260009384526007602090815260409094206014015461010090046001600160a01b03169301929092525090565b6107f6878585858a8a8734610e8b565b7fc8fcad8db84d3cc18b4c41d551ea0ee66dd599cde068d998e57d5e09332c1320546001600160a01b031690565b83156111f457600084815260208190526040902060018101548514610ec25760405162461bcd60e51b81526004016101a690612071565b60405163434705f160e11b8152600481018690526001600160a01b0389166024820152309063868e0be29060440160206040518083038186803b158015610f0857600080fd5b505afa158015610f1c573d6000803e3d6000fd5b505050506040513d601f19601f82011682018060405250810190610f409190611b37565b15610f885760405162461bcd60e51b8152602060048201526018602482015277105a5c991c9bdc08185b1c9958591e481c995919595b595960421b60448201526064016101a6565b60038101541580610fba5750600381015415801590610fba57508060030154878260070154610fb791906123cf565b11155b610fd65760405162461bcd60e51b81526004016101a69061209f565b6000600f82015460ff166001811115610ff157610ff1612457565b141561105357600a81015482906110099089906123e7565b11156110535760405162461bcd60e51b8152602060048201526019602482015278139bdd08195b9bdd59da081c1c9a58d948185d1d1858da1959603a1b60448201526064016101a6565b600581015415806110765750600581015415801590611076575080600501548710155b6110925760405162461bcd60e51b81526004016101a69061212e565b600481015415806110b557506004810154158015906110b5575080600401548711155b6110d15760405162461bcd60e51b81526004016101a6906120ec565b8060080154421015806110e657506008810154155b6111025760405162461bcd60e51b81526004016101a69061216f565b80600901544211158061111757506009810154155b6111335760405162461bcd60e51b81526004016101a6906121fc565b805460ff161561119d5760405163378e98bb60e01b8152309063378e98bb9061116a90889088908d908d908d908b9060040161230e565b600060405180830381600087803b15801561118457600080fd5b505af1158015611198573d6000803e3d6000fd5b505050505b6111a989868a8a6113e1565b50876001600160a01b0316857fcab378d19b1950615aa3acf93c1d36654ad5200ab340d952bde8072bfec95d19858a6040516111e692919061204f565b60405180910390a3506113d7565b600088815260076020526040812090601482015460ff16600181111561121c5761121c612457565b141561128057601081015482906112349089906123e7565b11156112805760405162461bcd60e51b815260206004820152601b60248201527a139bdd08195b9bdd59da081c185e5b595b9d08185d1d1858da1959602a1b60448201526064016101a6565b600c81015415806112cc5750600c810154158015906112cc5750600c81015460008052600a6020527f13da86008ba1c6922daee3e07db95305ef49ebced9f5467a0b8613fcc6b343e354105b6112e85760405162461bcd60e51b81526004016101a69061209f565b600e810154158061130b5750600e8101541580159061130b575080600e01548710155b6113275760405162461bcd60e51b81526004016101a69061212e565b600d810154158061134a5750600d8101541580159061134a575080600d01548711155b6113665760405162461bcd60e51b81526004016101a6906120ec565b80600a01544210158061137b5750600a810154155b6113975760405162461bcd60e51b81526004016101a69061216f565b80600b0154421115806113ac5750600b810154155b6113c85760405162461bcd60e51b81526004016101a6906121fc565b6113d489868a8a6113e1565b50505b5050505050505050565b600060016000858152602081905260409020600f015460ff16600181111561140b5761140b612457565b14801561143657506000848152602081905260409020600f015461010090046001600160a01b031615155b156114fd576000848152602081905260408120600f810154600a909101546101009091046001600160a01b031691906114709085906123e7565b6040516323b872dd60e01b8152336004820152306024820152604481018290529091506001600160a01b038316906323b872dd90606401602060405180830381600087803b1580156114c157600080fd5b505af11580156114d5573d6000803e3d6000fd5b505050506040513d601f19601f820116820180604052508101906114f99190611b37565b5050505b6000841561154d5760008581526020819052604090206001015485146115355760405162461bcd60e51b81526004016101a690612071565b506000848152602081905260409020600e0154611561565b506000858152600760205260409020600201545b6040516304ebb1df60e51b815260048101879052602481018290526001600160a01b0385166044820152600160648201523090639d763be090608401602060405180830381600087803b1580156115b757600080fd5b505af11580156115cb573d6000803e3d6000fd5b505050506040513d601f19601f820116820180604052508101906115ef9190611c80565b6000868152600a6020526040812080549293506001929091906116139084906123cf565b909155505060008581526009602090815260408083206001600160a01b0388168452909152812080546001929061164b9084906123cf565b9091555050604080518781526020810183905260018183015290516001600160a01b038616917f9724b007b03edd022b805a7acc9bbc33ce21a84b5c9e360a5f71b367b97db86d919081900360600190a295945050505050565b8280546116b190612406565b90600052602060002090601f0160209004810192826116d35760008555611719565b82601f106116ec57805160ff1916838001178555611719565b82800160010185558215611719579182015b828111156117195782518255916020019190600101906116fe565b5061172592915061180b565b5090565b60405180610260016040528060006001600160a01b0316815260200160006001600160a01b03168152602001600081526020016000815260200160006001600160a01b0316815260200160006001600160a01b031681526020016060815260200160608152602001606081526020016000151581526020016000815260200160008152602001600081526020016000815260200160008152602001600081526020016117f7604080516080810190915260008082526020820190815260200160008152602001600081525090565b815260200160008152600060209091015290565b5b80821115611725576000815560010161180c565b80356001600160a01b038116811461183757600080fd5b919050565b600082601f83011261184d57600080fd5b813560206001600160401b038211156118685761186861246d565b8160051b61187782820161239f565b83815282810190868401838801850189101561189257600080fd5b600093505b858410156118b5578035835260019390930192918401918401611897565b50979650505050505050565b803561183781612483565b80356002811061183757600080fd5b600082601f8301126118ec57600080fd5b81356001600160401b038111156119055761190561246d565b611918601f8201601f191660200161239f565b81815284602083860101111561192d57600080fd5b816020850160208301376000918101602001919091529392505050565b60006080828403121561195c57600080fd5b604051608081016001600160401b038111828210171561197e5761197e61246d565b6040528235815290508060208301356004811061199a57600080fd5b8060208301525060408301356040820152606083013560608201525092915050565b60006102c082840312156119cf57600080fd5b6119d7612353565b90506119e282611820565b81526119f060208301611820565b60208201526040820135604082015260608201356060820152611a1560808301611820565b6080820152611a2660a08301611820565b60a082015260c08201356001600160401b0380821115611a4557600080fd5b611a51858386016118db565b60c084015260e0840135915080821115611a6a57600080fd5b611a76858386016118db565b60e084015261010091508184013581811115611a9157600080fd5b611a9d868287016118db565b83850152505050610120611ab28184016118c1565b908201526101408281013590820152610160808301359082015261018080830135908201526101a080830135908201526101c080830135908201526101e08083013590820152610200611b078482850161194a565b90820152611b1861028083016118cc565b610220820152611b2b6102a08301611820565b61024082015292915050565b600060208284031215611b4957600080fd5b8151611b5481612483565b9392505050565b60006102208284031215611b6e57600080fd5b611b7661237c565b611b7f836118c1565b81526020830135602082015260408301356040820152606083013560608201526080830135608082015260a083013560a082015260c083013560c082015260e083013560e0820152610100808401358183015250610120808401358183015250610140611bee8582860161194a565b908201526101c0830135610160820152611c0b6101e084016118cc565b610180820152611c1e6102008401611820565b6101a08201529392505050565b600060208284031215611c3d57600080fd5b81356001600160401b03811115611c5357600080fd5b611c5f848285016119bc565b949350505050565b600060208284031215611c7957600080fd5b5035919050565b600060208284031215611c9257600080fd5b5051919050565b600080600080600080600060e0888a031215611cb457600080fd5b87359650611cc460208901611820565b955060408801359450606088013593506080880135925060a0880135915060c08801356001600160401b03811115611cfb57600080fd5b611d078a828b0161183c565b91505092959891949750929550565b60008060408385031215611d2957600080fd5b8235915060208301356001600160401b03811115611d4657600080fd5b611d52858286016119bc565b9150509250929050565b60008060008060808587031215611d7257600080fd5b8435935060208501359250611d8960408601611820565b9396929550929360600135925050565b600080600080600080600060e0888a031215611db457600080fd5b873596506020880135955060408801359450611dd260608901611820565b93506080880135925060a0880135915060c08801356001600160401b03811115611cfb57600080fd5b6001600160a01b03169052565b600081518084526020808501945080840160005b83811015611e3857815187529582019590820190600101611e1c565b509495945050505050565b60028110611e5357611e53612457565b9052565b6000815180845260005b81811015611e7d57602081850181015186830182015201611e61565b81811115611e8f576000602083870101525b50601f01601f19169290920160200192915050565b80518252602081015160048110611ebd57611ebd612457565b602083015260408181015190830152606090810151910152565b60006102c0611ee7848451611dfb565b6020830151611ef96020860182611dfb565b5060408301516040850152606083015160608501526080830151611f206080860182611dfb565b5060a0830151611f3360a0860182611dfb565b5060c08301518160c0860152611f4b82860182611e57565b91505060e083015184820360e0860152611f658282611e57565b9150506101008084015185830382870152611f808382611e57565b9250505061012080840151611f988287018215159052565b50506101408381015190850152610160808401519085015261018080840151908501526101a080840151908501526101c080840151908501526101e0808401519085015261020080840151611fef82870182611ea4565b5050610220830151612005610280860182611e43565b5061024083015161201a6102a0860182611dfb565b509392505050565b6001600160a01b0391909116815260200190565b6001600160a01b03929092168252602082015260400190565b6040815260006120626040830185611e08565b90508260208301529392505050565b602080825260149082015273105a5c991c9bdc08191bd95cdb9d08195e1a5cdd60621b604082015260600190565b6020808252602d908201527f546865206d6178696d756d20616d6f756e74206f6620746f6b656e732068617360408201526c103132b2b7103137bab3b43a1760991b606082015260800190565b60208082526022908201527f4d6178696d756d207175616e74697479207065722073616c6520657863656564604082015261195960f21b606082015260800190565b60208082526021908201527f4d696e696d756d207175616e74697479207065722073616c65206e6f74206d656040820152601d60fa1b606082015260800190565b6020808252601c908201527b151a19481cd85b19481a185cc81b9bdd081cdd185c9d1959081e595d60221b604082015260600190565b60208082526037908201527f455243313135353a206f6e6c792074686520636f6e7472616374206f776e65726040820152761031b0b71031b0b636103a3434b990333ab731ba34b7b760491b606082015260800190565b602080825260129082015271151a19481cd85b19481a185cc8195b99195960721b604082015260600190565b81511515815261022081016020830151602083015260408301516040830152606083015160608301526080830151608083015260a083015160a083015260c083015160c083015260e083015160e0830152610100808401518184015250610120808401518184015250610140808401516122a482850182611ea4565b50506101608301516101c08301526101808301516122c66101e0840182611e43565b506101a08301516122db610200840182611dfb565b5092915050565b602081526000611b546020830184611ed7565b828152604060208201526000611c5f6040830184611ed7565b86815285602082015260018060a01b038516604082015283606082015282608082015260c060a0820152600061234760c0830184611e08565b98975050505050505050565b60405161026081016001600160401b03811182821017156123765761237661246d565b60405290565b6040516101c081016001600160401b03811182821017156123765761237661246d565b604051601f8201601f191681016001600160401b03811182821017156123c7576123c761246d565b604052919050565b600082198211156123e2576123e2612441565b500190565b600081600019048311821515161561240157612401612441565b500290565b600181811c9082168061241a57607f821691505b6020821081141561243b57634e487b7160e01b600052602260045260246000fd5b50919050565b634e487b7160e01b600052601160045260246000fd5b634e487b7160e01b600052602160045260246000fd5b634e487b7160e01b600052604160045260246000fd5b801515811461249157600080fd5b5056fea264697066735822122004261521f022346236790a6d03be04e79c75f326ed1508cf016b010e7bbcb5bf64736f6c63430008060033",
  "libraries": {
    "AddressSet": "0xf88EB844922B1ab0e153cF9E9bEefecc9512DE06",
    "UInt256Set": "0xCc995d7a8c7c499128cB34Ef0dA290F5f4f4EE71",
    "LibAppStorage": "0x6cfa6c2c41453855A7547426cDF22fE5690439cD",
    "LibDiamond": "0xd77fa05d7Fba908919b3A4b9E41Cc62A1A7F728D",
    "MerkleProof": "0xe2f6D7E396B31d50dc5d11aD23c17859aDc95bB3",
    "InterfaceChecker": "0x5ddA1aCa8aF2E4751208877C15730D51Ac965eF5"
  },
  "devdoc": {
    "kind": "dev",
    "methods": {
      "createTokenSale((address,address,uint256,uint256,address,address,string,string,string,bool,uint256,uint256,uint256,uint256,uint256,uint256,(uint256,uint8,uint256,uint256),uint8,address))": {
        "params": {
          "tokenSaleInit": "struct with tokensale data"
        }
      },
      "newAirdrop((bool,uint256,bytes32,uint256,uint256,uint256,uint256,uint256,uint256,uint256,(uint256,uint8,uint256,uint256),uint256,uint8,address))": {
        "params": {
          "_airdrop": "the id of the airdrop"
        }
      },
      "redeemToken(uint256,uint256,uint256,address,uint256,uint256,bytes32[])": {
        "params": {
          "amount": "- the seed",
          "drop": "- the address of the account receiving the item",
          "leaf": "- the seed",
          "merkleProof": "- the seed",
          "recipient": "- the seed"
        }
      },
      "updateTokenSaleSettings(uint256,(address,address,uint256,uint256,address,address,string,string,string,bool,uint256,uint256,uint256,uint256,uint256,uint256,(uint256,uint8,uint256,uint256),uint8,address))": {
        "params": {
          "settings": "- the token sake settings"
        }
      }
    },
    "version": 1
  },
  "userdoc": {
    "events": {
      "TokenPurchased(uint256,address,uint256,uint256)": {
        "notice": "emitted when a token is opened"
      },
      "TokenSaleClosed(uint256,(address,address,uint256,uint256,address,address,string,string,string,bool,uint256,uint256,uint256,uint256,uint256,uint256,(uint256,uint8,uint256,uint256),uint8,address))": {
        "notice": "emitted when a token is opened"
      },
      "TokenSaleOpen(uint256,(address,address,uint256,uint256,address,address,string,string,string,bool,uint256,uint256,uint256,uint256,uint256,uint256,(uint256,uint8,uint256,uint256),uint8,address))": {
        "notice": "emitted when a token is opened"
      }
    },
    "kind": "user",
    "methods": {
      "createTokenSale((address,address,uint256,uint256,address,address,string,string,string,bool,uint256,uint256,uint256,uint256,uint256,uint256,(uint256,uint8,uint256,uint256),uint8,address))": {
        "notice": "intialize the contract. should be called by overriding contract"
      },
      "getTokenSaleSettings(uint256)": {
        "notice": "Get the token sale settings"
      },
      "newAirdrop((bool,uint256,bytes32,uint256,uint256,uint256,uint256,uint256,uint256,uint256,(uint256,uint8,uint256,uint256),uint256,uint8,address))": {
        "notice": "add a new airdrop"
      },
      "updateTokenSaleSettings(uint256,(address,address,uint256,uint256,address,address,string,string,string,bool,uint256,uint256,uint256,uint256,uint256,uint256,(uint256,uint8,uint256,uint256),uint8,address))": {
        "notice": "Updates the token sale settings"
      }
    },
    "version": 1
  },
  "storageLayout": {
    "storage": [
      {
        "astId": 2186,
        "contract": "contracts/facets/AirdropTokenSaleFacet.sol:AirdropTokenSaleFacet",
        "label": "s",
        "offset": 0,
        "slot": "0",
        "type": "t_struct(AppStorage)2174_storage"
      }
    ],
    "types": {
      "t_address": {
        "encoding": "inplace",
        "label": "address",
        "numberOfBytes": "20"
      },
      "t_bool": {
        "encoding": "inplace",
        "label": "bool",
        "numberOfBytes": "1"
      },
      "t_bytes32": {
        "encoding": "inplace",
        "label": "bytes32",
        "numberOfBytes": "32"
      },
      "t_enum(PaymentType)4879": {
        "encoding": "inplace",
        "label": "enum IAirdropTokenSale.PaymentType",
        "numberOfBytes": "1"
      },
      "t_enum(PriceModifier)6543": {
        "encoding": "inplace",
        "label": "enum ITokenPrice.PriceModifier",
        "numberOfBytes": "1"
      },
      "t_mapping(t_address,t_uint256)": {
        "encoding": "mapping",
        "key": "t_address",
        "label": "mapping(address => uint256)",
        "numberOfBytes": "32",
        "value": "t_uint256"
      },
      "t_mapping(t_uint256,t_bool)": {
        "encoding": "mapping",
        "key": "t_uint256",
        "label": "mapping(uint256 => bool)",
        "numberOfBytes": "32",
        "value": "t_bool"
      },
      "t_mapping(t_uint256,t_mapping(t_address,t_uint256))": {
        "encoding": "mapping",
        "key": "t_uint256",
        "label": "mapping(uint256 => mapping(address => uint256))",
        "numberOfBytes": "32",
        "value": "t_mapping(t_address,t_uint256)"
      },
      "t_mapping(t_uint256,t_mapping(t_uint256,t_uint256))": {
        "encoding": "mapping",
        "key": "t_uint256",
        "label": "mapping(uint256 => mapping(uint256 => uint256))",
        "numberOfBytes": "32",
        "value": "t_mapping(t_uint256,t_uint256)"
      },
      "t_mapping(t_uint256,t_struct(AirdropSettings)4814_storage)": {
        "encoding": "mapping",
        "key": "t_uint256",
        "label": "mapping(uint256 => struct IAirdrop.AirdropSettings)",
        "numberOfBytes": "32",
        "value": "t_struct(AirdropSettings)4814_storage"
      },
      "t_mapping(t_uint256,t_struct(TokenSaleSettings)4920_storage)": {
        "encoding": "mapping",
        "key": "t_uint256",
        "label": "mapping(uint256 => struct IAirdropTokenSale.TokenSaleSettings)",
        "numberOfBytes": "32",
        "value": "t_struct(TokenSaleSettings)4920_storage"
      },
      "t_mapping(t_uint256,t_uint256)": {
        "encoding": "mapping",
        "key": "t_uint256",
        "label": "mapping(uint256 => uint256)",
        "numberOfBytes": "32",
        "value": "t_uint256"
      },
      "t_string_storage": {
        "encoding": "bytes",
        "label": "string",
        "numberOfBytes": "32"
      },
      "t_struct(AirdropSettings)4814_storage": {
        "encoding": "inplace",
        "label": "struct IAirdrop.AirdropSettings",
        "members": [
          {
            "astId": 4785,
            "contract": "contracts/facets/AirdropTokenSaleFacet.sol:AirdropTokenSaleFacet",
            "label": "whitelistOnly",
            "offset": 0,
            "slot": "0",
            "type": "t_bool"
          },
          {
            "astId": 4787,
            "contract": "contracts/facets/AirdropTokenSaleFacet.sol:AirdropTokenSaleFacet",
            "label": "whitelistId",
            "offset": 0,
            "slot": "1",
            "type": "t_uint256"
          },
          {
            "astId": 4789,
            "contract": "contracts/facets/AirdropTokenSaleFacet.sol:AirdropTokenSaleFacet",
            "label": "whitelistHash",
            "offset": 0,
            "slot": "2",
            "type": "t_bytes32"
          },
          {
            "astId": 4791,
            "contract": "contracts/facets/AirdropTokenSaleFacet.sol:AirdropTokenSaleFacet",
            "label": "maxQuantity",
            "offset": 0,
            "slot": "3",
            "type": "t_uint256"
          },
          {
            "astId": 4793,
            "contract": "contracts/facets/AirdropTokenSaleFacet.sol:AirdropTokenSaleFacet",
            "label": "maxQuantityPerSale",
            "offset": 0,
            "slot": "4",
            "type": "t_uint256"
          },
          {
            "astId": 4795,
            "contract": "contracts/facets/AirdropTokenSaleFacet.sol:AirdropTokenSaleFacet",
            "label": "minQuantityPerSale",
            "offset": 0,
            "slot": "5",
            "type": "t_uint256"
          },
          {
            "astId": 4797,
            "contract": "contracts/facets/AirdropTokenSaleFacet.sol:AirdropTokenSaleFacet",
            "label": "maxQuantityPerAccount",
            "offset": 0,
            "slot": "6",
            "type": "t_uint256"
          },
          {
            "astId": 4799,
            "contract": "contracts/facets/AirdropTokenSaleFacet.sol:AirdropTokenSaleFacet",
            "label": "quantitySold",
            "offset": 0,
            "slot": "7",
            "type": "t_uint256"
          },
          {
            "astId": 4801,
            "contract": "contracts/facets/AirdropTokenSaleFacet.sol:AirdropTokenSaleFacet",
            "label": "startTime",
            "offset": 0,
            "slot": "8",
            "type": "t_uint256"
          },
          {
            "astId": 4803,
            "contract": "contracts/facets/AirdropTokenSaleFacet.sol:AirdropTokenSaleFacet",
            "label": "endTime",
            "offset": 0,
            "slot": "9",
            "type": "t_uint256"
          },
          {
            "astId": 4806,
            "contract": "contracts/facets/AirdropTokenSaleFacet.sol:AirdropTokenSaleFacet",
            "label": "initialPrice",
            "offset": 0,
            "slot": "10",
            "type": "t_struct(TokenPriceData)6553_storage"
          },
          {
            "astId": 4808,
            "contract": "contracts/facets/AirdropTokenSaleFacet.sol:AirdropTokenSaleFacet",
            "label": "tokenHash",
            "offset": 0,
            "slot": "14",
            "type": "t_uint256"
          },
          {
            "astId": 4811,
            "contract": "contracts/facets/AirdropTokenSaleFacet.sol:AirdropTokenSaleFacet",
            "label": "paymentType",
            "offset": 0,
            "slot": "15",
            "type": "t_enum(PaymentType)4879"
          },
          {
            "astId": 4813,
            "contract": "contracts/facets/AirdropTokenSaleFacet.sol:AirdropTokenSaleFacet",
            "label": "tokenAddress",
            "offset": 1,
            "slot": "15",
            "type": "t_address"
          }
        ],
        "numberOfBytes": "512"
      },
      "t_struct(AirdropTokenSaleStorage)2133_storage": {
        "encoding": "inplace",
        "label": "struct AirdropTokenSaleStorage",
        "members": [
          {
            "astId": 2109,
            "contract": "contracts/facets/AirdropTokenSaleFacet.sol:AirdropTokenSaleFacet",
            "label": "tsnonce",
            "offset": 0,
            "slot": "0",
            "type": "t_uint256"
          },
          {
            "astId": 2113,
            "contract": "contracts/facets/AirdropTokenSaleFacet.sol:AirdropTokenSaleFacet",
            "label": "nonces",
            "offset": 0,
            "slot": "1",
            "type": "t_mapping(t_uint256,t_uint256)"
          },
          {
            "astId": 2118,
            "contract": "contracts/facets/AirdropTokenSaleFacet.sol:AirdropTokenSaleFacet",
            "label": "_tokenSales",
            "offset": 0,
            "slot": "2",
            "type": "t_mapping(t_uint256,t_struct(TokenSaleSettings)4920_storage)"
          },
          {
            "astId": 2122,
            "contract": "contracts/facets/AirdropTokenSaleFacet.sol:AirdropTokenSaleFacet",
            "label": "tokenSaleOpen",
            "offset": 0,
            "slot": "3",
            "type": "t_mapping(t_uint256,t_bool)"
          },
          {
            "astId": 2128,
            "contract": "contracts/facets/AirdropTokenSaleFacet.sol:AirdropTokenSaleFacet",
            "label": "purchased",
            "offset": 0,
            "slot": "4",
            "type": "t_mapping(t_uint256,t_mapping(t_address,t_uint256))"
          },
          {
            "astId": 2132,
            "contract": "contracts/facets/AirdropTokenSaleFacet.sol:AirdropTokenSaleFacet",
            "label": "totalPurchased",
            "offset": 0,
            "slot": "5",
            "type": "t_mapping(t_uint256,t_uint256)"
          }
        ],
        "numberOfBytes": "192"
      },
      "t_struct(AppStorage)2174_storage": {
        "encoding": "inplace",
        "label": "struct AppStorage",
        "members": [
          {
            "astId": 2167,
            "contract": "contracts/facets/AirdropTokenSaleFacet.sol:AirdropTokenSaleFacet",
            "label": "merkleAirdropStorage",
            "offset": 0,
            "slot": "0",
            "type": "t_struct(MerkleAirdropStorage)2159_storage"
          },
          {
            "astId": 2170,
            "contract": "contracts/facets/AirdropTokenSaleFacet.sol:AirdropTokenSaleFacet",
            "label": "airdropTokenSaleStorage",
            "offset": 0,
            "slot": "5",
            "type": "t_struct(AirdropTokenSaleStorage)2133_storage"
          },
          {
            "astId": 2173,
            "contract": "contracts/facets/AirdropTokenSaleFacet.sol:AirdropTokenSaleFacet",
            "label": "tokenMinterStorage",
            "offset": 0,
            "slot": "11",
            "type": "t_struct(TokenMinterStorage)2107_storage"
          }
        ],
        "numberOfBytes": "384"
      },
      "t_struct(MerkleAirdropStorage)2159_storage": {
        "encoding": "inplace",
        "label": "struct MerkleAirdropStorage",
        "members": [
          {
            "astId": 2138,
            "contract": "contracts/facets/AirdropTokenSaleFacet.sol:AirdropTokenSaleFacet",
            "label": "_settings",
            "offset": 0,
            "slot": "0",
            "type": "t_mapping(t_uint256,t_struct(AirdropSettings)4814_storage)"
          },
          {
            "astId": 2140,
            "contract": "contracts/facets/AirdropTokenSaleFacet.sol:AirdropTokenSaleFacet",
            "label": "numSettings",
            "offset": 0,
            "slot": "1",
            "type": "t_uint256"
          },
          {
            "astId": 2146,
            "contract": "contracts/facets/AirdropTokenSaleFacet.sol:AirdropTokenSaleFacet",
            "label": "_redeemedData",
            "offset": 0,
            "slot": "2",
            "type": "t_mapping(t_uint256,t_mapping(t_uint256,t_uint256))"
          },
          {
            "astId": 2152,
            "contract": "contracts/facets/AirdropTokenSaleFacet.sol:AirdropTokenSaleFacet",
            "label": "_redeemedDataQuantities",
            "offset": 0,
            "slot": "3",
            "type": "t_mapping(t_uint256,t_mapping(t_address,t_uint256))"
          },
          {
            "astId": 2158,
            "contract": "contracts/facets/AirdropTokenSaleFacet.sol:AirdropTokenSaleFacet",
            "label": "_totalDataQuantities",
            "offset": 0,
            "slot": "4",
            "type": "t_mapping(t_uint256,t_mapping(t_address,t_uint256))"
          }
        ],
        "numberOfBytes": "160"
      },
      "t_struct(TokenMinterStorage)2107_storage": {
        "encoding": "inplace",
        "label": "struct TokenMinterStorage",
        "members": [
          {
            "astId": 2106,
            "contract": "contracts/facets/AirdropTokenSaleFacet.sol:AirdropTokenSaleFacet",
            "label": "token",
            "offset": 0,
            "slot": "0",
            "type": "t_address"
          }
        ],
        "numberOfBytes": "32"
      },
      "t_struct(TokenPriceData)6553_storage": {
        "encoding": "inplace",
        "label": "struct ITokenPrice.TokenPriceData",
        "members": [
          {
            "astId": 6545,
            "contract": "contracts/facets/AirdropTokenSaleFacet.sol:AirdropTokenSaleFacet",
            "label": "price",
            "offset": 0,
            "slot": "0",
            "type": "t_uint256"
          },
          {
            "astId": 6548,
            "contract": "contracts/facets/AirdropTokenSaleFacet.sol:AirdropTokenSaleFacet",
            "label": "priceModifier",
            "offset": 0,
            "slot": "1",
            "type": "t_enum(PriceModifier)6543"
          },
          {
            "astId": 6550,
            "contract": "contracts/facets/AirdropTokenSaleFacet.sol:AirdropTokenSaleFacet",
            "label": "priceModifierFactor",
            "offset": 0,
            "slot": "2",
            "type": "t_uint256"
          },
          {
            "astId": 6552,
            "contract": "contracts/facets/AirdropTokenSaleFacet.sol:AirdropTokenSaleFacet",
            "label": "maxPrice",
            "offset": 0,
            "slot": "3",
            "type": "t_uint256"
          }
        ],
        "numberOfBytes": "128"
      },
      "t_struct(TokenSaleSettings)4920_storage": {
        "encoding": "inplace",
        "label": "struct IAirdropTokenSale.TokenSaleSettings",
        "members": [
          {
            "astId": 4881,
            "contract": "contracts/facets/AirdropTokenSaleFacet.sol:AirdropTokenSaleFacet",
            "label": "contractAddress",
            "offset": 0,
            "slot": "0",
            "type": "t_address"
          },
          {
            "astId": 4883,
            "contract": "contracts/facets/AirdropTokenSaleFacet.sol:AirdropTokenSaleFacet",
            "label": "token",
            "offset": 0,
            "slot": "1",
            "type": "t_address"
          },
          {
            "astId": 4885,
            "contract": "contracts/facets/AirdropTokenSaleFacet.sol:AirdropTokenSaleFacet",
            "label": "tokenHash",
            "offset": 0,
            "slot": "2",
            "type": "t_uint256"
          },
          {
            "astId": 4887,
            "contract": "contracts/facets/AirdropTokenSaleFacet.sol:AirdropTokenSaleFacet",
            "label": "collectionHash",
            "offset": 0,
            "slot": "3",
            "type": "t_uint256"
          },
          {
            "astId": 4889,
            "contract": "contracts/facets/AirdropTokenSaleFacet.sol:AirdropTokenSaleFacet",
            "label": "owner",
            "offset": 0,
            "slot": "4",
            "type": "t_address"
          },
          {
            "astId": 4891,
            "contract": "contracts/facets/AirdropTokenSaleFacet.sol:AirdropTokenSaleFacet",
            "label": "payee",
            "offset": 0,
            "slot": "5",
            "type": "t_address"
          },
          {
            "astId": 4893,
            "contract": "contracts/facets/AirdropTokenSaleFacet.sol:AirdropTokenSaleFacet",
            "label": "symbol",
            "offset": 0,
            "slot": "6",
            "type": "t_string_storage"
          },
          {
            "astId": 4895,
            "contract": "contracts/facets/AirdropTokenSaleFacet.sol:AirdropTokenSaleFacet",
            "label": "name",
            "offset": 0,
            "slot": "7",
            "type": "t_string_storage"
          },
          {
            "astId": 4897,
            "contract": "contracts/facets/AirdropTokenSaleFacet.sol:AirdropTokenSaleFacet",
            "label": "description",
            "offset": 0,
            "slot": "8",
            "type": "t_string_storage"
          },
          {
            "astId": 4899,
            "contract": "contracts/facets/AirdropTokenSaleFacet.sol:AirdropTokenSaleFacet",
            "label": "openState",
            "offset": 0,
            "slot": "9",
            "type": "t_bool"
          },
          {
            "astId": 4901,
            "contract": "contracts/facets/AirdropTokenSaleFacet.sol:AirdropTokenSaleFacet",
            "label": "startTime",
            "offset": 0,
            "slot": "10",
            "type": "t_uint256"
          },
          {
            "astId": 4903,
            "contract": "contracts/facets/AirdropTokenSaleFacet.sol:AirdropTokenSaleFacet",
            "label": "endTime",
            "offset": 0,
            "slot": "11",
            "type": "t_uint256"
          },
          {
            "astId": 4905,
            "contract": "contracts/facets/AirdropTokenSaleFacet.sol:AirdropTokenSaleFacet",
            "label": "maxQuantity",
            "offset": 0,
            "slot": "12",
            "type": "t_uint256"
          },
          {
            "astId": 4907,
            "contract": "contracts/facets/AirdropTokenSaleFacet.sol:AirdropTokenSaleFacet",
            "label": "maxQuantityPerSale",
            "offset": 0,
            "slot": "13",
            "type": "t_uint256"
          },
          {
            "astId": 4909,
            "contract": "contracts/facets/AirdropTokenSaleFacet.sol:AirdropTokenSaleFacet",
            "label": "minQuantityPerSale",
            "offset": 0,
            "slot": "14",
            "type": "t_uint256"
          },
          {
            "astId": 4911,
            "contract": "contracts/facets/AirdropTokenSaleFacet.sol:AirdropTokenSaleFacet",
            "label": "maxQuantityPerAccount",
            "offset": 0,
            "slot": "15",
            "type": "t_uint256"
          },
          {
            "astId": 4914,
            "contract": "contracts/facets/AirdropTokenSaleFacet.sol:AirdropTokenSaleFacet",
            "label": "initialPrice",
            "offset": 0,
            "slot": "16",
            "type": "t_struct(TokenPriceData)6553_storage"
          },
          {
            "astId": 4917,
            "contract": "contracts/facets/AirdropTokenSaleFacet.sol:AirdropTokenSaleFacet",
            "label": "paymentType",
            "offset": 0,
            "slot": "20",
            "type": "t_enum(PaymentType)4879"
          },
          {
            "astId": 4919,
            "contract": "contracts/facets/AirdropTokenSaleFacet.sol:AirdropTokenSaleFacet",
            "label": "tokenAddress",
            "offset": 1,
            "slot": "20",
            "type": "t_address"
          }
        ],
        "numberOfBytes": "672"
      },
      "t_uint256": {
        "encoding": "inplace",
        "label": "uint256",
        "numberOfBytes": "32"
      }
    }
  }
}