{
  "address": "0xde2aEa52dC5DF3515A064a07Fee0130DD17112B3",
  "abi": [
    {
      "anonymous": false,
      "inputs": [
        {
          "indexed": true,
          "internalType": "uint256",
          "name": "airdropId",
          "type": "uint256"
        },
        {
          "indexed": true,
          "internalType": "address",
          "name": "beneficiary",
          "type": "address"
        },
        {
          "indexed": false,
          "internalType": "bytes32[]",
          "name": "proof",
          "type": "bytes32[]"
        },
        {
          "indexed": false,
          "internalType": "uint256",
          "name": "amount",
          "type": "uint256"
        }
      ],
      "name": "AirdropRedeemed",
      "type": "event"
    },
    {
      "anonymous": false,
      "inputs": [
        {
          "indexed": false,
          "internalType": "uint256",
          "name": "tokenId",
          "type": "uint256"
        },
        {
          "indexed": false,
          "internalType": "uint256",
          "name": "power",
          "type": "uint256"
        }
      ],
      "name": "PowerUpdated",
      "type": "event"
    },
    {
      "anonymous": false,
      "inputs": [
        {
          "indexed": false,
          "internalType": "uint256",
          "name": "tokenSaleId",
          "type": "uint256"
        },
        {
          "indexed": true,
          "internalType": "address",
          "name": "purchaser",
          "type": "address"
        },
        {
          "indexed": false,
          "internalType": "uint256",
          "name": "tokenId",
          "type": "uint256"
        },
        {
          "indexed": false,
          "internalType": "uint256",
          "name": "quantity",
          "type": "uint256"
        }
      ],
      "name": "TokenPurchased",
      "type": "event"
    },
    {
      "anonymous": false,
      "inputs": [
        {
          "indexed": false,
          "internalType": "uint256",
          "name": "tokenSaleId",
          "type": "uint256"
        },
        {
          "components": [
            {
              "internalType": "address",
              "name": "contractAddress",
              "type": "address"
            },
            {
              "internalType": "address",
              "name": "token",
              "type": "address"
            },
            {
              "internalType": "uint256",
              "name": "tokenHash",
              "type": "uint256"
            },
            {
              "internalType": "uint256",
              "name": "collectionHash",
              "type": "uint256"
            },
            {
              "internalType": "address",
              "name": "owner",
              "type": "address"
            },
            {
              "internalType": "address",
              "name": "payee",
              "type": "address"
            },
            {
              "internalType": "string",
              "name": "symbol",
              "type": "string"
            },
            {
              "internalType": "string",
              "name": "name",
              "type": "string"
            },
            {
              "internalType": "string",
              "name": "description",
              "type": "string"
            },
            {
              "internalType": "bool",
              "name": "openState",
              "type": "bool"
            },
            {
              "internalType": "uint256",
              "name": "startTime",
              "type": "uint256"
            },
            {
              "internalType": "uint256",
              "name": "endTime",
              "type": "uint256"
            },
            {
              "internalType": "uint256",
              "name": "maxQuantity",
              "type": "uint256"
            },
            {
              "internalType": "uint256",
              "name": "maxQuantityPerSale",
              "type": "uint256"
            },
            {
              "internalType": "uint256",
              "name": "minQuantityPerSale",
              "type": "uint256"
            },
            {
              "internalType": "uint256",
              "name": "maxQuantityPerAccount",
              "type": "uint256"
            },
            {
              "components": [
                {
                  "internalType": "uint256",
                  "name": "price",
                  "type": "uint256"
                },
                {
                  "internalType": "enum ITokenPrice.PriceModifier",
                  "name": "priceModifier",
                  "type": "uint8"
                },
                {
                  "internalType": "uint256",
                  "name": "priceModifierFactor",
                  "type": "uint256"
                },
                {
                  "internalType": "uint256",
                  "name": "maxPrice",
                  "type": "uint256"
                }
              ],
              "internalType": "struct ITokenPrice.TokenPriceData",
              "name": "initialPrice",
              "type": "tuple"
            }
          ],
          "indexed": false,
          "internalType": "struct IAirdropTokenSale.TokenSaleSettings",
          "name": "tokenSale",
          "type": "tuple"
        }
      ],
      "name": "TokenSaleClosed",
      "type": "event"
    },
    {
      "anonymous": false,
      "inputs": [
        {
          "indexed": false,
          "internalType": "uint256",
          "name": "tokenSaleId",
          "type": "uint256"
        },
        {
          "components": [
            {
              "internalType": "address",
              "name": "contractAddress",
              "type": "address"
            },
            {
              "internalType": "address",
              "name": "token",
              "type": "address"
            },
            {
              "internalType": "uint256",
              "name": "tokenHash",
              "type": "uint256"
            },
            {
              "internalType": "uint256",
              "name": "collectionHash",
              "type": "uint256"
            },
            {
              "internalType": "address",
              "name": "owner",
              "type": "address"
            },
            {
              "internalType": "address",
              "name": "payee",
              "type": "address"
            },
            {
              "internalType": "string",
              "name": "symbol",
              "type": "string"
            },
            {
              "internalType": "string",
              "name": "name",
              "type": "string"
            },
            {
              "internalType": "string",
              "name": "description",
              "type": "string"
            },
            {
              "internalType": "bool",
              "name": "openState",
              "type": "bool"
            },
            {
              "internalType": "uint256",
              "name": "startTime",
              "type": "uint256"
            },
            {
              "internalType": "uint256",
              "name": "endTime",
              "type": "uint256"
            },
            {
              "internalType": "uint256",
              "name": "maxQuantity",
              "type": "uint256"
            },
            {
              "internalType": "uint256",
              "name": "maxQuantityPerSale",
              "type": "uint256"
            },
            {
              "internalType": "uint256",
              "name": "minQuantityPerSale",
              "type": "uint256"
            },
            {
              "internalType": "uint256",
              "name": "maxQuantityPerAccount",
              "type": "uint256"
            },
            {
              "components": [
                {
                  "internalType": "uint256",
                  "name": "price",
                  "type": "uint256"
                },
                {
                  "internalType": "enum ITokenPrice.PriceModifier",
                  "name": "priceModifier",
                  "type": "uint8"
                },
                {
                  "internalType": "uint256",
                  "name": "priceModifierFactor",
                  "type": "uint256"
                },
                {
                  "internalType": "uint256",
                  "name": "maxPrice",
                  "type": "uint256"
                }
              ],
              "internalType": "struct ITokenPrice.TokenPriceData",
              "name": "initialPrice",
              "type": "tuple"
            }
          ],
          "indexed": false,
          "internalType": "struct IAirdropTokenSale.TokenSaleSettings",
          "name": "tokenSale",
          "type": "tuple"
        }
      ],
      "name": "TokenSaleOpen",
      "type": "event"
    },
    {
      "anonymous": false,
      "inputs": [
        {
          "indexed": true,
          "internalType": "address",
          "name": "token",
          "type": "address"
        },
        {
          "indexed": true,
          "internalType": "uint256",
          "name": "tokenId",
          "type": "uint256"
        },
        {
          "indexed": false,
          "internalType": "uint256",
          "name": "price",
          "type": "uint256"
        },
        {
          "indexed": false,
          "internalType": "uint256",
          "name": "quantity",
          "type": "uint256"
        }
      ],
      "name": "TokenSaleSet",
      "type": "event"
    },
    {
      "anonymous": false,
      "inputs": [
        {
          "indexed": false,
          "internalType": "uint256",
          "name": "tokenSaleId",
          "type": "uint256"
        },
        {
          "components": [
            {
              "internalType": "address",
              "name": "contractAddress",
              "type": "address"
            },
            {
              "internalType": "address",
              "name": "token",
              "type": "address"
            },
            {
              "internalType": "uint256",
              "name": "tokenHash",
              "type": "uint256"
            },
            {
              "internalType": "uint256",
              "name": "collectionHash",
              "type": "uint256"
            },
            {
              "internalType": "address",
              "name": "owner",
              "type": "address"
            },
            {
              "internalType": "address",
              "name": "payee",
              "type": "address"
            },
            {
              "internalType": "string",
              "name": "symbol",
              "type": "string"
            },
            {
              "internalType": "string",
              "name": "name",
              "type": "string"
            },
            {
              "internalType": "string",
              "name": "description",
              "type": "string"
            },
            {
              "internalType": "bool",
              "name": "openState",
              "type": "bool"
            },
            {
              "internalType": "uint256",
              "name": "startTime",
              "type": "uint256"
            },
            {
              "internalType": "uint256",
              "name": "endTime",
              "type": "uint256"
            },
            {
              "internalType": "uint256",
              "name": "maxQuantity",
              "type": "uint256"
            },
            {
              "internalType": "uint256",
              "name": "maxQuantityPerSale",
              "type": "uint256"
            },
            {
              "internalType": "uint256",
              "name": "minQuantityPerSale",
              "type": "uint256"
            },
            {
              "internalType": "uint256",
              "name": "maxQuantityPerAccount",
              "type": "uint256"
            },
            {
              "components": [
                {
                  "internalType": "uint256",
                  "name": "price",
                  "type": "uint256"
                },
                {
                  "internalType": "enum ITokenPrice.PriceModifier",
                  "name": "priceModifier",
                  "type": "uint8"
                },
                {
                  "internalType": "uint256",
                  "name": "priceModifierFactor",
                  "type": "uint256"
                },
                {
                  "internalType": "uint256",
                  "name": "maxPrice",
                  "type": "uint256"
                }
              ],
              "internalType": "struct ITokenPrice.TokenPriceData",
              "name": "initialPrice",
              "type": "tuple"
            }
          ],
          "indexed": false,
          "internalType": "struct IAirdropTokenSale.TokenSaleSettings",
          "name": "tokenSale",
          "type": "tuple"
        }
      ],
      "name": "TokenSaleSettingsUpdated",
      "type": "event"
    },
    {
      "anonymous": false,
      "inputs": [
        {
          "indexed": true,
          "internalType": "address",
          "name": "buyer",
          "type": "address"
        },
        {
          "indexed": true,
          "internalType": "address",
          "name": "tokenAddress",
          "type": "address"
        },
        {
          "indexed": true,
          "internalType": "uint256",
          "name": "tokenId",
          "type": "uint256"
        },
        {
          "indexed": false,
          "internalType": "uint256",
          "name": "salePrice",
          "type": "uint256"
        }
      ],
      "name": "TokenSold",
      "type": "event"
    },
    {
      "anonymous": false,
      "inputs": [
        {
          "indexed": true,
          "internalType": "address",
          "name": "tokenAddress",
          "type": "address"
        },
        {
          "components": [
            {
              "internalType": "address payable",
              "name": "receiver",
              "type": "address"
            },
            {
              "internalType": "address",
              "name": "sourceToken",
              "type": "address"
            },
            {
              "internalType": "uint256",
              "name": "sourceTokenId",
              "type": "uint256"
            },
            {
              "internalType": "address",
              "name": "token",
              "type": "address"
            },
            {
              "internalType": "uint256",
              "name": "quantity",
              "type": "uint256"
            },
            {
              "internalType": "uint256",
              "name": "price",
              "type": "uint256"
            },
            {
              "internalType": "uint256",
              "name": "quantitySold",
              "type": "uint256"
            }
          ],
          "indexed": false,
          "internalType": "struct ITokenSale.TokenSaleEntry",
          "name": "tokens",
          "type": "tuple"
        }
      ],
      "name": "TokensSet",
      "type": "event"
    },
    {
      "anonymous": false,
      "inputs": [
        {
          "indexed": true,
          "internalType": "uint256",
          "name": "tokensaleId",
          "type": "uint256"
        },
        {
          "components": [
            {
              "internalType": "address",
              "name": "contractAddress",
              "type": "address"
            },
            {
              "internalType": "address",
              "name": "token",
              "type": "address"
            },
            {
              "internalType": "uint256",
              "name": "tokenHash",
              "type": "uint256"
            },
            {
              "internalType": "uint256",
              "name": "collectionHash",
              "type": "uint256"
            },
            {
              "internalType": "address",
              "name": "owner",
              "type": "address"
            },
            {
              "internalType": "address",
              "name": "payee",
              "type": "address"
            },
            {
              "internalType": "string",
              "name": "symbol",
              "type": "string"
            },
            {
              "internalType": "string",
              "name": "name",
              "type": "string"
            },
            {
              "internalType": "string",
              "name": "description",
              "type": "string"
            },
            {
              "internalType": "bool",
              "name": "openState",
              "type": "bool"
            },
            {
              "internalType": "uint256",
              "name": "startTime",
              "type": "uint256"
            },
            {
              "internalType": "uint256",
              "name": "endTime",
              "type": "uint256"
            },
            {
              "internalType": "uint256",
              "name": "maxQuantity",
              "type": "uint256"
            },
            {
              "internalType": "uint256",
              "name": "maxQuantityPerSale",
              "type": "uint256"
            },
            {
              "internalType": "uint256",
              "name": "minQuantityPerSale",
              "type": "uint256"
            },
            {
              "internalType": "uint256",
              "name": "maxQuantityPerAccount",
              "type": "uint256"
            },
            {
              "components": [
                {
                  "internalType": "uint256",
                  "name": "price",
                  "type": "uint256"
                },
                {
                  "internalType": "enum ITokenPrice.PriceModifier",
                  "name": "priceModifier",
                  "type": "uint8"
                },
                {
                  "internalType": "uint256",
                  "name": "priceModifierFactor",
                  "type": "uint256"
                },
                {
                  "internalType": "uint256",
                  "name": "maxPrice",
                  "type": "uint256"
                }
              ],
              "internalType": "struct ITokenPrice.TokenPriceData",
              "name": "initialPrice",
              "type": "tuple"
            }
          ],
          "indexed": false,
          "internalType": "struct IAirdropTokenSale.TokenSaleSettings",
          "name": "settings",
          "type": "tuple"
        }
      ],
      "name": "TokensaleCreated",
      "type": "event"
    },
    {
      "inputs": [
        {
          "internalType": "uint256",
          "name": "tokenSaleId",
          "type": "uint256"
        },
        {
          "internalType": "uint256",
          "name": "",
          "type": "uint256"
        },
        {
          "internalType": "address",
          "name": "recipient",
          "type": "address"
        },
        {
          "internalType": "uint256",
          "name": "amount",
          "type": "uint256"
        }
      ],
      "name": "airdropRedeemed",
      "outputs": [],
      "stateMutability": "nonpayable",
      "type": "function"
    },
    {
      "inputs": [
        {
          "components": [
            {
              "internalType": "address",
              "name": "contractAddress",
              "type": "address"
            },
            {
              "internalType": "address",
              "name": "token",
              "type": "address"
            },
            {
              "internalType": "uint256",
              "name": "tokenHash",
              "type": "uint256"
            },
            {
              "internalType": "uint256",
              "name": "collectionHash",
              "type": "uint256"
            },
            {
              "internalType": "address",
              "name": "owner",
              "type": "address"
            },
            {
              "internalType": "address",
              "name": "payee",
              "type": "address"
            },
            {
              "internalType": "string",
              "name": "symbol",
              "type": "string"
            },
            {
              "internalType": "string",
              "name": "name",
              "type": "string"
            },
            {
              "internalType": "string",
              "name": "description",
              "type": "string"
            },
            {
              "internalType": "bool",
              "name": "openState",
              "type": "bool"
            },
            {
              "internalType": "uint256",
              "name": "startTime",
              "type": "uint256"
            },
            {
              "internalType": "uint256",
              "name": "endTime",
              "type": "uint256"
            },
            {
              "internalType": "uint256",
              "name": "maxQuantity",
              "type": "uint256"
            },
            {
              "internalType": "uint256",
              "name": "maxQuantityPerSale",
              "type": "uint256"
            },
            {
              "internalType": "uint256",
              "name": "minQuantityPerSale",
              "type": "uint256"
            },
            {
              "internalType": "uint256",
              "name": "maxQuantityPerAccount",
              "type": "uint256"
            },
            {
              "components": [
                {
                  "internalType": "uint256",
                  "name": "price",
                  "type": "uint256"
                },
                {
                  "internalType": "enum ITokenPrice.PriceModifier",
                  "name": "priceModifier",
                  "type": "uint8"
                },
                {
                  "internalType": "uint256",
                  "name": "priceModifierFactor",
                  "type": "uint256"
                },
                {
                  "internalType": "uint256",
                  "name": "maxPrice",
                  "type": "uint256"
                }
              ],
              "internalType": "struct ITokenPrice.TokenPriceData",
              "name": "initialPrice",
              "type": "tuple"
            }
          ],
          "internalType": "struct IAirdropTokenSale.TokenSaleSettings",
          "name": "tokenSaleInit",
          "type": "tuple"
        },
        {
          "components": [
            {
              "internalType": "bool",
              "name": "whitelistOnly",
              "type": "bool"
            },
            {
              "internalType": "uint256",
              "name": "whitelistId",
              "type": "uint256"
            },
            {
              "internalType": "bytes32",
              "name": "whitelistHash",
              "type": "bytes32"
            },
            {
              "internalType": "uint256",
              "name": "maxQuantity",
              "type": "uint256"
            },
            {
              "internalType": "uint256",
              "name": "maxQuantityPerSale",
              "type": "uint256"
            },
            {
              "internalType": "uint256",
              "name": "minQuantityPerSale",
              "type": "uint256"
            },
            {
              "internalType": "uint256",
              "name": "maxQuantityPerAccount",
              "type": "uint256"
            },
            {
              "internalType": "uint256",
              "name": "quantitySold",
              "type": "uint256"
            },
            {
              "internalType": "uint256",
              "name": "startTime",
              "type": "uint256"
            },
            {
              "internalType": "uint256",
              "name": "endTime",
              "type": "uint256"
            },
            {
              "components": [
                {
                  "internalType": "uint256",
                  "name": "price",
                  "type": "uint256"
                },
                {
                  "internalType": "enum ITokenPrice.PriceModifier",
                  "name": "priceModifier",
                  "type": "uint8"
                },
                {
                  "internalType": "uint256",
                  "name": "priceModifierFactor",
                  "type": "uint256"
                },
                {
                  "internalType": "uint256",
                  "name": "maxPrice",
                  "type": "uint256"
                }
              ],
              "internalType": "struct ITokenPrice.TokenPriceData",
              "name": "initialPrice",
              "type": "tuple"
            },
            {
              "internalType": "uint256",
              "name": "tokenHash",
              "type": "uint256"
            }
          ],
          "internalType": "struct IAirdrop.AirdropSettings[]",
          "name": "settingsList",
          "type": "tuple[]"
        }
      ],
      "name": "createTokenSale",
      "outputs": [
        {
          "internalType": "uint256",
          "name": "tokenSaleId",
          "type": "uint256"
        }
      ],
      "stateMutability": "nonpayable",
      "type": "function"
    },
    {
      "inputs": [
        {
          "internalType": "uint256",
          "name": "tokenSaleId",
          "type": "uint256"
        }
      ],
      "name": "getTokenSaleSettings",
      "outputs": [
        {
          "components": [
            {
              "internalType": "address",
              "name": "contractAddress",
              "type": "address"
            },
            {
              "internalType": "address",
              "name": "token",
              "type": "address"
            },
            {
              "internalType": "uint256",
              "name": "tokenHash",
              "type": "uint256"
            },
            {
              "internalType": "uint256",
              "name": "collectionHash",
              "type": "uint256"
            },
            {
              "internalType": "address",
              "name": "owner",
              "type": "address"
            },
            {
              "internalType": "address",
              "name": "payee",
              "type": "address"
            },
            {
              "internalType": "string",
              "name": "symbol",
              "type": "string"
            },
            {
              "internalType": "string",
              "name": "name",
              "type": "string"
            },
            {
              "internalType": "string",
              "name": "description",
              "type": "string"
            },
            {
              "internalType": "bool",
              "name": "openState",
              "type": "bool"
            },
            {
              "internalType": "uint256",
              "name": "startTime",
              "type": "uint256"
            },
            {
              "internalType": "uint256",
              "name": "endTime",
              "type": "uint256"
            },
            {
              "internalType": "uint256",
              "name": "maxQuantity",
              "type": "uint256"
            },
            {
              "internalType": "uint256",
              "name": "maxQuantityPerSale",
              "type": "uint256"
            },
            {
              "internalType": "uint256",
              "name": "minQuantityPerSale",
              "type": "uint256"
            },
            {
              "internalType": "uint256",
              "name": "maxQuantityPerAccount",
              "type": "uint256"
            },
            {
              "components": [
                {
                  "internalType": "uint256",
                  "name": "price",
                  "type": "uint256"
                },
                {
                  "internalType": "enum ITokenPrice.PriceModifier",
                  "name": "priceModifier",
                  "type": "uint8"
                },
                {
                  "internalType": "uint256",
                  "name": "priceModifierFactor",
                  "type": "uint256"
                },
                {
                  "internalType": "uint256",
                  "name": "maxPrice",
                  "type": "uint256"
                }
              ],
              "internalType": "struct ITokenPrice.TokenPriceData",
              "name": "initialPrice",
              "type": "tuple"
            }
          ],
          "internalType": "struct IAirdropTokenSale.TokenSaleSettings",
          "name": "settings",
          "type": "tuple"
        }
      ],
      "stateMutability": "view",
      "type": "function"
    },
    {
      "inputs": [
        {
          "components": [
            {
              "internalType": "bool",
              "name": "whitelistOnly",
              "type": "bool"
            },
            {
              "internalType": "uint256",
              "name": "whitelistId",
              "type": "uint256"
            },
            {
              "internalType": "bytes32",
              "name": "whitelistHash",
              "type": "bytes32"
            },
            {
              "internalType": "uint256",
              "name": "maxQuantity",
              "type": "uint256"
            },
            {
              "internalType": "uint256",
              "name": "maxQuantityPerSale",
              "type": "uint256"
            },
            {
              "internalType": "uint256",
              "name": "minQuantityPerSale",
              "type": "uint256"
            },
            {
              "internalType": "uint256",
              "name": "maxQuantityPerAccount",
              "type": "uint256"
            },
            {
              "internalType": "uint256",
              "name": "quantitySold",
              "type": "uint256"
            },
            {
              "internalType": "uint256",
              "name": "startTime",
              "type": "uint256"
            },
            {
              "internalType": "uint256",
              "name": "endTime",
              "type": "uint256"
            },
            {
              "components": [
                {
                  "internalType": "uint256",
                  "name": "price",
                  "type": "uint256"
                },
                {
                  "internalType": "enum ITokenPrice.PriceModifier",
                  "name": "priceModifier",
                  "type": "uint8"
                },
                {
                  "internalType": "uint256",
                  "name": "priceModifierFactor",
                  "type": "uint256"
                },
                {
                  "internalType": "uint256",
                  "name": "maxPrice",
                  "type": "uint256"
                }
              ],
              "internalType": "struct ITokenPrice.TokenPriceData",
              "name": "initialPrice",
              "type": "tuple"
            },
            {
              "internalType": "uint256",
              "name": "tokenHash",
              "type": "uint256"
            }
          ],
          "internalType": "struct IAirdrop.AirdropSettings",
          "name": "_airdrop",
          "type": "tuple"
        }
      ],
      "name": "newAirdrop",
      "outputs": [],
      "stateMutability": "nonpayable",
      "type": "function"
    },
    {
      "inputs": [
        {
          "internalType": "uint256",
          "name": "tokenSaleId",
          "type": "uint256"
        },
        {
          "internalType": "address",
          "name": "receiver",
          "type": "address"
        },
        {
          "internalType": "uint256",
          "name": "quantity",
          "type": "uint256"
        },
        {
          "internalType": "uint256",
          "name": "total",
          "type": "uint256"
        },
        {
          "internalType": "uint256",
          "name": "drop",
          "type": "uint256"
        },
        {
          "internalType": "uint256",
          "name": "index",
          "type": "uint256"
        },
        {
          "internalType": "bytes32[]",
          "name": "merkleProof",
          "type": "bytes32[]"
        }
      ],
      "name": "purchase",
      "outputs": [],
      "stateMutability": "payable",
      "type": "function"
    },
    {
      "inputs": [
        {
          "internalType": "uint256",
          "name": "tokenSaleId",
          "type": "uint256"
        },
        {
          "internalType": "uint256",
          "name": "drop",
          "type": "uint256"
        },
        {
          "internalType": "uint256",
          "name": "leaf",
          "type": "uint256"
        },
        {
          "internalType": "address",
          "name": "recipient",
          "type": "address"
        },
        {
          "internalType": "uint256",
          "name": "amount",
          "type": "uint256"
        },
        {
          "internalType": "uint256",
          "name": "total",
          "type": "uint256"
        },
        {
          "internalType": "bytes32[]",
          "name": "merkleProof",
          "type": "bytes32[]"
        }
      ],
      "name": "redeemToken",
      "outputs": [],
      "stateMutability": "payable",
      "type": "function"
    },
    {
      "inputs": [
        {
          "internalType": "uint256",
          "name": "tokenSaleId",
          "type": "uint256"
        },
        {
          "components": [
            {
              "internalType": "address",
              "name": "contractAddress",
              "type": "address"
            },
            {
              "internalType": "address",
              "name": "token",
              "type": "address"
            },
            {
              "internalType": "uint256",
              "name": "tokenHash",
              "type": "uint256"
            },
            {
              "internalType": "uint256",
              "name": "collectionHash",
              "type": "uint256"
            },
            {
              "internalType": "address",
              "name": "owner",
              "type": "address"
            },
            {
              "internalType": "address",
              "name": "payee",
              "type": "address"
            },
            {
              "internalType": "string",
              "name": "symbol",
              "type": "string"
            },
            {
              "internalType": "string",
              "name": "name",
              "type": "string"
            },
            {
              "internalType": "string",
              "name": "description",
              "type": "string"
            },
            {
              "internalType": "bool",
              "name": "openState",
              "type": "bool"
            },
            {
              "internalType": "uint256",
              "name": "startTime",
              "type": "uint256"
            },
            {
              "internalType": "uint256",
              "name": "endTime",
              "type": "uint256"
            },
            {
              "internalType": "uint256",
              "name": "maxQuantity",
              "type": "uint256"
            },
            {
              "internalType": "uint256",
              "name": "maxQuantityPerSale",
              "type": "uint256"
            },
            {
              "internalType": "uint256",
              "name": "minQuantityPerSale",
              "type": "uint256"
            },
            {
              "internalType": "uint256",
              "name": "maxQuantityPerAccount",
              "type": "uint256"
            },
            {
              "components": [
                {
                  "internalType": "uint256",
                  "name": "price",
                  "type": "uint256"
                },
                {
                  "internalType": "enum ITokenPrice.PriceModifier",
                  "name": "priceModifier",
                  "type": "uint8"
                },
                {
                  "internalType": "uint256",
                  "name": "priceModifierFactor",
                  "type": "uint256"
                },
                {
                  "internalType": "uint256",
                  "name": "maxPrice",
                  "type": "uint256"
                }
              ],
              "internalType": "struct ITokenPrice.TokenPriceData",
              "name": "initialPrice",
              "type": "tuple"
            }
          ],
          "internalType": "struct IAirdropTokenSale.TokenSaleSettings",
          "name": "settings",
          "type": "tuple"
        }
      ],
      "name": "updateTokenSaleSettings",
      "outputs": [],
      "stateMutability": "nonpayable",
      "type": "function"
    }
  ],
  "transactionHash": "0xf0ce3eba7efeab91b6fcfa3dbd1816d7e2f3d616b1ff9e10aaa75cfa41356fb9",
  "args": [],
  "numDeployments": 1,
  "solcInputHash": "af54060ac13cd822e4c3f0f7494b07aa",
  "bytecode": "0x608060405234801561001057600080fd5b50612174806100206000396000f3fe6080604052600436106100605760003560e01c806365ae58b6146100655780639d763be014610098578063da8dadef146100ba578063e95ede06146100cd578063f31934cf146100fa578063f58be6f31461011a578063fef48a511461013a575b600080fd5b34801561007157600080fd5b506100856100803660046117ed565b61014d565b6040519081526020015b60405180910390f35b3480156100a457600080fd5b506100b86100b3366004611963565b610428565b005b6100b86100c83660046118a0565b6104a4565b3480156100d957600080fd5b506100ed6100e8366004611887565b6104bd565b60405161008f9190611f69565b34801561010657600080fd5b506100b8610115366004611742565b6107e6565b34801561012657600080fd5b506100b861013536600461191d565b610877565b6100b86101483660046119a0565b610af6565b60208301516000906001600160a01b03166101af5760405162461bcd60e51b815260206004820152601e60248201527f4d756c7469746f6b656e2061646472657373206d75737420626520736574000060448201526064015b60405180910390fd5b811561020d5760405163671b250f60e01b8152309063671b250f906101da9086908690600401611c5c565b600060405180830381600087803b1580156101f457600080fd5b505af1158015610208573d6000803e3d6000fd5b505050505b6028546040805160208101929092526001600160601b03193060601b169082015260540160408051808303601f1901815291815281516020928301206000818152602a8452829020875181546001600160a01b03199081166001600160a01b03928316178355898601516001840180548316918416919091179055938901516002830155606089015160038301556080890151600483018054861691831691909117905560a089015160058301805490951691161790925560c0870151805191945087936102e3926006850192909101906112c9565b5060e082015180516102ff9160078401916020909101906112c9565b50610100820151805161031c9160088401916020909101906112c9565b5061012082015160098201805491151560ff19928316179055610140830151600a830155610160830151600b830155610180830151600c8301556101a0830151600d8301556101c0830151600e8301556101e0830151600f830155610200830151805160108401908155602082015160118501805493949293919290911660018360038111156103ae576103ae612101565b021790555060408281015160028301556060909201516003909101556000848152602a60205281902080546001600160a01b03191630179055518392507fb75bc04b48e14e4f6d27b395800bfd2af3090c942e28456088012146d20c8a399150610419908790611f69565b60405180910390a29392505050565b6000848152602a6020526040908190206001015490516340c10f1960e01b81526001600160a01b03848116600483015260248201849052909116906340c10f1990604401600060405180830381600087803b15801561048657600080fd5b505af115801561049a573d6000803e3d6000fd5b5050505050505050565b6104b48787878787878734610b02565b50505050505050565b6104c561134d565b60408051610220810182526000848152602a602081815284832080546001600160a01b039081168652600182015481168387015260028201549686019690965260038101546060860152600481015486166080860152600581015490951660a08501529186905290526006909101805460c08301919061054490612095565b80601f016020809104026020016040519081016040528092919081815260200182805461057090612095565b80156105bd5780601f10610592576101008083540402835291602001916105bd565b820191906000526020600020905b8154815290600101906020018083116105a057829003601f168201915b505050505081526020016000602801600201600085815260200190815260200160002060070180546105ee90612095565b80601f016020809104026020016040519081016040528092919081815260200182805461061a90612095565b80156106675780601f1061063c57610100808354040283529160200191610667565b820191906000526020600020905b81548152906001019060200180831161064a57829003601f168201915b5050505050815260200160006028016002016000858152602001908152602001600020600801805461069890612095565b80601f01602080910402602001604051908101604052809291908181526020018280546106c490612095565b80156107115780601f106106e657610100808354040283529160200191610711565b820191906000526020600020905b8154815290600101906020018083116106f457829003601f168201915b50505091835250506000848152602a60208181526040808420600981015460ff908116151584880152600a82015483880152600b8201546060880152600c820154608080890191909152600d83015460a0890152600e83015460c0890152600f83015460e0890152958a905293835281519485019091526010810180548552601190910154610100909501949092918401911660038111156107b5576107b5612101565b60038111156107c6576107c6612101565b815260028201546020820152600390910154604090910152905292915050565b336107ef61108c565b6001600160a01b0316148061080357503033145b61081f5760405162461bcd60e51b81526004016101a690611e56565b6040516343654f3d60e11b815230906386ca9e7a90610842908490600401611ed9565b600060405180830381600087803b15801561085c57600080fd5b505af1158015610870573d6000803e3d6000fd5b5050505050565b3361088061108c565b6001600160a01b0316148061089457503033145b6108b05760405162461bcd60e51b81526004016101a690611e56565b6000828152602a60205260409020600401546001600160a01b031633146109335760405162461bcd60e51b815260206004820152603160248201527f4f6e6c7920746865206f776e65722063616e207570646174652074686520746f6044820152706b656e2073616c652073657474696e677360781b60648201526084016101a6565b6000828152602a6020908152604091829020835181546001600160a01b03199081166001600160a01b03928316178355858401516001840180548316918416919091179055938501516002830155606085015160038301556080850151600483018054861691831691909117905560a085015160058301805490951691161790925560c083015180518493926109d09260068501929101906112c9565b5060e082015180516109ec9160078401916020909101906112c9565b506101008201518051610a099160088401916020909101906112c9565b5061012082015160098201805491151560ff19928316179055610140830151600a830155610160830151600b830155610180830151600c8301556101a0830151600d8301556101c0830151600e8301556101e0830151600f83015561020083015180516010840190815560208201516011850180549394929391929091166001836003811115610a9b57610a9b612101565b0217905550604082015181600201556060820151816003015550509050507f243f6103dcdeac8ced1c019ee514b95aefe88bc49ed1d95f455cb8a668a9cc628282604051610aea929190611f7c565b60405180910390a15050565b6104b4878585858a8a87345b8315610e6757600084815260136020526040902060018101548514610b395760405162461bcd60e51b81526004016101a690611d22565b60405163434705f160e11b8152600481018690526001600160a01b0389166024820152309063868e0be29060440160206040518083038186803b158015610b7f57600080fd5b505afa158015610b93573d6000803e3d6000fd5b505050506040513d601f19601f82011682018060405250810190610bb7919061171e565b15610bff5760405162461bcd60e51b8152602060048201526018602482015277105a5c991c9bdc08185b1c9958591e481c995919595b595960421b60448201526064016101a6565b60038101541580610c315750600381015415801590610c3157508060030154878260070154610c2e919061205e565b11155b610c4d5760405162461bcd60e51b81526004016101a690611d50565b600a8101548290610c5f908990612076565b1115610ca95760405162461bcd60e51b8152602060048201526019602482015278139bdd08195b9bdd59da081c1c9a58d948185d1d1858da1959603a1b60448201526064016101a6565b60058101541580610ccc5750600581015415801590610ccc575080600501548710155b610ce85760405162461bcd60e51b81526004016101a690611ddf565b60048101541580610d0b5750600481015415801590610d0b575080600401548711155b610d275760405162461bcd60e51b81526004016101a690611d9d565b806008015442101580610d3c57506008810154155b610d585760405162461bcd60e51b81526004016101a690611e20565b806009015442111580610d6d57506009810154155b610d895760405162461bcd60e51b81526004016101a690611ead565b805460ff1615610df35760405163378e98bb60e01b8152309063378e98bb90610dc090889088908d908d908d908b90600401611f9d565b600060405180830381600087803b158015610dda57600080fd5b505af1158015610dee573d6000803e3d6000fd5b505050505b60005b87811015610e6057610e098a878b6110ba565b50886001600160a01b0316867fcab378d19b1950615aa3acf93c1d36654ad5200ab340d952bde8072bfec95d19868b604051610e46929190611c3a565b60405180910390a380610e58816120d0565b915050610df6565b505061049a565b6000888152602a60205260409020600c01541580610eda57506000888152602a60205260409020600c015415801590610eda57506000888152602a602090815260408220600c0154918052602d90527f6648a85983aca0407b603b260cacb25b5e5e8e5194522de3d8a800e71aa41bae54105b610ef65760405162461bcd60e51b81526004016101a690611d50565b6000888152602a60205260409020600e01541580610f4057506000888152602a60205260409020600e015415801590610f4057506000888152602a60205260409020600e01548610155b610f5c5760405162461bcd60e51b81526004016101a690611ddf565b6000888152602a60205260409020600d01541580610fa657506000888152602a60205260409020600d015415801590610fa657506000888152602a60205260409020600d01548611155b610fc25760405162461bcd60e51b81526004016101a690611d9d565b6000888152602a60205260409020600a015442101580610ff157506000888152602a60205260409020600a0154155b61100d5760405162461bcd60e51b81526004016101a690611e20565b6000888152602a60205260409020600b01544211158061103c57506000888152602a60205260409020600b0154155b6110585760405162461bcd60e51b81526004016101a690611ead565b60005b868110156110815761106e89868a6110ba565b5080611079816120d0565b91505061105b565b505050505050505050565b7fc8fcad8db84d3cc18b4c41d551ea0ee66dd599cde068d998e57d5e09332c1320546001600160a01b031690565b600080831561110b5760008481526013602052604090206001015484146110f35760405162461bcd60e51b81526004016101a690611d22565b506000838152601360205260409020600e015461111f565b506000848152602a60205260409020600201545b806111a95760008581526029602052604090205461113e90600161205e565b60008681526029602090815260409182902083905581516f61697264726f70546f6b656e53616c6560801b81830152606087901b6001600160601b03191660308201526044810189905260648082019490945282518082039094018452608401909152815191012090505b6040516304ebb1df60e51b815260048101869052602481018590526001600160a01b0384166044820152600160648201523090639d763be090608401600060405180830381600087803b1580156111ff57600080fd5b505af1158015611213573d6000803e3d6000fd5b5050506000858152602d6020526040812080546001935090919061123890849061205e565b90915550506000848152602c602090815260408083206001600160a01b0387168452909152812080546001929061127090849061205e565b9091555050604080518681526020810183905260018183015290516001600160a01b038516917f9724b007b03edd022b805a7acc9bbc33ce21a84b5c9e360a5f71b367b97db86d919081900360600190a2949350505050565b8280546112d590612095565b90600052602060002090601f0160209004810192826112f7576000855561133d565b82601f1061131057805160ff191683800117855561133d565b8280016001018555821561133d579182015b8281111561133d578251825591602001919060010190611322565b50611349929150611420565b5090565b60405180610220016040528060006001600160a01b0316815260200160006001600160a01b03168152602001600081526020016000815260200160006001600160a01b0316815260200160006001600160a01b0316815260200160608152602001606081526020016060815260200160001515815260200160008152602001600081526020016000815260200160008152602001600081526020016000815260200161141b604080516080810190915260008082526020820190815260200160008152602001600081525090565b905290565b5b808211156113495760008155600101611421565b80356001600160a01b038116811461144c57600080fd5b919050565b600082601f83011261146257600080fd5b813560206001600160401b0382111561147d5761147d612117565b8160051b61148c82820161202e565b8381528281019086840183880185018910156114a757600080fd5b600093505b858410156114ca5780358352600193909301929184019184016114ac565b50979650505050505050565b803561144c8161212d565b80356004811061144c57600080fd5b600082601f83011261150157600080fd5b81356001600160401b0381111561151a5761151a612117565b61152d601f8201601f191660200161202e565b81815284602083860101111561154257600080fd5b816020850160208301376000918101602001919091529392505050565b60006080828403121561157157600080fd5b604051608081016001600160401b038111828210171561159357611593612117565b604052823581529050806115a9602084016114e1565b602082015260408301356040820152606083013560608201525092915050565b600061028082840312156115dc57600080fd5b6115e4611fe2565b90506115ef82611435565b81526115fd60208301611435565b6020820152604082013560408201526060820135606082015261162260808301611435565b608082015261163360a08301611435565b60a082015260c08201356001600160401b038082111561165257600080fd5b61165e858386016114f0565b60c084015260e084013591508082111561167757600080fd5b611683858386016114f0565b60e08401526101009150818401358181111561169e57600080fd5b6116aa868287016114f0565b838501525050506101206116bf8184016114d6565b908201526101408281013590820152610160808301359082015261018080830135908201526101a080830135908201526101c080830135908201526101e080830135908201526102006117148482850161155f565b9082015292915050565b60006020828403121561173057600080fd5b815161173b8161212d565b9392505050565b60006101e0828403121561175557600080fd5b61175d61200b565b611766836114d6565b81526020830135602082015260408301356040820152606083013560608201526080830135608082015260a083013560a082015260c083013560c082015260e083013560e08201526101008084013581830152506101208084013581830152506101406117d58582860161155f565b908201526101c0929092013561016083015250919050565b60008060006040848603121561180257600080fd5b83356001600160401b038082111561181957600080fd5b611825878388016115c9565b9450602086013591508082111561183b57600080fd5b818601915086601f83011261184f57600080fd5b81358181111561185e57600080fd5b8760206101e08302850101111561187457600080fd5b6020830194508093505050509250925092565b60006020828403121561189957600080fd5b5035919050565b600080600080600080600060e0888a0312156118bb57600080fd5b873596506118cb60208901611435565b955060408801359450606088013593506080880135925060a0880135915060c08801356001600160401b0381111561190257600080fd5b61190e8a828b01611451565b91505092959891949750929550565b6000806040838503121561193057600080fd5b8235915060208301356001600160401b0381111561194d57600080fd5b611959858286016115c9565b9150509250929050565b6000806000806080858703121561197957600080fd5b843593506020850135925061199060408601611435565b9396929550929360600135925050565b600080600080600080600060e0888a0312156119bb57600080fd5b8735965060208801359550604088013594506119d960608901611435565b93506080880135925060a0880135915060c08801356001600160401b0381111561190257600080fd5b6001600160a01b03169052565b600081518084526020808501945080840160005b83811015611a3f57815187529582019590820190600101611a23565b509495945050505050565b60048110611a6857634e487b7160e01b600052602160045260246000fd5b9052565b6000815180845260005b81811015611a9257602081850181015186830182015201611a76565b81811115611aa4576000602083870101525b50601f01601f19169290920160200192915050565b80358252611ac9602082016114e1565b611ad66020840182611a4a565b5060408181013590830152606090810135910152565b805182526020810151611b026020840182611a4a565b5060408181015190830152606090810151910152565b6000610280611b28848451611a02565b6020830151611b3a6020860182611a02565b5060408301516040850152606083015160608501526080830151611b616080860182611a02565b5060a0830151611b7460a0860182611a02565b5060c08301518160c0860152611b8c82860182611a6c565b91505060e083015184820360e0860152611ba68282611a6c565b9150506101008084015185830382870152611bc18382611a6c565b9250505061012080840151611bd98287018215159052565b50506101408381015190850152610160808401519085015261018080840151908501526101a080840151908501526101c080840151908501526101e0808401519085015261020080840151611c3082870182611aec565b5090949350505050565b604081526000611c4d6040830185611a0f565b90508260208301529392505050565b6020808252818101839052600090604080840186845b87811015611d1557611c8d83611c87846114d6565b15159052565b81850135838601528382013584840152606080830135908401526080808301359084015260a0808301359084015260c0808301359084015260e0808301359084015261010080830135908401526101208083013590840152610140611cf6818501828501611ab9565b506101c082810135908401526101e09283019290910190600101611c72565b5090979650505050505050565b602080825260149082015273105a5c991c9bdc08191bd95cdb9d08195e1a5cdd60621b604082015260600190565b6020808252602d908201527f546865206d6178696d756d20616d6f756e74206f6620746f6b656e732068617360408201526c103132b2b7103137bab3b43a1760991b606082015260800190565b60208082526022908201527f4d6178696d756d207175616e74697479207065722073616c6520657863656564604082015261195960f21b606082015260800190565b60208082526021908201527f4d696e696d756d207175616e74697479207065722073616c65206e6f74206d656040820152601d60fa1b606082015260800190565b6020808252601c908201527b151a19481cd85b19481a185cc81b9bdd081cdd185c9d1959081e595d60221b604082015260600190565b60208082526037908201527f455243313135353a206f6e6c792074686520636f6e7472616374206f776e65726040820152761031b0b71031b0b636103a3434b990333ab731ba34b7b760491b606082015260800190565b602080825260129082015271151a19481cd85b19481a185cc8195b99195960721b604082015260600190565b8151151581526101e081016020830151602083015260408301516040830152606083015160608301526080830151608083015260a083015160a083015260c083015160c083015260e083015160e083015261010080840151818401525061012080840151818401525061014080840151611f5582850182611aec565b50506101608301516101c083015292915050565b60208152600061173b6020830184611b18565b828152604060208201526000611f956040830184611b18565b949350505050565b86815285602082015260018060a01b038516604082015283606082015282608082015260c060a08201526000611fd660c0830184611a0f565b98975050505050505050565b60405161022081016001600160401b038111828210171561200557612005612117565b60405290565b60405161018081016001600160401b038111828210171561200557612005612117565b604051601f8201601f191681016001600160401b038111828210171561205657612056612117565b604052919050565b60008219821115612071576120716120eb565b500190565b6000816000190483118215151615612090576120906120eb565b500290565b600181811c908216806120a957607f821691505b602082108114156120ca57634e487b7160e01b600052602260045260246000fd5b50919050565b60006000198214156120e4576120e46120eb565b5060010190565b634e487b7160e01b600052601160045260246000fd5b634e487b7160e01b600052602160045260246000fd5b634e487b7160e01b600052604160045260246000fd5b801515811461213b57600080fd5b5056fea264697066735822122064e22bee4a430ae7c0e4cf20583f568b14cb2a175934b8c0191b183ebfb9a36c64736f6c63430008060033",
  "libraries": {
    "AddressSet": "0xf88EB844922B1ab0e153cF9E9bEefecc9512DE06",
    "UInt256Set": "0xCc995d7a8c7c499128cB34Ef0dA290F5f4f4EE71",
    "LibAppStorage": "0x36DFFA53Be73EC4DC419d32142dce5577DbBe7DA",
    "LibDiamond": "0xd77fa05d7Fba908919b3A4b9E41Cc62A1A7F728D",
    "MerkleProof": "0xe2f6D7E396B31d50dc5d11aD23c17859aDc95bB3"
  },
  "devdoc": {
    "kind": "dev",
    "methods": {
      "createTokenSale((address,address,uint256,uint256,address,address,string,string,string,bool,uint256,uint256,uint256,uint256,uint256,uint256,(uint256,uint8,uint256,uint256)),(bool,uint256,bytes32,uint256,uint256,uint256,uint256,uint256,uint256,uint256,(uint256,uint8,uint256,uint256),uint256)[])": {
        "params": {
          "tokenSaleInit": "struct with tokensale data"
        }
      },
      "newAirdrop((bool,uint256,bytes32,uint256,uint256,uint256,uint256,uint256,uint256,uint256,(uint256,uint8,uint256,uint256),uint256))": {
        "params": {
          "_airdrop": "the id of the airdrop"
        }
      },
      "redeemToken(uint256,uint256,uint256,address,uint256,uint256,bytes32[])": {
        "params": {
          "amount": "- the seed",
          "drop": "- the address of the account receiving the item",
          "leaf": "- the seed",
          "merkleProof": "- the seed",
          "recipient": "- the seed"
        }
      },
      "updateTokenSaleSettings(uint256,(address,address,uint256,uint256,address,address,string,string,string,bool,uint256,uint256,uint256,uint256,uint256,uint256,(uint256,uint8,uint256,uint256)))": {
        "params": {
          "settings": "- the token sake settings"
        }
      }
    },
    "version": 1
  },
  "userdoc": {
    "events": {
      "TokenPurchased(uint256,address,uint256,uint256)": {
        "notice": "emitted when a token is opened"
      },
      "TokenSaleClosed(uint256,(address,address,uint256,uint256,address,address,string,string,string,bool,uint256,uint256,uint256,uint256,uint256,uint256,(uint256,uint8,uint256,uint256)))": {
        "notice": "emitted when a token is opened"
      },
      "TokenSaleOpen(uint256,(address,address,uint256,uint256,address,address,string,string,string,bool,uint256,uint256,uint256,uint256,uint256,uint256,(uint256,uint8,uint256,uint256)))": {
        "notice": "emitted when a token is opened"
      }
    },
    "kind": "user",
    "methods": {
      "createTokenSale((address,address,uint256,uint256,address,address,string,string,string,bool,uint256,uint256,uint256,uint256,uint256,uint256,(uint256,uint8,uint256,uint256)),(bool,uint256,bytes32,uint256,uint256,uint256,uint256,uint256,uint256,uint256,(uint256,uint8,uint256,uint256),uint256)[])": {
        "notice": "intialize the contract. should be called by overriding contract"
      },
      "getTokenSaleSettings(uint256)": {
        "notice": "Get the token sale settings"
      },
      "newAirdrop((bool,uint256,bytes32,uint256,uint256,uint256,uint256,uint256,uint256,uint256,(uint256,uint8,uint256,uint256),uint256))": {
        "notice": "add a new airdrop"
      },
      "updateTokenSaleSettings(uint256,(address,address,uint256,uint256,address,address,string,string,string,bool,uint256,uint256,uint256,uint256,uint256,uint256,(uint256,uint8,uint256,uint256)))": {
        "notice": "Updates the token sale settings"
      }
    },
    "version": 1
  },
  "storageLayout": {
    "storage": [
      {
        "astId": 2452,
        "contract": "contracts/facets/AirdropTokenSaleFacet.sol:AirdropTokenSaleFacet",
        "label": "s",
        "offset": 0,
        "slot": "0",
        "type": "t_struct(AppStorage)2440_storage"
      }
    ],
    "types": {
      "t_address": {
        "encoding": "inplace",
        "label": "address",
        "numberOfBytes": "20"
      },
      "t_address_payable": {
        "encoding": "inplace",
        "label": "address payable",
        "numberOfBytes": "20"
      },
      "t_array(t_string_storage)dyn_storage": {
        "base": "t_string_storage",
        "encoding": "dynamic_array",
        "label": "string[]",
        "numberOfBytes": "32"
      },
      "t_array(t_struct(ForgeItemRequirement)6272_storage)dyn_storage": {
        "base": "t_struct(ForgeItemRequirement)6272_storage",
        "encoding": "dynamic_array",
        "label": "struct ForgeItemRequirement[]",
        "numberOfBytes": "32"
      },
      "t_array(t_struct(Requirement)6784_storage)dyn_storage": {
        "base": "t_struct(Requirement)6784_storage",
        "encoding": "dynamic_array",
        "label": "struct IRequirement.Requirement[]",
        "numberOfBytes": "32"
      },
      "t_array(t_struct(Token)6891_storage)dyn_storage": {
        "base": "t_struct(Token)6891_storage",
        "encoding": "dynamic_array",
        "label": "struct IToken.Token[]",
        "numberOfBytes": "32"
      },
      "t_array(t_uint256)dyn_storage": {
        "base": "t_uint256",
        "encoding": "dynamic_array",
        "label": "uint256[]",
        "numberOfBytes": "32"
      },
      "t_bool": {
        "encoding": "inplace",
        "label": "bool",
        "numberOfBytes": "1"
      },
      "t_bytes32": {
        "encoding": "inplace",
        "label": "bytes32",
        "numberOfBytes": "32"
      },
      "t_enum(PriceModifier)7083": {
        "encoding": "inplace",
        "label": "enum ITokenPrice.PriceModifier",
        "numberOfBytes": "1"
      },
      "t_enum(TokenSourceType)6942": {
        "encoding": "inplace",
        "label": "enum IToken.TokenSourceType",
        "numberOfBytes": "1"
      },
      "t_mapping(t_address,t_bool)": {
        "encoding": "mapping",
        "key": "t_address",
        "label": "mapping(address => bool)",
        "numberOfBytes": "32",
        "value": "t_bool"
      },
      "t_mapping(t_address,t_mapping(t_address,t_bool))": {
        "encoding": "mapping",
        "key": "t_address",
        "label": "mapping(address => mapping(address => bool))",
        "numberOfBytes": "32",
        "value": "t_mapping(t_address,t_bool)"
      },
      "t_mapping(t_address,t_mapping(t_uint256,t_uint256))": {
        "encoding": "mapping",
        "key": "t_address",
        "label": "mapping(address => mapping(uint256 => uint256))",
        "numberOfBytes": "32",
        "value": "t_mapping(t_uint256,t_uint256)"
      },
      "t_mapping(t_address,t_struct(AddressData)6187_storage)": {
        "encoding": "mapping",
        "key": "t_address",
        "label": "mapping(address => struct IERC721A.AddressData)",
        "numberOfBytes": "32",
        "value": "t_struct(AddressData)6187_storage"
      },
      "t_mapping(t_address,t_struct(FractionalizedTokenData)2306_storage)": {
        "encoding": "mapping",
        "key": "t_address",
        "label": "mapping(address => struct FractionalizedTokenData)",
        "numberOfBytes": "32",
        "value": "t_struct(FractionalizedTokenData)2306_storage"
      },
      "t_mapping(t_address,t_struct(TokenSaleEntry)7125_storage)": {
        "encoding": "mapping",
        "key": "t_address",
        "label": "mapping(address => struct ITokenSale.TokenSaleEntry)",
        "numberOfBytes": "32",
        "value": "t_struct(TokenSaleEntry)7125_storage"
      },
      "t_mapping(t_address,t_uint256)": {
        "encoding": "mapping",
        "key": "t_address",
        "label": "mapping(address => uint256)",
        "numberOfBytes": "32",
        "value": "t_uint256"
      },
      "t_mapping(t_string_memory_ptr,t_uint256)": {
        "encoding": "mapping",
        "key": "t_string_memory_ptr",
        "label": "mapping(string => uint256)",
        "numberOfBytes": "32",
        "value": "t_uint256"
      },
      "t_mapping(t_uint256,t_address)": {
        "encoding": "mapping",
        "key": "t_uint256",
        "label": "mapping(uint256 => address)",
        "numberOfBytes": "32",
        "value": "t_address"
      },
      "t_mapping(t_uint256,t_array(t_struct(Requirement)6784_storage)dyn_storage)": {
        "encoding": "mapping",
        "key": "t_uint256",
        "label": "mapping(uint256 => struct IRequirement.Requirement[])",
        "numberOfBytes": "32",
        "value": "t_array(t_struct(Requirement)6784_storage)dyn_storage"
      },
      "t_mapping(t_uint256,t_array(t_struct(Token)6891_storage)dyn_storage)": {
        "encoding": "mapping",
        "key": "t_uint256",
        "label": "mapping(uint256 => struct IToken.Token[])",
        "numberOfBytes": "32",
        "value": "t_array(t_struct(Token)6891_storage)dyn_storage"
      },
      "t_mapping(t_uint256,t_bool)": {
        "encoding": "mapping",
        "key": "t_uint256",
        "label": "mapping(uint256 => bool)",
        "numberOfBytes": "32",
        "value": "t_bool"
      },
      "t_mapping(t_uint256,t_mapping(t_address,t_uint256))": {
        "encoding": "mapping",
        "key": "t_uint256",
        "label": "mapping(uint256 => mapping(address => uint256))",
        "numberOfBytes": "32",
        "value": "t_mapping(t_address,t_uint256)"
      },
      "t_mapping(t_uint256,t_mapping(t_string_memory_ptr,t_uint256))": {
        "encoding": "mapping",
        "key": "t_uint256",
        "label": "mapping(uint256 => mapping(string => uint256))",
        "numberOfBytes": "32",
        "value": "t_mapping(t_string_memory_ptr,t_uint256)"
      },
      "t_mapping(t_uint256,t_mapping(t_uint256,t_struct(ForgeItemDefinition)6293_storage))": {
        "encoding": "mapping",
        "key": "t_uint256",
        "label": "mapping(uint256 => mapping(uint256 => struct ForgeItemDefinition))",
        "numberOfBytes": "32",
        "value": "t_mapping(t_uint256,t_struct(ForgeItemDefinition)6293_storage)"
      },
      "t_mapping(t_uint256,t_mapping(t_uint256,t_uint256))": {
        "encoding": "mapping",
        "key": "t_uint256",
        "label": "mapping(uint256 => mapping(uint256 => uint256))",
        "numberOfBytes": "32",
        "value": "t_mapping(t_uint256,t_uint256)"
      },
      "t_mapping(t_uint256,t_struct(AirdropSettings)5195_storage)": {
        "encoding": "mapping",
        "key": "t_uint256",
        "label": "mapping(uint256 => struct IAirdrop.AirdropSettings)",
        "numberOfBytes": "32",
        "value": "t_struct(AirdropSettings)5195_storage"
      },
      "t_mapping(t_uint256,t_struct(Claim)5386_storage)": {
        "encoding": "mapping",
        "key": "t_uint256",
        "label": "mapping(uint256 => struct IClaim.Claim)",
        "numberOfBytes": "32",
        "value": "t_struct(Claim)5386_storage"
      },
      "t_mapping(t_uint256,t_struct(ForgeDefinition)6265_storage)": {
        "encoding": "mapping",
        "key": "t_uint256",
        "label": "mapping(uint256 => struct ForgeDefinition)",
        "numberOfBytes": "32",
        "value": "t_struct(ForgeDefinition)6265_storage"
      },
      "t_mapping(t_uint256,t_struct(ForgeItemDefinition)6293_storage)": {
        "encoding": "mapping",
        "key": "t_uint256",
        "label": "mapping(uint256 => struct ForgeItemDefinition)",
        "numberOfBytes": "32",
        "value": "t_struct(ForgeItemDefinition)6293_storage"
      },
      "t_mapping(t_uint256,t_struct(GemPoolStruct)6489_storage)": {
        "encoding": "mapping",
        "key": "t_uint256",
        "label": "mapping(uint256 => struct IGemPool.GemPoolStruct)",
        "numberOfBytes": "32",
        "value": "t_struct(GemPoolStruct)6489_storage"
      },
      "t_mapping(t_uint256,t_struct(MarketItem)6753_storage)": {
        "encoding": "mapping",
        "key": "t_uint256",
        "label": "mapping(uint256 => struct IMarketplace.MarketItem)",
        "numberOfBytes": "32",
        "value": "t_struct(MarketItem)6753_storage"
      },
      "t_mapping(t_uint256,t_struct(Set)8943_storage)": {
        "encoding": "mapping",
        "key": "t_uint256",
        "label": "mapping(uint256 => struct UInt256Set.Set)",
        "numberOfBytes": "32",
        "value": "t_struct(Set)8943_storage"
      },
      "t_mapping(t_uint256,t_struct(TokenOwnership)6178_storage)": {
        "encoding": "mapping",
        "key": "t_uint256",
        "label": "mapping(uint256 => struct IERC721A.TokenOwnership)",
        "numberOfBytes": "32",
        "value": "t_struct(TokenOwnership)6178_storage"
      },
      "t_mapping(t_uint256,t_struct(TokenSaleSettings)5293_storage)": {
        "encoding": "mapping",
        "key": "t_uint256",
        "label": "mapping(uint256 => struct IAirdropTokenSale.TokenSaleSettings)",
        "numberOfBytes": "32",
        "value": "t_struct(TokenSaleSettings)5293_storage"
      },
      "t_mapping(t_uint256,t_struct(TokenSet)6903_storage)": {
        "encoding": "mapping",
        "key": "t_uint256",
        "label": "mapping(uint256 => struct IToken.TokenSet)",
        "numberOfBytes": "32",
        "value": "t_struct(TokenSet)6903_storage"
      },
      "t_mapping(t_uint256,t_uint256)": {
        "encoding": "mapping",
        "key": "t_uint256",
        "label": "mapping(uint256 => uint256)",
        "numberOfBytes": "32",
        "value": "t_uint256"
      },
      "t_string_memory_ptr": {
        "encoding": "bytes",
        "label": "string",
        "numberOfBytes": "32"
      },
      "t_string_storage": {
        "encoding": "bytes",
        "label": "string",
        "numberOfBytes": "32"
      },
      "t_struct(AddressData)6187_storage": {
        "encoding": "inplace",
        "label": "struct IERC721A.AddressData",
        "members": [
          {
            "astId": 6180,
            "contract": "contracts/facets/AirdropTokenSaleFacet.sol:AirdropTokenSaleFacet",
            "label": "balance",
            "offset": 0,
            "slot": "0",
            "type": "t_uint64"
          },
          {
            "astId": 6182,
            "contract": "contracts/facets/AirdropTokenSaleFacet.sol:AirdropTokenSaleFacet",
            "label": "numberMinted",
            "offset": 8,
            "slot": "0",
            "type": "t_uint64"
          },
          {
            "astId": 6184,
            "contract": "contracts/facets/AirdropTokenSaleFacet.sol:AirdropTokenSaleFacet",
            "label": "numberBurned",
            "offset": 16,
            "slot": "0",
            "type": "t_uint64"
          },
          {
            "astId": 6186,
            "contract": "contracts/facets/AirdropTokenSaleFacet.sol:AirdropTokenSaleFacet",
            "label": "aux",
            "offset": 24,
            "slot": "0",
            "type": "t_uint64"
          }
        ],
        "numberOfBytes": "32"
      },
      "t_struct(AirdropSettings)5195_storage": {
        "encoding": "inplace",
        "label": "struct IAirdrop.AirdropSettings",
        "members": [
          {
            "astId": 5171,
            "contract": "contracts/facets/AirdropTokenSaleFacet.sol:AirdropTokenSaleFacet",
            "label": "whitelistOnly",
            "offset": 0,
            "slot": "0",
            "type": "t_bool"
          },
          {
            "astId": 5173,
            "contract": "contracts/facets/AirdropTokenSaleFacet.sol:AirdropTokenSaleFacet",
            "label": "whitelistId",
            "offset": 0,
            "slot": "1",
            "type": "t_uint256"
          },
          {
            "astId": 5175,
            "contract": "contracts/facets/AirdropTokenSaleFacet.sol:AirdropTokenSaleFacet",
            "label": "whitelistHash",
            "offset": 0,
            "slot": "2",
            "type": "t_bytes32"
          },
          {
            "astId": 5177,
            "contract": "contracts/facets/AirdropTokenSaleFacet.sol:AirdropTokenSaleFacet",
            "label": "maxQuantity",
            "offset": 0,
            "slot": "3",
            "type": "t_uint256"
          },
          {
            "astId": 5179,
            "contract": "contracts/facets/AirdropTokenSaleFacet.sol:AirdropTokenSaleFacet",
            "label": "maxQuantityPerSale",
            "offset": 0,
            "slot": "4",
            "type": "t_uint256"
          },
          {
            "astId": 5181,
            "contract": "contracts/facets/AirdropTokenSaleFacet.sol:AirdropTokenSaleFacet",
            "label": "minQuantityPerSale",
            "offset": 0,
            "slot": "5",
            "type": "t_uint256"
          },
          {
            "astId": 5183,
            "contract": "contracts/facets/AirdropTokenSaleFacet.sol:AirdropTokenSaleFacet",
            "label": "maxQuantityPerAccount",
            "offset": 0,
            "slot": "6",
            "type": "t_uint256"
          },
          {
            "astId": 5185,
            "contract": "contracts/facets/AirdropTokenSaleFacet.sol:AirdropTokenSaleFacet",
            "label": "quantitySold",
            "offset": 0,
            "slot": "7",
            "type": "t_uint256"
          },
          {
            "astId": 5187,
            "contract": "contracts/facets/AirdropTokenSaleFacet.sol:AirdropTokenSaleFacet",
            "label": "startTime",
            "offset": 0,
            "slot": "8",
            "type": "t_uint256"
          },
          {
            "astId": 5189,
            "contract": "contracts/facets/AirdropTokenSaleFacet.sol:AirdropTokenSaleFacet",
            "label": "endTime",
            "offset": 0,
            "slot": "9",
            "type": "t_uint256"
          },
          {
            "astId": 5192,
            "contract": "contracts/facets/AirdropTokenSaleFacet.sol:AirdropTokenSaleFacet",
            "label": "initialPrice",
            "offset": 0,
            "slot": "10",
            "type": "t_struct(TokenPriceData)7093_storage"
          },
          {
            "astId": 5194,
            "contract": "contracts/facets/AirdropTokenSaleFacet.sol:AirdropTokenSaleFacet",
            "label": "tokenHash",
            "offset": 0,
            "slot": "14",
            "type": "t_uint256"
          }
        ],
        "numberOfBytes": "480"
      },
      "t_struct(AirdropTokenSaleStorage)2351_storage": {
        "encoding": "inplace",
        "label": "struct AirdropTokenSaleStorage",
        "members": [
          {
            "astId": 2327,
            "contract": "contracts/facets/AirdropTokenSaleFacet.sol:AirdropTokenSaleFacet",
            "label": "tsnonce",
            "offset": 0,
            "slot": "0",
            "type": "t_uint256"
          },
          {
            "astId": 2331,
            "contract": "contracts/facets/AirdropTokenSaleFacet.sol:AirdropTokenSaleFacet",
            "label": "nonces",
            "offset": 0,
            "slot": "1",
            "type": "t_mapping(t_uint256,t_uint256)"
          },
          {
            "astId": 2336,
            "contract": "contracts/facets/AirdropTokenSaleFacet.sol:AirdropTokenSaleFacet",
            "label": "_tokenSales",
            "offset": 0,
            "slot": "2",
            "type": "t_mapping(t_uint256,t_struct(TokenSaleSettings)5293_storage)"
          },
          {
            "astId": 2340,
            "contract": "contracts/facets/AirdropTokenSaleFacet.sol:AirdropTokenSaleFacet",
            "label": "tokenSaleOpen",
            "offset": 0,
            "slot": "3",
            "type": "t_mapping(t_uint256,t_bool)"
          },
          {
            "astId": 2346,
            "contract": "contracts/facets/AirdropTokenSaleFacet.sol:AirdropTokenSaleFacet",
            "label": "purchased",
            "offset": 0,
            "slot": "4",
            "type": "t_mapping(t_uint256,t_mapping(t_address,t_uint256))"
          },
          {
            "astId": 2350,
            "contract": "contracts/facets/AirdropTokenSaleFacet.sol:AirdropTokenSaleFacet",
            "label": "totalPurchased",
            "offset": 0,
            "slot": "5",
            "type": "t_mapping(t_uint256,t_uint256)"
          }
        ],
        "numberOfBytes": "192"
      },
      "t_struct(AppStorage)2440_storage": {
        "encoding": "inplace",
        "label": "struct AppStorage",
        "members": [
          {
            "astId": 2394,
            "contract": "contracts/facets/AirdropTokenSaleFacet.sol:AirdropTokenSaleFacet",
            "label": "marketplaceStorage",
            "offset": 0,
            "slot": "0",
            "type": "t_struct(MarketplaceStorage)2284_storage"
          },
          {
            "astId": 2397,
            "contract": "contracts/facets/AirdropTokenSaleFacet.sol:AirdropTokenSaleFacet",
            "label": "tokenMinterStorage",
            "offset": 0,
            "slot": "4",
            "type": "t_struct(TokenMinterStorage)2293_storage"
          },
          {
            "astId": 2400,
            "contract": "contracts/facets/AirdropTokenSaleFacet.sol:AirdropTokenSaleFacet",
            "label": "erc1155Storage",
            "offset": 0,
            "slot": "7",
            "type": "t_struct(ERC1155Storage)2205_storage"
          },
          {
            "astId": 2403,
            "contract": "contracts/facets/AirdropTokenSaleFacet.sol:AirdropTokenSaleFacet",
            "label": "fractionalizerStorage",
            "offset": 0,
            "slot": "15",
            "type": "t_struct(FractionalizerStorage)2314_storage"
          },
          {
            "astId": 2406,
            "contract": "contracts/facets/AirdropTokenSaleFacet.sol:AirdropTokenSaleFacet",
            "label": "marketUtilsStorage",
            "offset": 0,
            "slot": "17",
            "type": "t_struct(MarketUtilsStorage)2382_storage"
          },
          {
            "astId": 2409,
            "contract": "contracts/facets/AirdropTokenSaleFacet.sol:AirdropTokenSaleFacet",
            "label": "tokenSaleStorage",
            "offset": 0,
            "slot": "18",
            "type": "t_struct(TokenSaleStorage)2320_storage"
          },
          {
            "astId": 2412,
            "contract": "contracts/facets/AirdropTokenSaleFacet.sol:AirdropTokenSaleFacet",
            "label": "merkleAirdropStorage",
            "offset": 0,
            "slot": "19",
            "type": "t_struct(MerkleAirdropStorage)2377_storage"
          },
          {
            "astId": 2415,
            "contract": "contracts/facets/AirdropTokenSaleFacet.sol:AirdropTokenSaleFacet",
            "label": "erc721AStorage",
            "offset": 0,
            "slot": "24",
            "type": "t_struct(ERC721AStorage)2234_storage"
          },
          {
            "astId": 2418,
            "contract": "contracts/facets/AirdropTokenSaleFacet.sol:AirdropTokenSaleFacet",
            "label": "erc2981Storage",
            "offset": 0,
            "slot": "32",
            "type": "t_struct(ERC2981Storage)2243_storage"
          },
          {
            "astId": 2421,
            "contract": "contracts/facets/AirdropTokenSaleFacet.sol:AirdropTokenSaleFacet",
            "label": "attributeMutationPoolStorage",
            "offset": 0,
            "slot": "34",
            "type": "t_struct(AttributeMutationPoolStorage)2258_storage"
          },
          {
            "astId": 2424,
            "contract": "contracts/facets/AirdropTokenSaleFacet.sol:AirdropTokenSaleFacet",
            "label": "tokenAttributeStorage",
            "offset": 0,
            "slot": "39",
            "type": "t_struct(TokenAttributeStorage)2265_storage"
          },
          {
            "astId": 2427,
            "contract": "contracts/facets/AirdropTokenSaleFacet.sol:AirdropTokenSaleFacet",
            "label": "airdropTokenSaleStorage",
            "offset": 0,
            "slot": "40",
            "type": "t_struct(AirdropTokenSaleStorage)2351_storage"
          },
          {
            "astId": 2430,
            "contract": "contracts/facets/AirdropTokenSaleFacet.sol:AirdropTokenSaleFacet",
            "label": "feeManagerStorage",
            "offset": 0,
            "slot": "46",
            "type": "t_struct(FeeManagerStorage)2325_storage"
          },
          {
            "astId": 2433,
            "contract": "contracts/facets/AirdropTokenSaleFacet.sol:AirdropTokenSaleFacet",
            "label": "bankStorage",
            "offset": 0,
            "slot": "47",
            "type": "t_struct(BankStorage)2391_storage"
          },
          {
            "astId": 2436,
            "contract": "contracts/facets/AirdropTokenSaleFacet.sol:AirdropTokenSaleFacet",
            "label": "forgeStorage",
            "offset": 0,
            "slot": "49",
            "type": "t_struct(ForgeStorage)2176_storage"
          },
          {
            "astId": 2439,
            "contract": "contracts/facets/AirdropTokenSaleFacet.sol:AirdropTokenSaleFacet",
            "label": "gemPoolStorage",
            "offset": 0,
            "slot": "57",
            "type": "t_struct(GemPoolStorage)2146_storage"
          }
        ],
        "numberOfBytes": "2272"
      },
      "t_struct(AttributeMutationPoolStorage)2258_storage": {
        "encoding": "inplace",
        "label": "struct AttributeMutationPoolStorage",
        "members": [
          {
            "astId": 2245,
            "contract": "contracts/facets/AirdropTokenSaleFacet.sol:AirdropTokenSaleFacet",
            "label": "_attributeKey",
            "offset": 0,
            "slot": "0",
            "type": "t_string_storage"
          },
          {
            "astId": 2247,
            "contract": "contracts/facets/AirdropTokenSaleFacet.sol:AirdropTokenSaleFacet",
            "label": "_attributeValuePerPeriod",
            "offset": 0,
            "slot": "1",
            "type": "t_uint256"
          },
          {
            "astId": 2249,
            "contract": "contracts/facets/AirdropTokenSaleFacet.sol:AirdropTokenSaleFacet",
            "label": "_attributeBlocksPerPeriod",
            "offset": 0,
            "slot": "2",
            "type": "t_uint256"
          },
          {
            "astId": 2251,
            "contract": "contracts/facets/AirdropTokenSaleFacet.sol:AirdropTokenSaleFacet",
            "label": "_totalValueThreshold",
            "offset": 0,
            "slot": "3",
            "type": "t_uint256"
          },
          {
            "astId": 2257,
            "contract": "contracts/facets/AirdropTokenSaleFacet.sol:AirdropTokenSaleFacet",
            "label": "_tokenDepositHeight",
            "offset": 0,
            "slot": "4",
            "type": "t_mapping(t_address,t_mapping(t_uint256,t_uint256))"
          }
        ],
        "numberOfBytes": "160"
      },
      "t_struct(BankStorage)2391_storage": {
        "encoding": "inplace",
        "label": "struct BankStorage",
        "members": [
          {
            "astId": 2384,
            "contract": "contracts/facets/AirdropTokenSaleFacet.sol:AirdropTokenSaleFacet",
            "label": "token",
            "offset": 0,
            "slot": "0",
            "type": "t_address"
          },
          {
            "astId": 2390,
            "contract": "contracts/facets/AirdropTokenSaleFacet.sol:AirdropTokenSaleFacet",
            "label": "balances",
            "offset": 0,
            "slot": "1",
            "type": "t_mapping(t_address,t_mapping(t_uint256,t_uint256))"
          }
        ],
        "numberOfBytes": "64"
      },
      "t_struct(Claim)5386_storage": {
        "encoding": "inplace",
        "label": "struct IClaim.Claim",
        "members": [
          {
            "astId": 5361,
            "contract": "contracts/facets/AirdropTokenSaleFacet.sol:AirdropTokenSaleFacet",
            "label": "id",
            "offset": 0,
            "slot": "0",
            "type": "t_uint256"
          },
          {
            "astId": 5363,
            "contract": "contracts/facets/AirdropTokenSaleFacet.sol:AirdropTokenSaleFacet",
            "label": "poolId",
            "offset": 0,
            "slot": "1",
            "type": "t_uint256"
          },
          {
            "astId": 5365,
            "contract": "contracts/facets/AirdropTokenSaleFacet.sol:AirdropTokenSaleFacet",
            "label": "creator",
            "offset": 0,
            "slot": "2",
            "type": "t_address"
          },
          {
            "astId": 5367,
            "contract": "contracts/facets/AirdropTokenSaleFacet.sol:AirdropTokenSaleFacet",
            "label": "minter",
            "offset": 0,
            "slot": "3",
            "type": "t_address"
          },
          {
            "astId": 5369,
            "contract": "contracts/facets/AirdropTokenSaleFacet.sol:AirdropTokenSaleFacet",
            "label": "depositAmount",
            "offset": 0,
            "slot": "4",
            "type": "t_uint256"
          },
          {
            "astId": 5371,
            "contract": "contracts/facets/AirdropTokenSaleFacet.sol:AirdropTokenSaleFacet",
            "label": "depositToken",
            "offset": 0,
            "slot": "5",
            "type": "t_address"
          },
          {
            "astId": 5373,
            "contract": "contracts/facets/AirdropTokenSaleFacet.sol:AirdropTokenSaleFacet",
            "label": "mintQuantity",
            "offset": 0,
            "slot": "6",
            "type": "t_uint256"
          },
          {
            "astId": 5375,
            "contract": "contracts/facets/AirdropTokenSaleFacet.sol:AirdropTokenSaleFacet",
            "label": "depositLength",
            "offset": 0,
            "slot": "7",
            "type": "t_uint256"
          },
          {
            "astId": 5377,
            "contract": "contracts/facets/AirdropTokenSaleFacet.sol:AirdropTokenSaleFacet",
            "label": "createdTime",
            "offset": 0,
            "slot": "8",
            "type": "t_uint256"
          },
          {
            "astId": 5379,
            "contract": "contracts/facets/AirdropTokenSaleFacet.sol:AirdropTokenSaleFacet",
            "label": "createdBlock",
            "offset": 0,
            "slot": "9",
            "type": "t_uint256"
          },
          {
            "astId": 5381,
            "contract": "contracts/facets/AirdropTokenSaleFacet.sol:AirdropTokenSaleFacet",
            "label": "claimedBlock",
            "offset": 0,
            "slot": "10",
            "type": "t_uint256"
          },
          {
            "astId": 5383,
            "contract": "contracts/facets/AirdropTokenSaleFacet.sol:AirdropTokenSaleFacet",
            "label": "gemHash",
            "offset": 0,
            "slot": "11",
            "type": "t_uint256"
          },
          {
            "astId": 5385,
            "contract": "contracts/facets/AirdropTokenSaleFacet.sol:AirdropTokenSaleFacet",
            "label": "feePaid",
            "offset": 0,
            "slot": "12",
            "type": "t_uint256"
          }
        ],
        "numberOfBytes": "416"
      },
      "t_struct(ERC1155Storage)2205_storage": {
        "encoding": "inplace",
        "label": "struct ERC1155Storage",
        "members": [
          {
            "astId": 2182,
            "contract": "contracts/facets/AirdropTokenSaleFacet.sol:AirdropTokenSaleFacet",
            "label": "_balances",
            "offset": 0,
            "slot": "0",
            "type": "t_mapping(t_uint256,t_mapping(t_address,t_uint256))"
          },
          {
            "astId": 2188,
            "contract": "contracts/facets/AirdropTokenSaleFacet.sol:AirdropTokenSaleFacet",
            "label": "_operatorApprovals",
            "offset": 0,
            "slot": "1",
            "type": "t_mapping(t_address,t_mapping(t_address,t_bool))"
          },
          {
            "astId": 2194,
            "contract": "contracts/facets/AirdropTokenSaleFacet.sol:AirdropTokenSaleFacet",
            "label": "_minterApprovals",
            "offset": 0,
            "slot": "2",
            "type": "t_mapping(t_address,t_mapping(t_uint256,t_uint256))"
          },
          {
            "astId": 2196,
            "contract": "contracts/facets/AirdropTokenSaleFacet.sol:AirdropTokenSaleFacet",
            "label": "_uri",
            "offset": 0,
            "slot": "3",
            "type": "t_string_storage"
          },
          {
            "astId": 2198,
            "contract": "contracts/facets/AirdropTokenSaleFacet.sol:AirdropTokenSaleFacet",
            "label": "_uriBase",
            "offset": 0,
            "slot": "4",
            "type": "t_string_storage"
          },
          {
            "astId": 2200,
            "contract": "contracts/facets/AirdropTokenSaleFacet.sol:AirdropTokenSaleFacet",
            "label": "_symbol",
            "offset": 0,
            "slot": "5",
            "type": "t_string_storage"
          },
          {
            "astId": 2202,
            "contract": "contracts/facets/AirdropTokenSaleFacet.sol:AirdropTokenSaleFacet",
            "label": "_name",
            "offset": 0,
            "slot": "6",
            "type": "t_string_storage"
          },
          {
            "astId": 2204,
            "contract": "contracts/facets/AirdropTokenSaleFacet.sol:AirdropTokenSaleFacet",
            "label": "_approvalProxy",
            "offset": 0,
            "slot": "7",
            "type": "t_address"
          }
        ],
        "numberOfBytes": "256"
      },
      "t_struct(ERC2981Storage)2243_storage": {
        "encoding": "inplace",
        "label": "struct ERC2981Storage",
        "members": [
          {
            "astId": 2238,
            "contract": "contracts/facets/AirdropTokenSaleFacet.sol:AirdropTokenSaleFacet",
            "label": "royaltyReceiversByHash",
            "offset": 0,
            "slot": "0",
            "type": "t_mapping(t_uint256,t_address)"
          },
          {
            "astId": 2242,
            "contract": "contracts/facets/AirdropTokenSaleFacet.sol:AirdropTokenSaleFacet",
            "label": "royaltyFeesByHash",
            "offset": 0,
            "slot": "1",
            "type": "t_mapping(t_uint256,t_uint256)"
          }
        ],
        "numberOfBytes": "64"
      },
      "t_struct(ERC721AStorage)2234_storage": {
        "encoding": "inplace",
        "label": "struct ERC721AStorage",
        "members": [
          {
            "astId": 2207,
            "contract": "contracts/facets/AirdropTokenSaleFacet.sol:AirdropTokenSaleFacet",
            "label": "_currentIndex",
            "offset": 0,
            "slot": "0",
            "type": "t_uint256"
          },
          {
            "astId": 2209,
            "contract": "contracts/facets/AirdropTokenSaleFacet.sol:AirdropTokenSaleFacet",
            "label": "_burnCounter",
            "offset": 0,
            "slot": "1",
            "type": "t_uint256"
          },
          {
            "astId": 2211,
            "contract": "contracts/facets/AirdropTokenSaleFacet.sol:AirdropTokenSaleFacet",
            "label": "_name",
            "offset": 0,
            "slot": "2",
            "type": "t_string_storage"
          },
          {
            "astId": 2213,
            "contract": "contracts/facets/AirdropTokenSaleFacet.sol:AirdropTokenSaleFacet",
            "label": "_symbol",
            "offset": 0,
            "slot": "3",
            "type": "t_string_storage"
          },
          {
            "astId": 2218,
            "contract": "contracts/facets/AirdropTokenSaleFacet.sol:AirdropTokenSaleFacet",
            "label": "_ownerships",
            "offset": 0,
            "slot": "4",
            "type": "t_mapping(t_uint256,t_struct(TokenOwnership)6178_storage)"
          },
          {
            "astId": 2223,
            "contract": "contracts/facets/AirdropTokenSaleFacet.sol:AirdropTokenSaleFacet",
            "label": "_addressData",
            "offset": 0,
            "slot": "5",
            "type": "t_mapping(t_address,t_struct(AddressData)6187_storage)"
          },
          {
            "astId": 2227,
            "contract": "contracts/facets/AirdropTokenSaleFacet.sol:AirdropTokenSaleFacet",
            "label": "_tokenApprovals",
            "offset": 0,
            "slot": "6",
            "type": "t_mapping(t_uint256,t_address)"
          },
          {
            "astId": 2233,
            "contract": "contracts/facets/AirdropTokenSaleFacet.sol:AirdropTokenSaleFacet",
            "label": "_operatorApprovals",
            "offset": 0,
            "slot": "7",
            "type": "t_mapping(t_address,t_mapping(t_address,t_bool))"
          }
        ],
        "numberOfBytes": "256"
      },
      "t_struct(FeeManagerStorage)2325_storage": {
        "encoding": "inplace",
        "label": "struct FeeManagerStorage",
        "members": [
          {
            "astId": 2324,
            "contract": "contracts/facets/AirdropTokenSaleFacet.sol:AirdropTokenSaleFacet",
            "label": "_fees",
            "offset": 0,
            "slot": "0",
            "type": "t_mapping(t_string_memory_ptr,t_uint256)"
          }
        ],
        "numberOfBytes": "32"
      },
      "t_struct(ForgeDefinition)6265_storage": {
        "encoding": "inplace",
        "label": "struct ForgeDefinition",
        "members": [
          {
            "astId": 6252,
            "contract": "contracts/facets/AirdropTokenSaleFacet.sol:AirdropTokenSaleFacet",
            "label": "forgeId",
            "offset": 0,
            "slot": "0",
            "type": "t_uint256"
          },
          {
            "astId": 6254,
            "contract": "contracts/facets/AirdropTokenSaleFacet.sol:AirdropTokenSaleFacet",
            "label": "name",
            "offset": 0,
            "slot": "1",
            "type": "t_string_storage"
          },
          {
            "astId": 6256,
            "contract": "contracts/facets/AirdropTokenSaleFacet.sol:AirdropTokenSaleFacet",
            "label": "symbol",
            "offset": 0,
            "slot": "2",
            "type": "t_string_storage"
          },
          {
            "astId": 6258,
            "contract": "contracts/facets/AirdropTokenSaleFacet.sol:AirdropTokenSaleFacet",
            "label": "description",
            "offset": 0,
            "slot": "3",
            "type": "t_string_storage"
          },
          {
            "astId": 6260,
            "contract": "contracts/facets/AirdropTokenSaleFacet.sol:AirdropTokenSaleFacet",
            "label": "maxForgeCount",
            "offset": 0,
            "slot": "4",
            "type": "t_uint256"
          },
          {
            "astId": 6262,
            "contract": "contracts/facets/AirdropTokenSaleFacet.sol:AirdropTokenSaleFacet",
            "label": "forgedCount",
            "offset": 0,
            "slot": "5",
            "type": "t_uint256"
          },
          {
            "astId": 6264,
            "contract": "contracts/facets/AirdropTokenSaleFacet.sol:AirdropTokenSaleFacet",
            "label": "forgeFee",
            "offset": 0,
            "slot": "6",
            "type": "t_uint256"
          }
        ],
        "numberOfBytes": "224"
      },
      "t_struct(ForgeItemDefinition)6293_storage": {
        "encoding": "inplace",
        "label": "struct ForgeItemDefinition",
        "members": [
          {
            "astId": 6274,
            "contract": "contracts/facets/AirdropTokenSaleFacet.sol:AirdropTokenSaleFacet",
            "label": "name",
            "offset": 0,
            "slot": "0",
            "type": "t_string_storage"
          },
          {
            "astId": 6276,
            "contract": "contracts/facets/AirdropTokenSaleFacet.sol:AirdropTokenSaleFacet",
            "label": "symbol",
            "offset": 0,
            "slot": "1",
            "type": "t_string_storage"
          },
          {
            "astId": 6278,
            "contract": "contracts/facets/AirdropTokenSaleFacet.sol:AirdropTokenSaleFacet",
            "label": "description",
            "offset": 0,
            "slot": "2",
            "type": "t_string_storage"
          },
          {
            "astId": 6282,
            "contract": "contracts/facets/AirdropTokenSaleFacet.sol:AirdropTokenSaleFacet",
            "label": "requirements",
            "offset": 0,
            "slot": "3",
            "type": "t_array(t_struct(ForgeItemRequirement)6272_storage)dyn_storage"
          },
          {
            "astId": 6284,
            "contract": "contracts/facets/AirdropTokenSaleFacet.sol:AirdropTokenSaleFacet",
            "label": "probability",
            "offset": 0,
            "slot": "4",
            "type": "t_uint256"
          },
          {
            "astId": 6286,
            "contract": "contracts/facets/AirdropTokenSaleFacet.sol:AirdropTokenSaleFacet",
            "label": "maxForgeCount",
            "offset": 0,
            "slot": "5",
            "type": "t_uint256"
          },
          {
            "astId": 6288,
            "contract": "contracts/facets/AirdropTokenSaleFacet.sol:AirdropTokenSaleFacet",
            "label": "forgedCount",
            "offset": 0,
            "slot": "6",
            "type": "t_uint256"
          },
          {
            "astId": 6290,
            "contract": "contracts/facets/AirdropTokenSaleFacet.sol:AirdropTokenSaleFacet",
            "label": "forgeFee",
            "offset": 0,
            "slot": "7",
            "type": "t_uint256"
          },
          {
            "astId": 6292,
            "contract": "contracts/facets/AirdropTokenSaleFacet.sol:AirdropTokenSaleFacet",
            "label": "tokenHash",
            "offset": 0,
            "slot": "8",
            "type": "t_uint256"
          }
        ],
        "numberOfBytes": "288"
      },
      "t_struct(ForgeItemRequirement)6272_storage": {
        "encoding": "inplace",
        "label": "struct ForgeItemRequirement",
        "members": [
          {
            "astId": 6267,
            "contract": "contracts/facets/AirdropTokenSaleFacet.sol:AirdropTokenSaleFacet",
            "label": "tokenAddress",
            "offset": 0,
            "slot": "0",
            "type": "t_address"
          },
          {
            "astId": 6269,
            "contract": "contracts/facets/AirdropTokenSaleFacet.sol:AirdropTokenSaleFacet",
            "label": "tokenId",
            "offset": 0,
            "slot": "1",
            "type": "t_uint256"
          },
          {
            "astId": 6271,
            "contract": "contracts/facets/AirdropTokenSaleFacet.sol:AirdropTokenSaleFacet",
            "label": "amount",
            "offset": 0,
            "slot": "2",
            "type": "t_uint256"
          }
        ],
        "numberOfBytes": "96"
      },
      "t_struct(ForgeStorage)2176_storage": {
        "encoding": "inplace",
        "label": "struct ForgeStorage",
        "members": [
          {
            "astId": 2151,
            "contract": "contracts/facets/AirdropTokenSaleFacet.sol:AirdropTokenSaleFacet",
            "label": "forges",
            "offset": 0,
            "slot": "0",
            "type": "t_mapping(t_uint256,t_struct(ForgeDefinition)6265_storage)"
          },
          {
            "astId": 2154,
            "contract": "contracts/facets/AirdropTokenSaleFacet.sol:AirdropTokenSaleFacet",
            "label": "forgeIds",
            "offset": 0,
            "slot": "1",
            "type": "t_array(t_uint256)dyn_storage"
          },
          {
            "astId": 2161,
            "contract": "contracts/facets/AirdropTokenSaleFacet.sol:AirdropTokenSaleFacet",
            "label": "forgeItems",
            "offset": 0,
            "slot": "2",
            "type": "t_mapping(t_uint256,t_mapping(t_uint256,t_struct(ForgeItemDefinition)6293_storage))"
          },
          {
            "astId": 2164,
            "contract": "contracts/facets/AirdropTokenSaleFacet.sol:AirdropTokenSaleFacet",
            "label": "forgeItemIds",
            "offset": 0,
            "slot": "3",
            "type": "t_array(t_uint256)dyn_storage"
          },
          {
            "astId": 2169,
            "contract": "contracts/facets/AirdropTokenSaleFacet.sol:AirdropTokenSaleFacet",
            "label": "forgedItemHashes",
            "offset": 0,
            "slot": "4",
            "type": "t_mapping(t_uint256,t_struct(Set)8943_storage)"
          },
          {
            "astId": 2172,
            "contract": "contracts/facets/AirdropTokenSaleFacet.sol:AirdropTokenSaleFacet",
            "label": "allforgedItemHashes",
            "offset": 0,
            "slot": "5",
            "type": "t_struct(Set)8943_storage"
          },
          {
            "astId": 2175,
            "contract": "contracts/facets/AirdropTokenSaleFacet.sol:AirdropTokenSaleFacet",
            "label": "symbols",
            "offset": 0,
            "slot": "7",
            "type": "t_array(t_string_storage)dyn_storage"
          }
        ],
        "numberOfBytes": "256"
      },
      "t_struct(FractionalizedTokenData)2306_storage": {
        "encoding": "inplace",
        "label": "struct FractionalizedTokenData",
        "members": [
          {
            "astId": 2295,
            "contract": "contracts/facets/AirdropTokenSaleFacet.sol:AirdropTokenSaleFacet",
            "label": "symbol",
            "offset": 0,
            "slot": "0",
            "type": "t_string_storage"
          },
          {
            "astId": 2297,
            "contract": "contracts/facets/AirdropTokenSaleFacet.sol:AirdropTokenSaleFacet",
            "label": "name",
            "offset": 0,
            "slot": "1",
            "type": "t_string_storage"
          },
          {
            "astId": 2299,
            "contract": "contracts/facets/AirdropTokenSaleFacet.sol:AirdropTokenSaleFacet",
            "label": "tokenAddress",
            "offset": 0,
            "slot": "2",
            "type": "t_address"
          },
          {
            "astId": 2301,
            "contract": "contracts/facets/AirdropTokenSaleFacet.sol:AirdropTokenSaleFacet",
            "label": "tokenId",
            "offset": 0,
            "slot": "3",
            "type": "t_uint256"
          },
          {
            "astId": 2303,
            "contract": "contracts/facets/AirdropTokenSaleFacet.sol:AirdropTokenSaleFacet",
            "label": "fractionalizedToken",
            "offset": 0,
            "slot": "4",
            "type": "t_address"
          },
          {
            "astId": 2305,
            "contract": "contracts/facets/AirdropTokenSaleFacet.sol:AirdropTokenSaleFacet",
            "label": "totalFractions",
            "offset": 0,
            "slot": "5",
            "type": "t_uint256"
          }
        ],
        "numberOfBytes": "192"
      },
      "t_struct(FractionalizerStorage)2314_storage": {
        "encoding": "inplace",
        "label": "struct FractionalizerStorage",
        "members": [
          {
            "astId": 2308,
            "contract": "contracts/facets/AirdropTokenSaleFacet.sol:AirdropTokenSaleFacet",
            "label": "fTokenTemplate",
            "offset": 0,
            "slot": "0",
            "type": "t_address"
          },
          {
            "astId": 2313,
            "contract": "contracts/facets/AirdropTokenSaleFacet.sol:AirdropTokenSaleFacet",
            "label": "fractionalizedTokens",
            "offset": 0,
            "slot": "1",
            "type": "t_mapping(t_address,t_struct(FractionalizedTokenData)2306_storage)"
          }
        ],
        "numberOfBytes": "64"
      },
      "t_struct(GemPoolData)6442_storage": {
        "encoding": "inplace",
        "label": "struct IGemPool.GemPoolData",
        "members": [
          {
            "astId": 6433,
            "contract": "contracts/facets/AirdropTokenSaleFacet.sol:AirdropTokenSaleFacet",
            "label": "pool",
            "offset": 0,
            "slot": "0",
            "type": "t_uint256"
          },
          {
            "astId": 6435,
            "contract": "contracts/facets/AirdropTokenSaleFacet.sol:AirdropTokenSaleFacet",
            "label": "nextGemHash",
            "offset": 0,
            "slot": "1",
            "type": "t_uint256"
          },
          {
            "astId": 6437,
            "contract": "contracts/facets/AirdropTokenSaleFacet.sol:AirdropTokenSaleFacet",
            "label": "nextGemNumber",
            "offset": 0,
            "slot": "2",
            "type": "t_uint256"
          },
          {
            "astId": 6439,
            "contract": "contracts/facets/AirdropTokenSaleFacet.sol:AirdropTokenSaleFacet",
            "label": "gemsMintedCount",
            "offset": 0,
            "slot": "3",
            "type": "t_uint256"
          },
          {
            "astId": 6441,
            "contract": "contracts/facets/AirdropTokenSaleFacet.sol:AirdropTokenSaleFacet",
            "label": "totalStakedEth",
            "offset": 0,
            "slot": "4",
            "type": "t_uint256"
          }
        ],
        "numberOfBytes": "160"
      },
      "t_struct(GemPoolSettings)6482_storage": {
        "encoding": "inplace",
        "label": "struct IGemPool.GemPoolSettings",
        "members": [
          {
            "astId": 6444,
            "contract": "contracts/facets/AirdropTokenSaleFacet.sol:AirdropTokenSaleFacet",
            "label": "token",
            "offset": 0,
            "slot": "0",
            "type": "t_address"
          },
          {
            "astId": 6447,
            "contract": "contracts/facets/AirdropTokenSaleFacet.sol:AirdropTokenSaleFacet",
            "label": "tokenSource",
            "offset": 0,
            "slot": "1",
            "type": "t_struct(TokenSource)6950_storage"
          },
          {
            "astId": 6450,
            "contract": "contracts/facets/AirdropTokenSaleFacet.sol:AirdropTokenSaleFacet",
            "label": "tokenDefinition",
            "offset": 0,
            "slot": "4",
            "type": "t_struct(TokenDefinition)6928_storage"
          },
          {
            "astId": 6453,
            "contract": "contracts/facets/AirdropTokenSaleFacet.sol:AirdropTokenSaleFacet",
            "label": "initialPrice",
            "offset": 0,
            "slot": "16",
            "type": "t_struct(TokenPriceData)7093_storage"
          },
          {
            "astId": 6455,
            "contract": "contracts/facets/AirdropTokenSaleFacet.sol:AirdropTokenSaleFacet",
            "label": "enabled",
            "offset": 0,
            "slot": "20",
            "type": "t_bool"
          },
          {
            "astId": 6457,
            "contract": "contracts/facets/AirdropTokenSaleFacet.sol:AirdropTokenSaleFacet",
            "label": "visible",
            "offset": 1,
            "slot": "20",
            "type": "t_bool"
          },
          {
            "astId": 6459,
            "contract": "contracts/facets/AirdropTokenSaleFacet.sol:AirdropTokenSaleFacet",
            "label": "minTime",
            "offset": 0,
            "slot": "21",
            "type": "t_uint256"
          },
          {
            "astId": 6461,
            "contract": "contracts/facets/AirdropTokenSaleFacet.sol:AirdropTokenSaleFacet",
            "label": "maxTime",
            "offset": 0,
            "slot": "22",
            "type": "t_uint256"
          },
          {
            "astId": 6463,
            "contract": "contracts/facets/AirdropTokenSaleFacet.sol:AirdropTokenSaleFacet",
            "label": "diffstep",
            "offset": 0,
            "slot": "23",
            "type": "t_uint256"
          },
          {
            "astId": 6465,
            "contract": "contracts/facets/AirdropTokenSaleFacet.sol:AirdropTokenSaleFacet",
            "label": "maxClaims",
            "offset": 0,
            "slot": "24",
            "type": "t_uint256"
          },
          {
            "astId": 6467,
            "contract": "contracts/facets/AirdropTokenSaleFacet.sol:AirdropTokenSaleFacet",
            "label": "maxQuantityPerClaim",
            "offset": 0,
            "slot": "25",
            "type": "t_uint256"
          },
          {
            "astId": 6469,
            "contract": "contracts/facets/AirdropTokenSaleFacet.sol:AirdropTokenSaleFacet",
            "label": "maxClaimsPerAccount",
            "offset": 0,
            "slot": "26",
            "type": "t_uint256"
          },
          {
            "astId": 6471,
            "contract": "contracts/facets/AirdropTokenSaleFacet.sol:AirdropTokenSaleFacet",
            "label": "earnRatePerPeriod",
            "offset": 0,
            "slot": "27",
            "type": "t_uint256"
          },
          {
            "astId": 6473,
            "contract": "contracts/facets/AirdropTokenSaleFacet.sol:AirdropTokenSaleFacet",
            "label": "earnPeriodBlocks",
            "offset": 0,
            "slot": "28",
            "type": "t_uint256"
          },
          {
            "astId": 6475,
            "contract": "contracts/facets/AirdropTokenSaleFacet.sol:AirdropTokenSaleFacet",
            "label": "payPartialBlocks",
            "offset": 0,
            "slot": "29",
            "type": "t_bool"
          },
          {
            "astId": 6477,
            "contract": "contracts/facets/AirdropTokenSaleFacet.sol:AirdropTokenSaleFacet",
            "label": "mintEarnedToken",
            "offset": 1,
            "slot": "29",
            "type": "t_bool"
          },
          {
            "astId": 6479,
            "contract": "contracts/facets/AirdropTokenSaleFacet.sol:AirdropTokenSaleFacet",
            "label": "maxTotalEarnedAmount",
            "offset": 0,
            "slot": "30",
            "type": "t_uint256"
          },
          {
            "astId": 6481,
            "contract": "contracts/facets/AirdropTokenSaleFacet.sol:AirdropTokenSaleFacet",
            "label": "allowPurchase",
            "offset": 0,
            "slot": "31",
            "type": "t_bool"
          }
        ],
        "numberOfBytes": "1024"
      },
      "t_struct(GemPoolStorage)2146_storage": {
        "encoding": "inplace",
        "label": "struct GemPoolStorage",
        "members": [
          {
            "astId": 2117,
            "contract": "contracts/facets/AirdropTokenSaleFacet.sol:AirdropTokenSaleFacet",
            "label": "_gemPools",
            "offset": 0,
            "slot": "0",
            "type": "t_mapping(t_uint256,t_struct(GemPoolStruct)6489_storage)"
          },
          {
            "astId": 2122,
            "contract": "contracts/facets/AirdropTokenSaleFacet.sol:AirdropTokenSaleFacet",
            "label": "_recordHashes",
            "offset": 0,
            "slot": "1",
            "type": "t_mapping(t_uint256,t_struct(Set)8943_storage)"
          },
          {
            "astId": 2128,
            "contract": "contracts/facets/AirdropTokenSaleFacet.sol:AirdropTokenSaleFacet",
            "label": "_bankedRequirements",
            "offset": 0,
            "slot": "2",
            "type": "t_mapping(t_uint256,t_array(t_struct(Token)6891_storage)dyn_storage)"
          },
          {
            "astId": 2133,
            "contract": "contracts/facets/AirdropTokenSaleFacet.sol:AirdropTokenSaleFacet",
            "label": "_claims",
            "offset": 0,
            "slot": "3",
            "type": "t_mapping(t_uint256,t_struct(Claim)5386_storage)"
          },
          {
            "astId": 2135,
            "contract": "contracts/facets/AirdropTokenSaleFacet.sol:AirdropTokenSaleFacet",
            "label": "_claimIndex",
            "offset": 0,
            "slot": "4",
            "type": "t_uint256"
          },
          {
            "astId": 2139,
            "contract": "contracts/facets/AirdropTokenSaleFacet.sol:AirdropTokenSaleFacet",
            "label": "_stakedTotal",
            "offset": 0,
            "slot": "5",
            "type": "t_mapping(t_address,t_uint256)"
          },
          {
            "astId": 2142,
            "contract": "contracts/facets/AirdropTokenSaleFacet.sol:AirdropTokenSaleFacet",
            "label": "_requirementData",
            "offset": 0,
            "slot": "6",
            "type": "t_struct(RequirementData)6807_storage"
          },
          {
            "astId": 2145,
            "contract": "contracts/facets/AirdropTokenSaleFacet.sol:AirdropTokenSaleFacet",
            "label": "_symbols",
            "offset": 0,
            "slot": "13",
            "type": "t_array(t_string_storage)dyn_storage"
          }
        ],
        "numberOfBytes": "448"
      },
      "t_struct(GemPoolStruct)6489_storage": {
        "encoding": "inplace",
        "label": "struct IGemPool.GemPoolStruct",
        "members": [
          {
            "astId": 6485,
            "contract": "contracts/facets/AirdropTokenSaleFacet.sol:AirdropTokenSaleFacet",
            "label": "_gemPoolSettings",
            "offset": 0,
            "slot": "0",
            "type": "t_struct(GemPoolSettings)6482_storage"
          },
          {
            "astId": 6488,
            "contract": "contracts/facets/AirdropTokenSaleFacet.sol:AirdropTokenSaleFacet",
            "label": "_gemPoolData",
            "offset": 0,
            "slot": "32",
            "type": "t_struct(GemPoolData)6442_storage"
          }
        ],
        "numberOfBytes": "1184"
      },
      "t_struct(MarketItem)6753_storage": {
        "encoding": "inplace",
        "label": "struct IMarketplace.MarketItem",
        "members": [
          {
            "astId": 6736,
            "contract": "contracts/facets/AirdropTokenSaleFacet.sol:AirdropTokenSaleFacet",
            "label": "itemId",
            "offset": 0,
            "slot": "0",
            "type": "t_uint256"
          },
          {
            "astId": 6738,
            "contract": "contracts/facets/AirdropTokenSaleFacet.sol:AirdropTokenSaleFacet",
            "label": "nftContract",
            "offset": 0,
            "slot": "1",
            "type": "t_address"
          },
          {
            "astId": 6740,
            "contract": "contracts/facets/AirdropTokenSaleFacet.sol:AirdropTokenSaleFacet",
            "label": "tokenId",
            "offset": 0,
            "slot": "2",
            "type": "t_uint256"
          },
          {
            "astId": 6742,
            "contract": "contracts/facets/AirdropTokenSaleFacet.sol:AirdropTokenSaleFacet",
            "label": "seller",
            "offset": 0,
            "slot": "3",
            "type": "t_address"
          },
          {
            "astId": 6744,
            "contract": "contracts/facets/AirdropTokenSaleFacet.sol:AirdropTokenSaleFacet",
            "label": "owner",
            "offset": 0,
            "slot": "4",
            "type": "t_address"
          },
          {
            "astId": 6746,
            "contract": "contracts/facets/AirdropTokenSaleFacet.sol:AirdropTokenSaleFacet",
            "label": "price",
            "offset": 0,
            "slot": "5",
            "type": "t_uint256"
          },
          {
            "astId": 6748,
            "contract": "contracts/facets/AirdropTokenSaleFacet.sol:AirdropTokenSaleFacet",
            "label": "quantity",
            "offset": 0,
            "slot": "6",
            "type": "t_uint256"
          },
          {
            "astId": 6750,
            "contract": "contracts/facets/AirdropTokenSaleFacet.sol:AirdropTokenSaleFacet",
            "label": "sold",
            "offset": 0,
            "slot": "7",
            "type": "t_bool"
          },
          {
            "astId": 6752,
            "contract": "contracts/facets/AirdropTokenSaleFacet.sol:AirdropTokenSaleFacet",
            "label": "receiver",
            "offset": 1,
            "slot": "7",
            "type": "t_address"
          }
        ],
        "numberOfBytes": "256"
      },
      "t_struct(MarketUtilsStorage)2382_storage": {
        "encoding": "inplace",
        "label": "struct MarketUtilsStorage",
        "members": [
          {
            "astId": 2381,
            "contract": "contracts/facets/AirdropTokenSaleFacet.sol:AirdropTokenSaleFacet",
            "label": "validTokens",
            "offset": 0,
            "slot": "0",
            "type": "t_mapping(t_uint256,t_bool)"
          }
        ],
        "numberOfBytes": "32"
      },
      "t_struct(MarketplaceStorage)2284_storage": {
        "encoding": "inplace",
        "label": "struct MarketplaceStorage",
        "members": [
          {
            "astId": 2272,
            "contract": "contracts/facets/AirdropTokenSaleFacet.sol:AirdropTokenSaleFacet",
            "label": "itemsSold",
            "offset": 0,
            "slot": "0",
            "type": "t_uint256"
          },
          {
            "astId": 2274,
            "contract": "contracts/facets/AirdropTokenSaleFacet.sol:AirdropTokenSaleFacet",
            "label": "itemIds",
            "offset": 0,
            "slot": "1",
            "type": "t_uint256"
          },
          {
            "astId": 2279,
            "contract": "contracts/facets/AirdropTokenSaleFacet.sol:AirdropTokenSaleFacet",
            "label": "idToMarketItem",
            "offset": 0,
            "slot": "2",
            "type": "t_mapping(t_uint256,t_struct(MarketItem)6753_storage)"
          },
          {
            "astId": 2283,
            "contract": "contracts/facets/AirdropTokenSaleFacet.sol:AirdropTokenSaleFacet",
            "label": "idToListed",
            "offset": 0,
            "slot": "3",
            "type": "t_mapping(t_uint256,t_bool)"
          }
        ],
        "numberOfBytes": "128"
      },
      "t_struct(MerkleAirdropStorage)2377_storage": {
        "encoding": "inplace",
        "label": "struct MerkleAirdropStorage",
        "members": [
          {
            "astId": 2356,
            "contract": "contracts/facets/AirdropTokenSaleFacet.sol:AirdropTokenSaleFacet",
            "label": "_settings",
            "offset": 0,
            "slot": "0",
            "type": "t_mapping(t_uint256,t_struct(AirdropSettings)5195_storage)"
          },
          {
            "astId": 2358,
            "contract": "contracts/facets/AirdropTokenSaleFacet.sol:AirdropTokenSaleFacet",
            "label": "numSettings",
            "offset": 0,
            "slot": "1",
            "type": "t_uint256"
          },
          {
            "astId": 2364,
            "contract": "contracts/facets/AirdropTokenSaleFacet.sol:AirdropTokenSaleFacet",
            "label": "_redeemedData",
            "offset": 0,
            "slot": "2",
            "type": "t_mapping(t_uint256,t_mapping(t_uint256,t_uint256))"
          },
          {
            "astId": 2370,
            "contract": "contracts/facets/AirdropTokenSaleFacet.sol:AirdropTokenSaleFacet",
            "label": "_redeemedDataQuantities",
            "offset": 0,
            "slot": "3",
            "type": "t_mapping(t_uint256,t_mapping(t_address,t_uint256))"
          },
          {
            "astId": 2376,
            "contract": "contracts/facets/AirdropTokenSaleFacet.sol:AirdropTokenSaleFacet",
            "label": "_totalDataQuantities",
            "offset": 0,
            "slot": "4",
            "type": "t_mapping(t_uint256,t_mapping(t_address,t_uint256))"
          }
        ],
        "numberOfBytes": "160"
      },
      "t_struct(Requirement)6784_storage": {
        "encoding": "inplace",
        "label": "struct IRequirement.Requirement",
        "members": [
          {
            "astId": 6772,
            "contract": "contracts/facets/AirdropTokenSaleFacet.sol:AirdropTokenSaleFacet",
            "label": "minter",
            "offset": 0,
            "slot": "0",
            "type": "t_address"
          },
          {
            "astId": 6775,
            "contract": "contracts/facets/AirdropTokenSaleFacet.sol:AirdropTokenSaleFacet",
            "label": "source",
            "offset": 0,
            "slot": "1",
            "type": "t_struct(TokenSource)6950_storage"
          },
          {
            "astId": 6777,
            "contract": "contracts/facets/AirdropTokenSaleFacet.sol:AirdropTokenSaleFacet",
            "label": "quantity",
            "offset": 0,
            "slot": "4",
            "type": "t_uint256"
          },
          {
            "astId": 6779,
            "contract": "contracts/facets/AirdropTokenSaleFacet.sol:AirdropTokenSaleFacet",
            "label": "takeCustody",
            "offset": 0,
            "slot": "5",
            "type": "t_bool"
          },
          {
            "astId": 6781,
            "contract": "contracts/facets/AirdropTokenSaleFacet.sol:AirdropTokenSaleFacet",
            "label": "burn",
            "offset": 1,
            "slot": "5",
            "type": "t_bool"
          },
          {
            "astId": 6783,
            "contract": "contracts/facets/AirdropTokenSaleFacet.sol:AirdropTokenSaleFacet",
            "label": "requireExactAmount",
            "offset": 2,
            "slot": "5",
            "type": "t_bool"
          }
        ],
        "numberOfBytes": "192"
      },
      "t_struct(RequirementData)6807_storage": {
        "encoding": "inplace",
        "label": "struct IRequirement.RequirementData",
        "members": [
          {
            "astId": 6786,
            "contract": "contracts/facets/AirdropTokenSaleFacet.sol:AirdropTokenSaleFacet",
            "label": "token",
            "offset": 0,
            "slot": "0",
            "type": "t_address"
          },
          {
            "astId": 6788,
            "contract": "contracts/facets/AirdropTokenSaleFacet.sol:AirdropTokenSaleFacet",
            "label": "manager",
            "offset": 0,
            "slot": "1",
            "type": "t_address"
          },
          {
            "astId": 6794,
            "contract": "contracts/facets/AirdropTokenSaleFacet.sol:AirdropTokenSaleFacet",
            "label": "requirements",
            "offset": 0,
            "slot": "2",
            "type": "t_mapping(t_uint256,t_array(t_struct(Requirement)6784_storage)dyn_storage)"
          },
          {
            "astId": 6799,
            "contract": "contracts/facets/AirdropTokenSaleFacet.sol:AirdropTokenSaleFacet",
            "label": "tokens",
            "offset": 0,
            "slot": "3",
            "type": "t_mapping(t_uint256,t_struct(TokenSet)6903_storage)"
          },
          {
            "astId": 6802,
            "contract": "contracts/facets/AirdropTokenSaleFacet.sol:AirdropTokenSaleFacet",
            "label": "burnedTokenIds",
            "offset": 0,
            "slot": "4",
            "type": "t_struct(Set)8943_storage"
          },
          {
            "astId": 6806,
            "contract": "contracts/facets/AirdropTokenSaleFacet.sol:AirdropTokenSaleFacet",
            "label": "burnedTokenQuantities",
            "offset": 0,
            "slot": "6",
            "type": "t_mapping(t_uint256,t_uint256)"
          }
        ],
        "numberOfBytes": "224"
      },
      "t_struct(Set)8943_storage": {
        "encoding": "inplace",
        "label": "struct UInt256Set.Set",
        "members": [
          {
            "astId": 8939,
            "contract": "contracts/facets/AirdropTokenSaleFacet.sol:AirdropTokenSaleFacet",
            "label": "keyPointers",
            "offset": 0,
            "slot": "0",
            "type": "t_mapping(t_uint256,t_uint256)"
          },
          {
            "astId": 8942,
            "contract": "contracts/facets/AirdropTokenSaleFacet.sol:AirdropTokenSaleFacet",
            "label": "keyList",
            "offset": 0,
            "slot": "1",
            "type": "t_array(t_uint256)dyn_storage"
          }
        ],
        "numberOfBytes": "64"
      },
      "t_struct(Token)6891_storage": {
        "encoding": "inplace",
        "label": "struct IToken.Token",
        "members": [
          {
            "astId": 6886,
            "contract": "contracts/facets/AirdropTokenSaleFacet.sol:AirdropTokenSaleFacet",
            "label": "id",
            "offset": 0,
            "slot": "0",
            "type": "t_uint256"
          },
          {
            "astId": 6888,
            "contract": "contracts/facets/AirdropTokenSaleFacet.sol:AirdropTokenSaleFacet",
            "label": "balance",
            "offset": 0,
            "slot": "1",
            "type": "t_uint256"
          },
          {
            "astId": 6890,
            "contract": "contracts/facets/AirdropTokenSaleFacet.sol:AirdropTokenSaleFacet",
            "label": "burn",
            "offset": 0,
            "slot": "2",
            "type": "t_bool"
          }
        ],
        "numberOfBytes": "96"
      },
      "t_struct(TokenAttributeStorage)2265_storage": {
        "encoding": "inplace",
        "label": "struct TokenAttributeStorage",
        "members": [
          {
            "astId": 2264,
            "contract": "contracts/facets/AirdropTokenSaleFacet.sol:AirdropTokenSaleFacet",
            "label": "attributes",
            "offset": 0,
            "slot": "0",
            "type": "t_mapping(t_uint256,t_mapping(t_string_memory_ptr,t_uint256))"
          }
        ],
        "numberOfBytes": "32"
      },
      "t_struct(TokenDefinition)6928_storage": {
        "encoding": "inplace",
        "label": "struct IToken.TokenDefinition",
        "members": [
          {
            "astId": 6905,
            "contract": "contracts/facets/AirdropTokenSaleFacet.sol:AirdropTokenSaleFacet",
            "label": "token",
            "offset": 0,
            "slot": "0",
            "type": "t_address"
          },
          {
            "astId": 6907,
            "contract": "contracts/facets/AirdropTokenSaleFacet.sol:AirdropTokenSaleFacet",
            "label": "id",
            "offset": 0,
            "slot": "1",
            "type": "t_uint256"
          },
          {
            "astId": 6909,
            "contract": "contracts/facets/AirdropTokenSaleFacet.sol:AirdropTokenSaleFacet",
            "label": "collectionId",
            "offset": 0,
            "slot": "2",
            "type": "t_uint256"
          },
          {
            "astId": 6911,
            "contract": "contracts/facets/AirdropTokenSaleFacet.sol:AirdropTokenSaleFacet",
            "label": "name",
            "offset": 0,
            "slot": "3",
            "type": "t_string_storage"
          },
          {
            "astId": 6913,
            "contract": "contracts/facets/AirdropTokenSaleFacet.sol:AirdropTokenSaleFacet",
            "label": "symbol",
            "offset": 0,
            "slot": "4",
            "type": "t_string_storage"
          },
          {
            "astId": 6915,
            "contract": "contracts/facets/AirdropTokenSaleFacet.sol:AirdropTokenSaleFacet",
            "label": "description",
            "offset": 0,
            "slot": "5",
            "type": "t_string_storage"
          },
          {
            "astId": 6917,
            "contract": "contracts/facets/AirdropTokenSaleFacet.sol:AirdropTokenSaleFacet",
            "label": "decimals",
            "offset": 0,
            "slot": "6",
            "type": "t_uint8"
          },
          {
            "astId": 6919,
            "contract": "contracts/facets/AirdropTokenSaleFacet.sol:AirdropTokenSaleFacet",
            "label": "totalSupply",
            "offset": 0,
            "slot": "7",
            "type": "t_uint256"
          },
          {
            "astId": 6921,
            "contract": "contracts/facets/AirdropTokenSaleFacet.sol:AirdropTokenSaleFacet",
            "label": "generateId",
            "offset": 0,
            "slot": "8",
            "type": "t_bool"
          },
          {
            "astId": 6923,
            "contract": "contracts/facets/AirdropTokenSaleFacet.sol:AirdropTokenSaleFacet",
            "label": "probability",
            "offset": 0,
            "slot": "9",
            "type": "t_uint256"
          },
          {
            "astId": 6925,
            "contract": "contracts/facets/AirdropTokenSaleFacet.sol:AirdropTokenSaleFacet",
            "label": "probabilityIndex",
            "offset": 0,
            "slot": "10",
            "type": "t_uint256"
          },
          {
            "astId": 6927,
            "contract": "contracts/facets/AirdropTokenSaleFacet.sol:AirdropTokenSaleFacet",
            "label": "probabilityRoll",
            "offset": 0,
            "slot": "11",
            "type": "t_uint256"
          }
        ],
        "numberOfBytes": "384"
      },
      "t_struct(TokenMinterStorage)2293_storage": {
        "encoding": "inplace",
        "label": "struct TokenMinterStorage",
        "members": [
          {
            "astId": 2286,
            "contract": "contracts/facets/AirdropTokenSaleFacet.sol:AirdropTokenSaleFacet",
            "label": "token",
            "offset": 0,
            "slot": "0",
            "type": "t_address"
          },
          {
            "astId": 2288,
            "contract": "contracts/facets/AirdropTokenSaleFacet.sol:AirdropTokenSaleFacet",
            "label": "_tokenCounter",
            "offset": 0,
            "slot": "1",
            "type": "t_uint256"
          },
          {
            "astId": 2292,
            "contract": "contracts/facets/AirdropTokenSaleFacet.sol:AirdropTokenSaleFacet",
            "label": "_tokenMinters",
            "offset": 0,
            "slot": "2",
            "type": "t_mapping(t_uint256,t_address)"
          }
        ],
        "numberOfBytes": "96"
      },
      "t_struct(TokenOwnership)6178_storage": {
        "encoding": "inplace",
        "label": "struct IERC721A.TokenOwnership",
        "members": [
          {
            "astId": 6173,
            "contract": "contracts/facets/AirdropTokenSaleFacet.sol:AirdropTokenSaleFacet",
            "label": "addr",
            "offset": 0,
            "slot": "0",
            "type": "t_address"
          },
          {
            "astId": 6175,
            "contract": "contracts/facets/AirdropTokenSaleFacet.sol:AirdropTokenSaleFacet",
            "label": "startTimestamp",
            "offset": 20,
            "slot": "0",
            "type": "t_uint64"
          },
          {
            "astId": 6177,
            "contract": "contracts/facets/AirdropTokenSaleFacet.sol:AirdropTokenSaleFacet",
            "label": "burned",
            "offset": 28,
            "slot": "0",
            "type": "t_bool"
          }
        ],
        "numberOfBytes": "32"
      },
      "t_struct(TokenPriceData)7093_storage": {
        "encoding": "inplace",
        "label": "struct ITokenPrice.TokenPriceData",
        "members": [
          {
            "astId": 7085,
            "contract": "contracts/facets/AirdropTokenSaleFacet.sol:AirdropTokenSaleFacet",
            "label": "price",
            "offset": 0,
            "slot": "0",
            "type": "t_uint256"
          },
          {
            "astId": 7088,
            "contract": "contracts/facets/AirdropTokenSaleFacet.sol:AirdropTokenSaleFacet",
            "label": "priceModifier",
            "offset": 0,
            "slot": "1",
            "type": "t_enum(PriceModifier)7083"
          },
          {
            "astId": 7090,
            "contract": "contracts/facets/AirdropTokenSaleFacet.sol:AirdropTokenSaleFacet",
            "label": "priceModifierFactor",
            "offset": 0,
            "slot": "2",
            "type": "t_uint256"
          },
          {
            "astId": 7092,
            "contract": "contracts/facets/AirdropTokenSaleFacet.sol:AirdropTokenSaleFacet",
            "label": "maxPrice",
            "offset": 0,
            "slot": "3",
            "type": "t_uint256"
          }
        ],
        "numberOfBytes": "128"
      },
      "t_struct(TokenSaleEntry)7125_storage": {
        "encoding": "inplace",
        "label": "struct ITokenSale.TokenSaleEntry",
        "members": [
          {
            "astId": 7112,
            "contract": "contracts/facets/AirdropTokenSaleFacet.sol:AirdropTokenSaleFacet",
            "label": "receiver",
            "offset": 0,
            "slot": "0",
            "type": "t_address_payable"
          },
          {
            "astId": 7114,
            "contract": "contracts/facets/AirdropTokenSaleFacet.sol:AirdropTokenSaleFacet",
            "label": "sourceToken",
            "offset": 0,
            "slot": "1",
            "type": "t_address"
          },
          {
            "astId": 7116,
            "contract": "contracts/facets/AirdropTokenSaleFacet.sol:AirdropTokenSaleFacet",
            "label": "sourceTokenId",
            "offset": 0,
            "slot": "2",
            "type": "t_uint256"
          },
          {
            "astId": 7118,
            "contract": "contracts/facets/AirdropTokenSaleFacet.sol:AirdropTokenSaleFacet",
            "label": "token",
            "offset": 0,
            "slot": "3",
            "type": "t_address"
          },
          {
            "astId": 7120,
            "contract": "contracts/facets/AirdropTokenSaleFacet.sol:AirdropTokenSaleFacet",
            "label": "quantity",
            "offset": 0,
            "slot": "4",
            "type": "t_uint256"
          },
          {
            "astId": 7122,
            "contract": "contracts/facets/AirdropTokenSaleFacet.sol:AirdropTokenSaleFacet",
            "label": "price",
            "offset": 0,
            "slot": "5",
            "type": "t_uint256"
          },
          {
            "astId": 7124,
            "contract": "contracts/facets/AirdropTokenSaleFacet.sol:AirdropTokenSaleFacet",
            "label": "quantitySold",
            "offset": 0,
            "slot": "6",
            "type": "t_uint256"
          }
        ],
        "numberOfBytes": "224"
      },
      "t_struct(TokenSaleSettings)5293_storage": {
        "encoding": "inplace",
        "label": "struct IAirdropTokenSale.TokenSaleSettings",
        "members": [
          {
            "astId": 5259,
            "contract": "contracts/facets/AirdropTokenSaleFacet.sol:AirdropTokenSaleFacet",
            "label": "contractAddress",
            "offset": 0,
            "slot": "0",
            "type": "t_address"
          },
          {
            "astId": 5261,
            "contract": "contracts/facets/AirdropTokenSaleFacet.sol:AirdropTokenSaleFacet",
            "label": "token",
            "offset": 0,
            "slot": "1",
            "type": "t_address"
          },
          {
            "astId": 5263,
            "contract": "contracts/facets/AirdropTokenSaleFacet.sol:AirdropTokenSaleFacet",
            "label": "tokenHash",
            "offset": 0,
            "slot": "2",
            "type": "t_uint256"
          },
          {
            "astId": 5265,
            "contract": "contracts/facets/AirdropTokenSaleFacet.sol:AirdropTokenSaleFacet",
            "label": "collectionHash",
            "offset": 0,
            "slot": "3",
            "type": "t_uint256"
          },
          {
            "astId": 5267,
            "contract": "contracts/facets/AirdropTokenSaleFacet.sol:AirdropTokenSaleFacet",
            "label": "owner",
            "offset": 0,
            "slot": "4",
            "type": "t_address"
          },
          {
            "astId": 5269,
            "contract": "contracts/facets/AirdropTokenSaleFacet.sol:AirdropTokenSaleFacet",
            "label": "payee",
            "offset": 0,
            "slot": "5",
            "type": "t_address"
          },
          {
            "astId": 5271,
            "contract": "contracts/facets/AirdropTokenSaleFacet.sol:AirdropTokenSaleFacet",
            "label": "symbol",
            "offset": 0,
            "slot": "6",
            "type": "t_string_storage"
          },
          {
            "astId": 5273,
            "contract": "contracts/facets/AirdropTokenSaleFacet.sol:AirdropTokenSaleFacet",
            "label": "name",
            "offset": 0,
            "slot": "7",
            "type": "t_string_storage"
          },
          {
            "astId": 5275,
            "contract": "contracts/facets/AirdropTokenSaleFacet.sol:AirdropTokenSaleFacet",
            "label": "description",
            "offset": 0,
            "slot": "8",
            "type": "t_string_storage"
          },
          {
            "astId": 5277,
            "contract": "contracts/facets/AirdropTokenSaleFacet.sol:AirdropTokenSaleFacet",
            "label": "openState",
            "offset": 0,
            "slot": "9",
            "type": "t_bool"
          },
          {
            "astId": 5279,
            "contract": "contracts/facets/AirdropTokenSaleFacet.sol:AirdropTokenSaleFacet",
            "label": "startTime",
            "offset": 0,
            "slot": "10",
            "type": "t_uint256"
          },
          {
            "astId": 5281,
            "contract": "contracts/facets/AirdropTokenSaleFacet.sol:AirdropTokenSaleFacet",
            "label": "endTime",
            "offset": 0,
            "slot": "11",
            "type": "t_uint256"
          },
          {
            "astId": 5283,
            "contract": "contracts/facets/AirdropTokenSaleFacet.sol:AirdropTokenSaleFacet",
            "label": "maxQuantity",
            "offset": 0,
            "slot": "12",
            "type": "t_uint256"
          },
          {
            "astId": 5285,
            "contract": "contracts/facets/AirdropTokenSaleFacet.sol:AirdropTokenSaleFacet",
            "label": "maxQuantityPerSale",
            "offset": 0,
            "slot": "13",
            "type": "t_uint256"
          },
          {
            "astId": 5287,
            "contract": "contracts/facets/AirdropTokenSaleFacet.sol:AirdropTokenSaleFacet",
            "label": "minQuantityPerSale",
            "offset": 0,
            "slot": "14",
            "type": "t_uint256"
          },
          {
            "astId": 5289,
            "contract": "contracts/facets/AirdropTokenSaleFacet.sol:AirdropTokenSaleFacet",
            "label": "maxQuantityPerAccount",
            "offset": 0,
            "slot": "15",
            "type": "t_uint256"
          },
          {
            "astId": 5292,
            "contract": "contracts/facets/AirdropTokenSaleFacet.sol:AirdropTokenSaleFacet",
            "label": "initialPrice",
            "offset": 0,
            "slot": "16",
            "type": "t_struct(TokenPriceData)7093_storage"
          }
        ],
        "numberOfBytes": "640"
      },
      "t_struct(TokenSaleStorage)2320_storage": {
        "encoding": "inplace",
        "label": "struct TokenSaleStorage",
        "members": [
          {
            "astId": 2319,
            "contract": "contracts/facets/AirdropTokenSaleFacet.sol:AirdropTokenSaleFacet",
            "label": "tokenSaleEntries",
            "offset": 0,
            "slot": "0",
            "type": "t_mapping(t_address,t_struct(TokenSaleEntry)7125_storage)"
          }
        ],
        "numberOfBytes": "32"
      },
      "t_struct(TokenSet)6903_storage": {
        "encoding": "inplace",
        "label": "struct IToken.TokenSet",
        "members": [
          {
            "astId": 6895,
            "contract": "contracts/facets/AirdropTokenSaleFacet.sol:AirdropTokenSaleFacet",
            "label": "keyPointers",
            "offset": 0,
            "slot": "0",
            "type": "t_mapping(t_uint256,t_uint256)"
          },
          {
            "astId": 6898,
            "contract": "contracts/facets/AirdropTokenSaleFacet.sol:AirdropTokenSaleFacet",
            "label": "keyList",
            "offset": 0,
            "slot": "1",
            "type": "t_array(t_uint256)dyn_storage"
          },
          {
            "astId": 6902,
            "contract": "contracts/facets/AirdropTokenSaleFacet.sol:AirdropTokenSaleFacet",
            "label": "valueList",
            "offset": 0,
            "slot": "2",
            "type": "t_array(t_struct(Token)6891_storage)dyn_storage"
          }
        ],
        "numberOfBytes": "96"
      },
      "t_struct(TokenSource)6950_storage": {
        "encoding": "inplace",
        "label": "struct IToken.TokenSource",
        "members": [
          {
            "astId": 6945,
            "contract": "contracts/facets/AirdropTokenSaleFacet.sol:AirdropTokenSaleFacet",
            "label": "_type",
            "offset": 0,
            "slot": "0",
            "type": "t_enum(TokenSourceType)6942"
          },
          {
            "astId": 6947,
            "contract": "contracts/facets/AirdropTokenSaleFacet.sol:AirdropTokenSaleFacet",
            "label": "staticSourceId",
            "offset": 0,
            "slot": "1",
            "type": "t_uint256"
          },
          {
            "astId": 6949,
            "contract": "contracts/facets/AirdropTokenSaleFacet.sol:AirdropTokenSaleFacet",
            "label": "collectionSourceAddress",
            "offset": 0,
            "slot": "2",
            "type": "t_address"
          }
        ],
        "numberOfBytes": "96"
      },
      "t_uint256": {
        "encoding": "inplace",
        "label": "uint256",
        "numberOfBytes": "32"
      },
      "t_uint64": {
        "encoding": "inplace",
        "label": "uint64",
        "numberOfBytes": "8"
      },
      "t_uint8": {
        "encoding": "inplace",
        "label": "uint8",
        "numberOfBytes": "1"
      }
    }
  }
}