{
  "address": "0x9771E55879A8D58B082F9d849dfD591Ea672e7b1",
  "abi": [
    {
      "anonymous": false,
      "inputs": [
        {
          "indexed": true,
          "internalType": "uint256",
          "name": "airdropId",
          "type": "uint256"
        },
        {
          "indexed": true,
          "internalType": "address",
          "name": "beneficiary",
          "type": "address"
        },
        {
          "indexed": false,
          "internalType": "bytes32[]",
          "name": "proof",
          "type": "bytes32[]"
        },
        {
          "indexed": false,
          "internalType": "uint256",
          "name": "amount",
          "type": "uint256"
        }
      ],
      "name": "AirdropRedeemed",
      "type": "event"
    },
    {
      "anonymous": false,
      "inputs": [
        {
          "indexed": false,
          "internalType": "uint256",
          "name": "tokenSaleId",
          "type": "uint256"
        },
        {
          "indexed": true,
          "internalType": "address",
          "name": "purchaser",
          "type": "address"
        },
        {
          "indexed": false,
          "internalType": "uint256",
          "name": "tokenId",
          "type": "uint256"
        },
        {
          "indexed": false,
          "internalType": "uint256",
          "name": "quantity",
          "type": "uint256"
        }
      ],
      "name": "TokenPurchased",
      "type": "event"
    },
    {
      "anonymous": false,
      "inputs": [
        {
          "indexed": false,
          "internalType": "uint256",
          "name": "tokenSaleId",
          "type": "uint256"
        },
        {
          "components": [
            {
              "internalType": "address",
              "name": "contractAddress",
              "type": "address"
            },
            {
              "internalType": "address",
              "name": "token",
              "type": "address"
            },
            {
              "internalType": "uint256",
              "name": "tokenHash",
              "type": "uint256"
            },
            {
              "internalType": "uint256",
              "name": "collectionHash",
              "type": "uint256"
            },
            {
              "internalType": "address",
              "name": "owner",
              "type": "address"
            },
            {
              "internalType": "address",
              "name": "payee",
              "type": "address"
            },
            {
              "internalType": "string",
              "name": "symbol",
              "type": "string"
            },
            {
              "internalType": "string",
              "name": "name",
              "type": "string"
            },
            {
              "internalType": "string",
              "name": "description",
              "type": "string"
            },
            {
              "internalType": "bool",
              "name": "openState",
              "type": "bool"
            },
            {
              "internalType": "uint256",
              "name": "startTime",
              "type": "uint256"
            },
            {
              "internalType": "uint256",
              "name": "endTime",
              "type": "uint256"
            },
            {
              "internalType": "uint256",
              "name": "maxQuantity",
              "type": "uint256"
            },
            {
              "internalType": "uint256",
              "name": "maxQuantityPerSale",
              "type": "uint256"
            },
            {
              "internalType": "uint256",
              "name": "minQuantityPerSale",
              "type": "uint256"
            },
            {
              "internalType": "uint256",
              "name": "maxQuantityPerAccount",
              "type": "uint256"
            },
            {
              "components": [
                {
                  "internalType": "uint256",
                  "name": "price",
                  "type": "uint256"
                },
                {
                  "internalType": "enum ITokenPrice.PriceModifier",
                  "name": "priceModifier",
                  "type": "uint8"
                },
                {
                  "internalType": "uint256",
                  "name": "priceModifierFactor",
                  "type": "uint256"
                },
                {
                  "internalType": "uint256",
                  "name": "maxPrice",
                  "type": "uint256"
                }
              ],
              "internalType": "struct ITokenPrice.TokenPriceData",
              "name": "initialPrice",
              "type": "tuple"
            },
            {
              "internalType": "enum IAirdropTokenSale.PaymentType",
              "name": "paymentType",
              "type": "uint8"
            },
            {
              "internalType": "address",
              "name": "tokenAddress",
              "type": "address"
            }
          ],
          "indexed": false,
          "internalType": "struct IAirdropTokenSale.TokenSaleSettings",
          "name": "tokenSale",
          "type": "tuple"
        }
      ],
      "name": "TokenSaleClosed",
      "type": "event"
    },
    {
      "anonymous": false,
      "inputs": [
        {
          "indexed": false,
          "internalType": "uint256",
          "name": "tokenSaleId",
          "type": "uint256"
        },
        {
          "components": [
            {
              "internalType": "address",
              "name": "contractAddress",
              "type": "address"
            },
            {
              "internalType": "address",
              "name": "token",
              "type": "address"
            },
            {
              "internalType": "uint256",
              "name": "tokenHash",
              "type": "uint256"
            },
            {
              "internalType": "uint256",
              "name": "collectionHash",
              "type": "uint256"
            },
            {
              "internalType": "address",
              "name": "owner",
              "type": "address"
            },
            {
              "internalType": "address",
              "name": "payee",
              "type": "address"
            },
            {
              "internalType": "string",
              "name": "symbol",
              "type": "string"
            },
            {
              "internalType": "string",
              "name": "name",
              "type": "string"
            },
            {
              "internalType": "string",
              "name": "description",
              "type": "string"
            },
            {
              "internalType": "bool",
              "name": "openState",
              "type": "bool"
            },
            {
              "internalType": "uint256",
              "name": "startTime",
              "type": "uint256"
            },
            {
              "internalType": "uint256",
              "name": "endTime",
              "type": "uint256"
            },
            {
              "internalType": "uint256",
              "name": "maxQuantity",
              "type": "uint256"
            },
            {
              "internalType": "uint256",
              "name": "maxQuantityPerSale",
              "type": "uint256"
            },
            {
              "internalType": "uint256",
              "name": "minQuantityPerSale",
              "type": "uint256"
            },
            {
              "internalType": "uint256",
              "name": "maxQuantityPerAccount",
              "type": "uint256"
            },
            {
              "components": [
                {
                  "internalType": "uint256",
                  "name": "price",
                  "type": "uint256"
                },
                {
                  "internalType": "enum ITokenPrice.PriceModifier",
                  "name": "priceModifier",
                  "type": "uint8"
                },
                {
                  "internalType": "uint256",
                  "name": "priceModifierFactor",
                  "type": "uint256"
                },
                {
                  "internalType": "uint256",
                  "name": "maxPrice",
                  "type": "uint256"
                }
              ],
              "internalType": "struct ITokenPrice.TokenPriceData",
              "name": "initialPrice",
              "type": "tuple"
            },
            {
              "internalType": "enum IAirdropTokenSale.PaymentType",
              "name": "paymentType",
              "type": "uint8"
            },
            {
              "internalType": "address",
              "name": "tokenAddress",
              "type": "address"
            }
          ],
          "indexed": false,
          "internalType": "struct IAirdropTokenSale.TokenSaleSettings",
          "name": "tokenSale",
          "type": "tuple"
        }
      ],
      "name": "TokenSaleOpen",
      "type": "event"
    },
    {
      "anonymous": false,
      "inputs": [
        {
          "indexed": true,
          "internalType": "address",
          "name": "token",
          "type": "address"
        },
        {
          "indexed": true,
          "internalType": "uint256",
          "name": "tokenId",
          "type": "uint256"
        },
        {
          "indexed": false,
          "internalType": "uint256",
          "name": "price",
          "type": "uint256"
        },
        {
          "indexed": false,
          "internalType": "uint256",
          "name": "quantity",
          "type": "uint256"
        }
      ],
      "name": "TokenSaleSet",
      "type": "event"
    },
    {
      "anonymous": false,
      "inputs": [
        {
          "indexed": false,
          "internalType": "uint256",
          "name": "tokenSaleId",
          "type": "uint256"
        },
        {
          "components": [
            {
              "internalType": "address",
              "name": "contractAddress",
              "type": "address"
            },
            {
              "internalType": "address",
              "name": "token",
              "type": "address"
            },
            {
              "internalType": "uint256",
              "name": "tokenHash",
              "type": "uint256"
            },
            {
              "internalType": "uint256",
              "name": "collectionHash",
              "type": "uint256"
            },
            {
              "internalType": "address",
              "name": "owner",
              "type": "address"
            },
            {
              "internalType": "address",
              "name": "payee",
              "type": "address"
            },
            {
              "internalType": "string",
              "name": "symbol",
              "type": "string"
            },
            {
              "internalType": "string",
              "name": "name",
              "type": "string"
            },
            {
              "internalType": "string",
              "name": "description",
              "type": "string"
            },
            {
              "internalType": "bool",
              "name": "openState",
              "type": "bool"
            },
            {
              "internalType": "uint256",
              "name": "startTime",
              "type": "uint256"
            },
            {
              "internalType": "uint256",
              "name": "endTime",
              "type": "uint256"
            },
            {
              "internalType": "uint256",
              "name": "maxQuantity",
              "type": "uint256"
            },
            {
              "internalType": "uint256",
              "name": "maxQuantityPerSale",
              "type": "uint256"
            },
            {
              "internalType": "uint256",
              "name": "minQuantityPerSale",
              "type": "uint256"
            },
            {
              "internalType": "uint256",
              "name": "maxQuantityPerAccount",
              "type": "uint256"
            },
            {
              "components": [
                {
                  "internalType": "uint256",
                  "name": "price",
                  "type": "uint256"
                },
                {
                  "internalType": "enum ITokenPrice.PriceModifier",
                  "name": "priceModifier",
                  "type": "uint8"
                },
                {
                  "internalType": "uint256",
                  "name": "priceModifierFactor",
                  "type": "uint256"
                },
                {
                  "internalType": "uint256",
                  "name": "maxPrice",
                  "type": "uint256"
                }
              ],
              "internalType": "struct ITokenPrice.TokenPriceData",
              "name": "initialPrice",
              "type": "tuple"
            },
            {
              "internalType": "enum IAirdropTokenSale.PaymentType",
              "name": "paymentType",
              "type": "uint8"
            },
            {
              "internalType": "address",
              "name": "tokenAddress",
              "type": "address"
            }
          ],
          "indexed": false,
          "internalType": "struct IAirdropTokenSale.TokenSaleSettings",
          "name": "tokenSale",
          "type": "tuple"
        }
      ],
      "name": "TokenSaleSettingsUpdated",
      "type": "event"
    },
    {
      "anonymous": false,
      "inputs": [
        {
          "indexed": true,
          "internalType": "address",
          "name": "buyer",
          "type": "address"
        },
        {
          "indexed": true,
          "internalType": "address",
          "name": "tokenAddress",
          "type": "address"
        },
        {
          "indexed": true,
          "internalType": "uint256",
          "name": "tokenId",
          "type": "uint256"
        },
        {
          "indexed": false,
          "internalType": "uint256",
          "name": "salePrice",
          "type": "uint256"
        }
      ],
      "name": "TokenSold",
      "type": "event"
    },
    {
      "anonymous": false,
      "inputs": [
        {
          "indexed": true,
          "internalType": "address",
          "name": "tokenAddress",
          "type": "address"
        },
        {
          "components": [
            {
              "internalType": "address payable",
              "name": "receiver",
              "type": "address"
            },
            {
              "internalType": "address",
              "name": "sourceToken",
              "type": "address"
            },
            {
              "internalType": "uint256",
              "name": "sourceTokenId",
              "type": "uint256"
            },
            {
              "internalType": "address",
              "name": "token",
              "type": "address"
            },
            {
              "internalType": "uint256",
              "name": "quantity",
              "type": "uint256"
            },
            {
              "internalType": "uint256",
              "name": "price",
              "type": "uint256"
            },
            {
              "internalType": "uint256",
              "name": "quantitySold",
              "type": "uint256"
            }
          ],
          "indexed": false,
          "internalType": "struct ITokenSale.TokenSaleEntry",
          "name": "tokens",
          "type": "tuple"
        }
      ],
      "name": "TokensSet",
      "type": "event"
    },
    {
      "anonymous": false,
      "inputs": [
        {
          "indexed": true,
          "internalType": "uint256",
          "name": "tokensaleId",
          "type": "uint256"
        },
        {
          "components": [
            {
              "internalType": "address",
              "name": "contractAddress",
              "type": "address"
            },
            {
              "internalType": "address",
              "name": "token",
              "type": "address"
            },
            {
              "internalType": "uint256",
              "name": "tokenHash",
              "type": "uint256"
            },
            {
              "internalType": "uint256",
              "name": "collectionHash",
              "type": "uint256"
            },
            {
              "internalType": "address",
              "name": "owner",
              "type": "address"
            },
            {
              "internalType": "address",
              "name": "payee",
              "type": "address"
            },
            {
              "internalType": "string",
              "name": "symbol",
              "type": "string"
            },
            {
              "internalType": "string",
              "name": "name",
              "type": "string"
            },
            {
              "internalType": "string",
              "name": "description",
              "type": "string"
            },
            {
              "internalType": "bool",
              "name": "openState",
              "type": "bool"
            },
            {
              "internalType": "uint256",
              "name": "startTime",
              "type": "uint256"
            },
            {
              "internalType": "uint256",
              "name": "endTime",
              "type": "uint256"
            },
            {
              "internalType": "uint256",
              "name": "maxQuantity",
              "type": "uint256"
            },
            {
              "internalType": "uint256",
              "name": "maxQuantityPerSale",
              "type": "uint256"
            },
            {
              "internalType": "uint256",
              "name": "minQuantityPerSale",
              "type": "uint256"
            },
            {
              "internalType": "uint256",
              "name": "maxQuantityPerAccount",
              "type": "uint256"
            },
            {
              "components": [
                {
                  "internalType": "uint256",
                  "name": "price",
                  "type": "uint256"
                },
                {
                  "internalType": "enum ITokenPrice.PriceModifier",
                  "name": "priceModifier",
                  "type": "uint8"
                },
                {
                  "internalType": "uint256",
                  "name": "priceModifierFactor",
                  "type": "uint256"
                },
                {
                  "internalType": "uint256",
                  "name": "maxPrice",
                  "type": "uint256"
                }
              ],
              "internalType": "struct ITokenPrice.TokenPriceData",
              "name": "initialPrice",
              "type": "tuple"
            },
            {
              "internalType": "enum IAirdropTokenSale.PaymentType",
              "name": "paymentType",
              "type": "uint8"
            },
            {
              "internalType": "address",
              "name": "tokenAddress",
              "type": "address"
            }
          ],
          "indexed": false,
          "internalType": "struct IAirdropTokenSale.TokenSaleSettings",
          "name": "settings",
          "type": "tuple"
        }
      ],
      "name": "TokensaleCreated",
      "type": "event"
    },
    {
      "inputs": [
        {
          "internalType": "uint256",
          "name": "tokenSaleId",
          "type": "uint256"
        },
        {
          "internalType": "uint256",
          "name": "",
          "type": "uint256"
        },
        {
          "internalType": "address",
          "name": "recipient",
          "type": "address"
        },
        {
          "internalType": "uint256",
          "name": "amount",
          "type": "uint256"
        }
      ],
      "name": "airdropRedeemed",
      "outputs": [],
      "stateMutability": "nonpayable",
      "type": "function"
    },
    {
      "inputs": [
        {
          "components": [
            {
              "internalType": "address",
              "name": "contractAddress",
              "type": "address"
            },
            {
              "internalType": "address",
              "name": "token",
              "type": "address"
            },
            {
              "internalType": "uint256",
              "name": "tokenHash",
              "type": "uint256"
            },
            {
              "internalType": "uint256",
              "name": "collectionHash",
              "type": "uint256"
            },
            {
              "internalType": "address",
              "name": "owner",
              "type": "address"
            },
            {
              "internalType": "address",
              "name": "payee",
              "type": "address"
            },
            {
              "internalType": "string",
              "name": "symbol",
              "type": "string"
            },
            {
              "internalType": "string",
              "name": "name",
              "type": "string"
            },
            {
              "internalType": "string",
              "name": "description",
              "type": "string"
            },
            {
              "internalType": "bool",
              "name": "openState",
              "type": "bool"
            },
            {
              "internalType": "uint256",
              "name": "startTime",
              "type": "uint256"
            },
            {
              "internalType": "uint256",
              "name": "endTime",
              "type": "uint256"
            },
            {
              "internalType": "uint256",
              "name": "maxQuantity",
              "type": "uint256"
            },
            {
              "internalType": "uint256",
              "name": "maxQuantityPerSale",
              "type": "uint256"
            },
            {
              "internalType": "uint256",
              "name": "minQuantityPerSale",
              "type": "uint256"
            },
            {
              "internalType": "uint256",
              "name": "maxQuantityPerAccount",
              "type": "uint256"
            },
            {
              "components": [
                {
                  "internalType": "uint256",
                  "name": "price",
                  "type": "uint256"
                },
                {
                  "internalType": "enum ITokenPrice.PriceModifier",
                  "name": "priceModifier",
                  "type": "uint8"
                },
                {
                  "internalType": "uint256",
                  "name": "priceModifierFactor",
                  "type": "uint256"
                },
                {
                  "internalType": "uint256",
                  "name": "maxPrice",
                  "type": "uint256"
                }
              ],
              "internalType": "struct ITokenPrice.TokenPriceData",
              "name": "initialPrice",
              "type": "tuple"
            },
            {
              "internalType": "enum IAirdropTokenSale.PaymentType",
              "name": "paymentType",
              "type": "uint8"
            },
            {
              "internalType": "address",
              "name": "tokenAddress",
              "type": "address"
            }
          ],
          "internalType": "struct IAirdropTokenSale.TokenSaleSettings",
          "name": "tokenSaleInit",
          "type": "tuple"
        }
      ],
      "name": "createTokenSale",
      "outputs": [
        {
          "internalType": "uint256",
          "name": "tokenSaleId",
          "type": "uint256"
        }
      ],
      "stateMutability": "nonpayable",
      "type": "function"
    },
    {
      "inputs": [
        {
          "internalType": "uint256",
          "name": "tokenSaleId",
          "type": "uint256"
        }
      ],
      "name": "getTokenSaleSettings",
      "outputs": [
        {
          "components": [
            {
              "internalType": "address",
              "name": "contractAddress",
              "type": "address"
            },
            {
              "internalType": "address",
              "name": "token",
              "type": "address"
            },
            {
              "internalType": "uint256",
              "name": "tokenHash",
              "type": "uint256"
            },
            {
              "internalType": "uint256",
              "name": "collectionHash",
              "type": "uint256"
            },
            {
              "internalType": "address",
              "name": "owner",
              "type": "address"
            },
            {
              "internalType": "address",
              "name": "payee",
              "type": "address"
            },
            {
              "internalType": "string",
              "name": "symbol",
              "type": "string"
            },
            {
              "internalType": "string",
              "name": "name",
              "type": "string"
            },
            {
              "internalType": "string",
              "name": "description",
              "type": "string"
            },
            {
              "internalType": "bool",
              "name": "openState",
              "type": "bool"
            },
            {
              "internalType": "uint256",
              "name": "startTime",
              "type": "uint256"
            },
            {
              "internalType": "uint256",
              "name": "endTime",
              "type": "uint256"
            },
            {
              "internalType": "uint256",
              "name": "maxQuantity",
              "type": "uint256"
            },
            {
              "internalType": "uint256",
              "name": "maxQuantityPerSale",
              "type": "uint256"
            },
            {
              "internalType": "uint256",
              "name": "minQuantityPerSale",
              "type": "uint256"
            },
            {
              "internalType": "uint256",
              "name": "maxQuantityPerAccount",
              "type": "uint256"
            },
            {
              "components": [
                {
                  "internalType": "uint256",
                  "name": "price",
                  "type": "uint256"
                },
                {
                  "internalType": "enum ITokenPrice.PriceModifier",
                  "name": "priceModifier",
                  "type": "uint8"
                },
                {
                  "internalType": "uint256",
                  "name": "priceModifierFactor",
                  "type": "uint256"
                },
                {
                  "internalType": "uint256",
                  "name": "maxPrice",
                  "type": "uint256"
                }
              ],
              "internalType": "struct ITokenPrice.TokenPriceData",
              "name": "initialPrice",
              "type": "tuple"
            },
            {
              "internalType": "enum IAirdropTokenSale.PaymentType",
              "name": "paymentType",
              "type": "uint8"
            },
            {
              "internalType": "address",
              "name": "tokenAddress",
              "type": "address"
            }
          ],
          "internalType": "struct IAirdropTokenSale.TokenSaleSettings",
          "name": "settings",
          "type": "tuple"
        }
      ],
      "stateMutability": "view",
      "type": "function"
    },
    {
      "inputs": [
        {
          "components": [
            {
              "internalType": "bool",
              "name": "whitelistOnly",
              "type": "bool"
            },
            {
              "internalType": "uint256",
              "name": "whitelistId",
              "type": "uint256"
            },
            {
              "internalType": "bytes32",
              "name": "whitelistHash",
              "type": "bytes32"
            },
            {
              "internalType": "uint256",
              "name": "maxQuantity",
              "type": "uint256"
            },
            {
              "internalType": "uint256",
              "name": "maxQuantityPerSale",
              "type": "uint256"
            },
            {
              "internalType": "uint256",
              "name": "minQuantityPerSale",
              "type": "uint256"
            },
            {
              "internalType": "uint256",
              "name": "maxQuantityPerAccount",
              "type": "uint256"
            },
            {
              "internalType": "uint256",
              "name": "quantitySold",
              "type": "uint256"
            },
            {
              "internalType": "uint256",
              "name": "startTime",
              "type": "uint256"
            },
            {
              "internalType": "uint256",
              "name": "endTime",
              "type": "uint256"
            },
            {
              "components": [
                {
                  "internalType": "uint256",
                  "name": "price",
                  "type": "uint256"
                },
                {
                  "internalType": "enum ITokenPrice.PriceModifier",
                  "name": "priceModifier",
                  "type": "uint8"
                },
                {
                  "internalType": "uint256",
                  "name": "priceModifierFactor",
                  "type": "uint256"
                },
                {
                  "internalType": "uint256",
                  "name": "maxPrice",
                  "type": "uint256"
                }
              ],
              "internalType": "struct ITokenPrice.TokenPriceData",
              "name": "initialPrice",
              "type": "tuple"
            },
            {
              "internalType": "uint256",
              "name": "tokenHash",
              "type": "uint256"
            },
            {
              "internalType": "enum IAirdropTokenSale.PaymentType",
              "name": "paymentType",
              "type": "uint8"
            },
            {
              "internalType": "address",
              "name": "tokenAddress",
              "type": "address"
            }
          ],
          "internalType": "struct IAirdrop.AirdropSettings",
          "name": "_airdrop",
          "type": "tuple"
        }
      ],
      "name": "newAirdrop",
      "outputs": [],
      "stateMutability": "nonpayable",
      "type": "function"
    },
    {
      "inputs": [
        {
          "internalType": "uint256",
          "name": "tokenSaleId",
          "type": "uint256"
        },
        {
          "internalType": "address",
          "name": "receiver",
          "type": "address"
        },
        {
          "internalType": "uint256",
          "name": "quantity",
          "type": "uint256"
        },
        {
          "internalType": "uint256",
          "name": "total",
          "type": "uint256"
        },
        {
          "internalType": "uint256",
          "name": "drop",
          "type": "uint256"
        },
        {
          "internalType": "uint256",
          "name": "index",
          "type": "uint256"
        },
        {
          "internalType": "bytes32[]",
          "name": "merkleProof",
          "type": "bytes32[]"
        }
      ],
      "name": "purchase",
      "outputs": [],
      "stateMutability": "payable",
      "type": "function"
    },
    {
      "inputs": [
        {
          "internalType": "uint256",
          "name": "tokenSaleId",
          "type": "uint256"
        },
        {
          "internalType": "uint256",
          "name": "drop",
          "type": "uint256"
        },
        {
          "internalType": "uint256",
          "name": "leaf",
          "type": "uint256"
        },
        {
          "internalType": "address",
          "name": "recipient",
          "type": "address"
        },
        {
          "internalType": "uint256",
          "name": "amount",
          "type": "uint256"
        },
        {
          "internalType": "uint256",
          "name": "total",
          "type": "uint256"
        },
        {
          "internalType": "bytes32[]",
          "name": "merkleProof",
          "type": "bytes32[]"
        }
      ],
      "name": "redeemToken",
      "outputs": [],
      "stateMutability": "payable",
      "type": "function"
    },
    {
      "inputs": [
        {
          "internalType": "uint256",
          "name": "tokenSaleId",
          "type": "uint256"
        },
        {
          "components": [
            {
              "internalType": "address",
              "name": "contractAddress",
              "type": "address"
            },
            {
              "internalType": "address",
              "name": "token",
              "type": "address"
            },
            {
              "internalType": "uint256",
              "name": "tokenHash",
              "type": "uint256"
            },
            {
              "internalType": "uint256",
              "name": "collectionHash",
              "type": "uint256"
            },
            {
              "internalType": "address",
              "name": "owner",
              "type": "address"
            },
            {
              "internalType": "address",
              "name": "payee",
              "type": "address"
            },
            {
              "internalType": "string",
              "name": "symbol",
              "type": "string"
            },
            {
              "internalType": "string",
              "name": "name",
              "type": "string"
            },
            {
              "internalType": "string",
              "name": "description",
              "type": "string"
            },
            {
              "internalType": "bool",
              "name": "openState",
              "type": "bool"
            },
            {
              "internalType": "uint256",
              "name": "startTime",
              "type": "uint256"
            },
            {
              "internalType": "uint256",
              "name": "endTime",
              "type": "uint256"
            },
            {
              "internalType": "uint256",
              "name": "maxQuantity",
              "type": "uint256"
            },
            {
              "internalType": "uint256",
              "name": "maxQuantityPerSale",
              "type": "uint256"
            },
            {
              "internalType": "uint256",
              "name": "minQuantityPerSale",
              "type": "uint256"
            },
            {
              "internalType": "uint256",
              "name": "maxQuantityPerAccount",
              "type": "uint256"
            },
            {
              "components": [
                {
                  "internalType": "uint256",
                  "name": "price",
                  "type": "uint256"
                },
                {
                  "internalType": "enum ITokenPrice.PriceModifier",
                  "name": "priceModifier",
                  "type": "uint8"
                },
                {
                  "internalType": "uint256",
                  "name": "priceModifierFactor",
                  "type": "uint256"
                },
                {
                  "internalType": "uint256",
                  "name": "maxPrice",
                  "type": "uint256"
                }
              ],
              "internalType": "struct ITokenPrice.TokenPriceData",
              "name": "initialPrice",
              "type": "tuple"
            },
            {
              "internalType": "enum IAirdropTokenSale.PaymentType",
              "name": "paymentType",
              "type": "uint8"
            },
            {
              "internalType": "address",
              "name": "tokenAddress",
              "type": "address"
            }
          ],
          "internalType": "struct IAirdropTokenSale.TokenSaleSettings",
          "name": "settings",
          "type": "tuple"
        }
      ],
      "name": "updateTokenSaleSettings",
      "outputs": [],
      "stateMutability": "nonpayable",
      "type": "function"
    }
  ],
  "transactionHash": "0xd154e337ca0a9193d3adf3e4e35431320ada7286385c82838115391f52138c7d",
  "args": [],
  "numDeployments": 3,
  "solcInputHash": "7ae0a89a1ce2a1b923b610310fb83dac",
  "bytecode": "0x608060405234801561001057600080fd5b506121a8806100206000396000f3fe6080604052600436106100605760003560e01c8063137b4827146100655780639d763be014610098578063d7c84a2a146100ba578063da8dadef146100da578063e4c1c461146100ed578063e95ede061461010d578063fef48a511461013a575b600080fd5b34801561007157600080fd5b5061008561008036600461194f565b61014d565b6040519081526020015b60405180910390f35b3480156100a457600080fd5b506100b86100b3366004611a67565b610421565b005b3480156100c657600080fd5b506100b86100d536600461187f565b61049d565b6100b86100e83660046119a4565b61052e565b3480156100f957600080fd5b506100b8610108366004611a21565b610547565b34801561011957600080fd5b5061012d61012836600461198b565b61081c565b60405161008f9190611fc0565b6100b8610148366004611aa4565b610b95565b60208101516000906001600160a01b03166101af5760405162461bcd60e51b815260206004820152601e60248201527f4d756c7469746f6b656e2061646472657373206d75737420626520736574000060448201526064015b60405180910390fd5b6005546040805160208101929092526001600160601b03193060601b169082015260540160408051808303601f190181529181528151602092830120600081815260078452829020855181546001600160a01b03199081166001600160a01b03928316178355878601516001840180548316918416919091179055938701516002830155606087015160038301556080870151600483018054861691831691909117905560a087015160058301805490951691161790925560c085015180519194508593610285926006850192909101906113c9565b5060e082015180516102a19160078401916020909101906113c9565b5061010082015180516102be9160088401916020909101906113c9565b5061012082015160098201805491151560ff19928316179055610140830151600a830155610160830151600b830155610180830151600c8301556101a0830151600d8301556101c0830151600e8301556101e0830151600f8301556102008301518051601084019081556020820151601185018054939492939192909116600183600381111561035057610350612135565b02179055506040820151600282015560609091015160039091015561022082015160148201805460ff19166001838181111561038e5761038e612135565b02179055506102409190910151601490910180546001600160a01b0390921661010002610100600160a81b03199092169190911790556000818152600760205260409081902080546001600160a01b031916301790555181907f6d3990d0ece16d3b43fb0736a9c9ca0f0aa77b6e4153ab8f8f18ee7dca25158590610414908590611fc0565b60405180910390a2919050565b600084815260076020526040908190206001015490516308934a5f60e31b81526001600160a01b038481166004830152602482018490529091169063449a52f890604401600060405180830381600087803b15801561047f57600080fd5b505af1158015610493573d6000803e3d6000fd5b5050505050505050565b336104a6610ba5565b6001600160a01b031614806104ba57503033145b6104d65760405162461bcd60e51b81526004016101a690611e83565b604051636bade82d60e11b8152309063d75bd05a906104f9908490600401611f06565b600060405180830381600087803b15801561051357600080fd5b505af1158015610527573d6000803e3d6000fd5b5050505050565b61053e8787878787878734610bd3565b50505050505050565b33610550610ba5565b6001600160a01b0316148061056457503033145b6105805760405162461bcd60e51b81526004016101a690611e83565b6000828152600760205260409020600401546001600160a01b031633146106035760405162461bcd60e51b815260206004820152603160248201527f4f6e6c7920746865206f776e65722063616e207570646174652074686520746f6044820152706b656e2073616c652073657474696e677360781b60648201526084016101a6565b600082815260076020908152604091829020835181546001600160a01b03199081166001600160a01b03928316178355858401516001840180548316918416919091179055938501516002830155606085015160038301556080850151600483018054861691831691909117905560a085015160058301805490951691161790925560c083015180518493926106a09260068501929101906113c9565b5060e082015180516106bc9160078401916020909101906113c9565b5061010082015180516106d99160088401916020909101906113c9565b5061012082015160098201805491151560ff19928316179055610140830151600a830155610160830151600b830155610180830151600c8301556101a0830151600d8301556101c0830151600e8301556101e0830151600f8301556102008301518051601084019081556020820151601185018054939492939192909116600183600381111561076b5761076b612135565b02179055506040820151600282015560609091015160039091015561022082015160148201805460ff1916600183818111156107a9576107a9612135565b02179055506102408201518160140160016101000a8154816001600160a01b0302191690836001600160a01b031602179055509050507f2ffd32606a2fb084c62deeb9690a02611ed6f9b4d945ed10ee0eb7b712be8df18282604051610810929190611fd3565b60405180910390a15050565b61082461144d565b604080516102608101825260008481526007602081815284832080546001600160a01b039081168652600182015481168387015260028201549686019690965260038101546060860152600481015486166080860152600581015490951660a08501529186905290526006909101805460c0830191906108a3906120e4565b80601f01602080910402602001604051908101604052809291908181526020018280546108cf906120e4565b801561091c5780601f106108f15761010080835404028352916020019161091c565b820191906000526020600020905b8154815290600101906020018083116108ff57829003601f168201915b50505091835250506000848152600760208181526040909220018054919092019190610947906120e4565b80601f0160208091040260200160405190810160405280929190818152602001828054610973906120e4565b80156109c05780601f10610995576101008083540402835291602001916109c0565b820191906000526020600020905b8154815290600101906020018083116109a357829003601f168201915b505050505081526020016000600501600201600085815260200190815260200160002060080180546109f1906120e4565b80601f0160208091040260200160405190810160405280929190818152602001828054610a1d906120e4565b8015610a6a5780601f10610a3f57610100808354040283529160200191610a6a565b820191906000526020600020905b815481529060010190602001808311610a4d57829003601f168201915b50505091835250506000848152600760208181526040808420600981015460ff908116151584880152600a82015483880152600b8201546060880152600c820154608080890191909152600d83015460a0890152600e83015460c0890152600f83015460e0890152958a90529383528151948501909152601081018054855260119091015461010090950194909291840191166003811115610b0e57610b0e612135565b6003811115610b1f57610b1f612135565b81526002820154602080830191909152600390920154604091820152918352600086815260078252919091206014015491019060ff166001811115610b6657610b66612135565b815260009384526007602090815260409094206014015461010090046001600160a01b03169301929092525090565b61053e878585858a8a8734610bd3565b7fc8fcad8db84d3cc18b4c41d551ea0ee66dd599cde068d998e57d5e09332c1320546001600160a01b031690565b8315610f3c57600084815260208190526040902060018101548514610c0a5760405162461bcd60e51b81526004016101a690611d4f565b60405163434705f160e11b8152600481018690526001600160a01b0389166024820152309063868e0be29060440160206040518083038186803b158015610c5057600080fd5b505afa158015610c64573d6000803e3d6000fd5b505050506040513d601f19601f82011682018060405250810190610c88919061185b565b15610cd05760405162461bcd60e51b8152602060048201526018602482015277105a5c991c9bdc08185b1c9958591e481c995919595b595960421b60448201526064016101a6565b60038101541580610d025750600381015415801590610d0257508060030154878260070154610cff91906120ad565b11155b610d1e5760405162461bcd60e51b81526004016101a690611d7d565b6000600f82015460ff166001811115610d3957610d39612135565b1415610d9b57600a8101548290610d519089906120c5565b1115610d9b5760405162461bcd60e51b8152602060048201526019602482015278139bdd08195b9bdd59da081c1c9a58d948185d1d1858da1959603a1b60448201526064016101a6565b60058101541580610dbe5750600581015415801590610dbe575080600501548710155b610dda5760405162461bcd60e51b81526004016101a690611e0c565b60048101541580610dfd5750600481015415801590610dfd575080600401548711155b610e195760405162461bcd60e51b81526004016101a690611dca565b806008015442101580610e2e57506008810154155b610e4a5760405162461bcd60e51b81526004016101a690611e4d565b806009015442111580610e5f57506009810154155b610e7b5760405162461bcd60e51b81526004016101a690611eda565b805460ff1615610ee55760405163378e98bb60e01b8152309063378e98bb90610eb290889088908d908d908d908b90600401611fec565b600060405180830381600087803b158015610ecc57600080fd5b505af1158015610ee0573d6000803e3d6000fd5b505050505b610ef189868a8a611128565b50876001600160a01b0316857fcab378d19b1950615aa3acf93c1d36654ad5200ab340d952bde8072bfec95d19858a604051610f2e929190611d2d565b60405180910390a350610493565b600088815260076020526040812090601482015460ff166001811115610f6457610f64612135565b1415610fc85760108101548290610f7c9089906120c5565b1115610fc85760405162461bcd60e51b815260206004820152601b60248201527a139bdd08195b9bdd59da081c185e5b595b9d08185d1d1858da1959602a1b60448201526064016101a6565b600c81015415806110145750600c810154158015906110145750600c81015460008052600a6020527f13da86008ba1c6922daee3e07db95305ef49ebced9f5467a0b8613fcc6b343e354105b6110305760405162461bcd60e51b81526004016101a690611d7d565b600e81015415806110535750600e81015415801590611053575080600e01548710155b61106f5760405162461bcd60e51b81526004016101a690611e0c565b600d81015415806110925750600d81015415801590611092575080600d01548711155b6110ae5760405162461bcd60e51b81526004016101a690611dca565b80600a0154421015806110c35750600a810154155b6110df5760405162461bcd60e51b81526004016101a690611e4d565b80600b0154421115806110f45750600b810154155b6111105760405162461bcd60e51b81526004016101a690611eda565b61111c89868a8a611128565b50505050505050505050565b600060016000858152602081905260409020600f015460ff16600181111561115257611152612135565b14801561117d57506000848152602081905260409020600f015461010090046001600160a01b031615155b15611244576000848152602081905260408120600f810154600a909101546101009091046001600160a01b031691906111b79085906120c5565b6040516323b872dd60e01b8152336004820152306024820152604481018290529091506001600160a01b038316906323b872dd90606401602060405180830381600087803b15801561120857600080fd5b505af115801561121c573d6000803e3d6000fd5b505050506040513d601f19601f82011682018060405250810190611240919061185b565b5050505b6000841561129457600085815260208190526040902060010154851461127c5760405162461bcd60e51b81526004016101a690611d4f565b506000848152602081905260409020600e01546112a8565b506000858152600760205260409020600201545b6040516304ebb1df60e51b815260048101879052602481018690526001600160a01b0385166044820152600160648201523090639d763be090608401600060405180830381600087803b1580156112fe57600080fd5b505af1158015611312573d6000803e3d6000fd5b5050506000868152600a602052604081208054600193509091906113379084906120ad565b909155505060008581526009602090815260408083206001600160a01b0388168452909152812080546001929061136f9084906120ad565b9091555050604080518781526020810183905260018183015290516001600160a01b038616917f9724b007b03edd022b805a7acc9bbc33ce21a84b5c9e360a5f71b367b97db86d919081900360600190a295945050505050565b8280546113d5906120e4565b90600052602060002090601f0160209004810192826113f7576000855561143d565b82601f1061141057805160ff191683800117855561143d565b8280016001018555821561143d579182015b8281111561143d578251825591602001919060010190611422565b5061144992915061152f565b5090565b60405180610260016040528060006001600160a01b0316815260200160006001600160a01b03168152602001600081526020016000815260200160006001600160a01b0316815260200160006001600160a01b0316815260200160608152602001606081526020016060815260200160001515815260200160008152602001600081526020016000815260200160008152602001600081526020016000815260200161151b604080516080810190915260008082526020820190815260200160008152602001600081525090565b815260200160008152600060209091015290565b5b808211156114495760008155600101611530565b80356001600160a01b038116811461155b57600080fd5b919050565b600082601f83011261157157600080fd5b813560206001600160401b0382111561158c5761158c61214b565b8160051b61159b82820161207d565b8381528281019086840183880185018910156115b657600080fd5b600093505b858410156115d95780358352600193909301929184019184016115bb565b50979650505050505050565b803561155b81612161565b80356002811061155b57600080fd5b600082601f83011261161057600080fd5b81356001600160401b038111156116295761162961214b565b61163c601f8201601f191660200161207d565b81815284602083860101111561165157600080fd5b816020850160208301376000918101602001919091529392505050565b60006080828403121561168057600080fd5b604051608081016001600160401b03811182821017156116a2576116a261214b565b604052823581529050806020830135600481106116be57600080fd5b8060208301525060408301356040820152606083013560608201525092915050565b60006102c082840312156116f357600080fd5b6116fb612031565b905061170682611544565b815261171460208301611544565b6020820152604082013560408201526060820135606082015261173960808301611544565b608082015261174a60a08301611544565b60a082015260c08201356001600160401b038082111561176957600080fd5b611775858386016115ff565b60c084015260e084013591508082111561178e57600080fd5b61179a858386016115ff565b60e0840152610100915081840135818111156117b557600080fd5b6117c1868287016115ff565b838501525050506101206117d68184016115e5565b908201526101408281013590820152610160808301359082015261018080830135908201526101a080830135908201526101c080830135908201526101e0808301359082015261020061182b8482850161166e565b9082015261183c61028083016115f0565b61022082015261184f6102a08301611544565b61024082015292915050565b60006020828403121561186d57600080fd5b815161187881612161565b9392505050565b6000610220828403121561189257600080fd5b61189a61205a565b6118a3836115e5565b81526020830135602082015260408301356040820152606083013560608201526080830135608082015260a083013560a082015260c083013560c082015260e083013560e08201526101008084013581830152506101208084013581830152506101406119128582860161166e565b908201526101c083013561016082015261192f6101e084016115f0565b6101808201526119426102008401611544565b6101a08201529392505050565b60006020828403121561196157600080fd5b81356001600160401b0381111561197757600080fd5b611983848285016116e0565b949350505050565b60006020828403121561199d57600080fd5b5035919050565b600080600080600080600060e0888a0312156119bf57600080fd5b873596506119cf60208901611544565b955060408801359450606088013593506080880135925060a0880135915060c08801356001600160401b03811115611a0657600080fd5b611a128a828b01611560565b91505092959891949750929550565b60008060408385031215611a3457600080fd5b8235915060208301356001600160401b03811115611a5157600080fd5b611a5d858286016116e0565b9150509250929050565b60008060008060808587031215611a7d57600080fd5b8435935060208501359250611a9460408601611544565b9396929550929360600135925050565b600080600080600080600060e0888a031215611abf57600080fd5b873596506020880135955060408801359450611add60608901611544565b93506080880135925060a0880135915060c08801356001600160401b03811115611a0657600080fd5b6001600160a01b03169052565b600081518084526020808501945080840160005b83811015611b4357815187529582019590820190600101611b27565b509495945050505050565b60028110611b5e57611b5e612135565b9052565b6000815180845260005b81811015611b8857602081850181015186830182015201611b6c565b81811115611b9a576000602083870101525b50601f01601f19169290920160200192915050565b80518252602081015160048110611bc857611bc8612135565b602083015260408181015190830152606090810151910152565b60006102c0611bf2848451611b06565b6020830151611c046020860182611b06565b5060408301516040850152606083015160608501526080830151611c2b6080860182611b06565b5060a0830151611c3e60a0860182611b06565b5060c08301518160c0860152611c5682860182611b62565b91505060e083015184820360e0860152611c708282611b62565b9150506101008084015185830382870152611c8b8382611b62565b9250505061012080840151611ca38287018215159052565b50506101408381015190850152610160808401519085015261018080840151908501526101a080840151908501526101c080840151908501526101e0808401519085015261020080840151611cfa82870182611baf565b5050610220830151611d10610280860182611b4e565b50610240830151611d256102a0860182611b06565b509392505050565b604081526000611d406040830185611b13565b90508260208301529392505050565b602080825260149082015273105a5c991c9bdc08191bd95cdb9d08195e1a5cdd60621b604082015260600190565b6020808252602d908201527f546865206d6178696d756d20616d6f756e74206f6620746f6b656e732068617360408201526c103132b2b7103137bab3b43a1760991b606082015260800190565b60208082526022908201527f4d6178696d756d207175616e74697479207065722073616c6520657863656564604082015261195960f21b606082015260800190565b60208082526021908201527f4d696e696d756d207175616e74697479207065722073616c65206e6f74206d656040820152601d60fa1b606082015260800190565b6020808252601c908201527b151a19481cd85b19481a185cc81b9bdd081cdd185c9d1959081e595d60221b604082015260600190565b60208082526037908201527f455243313135353a206f6e6c792074686520636f6e7472616374206f776e65726040820152761031b0b71031b0b636103a3434b990333ab731ba34b7b760491b606082015260800190565b602080825260129082015271151a19481cd85b19481a185cc8195b99195960721b604082015260600190565b81511515815261022081016020830151602083015260408301516040830152606083015160608301526080830151608083015260a083015160a083015260c083015160c083015260e083015160e083015261010080840151818401525061012080840151818401525061014080840151611f8282850182611baf565b50506101608301516101c0830152610180830151611fa46101e0840182611b4e565b506101a0830151611fb9610200840182611b06565b5092915050565b6020815260006118786020830184611be2565b8281526040602082015260006119836040830184611be2565b86815285602082015260018060a01b038516604082015283606082015282608082015260c060a0820152600061202560c0830184611b13565b98975050505050505050565b60405161026081016001600160401b03811182821017156120545761205461214b565b60405290565b6040516101c081016001600160401b03811182821017156120545761205461214b565b604051601f8201601f191681016001600160401b03811182821017156120a5576120a561214b565b604052919050565b600082198211156120c0576120c061211f565b500190565b60008160001904831182151516156120df576120df61211f565b500290565b600181811c908216806120f857607f821691505b6020821081141561211957634e487b7160e01b600052602260045260246000fd5b50919050565b634e487b7160e01b600052601160045260246000fd5b634e487b7160e01b600052602160045260246000fd5b634e487b7160e01b600052604160045260246000fd5b801515811461216f57600080fd5b5056fea264697066735822122084106bd54762f14fdbccb2ec60ebec1a6a400afce0005c9d2c058990517f9c0f64736f6c63430008060033",
  "libraries": {
    "AddressSet": "0xf88EB844922B1ab0e153cF9E9bEefecc9512DE06",
    "UInt256Set": "0xCc995d7a8c7c499128cB34Ef0dA290F5f4f4EE71",
    "LibAppStorage": "0xE8AFAC55a08d23d049555A65Db1f6B76aDAB012A",
    "LibDiamond": "0xd77fa05d7Fba908919b3A4b9E41Cc62A1A7F728D",
    "MerkleProof": "0xe2f6D7E396B31d50dc5d11aD23c17859aDc95bB3"
  },
  "devdoc": {
    "kind": "dev",
    "methods": {
      "createTokenSale((address,address,uint256,uint256,address,address,string,string,string,bool,uint256,uint256,uint256,uint256,uint256,uint256,(uint256,uint8,uint256,uint256),uint8,address))": {
        "params": {
          "tokenSaleInit": "struct with tokensale data"
        }
      },
      "newAirdrop((bool,uint256,bytes32,uint256,uint256,uint256,uint256,uint256,uint256,uint256,(uint256,uint8,uint256,uint256),uint256,uint8,address))": {
        "params": {
          "_airdrop": "the id of the airdrop"
        }
      },
      "redeemToken(uint256,uint256,uint256,address,uint256,uint256,bytes32[])": {
        "params": {
          "amount": "- the seed",
          "drop": "- the address of the account receiving the item",
          "leaf": "- the seed",
          "merkleProof": "- the seed",
          "recipient": "- the seed"
        }
      },
      "updateTokenSaleSettings(uint256,(address,address,uint256,uint256,address,address,string,string,string,bool,uint256,uint256,uint256,uint256,uint256,uint256,(uint256,uint8,uint256,uint256),uint8,address))": {
        "params": {
          "settings": "- the token sake settings"
        }
      }
    },
    "version": 1
  },
  "userdoc": {
    "events": {
      "TokenPurchased(uint256,address,uint256,uint256)": {
        "notice": "emitted when a token is opened"
      },
      "TokenSaleClosed(uint256,(address,address,uint256,uint256,address,address,string,string,string,bool,uint256,uint256,uint256,uint256,uint256,uint256,(uint256,uint8,uint256,uint256),uint8,address))": {
        "notice": "emitted when a token is opened"
      },
      "TokenSaleOpen(uint256,(address,address,uint256,uint256,address,address,string,string,string,bool,uint256,uint256,uint256,uint256,uint256,uint256,(uint256,uint8,uint256,uint256),uint8,address))": {
        "notice": "emitted when a token is opened"
      }
    },
    "kind": "user",
    "methods": {
      "createTokenSale((address,address,uint256,uint256,address,address,string,string,string,bool,uint256,uint256,uint256,uint256,uint256,uint256,(uint256,uint8,uint256,uint256),uint8,address))": {
        "notice": "intialize the contract. should be called by overriding contract"
      },
      "getTokenSaleSettings(uint256)": {
        "notice": "Get the token sale settings"
      },
      "newAirdrop((bool,uint256,bytes32,uint256,uint256,uint256,uint256,uint256,uint256,uint256,(uint256,uint8,uint256,uint256),uint256,uint8,address))": {
        "notice": "add a new airdrop"
      },
      "updateTokenSaleSettings(uint256,(address,address,uint256,uint256,address,address,string,string,string,bool,uint256,uint256,uint256,uint256,uint256,uint256,(uint256,uint8,uint256,uint256),uint8,address))": {
        "notice": "Updates the token sale settings"
      }
    },
    "version": 1
  },
  "storageLayout": {
    "storage": [
      {
        "astId": 2198,
        "contract": "contracts/facets/AirdropTokenSaleFacet.sol:AirdropTokenSaleFacet",
        "label": "s",
        "offset": 0,
        "slot": "0",
        "type": "t_struct(AppStorage)2186_storage"
      }
    ],
    "types": {
      "t_address": {
        "encoding": "inplace",
        "label": "address",
        "numberOfBytes": "20"
      },
      "t_bool": {
        "encoding": "inplace",
        "label": "bool",
        "numberOfBytes": "1"
      },
      "t_bytes32": {
        "encoding": "inplace",
        "label": "bytes32",
        "numberOfBytes": "32"
      },
      "t_enum(PaymentType)4829": {
        "encoding": "inplace",
        "label": "enum IAirdropTokenSale.PaymentType",
        "numberOfBytes": "1"
      },
      "t_enum(PriceModifier)6657": {
        "encoding": "inplace",
        "label": "enum ITokenPrice.PriceModifier",
        "numberOfBytes": "1"
      },
      "t_mapping(t_address,t_uint256)": {
        "encoding": "mapping",
        "key": "t_address",
        "label": "mapping(address => uint256)",
        "numberOfBytes": "32",
        "value": "t_uint256"
      },
      "t_mapping(t_uint256,t_bool)": {
        "encoding": "mapping",
        "key": "t_uint256",
        "label": "mapping(uint256 => bool)",
        "numberOfBytes": "32",
        "value": "t_bool"
      },
      "t_mapping(t_uint256,t_mapping(t_address,t_uint256))": {
        "encoding": "mapping",
        "key": "t_uint256",
        "label": "mapping(uint256 => mapping(address => uint256))",
        "numberOfBytes": "32",
        "value": "t_mapping(t_address,t_uint256)"
      },
      "t_mapping(t_uint256,t_mapping(t_uint256,t_uint256))": {
        "encoding": "mapping",
        "key": "t_uint256",
        "label": "mapping(uint256 => mapping(uint256 => uint256))",
        "numberOfBytes": "32",
        "value": "t_mapping(t_uint256,t_uint256)"
      },
      "t_mapping(t_uint256,t_struct(AirdropSettings)4764_storage)": {
        "encoding": "mapping",
        "key": "t_uint256",
        "label": "mapping(uint256 => struct IAirdrop.AirdropSettings)",
        "numberOfBytes": "32",
        "value": "t_struct(AirdropSettings)4764_storage"
      },
      "t_mapping(t_uint256,t_struct(TokenSaleSettings)4870_storage)": {
        "encoding": "mapping",
        "key": "t_uint256",
        "label": "mapping(uint256 => struct IAirdropTokenSale.TokenSaleSettings)",
        "numberOfBytes": "32",
        "value": "t_struct(TokenSaleSettings)4870_storage"
      },
      "t_mapping(t_uint256,t_uint256)": {
        "encoding": "mapping",
        "key": "t_uint256",
        "label": "mapping(uint256 => uint256)",
        "numberOfBytes": "32",
        "value": "t_uint256"
      },
      "t_string_storage": {
        "encoding": "bytes",
        "label": "string",
        "numberOfBytes": "32"
      },
      "t_struct(AirdropSettings)4764_storage": {
        "encoding": "inplace",
        "label": "struct IAirdrop.AirdropSettings",
        "members": [
          {
            "astId": 4735,
            "contract": "contracts/facets/AirdropTokenSaleFacet.sol:AirdropTokenSaleFacet",
            "label": "whitelistOnly",
            "offset": 0,
            "slot": "0",
            "type": "t_bool"
          },
          {
            "astId": 4737,
            "contract": "contracts/facets/AirdropTokenSaleFacet.sol:AirdropTokenSaleFacet",
            "label": "whitelistId",
            "offset": 0,
            "slot": "1",
            "type": "t_uint256"
          },
          {
            "astId": 4739,
            "contract": "contracts/facets/AirdropTokenSaleFacet.sol:AirdropTokenSaleFacet",
            "label": "whitelistHash",
            "offset": 0,
            "slot": "2",
            "type": "t_bytes32"
          },
          {
            "astId": 4741,
            "contract": "contracts/facets/AirdropTokenSaleFacet.sol:AirdropTokenSaleFacet",
            "label": "maxQuantity",
            "offset": 0,
            "slot": "3",
            "type": "t_uint256"
          },
          {
            "astId": 4743,
            "contract": "contracts/facets/AirdropTokenSaleFacet.sol:AirdropTokenSaleFacet",
            "label": "maxQuantityPerSale",
            "offset": 0,
            "slot": "4",
            "type": "t_uint256"
          },
          {
            "astId": 4745,
            "contract": "contracts/facets/AirdropTokenSaleFacet.sol:AirdropTokenSaleFacet",
            "label": "minQuantityPerSale",
            "offset": 0,
            "slot": "5",
            "type": "t_uint256"
          },
          {
            "astId": 4747,
            "contract": "contracts/facets/AirdropTokenSaleFacet.sol:AirdropTokenSaleFacet",
            "label": "maxQuantityPerAccount",
            "offset": 0,
            "slot": "6",
            "type": "t_uint256"
          },
          {
            "astId": 4749,
            "contract": "contracts/facets/AirdropTokenSaleFacet.sol:AirdropTokenSaleFacet",
            "label": "quantitySold",
            "offset": 0,
            "slot": "7",
            "type": "t_uint256"
          },
          {
            "astId": 4751,
            "contract": "contracts/facets/AirdropTokenSaleFacet.sol:AirdropTokenSaleFacet",
            "label": "startTime",
            "offset": 0,
            "slot": "8",
            "type": "t_uint256"
          },
          {
            "astId": 4753,
            "contract": "contracts/facets/AirdropTokenSaleFacet.sol:AirdropTokenSaleFacet",
            "label": "endTime",
            "offset": 0,
            "slot": "9",
            "type": "t_uint256"
          },
          {
            "astId": 4756,
            "contract": "contracts/facets/AirdropTokenSaleFacet.sol:AirdropTokenSaleFacet",
            "label": "initialPrice",
            "offset": 0,
            "slot": "10",
            "type": "t_struct(TokenPriceData)6667_storage"
          },
          {
            "astId": 4758,
            "contract": "contracts/facets/AirdropTokenSaleFacet.sol:AirdropTokenSaleFacet",
            "label": "tokenHash",
            "offset": 0,
            "slot": "14",
            "type": "t_uint256"
          },
          {
            "astId": 4761,
            "contract": "contracts/facets/AirdropTokenSaleFacet.sol:AirdropTokenSaleFacet",
            "label": "paymentType",
            "offset": 0,
            "slot": "15",
            "type": "t_enum(PaymentType)4829"
          },
          {
            "astId": 4763,
            "contract": "contracts/facets/AirdropTokenSaleFacet.sol:AirdropTokenSaleFacet",
            "label": "tokenAddress",
            "offset": 1,
            "slot": "15",
            "type": "t_address"
          }
        ],
        "numberOfBytes": "512"
      },
      "t_struct(AirdropTokenSaleStorage)2145_storage": {
        "encoding": "inplace",
        "label": "struct AirdropTokenSaleStorage",
        "members": [
          {
            "astId": 2121,
            "contract": "contracts/facets/AirdropTokenSaleFacet.sol:AirdropTokenSaleFacet",
            "label": "tsnonce",
            "offset": 0,
            "slot": "0",
            "type": "t_uint256"
          },
          {
            "astId": 2125,
            "contract": "contracts/facets/AirdropTokenSaleFacet.sol:AirdropTokenSaleFacet",
            "label": "nonces",
            "offset": 0,
            "slot": "1",
            "type": "t_mapping(t_uint256,t_uint256)"
          },
          {
            "astId": 2130,
            "contract": "contracts/facets/AirdropTokenSaleFacet.sol:AirdropTokenSaleFacet",
            "label": "_tokenSales",
            "offset": 0,
            "slot": "2",
            "type": "t_mapping(t_uint256,t_struct(TokenSaleSettings)4870_storage)"
          },
          {
            "astId": 2134,
            "contract": "contracts/facets/AirdropTokenSaleFacet.sol:AirdropTokenSaleFacet",
            "label": "tokenSaleOpen",
            "offset": 0,
            "slot": "3",
            "type": "t_mapping(t_uint256,t_bool)"
          },
          {
            "astId": 2140,
            "contract": "contracts/facets/AirdropTokenSaleFacet.sol:AirdropTokenSaleFacet",
            "label": "purchased",
            "offset": 0,
            "slot": "4",
            "type": "t_mapping(t_uint256,t_mapping(t_address,t_uint256))"
          },
          {
            "astId": 2144,
            "contract": "contracts/facets/AirdropTokenSaleFacet.sol:AirdropTokenSaleFacet",
            "label": "totalPurchased",
            "offset": 0,
            "slot": "5",
            "type": "t_mapping(t_uint256,t_uint256)"
          }
        ],
        "numberOfBytes": "192"
      },
      "t_struct(AppStorage)2186_storage": {
        "encoding": "inplace",
        "label": "struct AppStorage",
        "members": [
          {
            "astId": 2179,
            "contract": "contracts/facets/AirdropTokenSaleFacet.sol:AirdropTokenSaleFacet",
            "label": "merkleAirdropStorage",
            "offset": 0,
            "slot": "0",
            "type": "t_struct(MerkleAirdropStorage)2171_storage"
          },
          {
            "astId": 2182,
            "contract": "contracts/facets/AirdropTokenSaleFacet.sol:AirdropTokenSaleFacet",
            "label": "airdropTokenSaleStorage",
            "offset": 0,
            "slot": "5",
            "type": "t_struct(AirdropTokenSaleStorage)2145_storage"
          },
          {
            "astId": 2185,
            "contract": "contracts/facets/AirdropTokenSaleFacet.sol:AirdropTokenSaleFacet",
            "label": "tokenMinterStorage",
            "offset": 0,
            "slot": "11",
            "type": "t_struct(TokenMinterStorage)2113_storage"
          }
        ],
        "numberOfBytes": "384"
      },
      "t_struct(MerkleAirdropStorage)2171_storage": {
        "encoding": "inplace",
        "label": "struct MerkleAirdropStorage",
        "members": [
          {
            "astId": 2150,
            "contract": "contracts/facets/AirdropTokenSaleFacet.sol:AirdropTokenSaleFacet",
            "label": "_settings",
            "offset": 0,
            "slot": "0",
            "type": "t_mapping(t_uint256,t_struct(AirdropSettings)4764_storage)"
          },
          {
            "astId": 2152,
            "contract": "contracts/facets/AirdropTokenSaleFacet.sol:AirdropTokenSaleFacet",
            "label": "numSettings",
            "offset": 0,
            "slot": "1",
            "type": "t_uint256"
          },
          {
            "astId": 2158,
            "contract": "contracts/facets/AirdropTokenSaleFacet.sol:AirdropTokenSaleFacet",
            "label": "_redeemedData",
            "offset": 0,
            "slot": "2",
            "type": "t_mapping(t_uint256,t_mapping(t_uint256,t_uint256))"
          },
          {
            "astId": 2164,
            "contract": "contracts/facets/AirdropTokenSaleFacet.sol:AirdropTokenSaleFacet",
            "label": "_redeemedDataQuantities",
            "offset": 0,
            "slot": "3",
            "type": "t_mapping(t_uint256,t_mapping(t_address,t_uint256))"
          },
          {
            "astId": 2170,
            "contract": "contracts/facets/AirdropTokenSaleFacet.sol:AirdropTokenSaleFacet",
            "label": "_totalDataQuantities",
            "offset": 0,
            "slot": "4",
            "type": "t_mapping(t_uint256,t_mapping(t_address,t_uint256))"
          }
        ],
        "numberOfBytes": "160"
      },
      "t_struct(TokenMinterStorage)2113_storage": {
        "encoding": "inplace",
        "label": "struct TokenMinterStorage",
        "members": [
          {
            "astId": 2112,
            "contract": "contracts/facets/AirdropTokenSaleFacet.sol:AirdropTokenSaleFacet",
            "label": "token",
            "offset": 0,
            "slot": "0",
            "type": "t_address"
          }
        ],
        "numberOfBytes": "32"
      },
      "t_struct(TokenPriceData)6667_storage": {
        "encoding": "inplace",
        "label": "struct ITokenPrice.TokenPriceData",
        "members": [
          {
            "astId": 6659,
            "contract": "contracts/facets/AirdropTokenSaleFacet.sol:AirdropTokenSaleFacet",
            "label": "price",
            "offset": 0,
            "slot": "0",
            "type": "t_uint256"
          },
          {
            "astId": 6662,
            "contract": "contracts/facets/AirdropTokenSaleFacet.sol:AirdropTokenSaleFacet",
            "label": "priceModifier",
            "offset": 0,
            "slot": "1",
            "type": "t_enum(PriceModifier)6657"
          },
          {
            "astId": 6664,
            "contract": "contracts/facets/AirdropTokenSaleFacet.sol:AirdropTokenSaleFacet",
            "label": "priceModifierFactor",
            "offset": 0,
            "slot": "2",
            "type": "t_uint256"
          },
          {
            "astId": 6666,
            "contract": "contracts/facets/AirdropTokenSaleFacet.sol:AirdropTokenSaleFacet",
            "label": "maxPrice",
            "offset": 0,
            "slot": "3",
            "type": "t_uint256"
          }
        ],
        "numberOfBytes": "128"
      },
      "t_struct(TokenSaleSettings)4870_storage": {
        "encoding": "inplace",
        "label": "struct IAirdropTokenSale.TokenSaleSettings",
        "members": [
          {
            "astId": 4831,
            "contract": "contracts/facets/AirdropTokenSaleFacet.sol:AirdropTokenSaleFacet",
            "label": "contractAddress",
            "offset": 0,
            "slot": "0",
            "type": "t_address"
          },
          {
            "astId": 4833,
            "contract": "contracts/facets/AirdropTokenSaleFacet.sol:AirdropTokenSaleFacet",
            "label": "token",
            "offset": 0,
            "slot": "1",
            "type": "t_address"
          },
          {
            "astId": 4835,
            "contract": "contracts/facets/AirdropTokenSaleFacet.sol:AirdropTokenSaleFacet",
            "label": "tokenHash",
            "offset": 0,
            "slot": "2",
            "type": "t_uint256"
          },
          {
            "astId": 4837,
            "contract": "contracts/facets/AirdropTokenSaleFacet.sol:AirdropTokenSaleFacet",
            "label": "collectionHash",
            "offset": 0,
            "slot": "3",
            "type": "t_uint256"
          },
          {
            "astId": 4839,
            "contract": "contracts/facets/AirdropTokenSaleFacet.sol:AirdropTokenSaleFacet",
            "label": "owner",
            "offset": 0,
            "slot": "4",
            "type": "t_address"
          },
          {
            "astId": 4841,
            "contract": "contracts/facets/AirdropTokenSaleFacet.sol:AirdropTokenSaleFacet",
            "label": "payee",
            "offset": 0,
            "slot": "5",
            "type": "t_address"
          },
          {
            "astId": 4843,
            "contract": "contracts/facets/AirdropTokenSaleFacet.sol:AirdropTokenSaleFacet",
            "label": "symbol",
            "offset": 0,
            "slot": "6",
            "type": "t_string_storage"
          },
          {
            "astId": 4845,
            "contract": "contracts/facets/AirdropTokenSaleFacet.sol:AirdropTokenSaleFacet",
            "label": "name",
            "offset": 0,
            "slot": "7",
            "type": "t_string_storage"
          },
          {
            "astId": 4847,
            "contract": "contracts/facets/AirdropTokenSaleFacet.sol:AirdropTokenSaleFacet",
            "label": "description",
            "offset": 0,
            "slot": "8",
            "type": "t_string_storage"
          },
          {
            "astId": 4849,
            "contract": "contracts/facets/AirdropTokenSaleFacet.sol:AirdropTokenSaleFacet",
            "label": "openState",
            "offset": 0,
            "slot": "9",
            "type": "t_bool"
          },
          {
            "astId": 4851,
            "contract": "contracts/facets/AirdropTokenSaleFacet.sol:AirdropTokenSaleFacet",
            "label": "startTime",
            "offset": 0,
            "slot": "10",
            "type": "t_uint256"
          },
          {
            "astId": 4853,
            "contract": "contracts/facets/AirdropTokenSaleFacet.sol:AirdropTokenSaleFacet",
            "label": "endTime",
            "offset": 0,
            "slot": "11",
            "type": "t_uint256"
          },
          {
            "astId": 4855,
            "contract": "contracts/facets/AirdropTokenSaleFacet.sol:AirdropTokenSaleFacet",
            "label": "maxQuantity",
            "offset": 0,
            "slot": "12",
            "type": "t_uint256"
          },
          {
            "astId": 4857,
            "contract": "contracts/facets/AirdropTokenSaleFacet.sol:AirdropTokenSaleFacet",
            "label": "maxQuantityPerSale",
            "offset": 0,
            "slot": "13",
            "type": "t_uint256"
          },
          {
            "astId": 4859,
            "contract": "contracts/facets/AirdropTokenSaleFacet.sol:AirdropTokenSaleFacet",
            "label": "minQuantityPerSale",
            "offset": 0,
            "slot": "14",
            "type": "t_uint256"
          },
          {
            "astId": 4861,
            "contract": "contracts/facets/AirdropTokenSaleFacet.sol:AirdropTokenSaleFacet",
            "label": "maxQuantityPerAccount",
            "offset": 0,
            "slot": "15",
            "type": "t_uint256"
          },
          {
            "astId": 4864,
            "contract": "contracts/facets/AirdropTokenSaleFacet.sol:AirdropTokenSaleFacet",
            "label": "initialPrice",
            "offset": 0,
            "slot": "16",
            "type": "t_struct(TokenPriceData)6667_storage"
          },
          {
            "astId": 4867,
            "contract": "contracts/facets/AirdropTokenSaleFacet.sol:AirdropTokenSaleFacet",
            "label": "paymentType",
            "offset": 0,
            "slot": "20",
            "type": "t_enum(PaymentType)4829"
          },
          {
            "astId": 4869,
            "contract": "contracts/facets/AirdropTokenSaleFacet.sol:AirdropTokenSaleFacet",
            "label": "tokenAddress",
            "offset": 1,
            "slot": "20",
            "type": "t_address"
          }
        ],
        "numberOfBytes": "672"
      },
      "t_uint256": {
        "encoding": "inplace",
        "label": "uint256",
        "numberOfBytes": "32"
      }
    }
  }
}