{
  "address": "0x924A882f6977402e4eD803dF8b90533c90C38E59",
  "abi": [
    {
      "inputs": [],
      "stateMutability": "nonpayable",
      "type": "constructor"
    },
    {
      "anonymous": false,
      "inputs": [
        {
          "indexed": true,
          "internalType": "address",
          "name": "owner",
          "type": "address"
        },
        {
          "indexed": true,
          "internalType": "address",
          "name": "spender",
          "type": "address"
        },
        {
          "indexed": false,
          "internalType": "uint256",
          "name": "value",
          "type": "uint256"
        }
      ],
      "name": "Approval",
      "type": "event"
    },
    {
      "anonymous": false,
      "inputs": [
        {
          "indexed": true,
          "internalType": "address",
          "name": "approvedSeller",
          "type": "address"
        }
      ],
      "name": "ApprovedSellerAdded",
      "type": "event"
    },
    {
      "anonymous": false,
      "inputs": [
        {
          "indexed": true,
          "internalType": "address",
          "name": "approvedSeller",
          "type": "address"
        }
      ],
      "name": "ApprovedSellerRemoved",
      "type": "event"
    },
    {
      "anonymous": false,
      "inputs": [
        {
          "indexed": true,
          "internalType": "address",
          "name": "contractAddress",
          "type": "address"
        },
        {
          "indexed": true,
          "internalType": "address",
          "name": "controllerAddress",
          "type": "address"
        }
      ],
      "name": "ControllerAdded",
      "type": "event"
    },
    {
      "anonymous": false,
      "inputs": [
        {
          "indexed": true,
          "internalType": "address",
          "name": "contractAddress",
          "type": "address"
        },
        {
          "indexed": true,
          "internalType": "address",
          "name": "controllerAddress",
          "type": "address"
        }
      ],
      "name": "ControllerRemoved",
      "type": "event"
    },
    {
      "anonymous": false,
      "inputs": [
        {
          "indexed": false,
          "internalType": "uint8",
          "name": "version",
          "type": "uint8"
        }
      ],
      "name": "Initialized",
      "type": "event"
    },
    {
      "anonymous": false,
      "inputs": [
        {
          "indexed": true,
          "internalType": "address",
          "name": "previousOwner",
          "type": "address"
        },
        {
          "indexed": true,
          "internalType": "address",
          "name": "newOwner",
          "type": "address"
        }
      ],
      "name": "OwnershipTransferred",
      "type": "event"
    },
    {
      "anonymous": false,
      "inputs": [
        {
          "indexed": false,
          "internalType": "address",
          "name": "account",
          "type": "address"
        }
      ],
      "name": "Paused",
      "type": "event"
    },
    {
      "anonymous": false,
      "inputs": [
        {
          "indexed": true,
          "internalType": "address",
          "name": "from",
          "type": "address"
        },
        {
          "indexed": true,
          "internalType": "address",
          "name": "to",
          "type": "address"
        },
        {
          "indexed": false,
          "internalType": "uint256",
          "name": "value",
          "type": "uint256"
        }
      ],
      "name": "Transfer",
      "type": "event"
    },
    {
      "anonymous": false,
      "inputs": [
        {
          "indexed": false,
          "internalType": "address",
          "name": "account",
          "type": "address"
        }
      ],
      "name": "Unpaused",
      "type": "event"
    },
    {
      "inputs": [
        {
          "internalType": "address",
          "name": "_controller",
          "type": "address"
        }
      ],
      "name": "addController",
      "outputs": [],
      "stateMutability": "nonpayable",
      "type": "function"
    },
    {
      "inputs": [],
      "name": "allowBurn",
      "outputs": [
        {
          "internalType": "bool",
          "name": "",
          "type": "bool"
        }
      ],
      "stateMutability": "view",
      "type": "function"
    },
    {
      "inputs": [],
      "name": "allowMint",
      "outputs": [
        {
          "internalType": "bool",
          "name": "",
          "type": "bool"
        }
      ],
      "stateMutability": "view",
      "type": "function"
    },
    {
      "inputs": [
        {
          "internalType": "address",
          "name": "owner",
          "type": "address"
        },
        {
          "internalType": "address",
          "name": "spender",
          "type": "address"
        }
      ],
      "name": "allowance",
      "outputs": [
        {
          "internalType": "uint256",
          "name": "",
          "type": "uint256"
        }
      ],
      "stateMutability": "view",
      "type": "function"
    },
    {
      "inputs": [
        {
          "internalType": "address",
          "name": "spender",
          "type": "address"
        },
        {
          "internalType": "uint256",
          "name": "amount",
          "type": "uint256"
        }
      ],
      "name": "approve",
      "outputs": [
        {
          "internalType": "bool",
          "name": "",
          "type": "bool"
        }
      ],
      "stateMutability": "nonpayable",
      "type": "function"
    },
    {
      "inputs": [
        {
          "internalType": "address",
          "name": "owner",
          "type": "address"
        },
        {
          "internalType": "uint256",
          "name": "amount",
          "type": "uint256"
        }
      ],
      "name": "approveOwner",
      "outputs": [
        {
          "internalType": "bool",
          "name": "",
          "type": "bool"
        }
      ],
      "stateMutability": "nonpayable",
      "type": "function"
    },
    {
      "inputs": [
        {
          "internalType": "address",
          "name": "seller",
          "type": "address"
        }
      ],
      "name": "approvedSeller",
      "outputs": [
        {
          "internalType": "bool",
          "name": "",
          "type": "bool"
        }
      ],
      "stateMutability": "view",
      "type": "function"
    },
    {
      "inputs": [
        {
          "internalType": "address",
          "name": "account",
          "type": "address"
        }
      ],
      "name": "balanceOf",
      "outputs": [
        {
          "internalType": "uint256",
          "name": "",
          "type": "uint256"
        }
      ],
      "stateMutability": "view",
      "type": "function"
    },
    {
      "inputs": [
        {
          "internalType": "uint256",
          "name": "amount",
          "type": "uint256"
        }
      ],
      "name": "burn",
      "outputs": [],
      "stateMutability": "nonpayable",
      "type": "function"
    },
    {
      "inputs": [
        {
          "internalType": "address",
          "name": "account",
          "type": "address"
        },
        {
          "internalType": "uint256",
          "name": "amount",
          "type": "uint256"
        }
      ],
      "name": "burnFrom",
      "outputs": [],
      "stateMutability": "nonpayable",
      "type": "function"
    },
    {
      "inputs": [],
      "name": "cap",
      "outputs": [
        {
          "internalType": "uint256",
          "name": "",
          "type": "uint256"
        }
      ],
      "stateMutability": "view",
      "type": "function"
    },
    {
      "inputs": [],
      "name": "decimals",
      "outputs": [
        {
          "internalType": "uint8",
          "name": "",
          "type": "uint8"
        }
      ],
      "stateMutability": "view",
      "type": "function"
    },
    {
      "inputs": [
        {
          "internalType": "address",
          "name": "spender",
          "type": "address"
        },
        {
          "internalType": "uint256",
          "name": "subtractedValue",
          "type": "uint256"
        }
      ],
      "name": "decreaseAllowance",
      "outputs": [
        {
          "internalType": "bool",
          "name": "",
          "type": "bool"
        }
      ],
      "stateMutability": "nonpayable",
      "type": "function"
    },
    {
      "inputs": [
        {
          "internalType": "address",
          "name": "spender",
          "type": "address"
        },
        {
          "internalType": "uint256",
          "name": "addedValue",
          "type": "uint256"
        }
      ],
      "name": "increaseAllowance",
      "outputs": [
        {
          "internalType": "bool",
          "name": "",
          "type": "bool"
        }
      ],
      "stateMutability": "nonpayable",
      "type": "function"
    },
    {
      "inputs": [
        {
          "internalType": "string",
          "name": "name_",
          "type": "string"
        },
        {
          "internalType": "string",
          "name": "symbol_",
          "type": "string"
        }
      ],
      "name": "initialize",
      "outputs": [],
      "stateMutability": "nonpayable",
      "type": "function"
    },
    {
      "inputs": [
        {
          "internalType": "address",
          "name": "_address",
          "type": "address"
        }
      ],
      "name": "isController",
      "outputs": [
        {
          "internalType": "bool",
          "name": "allowed",
          "type": "bool"
        }
      ],
      "stateMutability": "view",
      "type": "function"
    },
    {
      "inputs": [
        {
          "internalType": "uint256",
          "name": "amount",
          "type": "uint256"
        }
      ],
      "name": "mint",
      "outputs": [],
      "stateMutability": "nonpayable",
      "type": "function"
    },
    {
      "inputs": [
        {
          "internalType": "address",
          "name": "account",
          "type": "address"
        },
        {
          "internalType": "uint256",
          "name": "amount",
          "type": "uint256"
        }
      ],
      "name": "mintFrom",
      "outputs": [],
      "stateMutability": "nonpayable",
      "type": "function"
    },
    {
      "inputs": [],
      "name": "name",
      "outputs": [
        {
          "internalType": "string",
          "name": "",
          "type": "string"
        }
      ],
      "stateMutability": "view",
      "type": "function"
    },
    {
      "inputs": [],
      "name": "owner",
      "outputs": [
        {
          "internalType": "address",
          "name": "",
          "type": "address"
        }
      ],
      "stateMutability": "view",
      "type": "function"
    },
    {
      "inputs": [],
      "name": "paused",
      "outputs": [
        {
          "internalType": "bool",
          "name": "",
          "type": "bool"
        }
      ],
      "stateMutability": "view",
      "type": "function"
    },
    {
      "inputs": [],
      "name": "relinquishControl",
      "outputs": [],
      "stateMutability": "nonpayable",
      "type": "function"
    },
    {
      "inputs": [],
      "name": "renounceOwnership",
      "outputs": [],
      "stateMutability": "nonpayable",
      "type": "function"
    },
    {
      "inputs": [],
      "name": "requireSellerApproval",
      "outputs": [
        {
          "internalType": "bool",
          "name": "_requireSellerApproval",
          "type": "bool"
        }
      ],
      "stateMutability": "view",
      "type": "function"
    },
    {
      "inputs": [
        {
          "internalType": "bool",
          "name": "allowBurn_",
          "type": "bool"
        }
      ],
      "name": "setAllowBurn",
      "outputs": [],
      "stateMutability": "nonpayable",
      "type": "function"
    },
    {
      "inputs": [
        {
          "internalType": "bool",
          "name": "allowMint_",
          "type": "bool"
        }
      ],
      "name": "setAllowMint",
      "outputs": [],
      "stateMutability": "nonpayable",
      "type": "function"
    },
    {
      "inputs": [
        {
          "internalType": "uint256",
          "name": "cap_",
          "type": "uint256"
        }
      ],
      "name": "setCap",
      "outputs": [],
      "stateMutability": "nonpayable",
      "type": "function"
    },
    {
      "inputs": [],
      "name": "symbol",
      "outputs": [
        {
          "internalType": "string",
          "name": "",
          "type": "string"
        }
      ],
      "stateMutability": "view",
      "type": "function"
    },
    {
      "inputs": [],
      "name": "totalSupply",
      "outputs": [
        {
          "internalType": "uint256",
          "name": "",
          "type": "uint256"
        }
      ],
      "stateMutability": "view",
      "type": "function"
    },
    {
      "inputs": [
        {
          "internalType": "address",
          "name": "to",
          "type": "address"
        },
        {
          "internalType": "uint256",
          "name": "amount",
          "type": "uint256"
        }
      ],
      "name": "transfer",
      "outputs": [
        {
          "internalType": "bool",
          "name": "",
          "type": "bool"
        }
      ],
      "stateMutability": "nonpayable",
      "type": "function"
    },
    {
      "inputs": [
        {
          "internalType": "address",
          "name": "from",
          "type": "address"
        },
        {
          "internalType": "address",
          "name": "to",
          "type": "address"
        },
        {
          "internalType": "uint256",
          "name": "amount",
          "type": "uint256"
        }
      ],
      "name": "transferFrom",
      "outputs": [
        {
          "internalType": "bool",
          "name": "",
          "type": "bool"
        }
      ],
      "stateMutability": "nonpayable",
      "type": "function"
    },
    {
      "inputs": [
        {
          "internalType": "address",
          "name": "newOwner",
          "type": "address"
        }
      ],
      "name": "transferOwnership",
      "outputs": [],
      "stateMutability": "nonpayable",
      "type": "function"
    }
  ],
  "transactionHash": "0x4b24b8b2378d1ca5d6b2a8bb5755f507a8bbb8c9cdfd6adc0145bcf5b43e1c2a",
  "args": [],
  "numDeployments": 1,
  "solcInputHash": "f5e1fc7fb8c13bf287022000b09bdd26",
  "bytecode": "0x608060405234801561001057600080fd5b506000805460ff1916905561002433610060565b61004c336001600160a01b03166000908152600360205260409020805460ff19166001179055565b600b805461ffff19166101011790556100b2565b600280546001600160a01b038381166001600160a01b0319831681179093556040519116919082907f8be0079c531659141344cd1fd0a4f28419497f9722a3daafe3b4186f6b6457e090600090a35050565b61189f806100c16000396000f3fe608060405234801561001057600080fd5b50600436106101805760003560e01c806306fdde0314610185578063095ea7b3146101a357806318160ddd146101c65780631b8dca74146101d85780631cc74859146101e357806320d7ee9b146101f857806323b872dd1461020b578063313ce5671461021e578063355274ea1461022d57806335e061fc14610235578063395093511461024557806342966c681461025857806347786d371461026b5780634cd88b761461027e5780635c975abb146102915780635e81078d1461029c57806370a08231146102af578063715018a6146102d857806379cc6790146102e05780638d222f36146102f35780638da5cb5b1461030657806395d89b4114610326578063a0712d681461032e578063a457c2d714610341578063a7fc7a0714610354578063a9059cbb14610367578063b429afeb1461037a578063b93ea6a11461038d578063dd62ed3e1461039d578063e1c28bef146103b0578063e26c6f1b146103b8578063f2fde38b146103cb575b600080fd5b61018d6103de565b60405161019a9190611645565b60405180910390f35b6101b66101b136600461157d565b610470565b604051901515815260200161019a565b6008545b60405190815260200161019a565b600b5460ff166101b6565b6101f66101f136600461157d565b610488565b005b6101b661020636600461157d565b61052e565b6101b6610219366004611541565b6105a3565b6040516012815260200161019a565b6005546101ca565b600b54610100900460ff166101b6565b6101b661025336600461157d565b6105c7565b6101f661026636600461162c565b6105e9565b6101f661027936600461162c565b61061d565b6101f661028c3660046115c9565b61065e565b60005460ff166101b6565b6101f66102aa3660046115a7565b6106d7565b6101ca6102bd3660046114ec565b6001600160a01b031660009081526006602052604090205490565b6101f6610749565b6101f66102ee36600461157d565b610784565b6101b66103013660046114ec565b6107bf565b61030e6107e2565b6040516001600160a01b03909116815260200161019a565b61018d6107f1565b6101f661033c36600461162c565b610800565b6101b661034f36600461157d565b61088d565b6101f66103623660046114ec565b610908565b6101b661037536600461157d565b610991565b6101b66103883660046114ec565b61099f565b600054610100900460ff166101b6565b6101ca6103ab36600461150e565b6109c0565b6101f66109eb565b6101f66103c63660046115a7565b610a54565b6101f66103d93660046114ec565b610acb565b6060600980546103ed906117e2565b80601f0160208091040260200160405190810160405280929190818152602001828054610419906117e2565b80156104665780601f1061043b57610100808354040283529160200191610466565b820191906000526020600020905b81548152906001019060200180831161044957829003601f168201915b5050505050905090565b60003361047e818585610b70565b5060019392505050565b3360009081526003602052604090205460ff161515600114806104aa57503033145b806104cd57506104b86107e2565b6001600160a01b0316306001600160a01b0316145b6104f25760405162461bcd60e51b81526004016104e99061177f565b60405180910390fd5b600b5460ff166105145760405162461bcd60e51b81526004016104e99061171d565b61052082335b83610c94565b61052a8282610d0e565b5050565b3360009081526003602052604081205460ff1615156001148061055057503033145b80610573575061055e6107e2565b6001600160a01b0316306001600160a01b0316145b61058f5760405162461bcd60e51b81526004016104e99061177f565b61059a838484610b70565b50600192915050565b6000336105b1858285610c94565b6105bc858585610e59565b506001949350505050565b60003361047e8185856105da83836109c0565b6105e491906117b3565b610b70565b600b54610100900460ff166106105760405162461bcd60e51b81526004016104e99061174e565b61061a3382611020565b50565b600554156106595760405162461bcd60e51b8152602060048201526009602482015268696d6d757461626c6560b81b60448201526064016104e9565b600555565b600061066a6001611168565b90508015610682576004805461ff0019166101001790555b61068c83836111f7565b80156106d2576004805461ff0019169055604051600181527f7f26b83ff96e1f2b6a682f133852f6798a09c465da95921460cefb38474024989060200160405180910390a15b505050565b3360009081526003602052604090205460ff161515600114806106f957503033145b8061071c57506107076107e2565b6001600160a01b0316306001600160a01b0316145b6107385760405162461bcd60e51b81526004016104e99061177f565b600b805460ff191682151517905550565b336107526107e2565b6001600160a01b0316146107785760405162461bcd60e51b81526004016104e9906116e8565b6107826000611279565b565b600b54610100900460ff166107ab5760405162461bcd60e51b81526004016104e99061174e565b6107b5823361051a565b61052a8282611020565b6001600160a01b03811660009081526001602052604081205460ff165b92915050565b6002546001600160a01b031690565b6060600a80546103ed906117e2565b3360009081526003602052604090205460ff1615156001148061082257503033145b8061084557506108306107e2565b6001600160a01b0316306001600160a01b0316145b6108615760405162461bcd60e51b81526004016104e99061177f565b600b5460ff166108835760405162461bcd60e51b81526004016104e99061171d565b61061a3382610d0e565b6000338161089b82866109c0565b9050838110156108fb5760405162461bcd60e51b815260206004820152602560248201527f45524332303a2064656372656173656420616c6c6f77616e63652062656c6f77604482015264207a65726f60d81b60648201526084016104e9565b6105bc8286868403610b70565b3360009081526003602052604090205460ff1615156001148061092a57503033145b8061094d57506109386107e2565b6001600160a01b0316306001600160a01b0316145b6109695760405162461bcd60e51b81526004016104e99061177f565b61061a816001600160a01b03166000908152600360205260409020805460ff19166001179055565b60003361047e818585610e59565b6001600160a01b03811660009081526003602052604081205460ff166107dc565b6001600160a01b03918216600090815260076020908152604080832093909416825291909152205490565b3360009081526003602052604090205460ff16151560011480610a0d57503033145b80610a305750610a1b6107e2565b6001600160a01b0316306001600160a01b0316145b610a4c5760405162461bcd60e51b81526004016104e99061177f565b6107826112cb565b3360009081526003602052604090205460ff16151560011480610a7657503033145b80610a995750610a846107e2565b6001600160a01b0316306001600160a01b0316145b610ab55760405162461bcd60e51b81526004016104e99061177f565b600b805461ff0019166101008315150217905550565b33610ad46107e2565b6001600160a01b031614610afa5760405162461bcd60e51b81526004016104e9906116e8565b6001600160a01b038116610b5f5760405162461bcd60e51b815260206004820152602660248201527f4f776e61626c653a206e6577206f776e657220697320746865207a65726f206160448201526564647265737360d01b60648201526084016104e9565b610b6881611279565b61061a6112cb565b6001600160a01b038316610bd25760405162461bcd60e51b8152602060048201526024808201527f45524332303a20617070726f76652066726f6d20746865207a65726f206164646044820152637265737360e01b60648201526084016104e9565b6001600160a01b038216610c335760405162461bcd60e51b815260206004820152602260248201527f45524332303a20617070726f766520746f20746865207a65726f206164647265604482015261737360f01b60648201526084016104e9565b6001600160a01b0383811660008181526007602090815260408083209487168084529482529182902085905590518481527f8c5be1e5ebec7d5bd14f71427d1e84f3dd0314c0f7b2291e5b200ac8c7c3b925910160405180910390a3505050565b6000610ca084846109c0565b90506000198114610d085781811015610cfb5760405162461bcd60e51b815260206004820152601d60248201527f45524332303a20696e73756666696369656e7420616c6c6f77616e636500000060448201526064016104e9565b610d088484848403610b70565b50505050565b6000610d1960055490565b1115610d805760055481610d2c60085490565b610d3691906117b3565b1115610d805760405162461bcd60e51b8152602060048201526019602482015278115490cc8c10d85c1c19590e8818d85c08195e18d959591959603a1b60448201526064016104e9565b6001600160a01b038216610dd65760405162461bcd60e51b815260206004820152601f60248201527f45524332303a206d696e7420746f20746865207a65726f20616464726573730060448201526064016104e9565b610de260008383611345565b8060086000828254610df491906117b3565b90915550506001600160a01b03821660009081526006602052604081208054839290610e219084906117b3565b90915550506040518181526001600160a01b0383169060009060008051602061184a8339815191529060200160405180910390a35050565b6001600160a01b038316610ebd5760405162461bcd60e51b815260206004820152602560248201527f45524332303a207472616e736665722066726f6d20746865207a65726f206164604482015264647265737360d81b60648201526084016104e9565b6001600160a01b038216610f1f5760405162461bcd60e51b815260206004820152602360248201527f45524332303a207472616e7366657220746f20746865207a65726f206164647260448201526265737360e81b60648201526084016104e9565b610f2a838383611345565b6001600160a01b03831660009081526006602052604090205481811015610fa25760405162461bcd60e51b815260206004820152602660248201527f45524332303a207472616e7366657220616d6f756e7420657863656564732062604482015265616c616e636560d01b60648201526084016104e9565b6001600160a01b03808516600090815260066020526040808220858503905591851681529081208054849290610fd99084906117b3565b92505081905550826001600160a01b0316846001600160a01b031660008051602061184a8339815191528460405161101391815260200190565b60405180910390a3610d08565b6001600160a01b0382166110805760405162461bcd60e51b815260206004820152602160248201527f45524332303a206275726e2066726f6d20746865207a65726f206164647265736044820152607360f81b60648201526084016104e9565b61108c82600083611345565b6001600160a01b038216600090815260066020526040902054818110156111005760405162461bcd60e51b815260206004820152602260248201527f45524332303a206275726e20616d6f756e7420657863656564732062616c616e604482015261636560f01b60648201526084016104e9565b6001600160a01b038316600090815260066020526040812083830390556008805484929061112f9084906117cb565b90915550506040518281526000906001600160a01b0385169060008051602061184a8339815191529060200160405180910390a3505050565b600454600090610100900460ff16156111b1578160ff16600114801561118d5750303b155b6111a95760405162461bcd60e51b81526004016104e99061169a565b506000919050565b60045460ff8084169116106111d85760405162461bcd60e51b81526004016104e99061169a565b506004805460ff191660ff92909216919091179055600190565b919050565b60098054611204906117e2565b1590506112525760405162461bcd60e51b815260206004820152601c60248201527b115490cc8c081d1bdad95b881b985b5948185b1c9958591e481cd95d60221b60448201526064016104e9565b81516112659060099060208501906113b0565b5080516106d290600a9060208401906113b0565b600280546001600160a01b038381166001600160a01b0319831681179093556040519116919082907f8be0079c531659141344cd1fd0a4f28419497f9722a3daafe3b4186f6b6457e090600090a35050565b3360009081526003602052604090205460ff161515600114806112ed57503033145b8061131057506112fb6107e2565b6001600160a01b0316306001600160a01b0316145b61132c5760405162461bcd60e51b81526004016104e99061177f565b336000908152600360205260409020805460ff19169055565b60005460ff16156113965760405162461bcd60e51b815260206004820152601b60248201527a1d1bdad95b881d1c985b9cd9995c881dda1a5b19481c185d5cd959602a1b60448201526064016104e9565b6001600160a01b038316156106d2576106d2838483610c94565b8280546113bc906117e2565b90600052602060002090601f0160209004810192826113de5760008555611424565b82601f106113f757805160ff1916838001178555611424565b82800160010185558215611424579182015b82811115611424578251825591602001919060010190611409565b50611430929150611434565b5090565b5b808211156114305760008155600101611435565b80356001600160a01b03811681146111f257600080fd5b600082601f83011261147157600080fd5b81356001600160401b038082111561148b5761148b611833565b604051601f8301601f19908116603f011681019082821181831017156114b3576114b3611833565b816040528381528660208588010111156114cc57600080fd5b836020870160208301376000602085830101528094505050505092915050565b6000602082840312156114fe57600080fd5b61150782611449565b9392505050565b6000806040838503121561152157600080fd5b61152a83611449565b915061153860208401611449565b90509250929050565b60008060006060848603121561155657600080fd5b61155f84611449565b925061156d60208501611449565b9150604084013590509250925092565b6000806040838503121561159057600080fd5b61159983611449565b946020939093013593505050565b6000602082840312156115b957600080fd5b8135801515811461150757600080fd5b600080604083850312156115dc57600080fd5b82356001600160401b03808211156115f357600080fd5b6115ff86838701611460565b9350602085013591508082111561161557600080fd5b5061162285828601611460565b9150509250929050565b60006020828403121561163e57600080fd5b5035919050565b600060208083528351808285015260005b8181101561167257858101830151858201604001528201611656565b81811115611684576000604083870101525b50601f01601f1916929092016040019392505050565b6020808252602e908201527f496e697469616c697a61626c653a20636f6e747261637420697320616c72656160408201526d191e481a5b9a5d1a585b1a5e995960921b606082015260800190565b6020808252818101527f4f776e61626c653a2063616c6c6572206973206e6f7420746865206f776e6572604082015260600190565b60208082526017908201527636b4b73a34b7339034b9903737ba1030b63637bbb2b21760491b604082015260600190565b602080825260179082015276213ab93734b7339034b9903737ba1030b63637bbb2b21760491b604082015260600190565b6020808252601a908201527931b0b63632b91034b9903737ba10309031b7b73a3937b63632b960311b604082015260600190565b600082198211156117c6576117c661181d565b500190565b6000828210156117dd576117dd61181d565b500390565b600181811c908216806117f657607f821691505b6020821081141561181757634e487b7160e01b600052602260045260246000fd5b50919050565b634e487b7160e01b600052601160045260246000fd5b634e487b7160e01b600052604160045260246000fdfeddf252ad1be2c89b69c2b068fc378daa952ba7f163c4a11628f55a4df523b3efa26469706673582212201abbf66fa3a272948c5df5a834e57db7d185914dfaf57c7c7809e09498639cfc64736f6c63430008060033",
  "libraries": {
    "AddressSet": "0xf88EB844922B1ab0e153cF9E9bEefecc9512DE06",
    "UInt256Set": "0xCc995d7a8c7c499128cB34Ef0dA290F5f4f4EE71",
    "LibAppStorage": "0xE8AFAC55a08d23d049555A65Db1f6B76aDAB012A",
    "LibDiamond": "0xd77fa05d7Fba908919b3A4b9E41Cc62A1A7F728D",
    "MerkleProof": "0xe2f6D7E396B31d50dc5d11aD23c17859aDc95bB3"
  },
  "devdoc": {
    "details": "Implementation of the {IERC20} interface. This implementation is agnostic to the way tokens are created. This means that a supply mechanism has to be added in a derived contract using {_mint}. For a generic mechanism see {ERC20PresetMinterPauser}. TIP: For a detailed writeup see our guide https://forum.zeppelin.solutions/t/how-to-implement-erc20-supply-mechanisms/226[How to implement supply mechanisms]. We have followed general OpenZeppelin Contracts guidelines: functions revert instead returning `false` on failure. This behavior is nonetheless conventional and does not conflict with the expectations of ERC20 applications. Additionally, an {Approval} event is emitted on calls to {transferFrom}. This allows applications to reconstruct the allowance for all accounts just by listening to said events. Other implementations of the EIP may not emit these events, as it isn't required by the specification. Finally, the non-standard {decreaseAllowance} and {increaseAllowance} functions have been added to mitigate the well-known issues around setting allowances. See {IERC20-approve}.",
    "kind": "dev",
    "methods": {
      "addController(address)": {
        "details": "Add an address allowed to control this contract"
      },
      "allowBurn()": {
        "details": "set allow burn"
      },
      "allowance(address,address)": {
        "details": "See {IERC20-allowance}."
      },
      "approve(address,uint256)": {
        "details": "See {IERC20-approve}. NOTE: If `amount` is the maximum `uint256`, the allowance is not updated on `transferFrom`. This is semantically equivalent to an infinite approval. Requirements: - `spender` cannot be the zero address."
      },
      "approveOwner(address,uint256)": {
        "details": "See {IERC20-approve}. NOTE: If `amount` is the maximum `uint256`, the allowance is not updated on `transferFrom`. This is semantically equivalent to an infinite approval. Requirements: - `spender` cannot be the zero address."
      },
      "balanceOf(address)": {
        "details": "See {IERC20-balanceOf}."
      },
      "burn(uint256)": {
        "details": "Destroys `amount` tokens from the caller. See {ERC20-_burn}."
      },
      "burnFrom(address,uint256)": {
        "details": "Destroys `amount` tokens from `account`, deducting from the caller's allowance. See {ERC20-_burn} and {ERC20-allowance}. Requirements: - the caller must have allowance for ``accounts``'s tokens of at least `amount`."
      },
      "cap()": {
        "details": "Returns the cap on the token's total supply."
      },
      "decimals()": {
        "details": "Returns the number of decimals used to get its user representation. For example, if `decimals` equals `2`, a balance of `505` tokens should be displayed to a user as `5.05` (`505 / 10 ** 2`). Tokens usually opt for a value of 18, imitating the relationship between Ether and Wei. This is the value {ERC20} uses, unless this function is overridden; NOTE: This information is only used for _display_ purposes: it in no way affects any of the arithmetic of the contract, including {IERC20-balanceOf} and {IERC20-transfer}."
      },
      "decreaseAllowance(address,uint256)": {
        "details": "Atomically decreases the allowance granted to `spender` by the caller. This is an alternative to {approve} that can be used as a mitigation for problems described in {IERC20-approve}. Emits an {Approval} event indicating the updated allowance. Requirements: - `spender` cannot be the zero address. - `spender` must have allowance for the caller of at least `subtractedValue`."
      },
      "increaseAllowance(address,uint256)": {
        "details": "Atomically increases the allowance granted to `spender` by the caller. This is an alternative to {approve} that can be used as a mitigation for problems described in {IERC20-approve}. Emits an {Approval} event indicating the updated allowance. Requirements: - `spender` cannot be the zero address."
      },
      "isController(address)": {
        "details": "Check if this address is a controller"
      },
      "mint(uint256)": {
        "details": "Destroys `amount` tokens from the caller. See {ERC20-_mint}."
      },
      "mintFrom(address,uint256)": {
        "details": "Destroys `amount` tokens from `account`, deducting from the caller's allowance. See {ERC20-_mint} and {ERC20-allowance}. Requirements: - the caller must have allowance for ``accounts``'s tokens of at least `amount`."
      },
      "name()": {
        "details": "Returns the name of the token."
      },
      "owner()": {
        "details": "Returns the address of the current owner."
      },
      "paused()": {
        "details": "Returns true if the contract is paused, and false otherwise."
      },
      "relinquishControl()": {
        "details": "Remove the sender address from the list of controllers"
      },
      "renounceOwnership()": {
        "details": "Leaves the contract without owner. It will not be possible to call `onlyOwner` functions anymore. Can only be called by the current owner. NOTE: Renouncing ownership will leave the contract without an owner, thereby removing any functionality that is only available to the owner."
      },
      "setAllowBurn(bool)": {
        "details": "set allow burn flag"
      },
      "setAllowMint(bool)": {
        "details": "set allow mint flag"
      },
      "symbol()": {
        "details": "Returns the symbol of the token, usually a shorter version of the name."
      },
      "totalSupply()": {
        "details": "See {IERC20-totalSupply}."
      },
      "transfer(address,uint256)": {
        "details": "See {IERC20-transfer}. Requirements: - `to` cannot be the zero address. - the caller must have a balance of at least `amount`."
      },
      "transferFrom(address,address,uint256)": {
        "details": "See {IERC20-transferFrom}. Emits an {Approval} event indicating the updated allowance. This is not required by the EIP. See the note at the beginning of {ERC20}. NOTE: Does not update the allowance if the current allowance is the maximum `uint256`. Requirements: - `from` and `to` cannot be the zero address. - `from` must have a balance of at least `amount`. - the caller must have allowance for ``from``'s tokens of at least `amount`."
      },
      "transferOwnership(address)": {
        "details": "Transfers ownership of the contract to a new account (`newOwner`). Can only be called by the current owner."
      }
    },
    "version": 1
  },
  "userdoc": {
    "events": {
      "ControllerAdded(address,address)": {
        "notice": "emitted when a controller is added."
      },
      "ControllerRemoved(address,address)": {
        "notice": "emitted when a controller is removed."
      }
    },
    "kind": "user",
    "methods": {
      "requireSellerApproval()": {
        "notice": "return require seller approval flag"
      }
    },
    "version": 1
  },
  "storageLayout": {
    "storage": [
      {
        "astId": 282,
        "contract": "contracts/token/ERC20/ERC20.sol:ERC20",
        "label": "_paused",
        "offset": 0,
        "slot": "0",
        "type": "t_bool"
      },
      {
        "astId": 7787,
        "contract": "contracts/token/ERC20/ERC20.sol:ERC20",
        "label": "requireSellerApproval_",
        "offset": 1,
        "slot": "0",
        "type": "t_bool"
      },
      {
        "astId": 7791,
        "contract": "contracts/token/ERC20/ERC20.sol:ERC20",
        "label": "_isApprovedSeller",
        "offset": 0,
        "slot": "1",
        "type": "t_mapping(t_address,t_bool)"
      },
      {
        "astId": 7,
        "contract": "contracts/token/ERC20/ERC20.sol:ERC20",
        "label": "_owner",
        "offset": 0,
        "slot": "2",
        "type": "t_address"
      },
      {
        "astId": 1066,
        "contract": "contracts/token/ERC20/ERC20.sol:ERC20",
        "label": "_controllers",
        "offset": 0,
        "slot": "3",
        "type": "t_mapping(t_address,t_bool)"
      },
      {
        "astId": 129,
        "contract": "contracts/token/ERC20/ERC20.sol:ERC20",
        "label": "_initialized",
        "offset": 0,
        "slot": "4",
        "type": "t_uint8"
      },
      {
        "astId": 132,
        "contract": "contracts/token/ERC20/ERC20.sol:ERC20",
        "label": "_initializing",
        "offset": 1,
        "slot": "4",
        "type": "t_bool"
      },
      {
        "astId": 6823,
        "contract": "contracts/token/ERC20/ERC20.sol:ERC20",
        "label": "_cap",
        "offset": 0,
        "slot": "5",
        "type": "t_uint256"
      },
      {
        "astId": 6827,
        "contract": "contracts/token/ERC20/ERC20.sol:ERC20",
        "label": "_balances",
        "offset": 0,
        "slot": "6",
        "type": "t_mapping(t_address,t_uint256)"
      },
      {
        "astId": 6833,
        "contract": "contracts/token/ERC20/ERC20.sol:ERC20",
        "label": "_allowances",
        "offset": 0,
        "slot": "7",
        "type": "t_mapping(t_address,t_mapping(t_address,t_uint256))"
      },
      {
        "astId": 6835,
        "contract": "contracts/token/ERC20/ERC20.sol:ERC20",
        "label": "_totalSupply",
        "offset": 0,
        "slot": "8",
        "type": "t_uint256"
      },
      {
        "astId": 6837,
        "contract": "contracts/token/ERC20/ERC20.sol:ERC20",
        "label": "_name",
        "offset": 0,
        "slot": "9",
        "type": "t_string_storage"
      },
      {
        "astId": 6839,
        "contract": "contracts/token/ERC20/ERC20.sol:ERC20",
        "label": "_symbol",
        "offset": 0,
        "slot": "10",
        "type": "t_string_storage"
      },
      {
        "astId": 6841,
        "contract": "contracts/token/ERC20/ERC20.sol:ERC20",
        "label": "_allowMint",
        "offset": 0,
        "slot": "11",
        "type": "t_bool"
      },
      {
        "astId": 6843,
        "contract": "contracts/token/ERC20/ERC20.sol:ERC20",
        "label": "_allowBurn",
        "offset": 1,
        "slot": "11",
        "type": "t_bool"
      }
    ],
    "types": {
      "t_address": {
        "encoding": "inplace",
        "label": "address",
        "numberOfBytes": "20"
      },
      "t_bool": {
        "encoding": "inplace",
        "label": "bool",
        "numberOfBytes": "1"
      },
      "t_mapping(t_address,t_bool)": {
        "encoding": "mapping",
        "key": "t_address",
        "label": "mapping(address => bool)",
        "numberOfBytes": "32",
        "value": "t_bool"
      },
      "t_mapping(t_address,t_mapping(t_address,t_uint256))": {
        "encoding": "mapping",
        "key": "t_address",
        "label": "mapping(address => mapping(address => uint256))",
        "numberOfBytes": "32",
        "value": "t_mapping(t_address,t_uint256)"
      },
      "t_mapping(t_address,t_uint256)": {
        "encoding": "mapping",
        "key": "t_address",
        "label": "mapping(address => uint256)",
        "numberOfBytes": "32",
        "value": "t_uint256"
      },
      "t_string_storage": {
        "encoding": "bytes",
        "label": "string",
        "numberOfBytes": "32"
      },
      "t_uint256": {
        "encoding": "inplace",
        "label": "uint256",
        "numberOfBytes": "32"
      },
      "t_uint8": {
        "encoding": "inplace",
        "label": "uint8",
        "numberOfBytes": "1"
      }
    }
  }
}