{
  "address": "0x5ddA1aCa8aF2E4751208877C15730D51Ac965eF5",
  "abi": [
    {
      "inputs": [
        {
          "internalType": "address",
          "name": "check",
          "type": "address"
        }
      ],
      "name": "isERC1155",
      "outputs": [
        {
          "internalType": "bool",
          "name": "",
          "type": "bool"
        }
      ],
      "stateMutability": "view",
      "type": "function"
    },
    {
      "inputs": [
        {
          "internalType": "address",
          "name": "check",
          "type": "address"
        }
      ],
      "name": "isERC20",
      "outputs": [
        {
          "internalType": "bool",
          "name": "",
          "type": "bool"
        }
      ],
      "stateMutability": "view",
      "type": "function"
    },
    {
      "inputs": [
        {
          "internalType": "address",
          "name": "check",
          "type": "address"
        }
      ],
      "name": "isERC721",
      "outputs": [
        {
          "internalType": "bool",
          "name": "",
          "type": "bool"
        }
      ],
      "stateMutability": "view",
      "type": "function"
    }
  ],
  "transactionHash": "0x7a9c88cb214dbfc86e5508e9dd27f6c22ad1f89a9833ed6f501c59233f16ccb4",
  "args": [],
  "numDeployments": 1,
  "solcInputHash": "7ae0a89a1ce2a1b923b610310fb83dac",
  "bytecode": "0x61023261003a600b82828239805160001a60731461002d57634e487b7160e01b600052600060045260246000fd5b30600052607381538281f3fe730000000000000000000000000000000000000000301460806040526004361061004b5760003560e01c8063263e0c1b14610050578063282e460a14610077578063daa09e541461008a575b600080fd5b61006361005e366004610195565b61009d565b604051901515815260200160405180910390f35b610063610085366004610195565b610129565b610063610098366004610195565b61015f565b6040516301ffc9a760e01b81526000906001600160a01b038316906301ffc9a7906100d3906336372b0760e01b906004016101e7565b60206040518083038186803b1580156100eb57600080fd5b505afa1580156100ff573d6000803e3d6000fd5b505050506040513d601f19601f8201168201806040525081019061012391906101c5565b92915050565b6040516301ffc9a760e01b81526000906001600160a01b038316906301ffc9a7906100d390636cdb3d1360e11b906004016101e7565b6040516301ffc9a760e01b81526000906001600160a01b038316906301ffc9a7906100d3906380ac58cd60e01b906004016101e7565b6000602082840312156101a757600080fd5b81356001600160a01b03811681146101be57600080fd5b9392505050565b6000602082840312156101d757600080fd5b815180151581146101be57600080fd5b6001600160e01b03199190911681526020019056fea264697066735822122000a6f0cbed8d3f4d38c9d75d6f43940dad43ea8aa3ea2cf631d43a4ecf92098b64736f6c63430008060033",
  "devdoc": {
    "kind": "dev",
    "methods": {},
    "version": 1
  },
  "userdoc": {
    "kind": "user",
    "methods": {},
    "version": 1
  },
  "storageLayout": {
    "storage": [],
    "types": null
  }
}