{
  "address": "0xd3a76aAc65A246246c9714e0823ec586Ff243917",
  "abi": [
    {
      "anonymous": false,
      "inputs": [
        {
          "indexed": false,
          "internalType": "uint256",
          "name": "tokenSaleId",
          "type": "uint256"
        },
        {
          "indexed": false,
          "internalType": "uint256",
          "name": "drop",
          "type": "uint256"
        }
      ],
      "name": "AirdropAdded",
      "type": "event"
    },
    {
      "anonymous": false,
      "inputs": [
        {
          "indexed": true,
          "internalType": "uint256",
          "name": "airdropId",
          "type": "uint256"
        },
        {
          "components": [
            {
              "internalType": "bool",
              "name": "whitelistOnly",
              "type": "bool"
            },
            {
              "internalType": "uint256",
              "name": "whitelistId",
              "type": "uint256"
            },
            {
              "internalType": "bytes32",
              "name": "whitelistHash",
              "type": "bytes32"
            },
            {
              "internalType": "uint256",
              "name": "maxQuantity",
              "type": "uint256"
            },
            {
              "internalType": "uint256",
              "name": "maxQuantityPerSale",
              "type": "uint256"
            },
            {
              "internalType": "uint256",
              "name": "minQuantityPerSale",
              "type": "uint256"
            },
            {
              "internalType": "uint256",
              "name": "maxQuantityPerAccount",
              "type": "uint256"
            },
            {
              "internalType": "uint256",
              "name": "quantitySold",
              "type": "uint256"
            },
            {
              "internalType": "uint256",
              "name": "startTime",
              "type": "uint256"
            },
            {
              "internalType": "uint256",
              "name": "endTime",
              "type": "uint256"
            },
            {
              "components": [
                {
                  "internalType": "uint256",
                  "name": "price",
                  "type": "uint256"
                },
                {
                  "internalType": "enum ITokenPrice.PriceModifier",
                  "name": "priceModifier",
                  "type": "uint8"
                },
                {
                  "internalType": "uint256",
                  "name": "priceModifierFactor",
                  "type": "uint256"
                },
                {
                  "internalType": "uint256",
                  "name": "maxPrice",
                  "type": "uint256"
                }
              ],
              "internalType": "struct ITokenPrice.TokenPriceData",
              "name": "initialPrice",
              "type": "tuple"
            },
            {
              "internalType": "uint256",
              "name": "tokenHash",
              "type": "uint256"
            },
            {
              "internalType": "enum IAirdropTokenSale.PaymentType",
              "name": "paymentType",
              "type": "uint8"
            },
            {
              "internalType": "address",
              "name": "tokenAddress",
              "type": "address"
            }
          ],
          "indexed": false,
          "internalType": "struct IAirdrop.AirdropSettings",
          "name": "airdrop",
          "type": "tuple"
        }
      ],
      "name": "AirdropLaunched",
      "type": "event"
    },
    {
      "anonymous": false,
      "inputs": [
        {
          "indexed": true,
          "internalType": "uint256",
          "name": "airdropId",
          "type": "uint256"
        },
        {
          "indexed": true,
          "internalType": "address",
          "name": "beneficiary",
          "type": "address"
        },
        {
          "indexed": true,
          "internalType": "uint256",
          "name": "tokenHash",
          "type": "uint256"
        },
        {
          "indexed": false,
          "internalType": "bytes32[]",
          "name": "proof",
          "type": "bytes32[]"
        },
        {
          "indexed": false,
          "internalType": "uint256",
          "name": "amount",
          "type": "uint256"
        }
      ],
      "name": "AirdropRedeemed",
      "type": "event"
    },
    {
      "inputs": [
        {
          "components": [
            {
              "internalType": "bool",
              "name": "whitelistOnly",
              "type": "bool"
            },
            {
              "internalType": "uint256",
              "name": "whitelistId",
              "type": "uint256"
            },
            {
              "internalType": "bytes32",
              "name": "whitelistHash",
              "type": "bytes32"
            },
            {
              "internalType": "uint256",
              "name": "maxQuantity",
              "type": "uint256"
            },
            {
              "internalType": "uint256",
              "name": "maxQuantityPerSale",
              "type": "uint256"
            },
            {
              "internalType": "uint256",
              "name": "minQuantityPerSale",
              "type": "uint256"
            },
            {
              "internalType": "uint256",
              "name": "maxQuantityPerAccount",
              "type": "uint256"
            },
            {
              "internalType": "uint256",
              "name": "quantitySold",
              "type": "uint256"
            },
            {
              "internalType": "uint256",
              "name": "startTime",
              "type": "uint256"
            },
            {
              "internalType": "uint256",
              "name": "endTime",
              "type": "uint256"
            },
            {
              "components": [
                {
                  "internalType": "uint256",
                  "name": "price",
                  "type": "uint256"
                },
                {
                  "internalType": "enum ITokenPrice.PriceModifier",
                  "name": "priceModifier",
                  "type": "uint8"
                },
                {
                  "internalType": "uint256",
                  "name": "priceModifierFactor",
                  "type": "uint256"
                },
                {
                  "internalType": "uint256",
                  "name": "maxPrice",
                  "type": "uint256"
                }
              ],
              "internalType": "struct ITokenPrice.TokenPriceData",
              "name": "initialPrice",
              "type": "tuple"
            },
            {
              "internalType": "uint256",
              "name": "tokenHash",
              "type": "uint256"
            },
            {
              "internalType": "enum IAirdropTokenSale.PaymentType",
              "name": "paymentType",
              "type": "uint8"
            },
            {
              "internalType": "address",
              "name": "tokenAddress",
              "type": "address"
            }
          ],
          "internalType": "struct IAirdrop.AirdropSettings",
          "name": "_airdrop",
          "type": "tuple"
        }
      ],
      "name": "addAirdrop",
      "outputs": [],
      "stateMutability": "nonpayable",
      "type": "function"
    },
    {
      "inputs": [
        {
          "internalType": "uint256",
          "name": "drop",
          "type": "uint256"
        }
      ],
      "name": "airdrop",
      "outputs": [
        {
          "components": [
            {
              "internalType": "bool",
              "name": "whitelistOnly",
              "type": "bool"
            },
            {
              "internalType": "uint256",
              "name": "whitelistId",
              "type": "uint256"
            },
            {
              "internalType": "bytes32",
              "name": "whitelistHash",
              "type": "bytes32"
            },
            {
              "internalType": "uint256",
              "name": "maxQuantity",
              "type": "uint256"
            },
            {
              "internalType": "uint256",
              "name": "maxQuantityPerSale",
              "type": "uint256"
            },
            {
              "internalType": "uint256",
              "name": "minQuantityPerSale",
              "type": "uint256"
            },
            {
              "internalType": "uint256",
              "name": "maxQuantityPerAccount",
              "type": "uint256"
            },
            {
              "internalType": "uint256",
              "name": "quantitySold",
              "type": "uint256"
            },
            {
              "internalType": "uint256",
              "name": "startTime",
              "type": "uint256"
            },
            {
              "internalType": "uint256",
              "name": "endTime",
              "type": "uint256"
            },
            {
              "components": [
                {
                  "internalType": "uint256",
                  "name": "price",
                  "type": "uint256"
                },
                {
                  "internalType": "enum ITokenPrice.PriceModifier",
                  "name": "priceModifier",
                  "type": "uint8"
                },
                {
                  "internalType": "uint256",
                  "name": "priceModifierFactor",
                  "type": "uint256"
                },
                {
                  "internalType": "uint256",
                  "name": "maxPrice",
                  "type": "uint256"
                }
              ],
              "internalType": "struct ITokenPrice.TokenPriceData",
              "name": "initialPrice",
              "type": "tuple"
            },
            {
              "internalType": "uint256",
              "name": "tokenHash",
              "type": "uint256"
            },
            {
              "internalType": "enum IAirdropTokenSale.PaymentType",
              "name": "paymentType",
              "type": "uint8"
            },
            {
              "internalType": "address",
              "name": "tokenAddress",
              "type": "address"
            }
          ],
          "internalType": "struct IAirdrop.AirdropSettings",
          "name": "settings",
          "type": "tuple"
        }
      ],
      "stateMutability": "view",
      "type": "function"
    },
    {
      "inputs": [
        {
          "internalType": "uint256",
          "name": "drop",
          "type": "uint256"
        },
        {
          "internalType": "address",
          "name": "redeemer",
          "type": "address"
        }
      ],
      "name": "airdropRedeemed",
      "outputs": [
        {
          "internalType": "bool",
          "name": "isRedeemed",
          "type": "bool"
        }
      ],
      "stateMutability": "view",
      "type": "function"
    },
    {
      "inputs": [
        {
          "components": [
            {
              "internalType": "bool",
              "name": "whitelistOnly",
              "type": "bool"
            },
            {
              "internalType": "uint256",
              "name": "whitelistId",
              "type": "uint256"
            },
            {
              "internalType": "bytes32",
              "name": "whitelistHash",
              "type": "bytes32"
            },
            {
              "internalType": "uint256",
              "name": "maxQuantity",
              "type": "uint256"
            },
            {
              "internalType": "uint256",
              "name": "maxQuantityPerSale",
              "type": "uint256"
            },
            {
              "internalType": "uint256",
              "name": "minQuantityPerSale",
              "type": "uint256"
            },
            {
              "internalType": "uint256",
              "name": "maxQuantityPerAccount",
              "type": "uint256"
            },
            {
              "internalType": "uint256",
              "name": "quantitySold",
              "type": "uint256"
            },
            {
              "internalType": "uint256",
              "name": "startTime",
              "type": "uint256"
            },
            {
              "internalType": "uint256",
              "name": "endTime",
              "type": "uint256"
            },
            {
              "components": [
                {
                  "internalType": "uint256",
                  "name": "price",
                  "type": "uint256"
                },
                {
                  "internalType": "enum ITokenPrice.PriceModifier",
                  "name": "priceModifier",
                  "type": "uint8"
                },
                {
                  "internalType": "uint256",
                  "name": "priceModifierFactor",
                  "type": "uint256"
                },
                {
                  "internalType": "uint256",
                  "name": "maxPrice",
                  "type": "uint256"
                }
              ],
              "internalType": "struct ITokenPrice.TokenPriceData",
              "name": "initialPrice",
              "type": "tuple"
            },
            {
              "internalType": "uint256",
              "name": "tokenHash",
              "type": "uint256"
            },
            {
              "internalType": "enum IAirdropTokenSale.PaymentType",
              "name": "paymentType",
              "type": "uint8"
            },
            {
              "internalType": "address",
              "name": "tokenAddress",
              "type": "address"
            }
          ],
          "internalType": "struct IAirdrop.AirdropSettings[]",
          "name": "settingsList",
          "type": "tuple[]"
        }
      ],
      "name": "initMerkleAirdrops",
      "outputs": [],
      "stateMutability": "nonpayable",
      "type": "function"
    },
    {
      "inputs": [
        {
          "internalType": "uint256",
          "name": "drop",
          "type": "uint256"
        },
        {
          "internalType": "uint256",
          "name": "leaf",
          "type": "uint256"
        },
        {
          "internalType": "address",
          "name": "recipient",
          "type": "address"
        },
        {
          "internalType": "uint256",
          "name": "amount",
          "type": "uint256"
        },
        {
          "internalType": "uint256",
          "name": "total",
          "type": "uint256"
        },
        {
          "internalType": "bytes32[]",
          "name": "merkleProof",
          "type": "bytes32[]"
        }
      ],
      "name": "redeemAirdrop",
      "outputs": [],
      "stateMutability": "payable",
      "type": "function"
    }
  ],
  "transactionHash": "0xe786112dd055ca449e5d7fe24129963d0bba848039538d9f95900033c383e46c",
  "args": [],
  "numDeployments": 3,
  "solcInputHash": "afe5007c1f3b66f010b53beae8f59210",
  "bytecode": "0x608060405234801561001057600080fd5b50610f0f806100206000396000f3fe60806040526004361061004a5760003560e01c806304f375bc1461004f578063378e98bb14610071578063868e0be21461008457806397dc4a13146100b9578063d75bd05a146100e6575b600080fd5b34801561005b57600080fd5b5061006f61006a3660046109ab565b610106565b005b61006f61007f366004610b52565b610229565b34801561009057600080fd5b506100a461009f366004610b26565b61044a565b60405190151581526020015b60405180910390f35b3480156100c557600080fd5b506100d96100d4366004610b0d565b61045d565b6040516100b09190610d29565b3480156100f257600080fd5b5061006f610101366004610a3d565b610602565b3361010f6107d8565b6001600160a01b0316148061012357503033145b6101485760405162461bcd60e51b815260040161013f90610cd2565b60405180910390fd5b600154156101975760405162461bcd60e51b815260206004820152601c60248201527b105a5c991c9bdc1cc8185b1c9958591e481a5b9a5d1a585b1a5e995960221b604482015260640161013f565b806101db5760405162461bcd60e51b8152602060048201526014602482015273139bc8185a5c991c9bdc1cc81c1c9bdd9a59195960621b604482015260640161013f565b60005b81811015610224576102128383838181106101fb576101fb610e9c565b905061022002018036038101906101019190610a3d565b8061021c81610e55565b9150506101de565b505050565b336102326107d8565b6001600160a01b0316148061024657503033145b6102625760405162461bcd60e51b815260040161013f90610cd2565b60008681526003602090815260408083206001600160a01b038816808552908352818420548a855260048452828520918552925290912054816102a557836102a7565b805b9050806102b48684610e3d565b11156103105760405162461bcd60e51b815260206004820152602560248201527f596f75206861766520616c72656164792072656465656d6564207468697320616044820152641b5bdd5b9d60da1b606482015260840161013f565b60008881526004602090815260408083206001600160a01b038a168085529083528184208590558b84526003835281842090845290915281208054879290610359908490610e3d565b90915550506000888152602081905260408082206002015490516306847ca960e31b815273e2f6D7E396B31d50dc5d11aD23c17859aDc95bB391633423e548916103aa91908c908990600401610c7d565b60206040518083038186803b1580156103c257600080fd5b505af41580156103d6573d6000803e3d6000fd5b505050506040513d601f19601f820116820180604052508101906103fa9190610a20565b90508061043f5760405162461bcd60e51b815260206004820152601360248201527213595c9adb19481c1c9bdbd98819985a5b1959606a1b604482015260640161013f565b505050505050505050565b60006104568383610806565b9392505050565b610465610854565b60008281526020819052604090206001015482146104be5760405162461bcd60e51b8152602060048201526016602482015275105a5c991c9bdc08191bd95cc81b9bdd08195e1a5cdd60521b604482015260640161013f565b6000828152602081815260409182902082516101c081018452815460ff9081161515825260018301548285015260028301548286015260038084015460608401526004840154608080850191909152600585015460a0850152600685015460c0850152600785015460e0850152600885015461010085015260098501546101208501528651908101909652600a840180548752600b850154939694956101408801959491939085019291169081111561057957610579610e86565b600381111561058a5761058a610e86565b81526002820154602080830191909152600390920154604091820152918352600e84015490830152600f83015491019060ff1660018111156105ce576105ce610e86565b60018111156105df576105df610e86565b8152600f919091015461010090046001600160a01b031660209091015292915050565b3361060b6107d8565b6001600160a01b0316148061061f57503033145b61063b5760405162461bcd60e51b815260040161013f90610cd2565b602080820151600081815291829052604090912060010154141561069a5760405162461bcd60e51b815260206004820152601660248201527541697264726f7020616c72656164792065786973747360501b604482015260640161013f565b6020808201805160009081528083526040908190208451815490151560ff19918216178255925160018083019190915591850151600282015560608501516003808301919091556080860151600483015560a0860151600583015560c0860151600683015560e08601516007830155610100860151600883015561012086015160098301556101408601518051600a840190815595810151600b8401805489989597939692949193169190849081111561075657610756610e86565b021790555060408201516002820155606090910151600390910155610160820151600e820155610180820151600f8201805460ff19166001838181111561079f5761079f610e86565b02179055506101a09190910151600f90910180546001600160a01b0390921661010002610100600160a81b031990921691909117905550565b7fc8fcad8db84d3cc18b4c41d551ea0ee66dd599cde068d998e57d5e09332c1320546001600160a01b031690565b60008281526004602090815260408083206001600160a01b03851680855290835281842054868552600384528285209185529252822054811580159061084b57508082145b95945050505050565b604051806101c001604052806000151581526020016000815260200160008019168152602001600081526020016000815260200160008152602001600081526020016000815260200160008152602001600081526020016108d7604080516080810190915260008082526020820190815260200160008152602001600081525090565b815260200160008152602001600060018111156108f6576108f6610e86565b8152600060209091015290565b80356001600160a01b038116811461091a57600080fd5b919050565b803561091a81610ec8565b80356002811061091a57600080fd5b60006080828403121561094b57600080fd5b604051608081016001600160401b038111828210171561096d5761096d610eb2565b6040528235815290508060208301356004811061098957600080fd5b8060208301525060408301356040820152606083013560608201525092915050565b600080602083850312156109be57600080fd5b82356001600160401b03808211156109d557600080fd5b818501915085601f8301126109e957600080fd5b8135818111156109f857600080fd5b86602061022083028501011115610a0e57600080fd5b60209290920196919550909350505050565b600060208284031215610a3257600080fd5b815161045681610ec8565b60006102208284031215610a5057600080fd5b610a58610de4565b610a618361091f565b81526020830135602082015260408301356040820152606083013560608201526080830135608082015260a083013560a082015260c083013560c082015260e083013560e0820152610100808401358183015250610120808401358183015250610140610ad085828601610939565b908201526101c0830135610160820152610aed6101e0840161092a565b610180820152610b006102008401610903565b6101a08201529392505050565b600060208284031215610b1f57600080fd5b5035919050565b60008060408385031215610b3957600080fd5b82359150610b4960208401610903565b90509250929050565b60008060008060008060c08789031215610b6b57600080fd5b863595506020808801359550610b8360408901610903565b9450606088013593506080880135925060a08801356001600160401b0380821115610bad57600080fd5b818a0191508a601f830112610bc157600080fd5b813581811115610bd357610bd3610eb2565b8060051b9150610be4848301610e0d565b8181528481019084860184860187018f1015610bff57600080fd5b600095505b83861015610c22578035835260019590950194918601918601610c04565b508096505050505050509295509295509295565b60028110610c4657610c46610e86565b9052565b80518252602081015160048110610c6357610c63610e86565b602083015260408181015190830152606090810151910152565b6000606082018583526020858185015260606040850152818551808452608086019150828701935060005b81811015610cc457845183529383019391830191600101610ca8565b509098975050505050505050565b60208082526037908201527f455243313135353a206f6e6c792074686520636f6e7472616374206f776e65726040820152761031b0b71031b0b636103a3434b990333ab731ba34b7b760491b606082015260800190565b81511515815261022081016020830151602083015260408301516040830152606083015160608301526080830151608083015260a083015160a083015260c083015160c083015260e083015160e083015261010080840151818401525061012080840151818401525061014080840151610da582850182610c4a565b50506101608301516101c0830152610180830151610dc76101e0840182610c36565b506101a092909201516001600160a01b0316610200919091015290565b6040516101c081016001600160401b0381118282101715610e0757610e07610eb2565b60405290565b604051601f8201601f191681016001600160401b0381118282101715610e3557610e35610eb2565b604052919050565b60008219821115610e5057610e50610e70565b500190565b6000600019821415610e6957610e69610e70565b5060010190565b634e487b7160e01b600052601160045260246000fd5b634e487b7160e01b600052602160045260246000fd5b634e487b7160e01b600052603260045260246000fd5b634e487b7160e01b600052604160045260246000fd5b8015158114610ed657600080fd5b5056fea2646970667358221220bba95d0eb358da0db0c378a0e38ec9c2a66fe24369f6968fc958b8b08b1544ea64736f6c63430008060033",
  "deployedBytecode": "0x60806040526004361061004a5760003560e01c806304f375bc1461004f578063378e98bb14610071578063868e0be21461008457806397dc4a13146100b9578063d75bd05a146100e6575b600080fd5b34801561005b57600080fd5b5061006f61006a3660046109ab565b610106565b005b61006f61007f366004610b52565b610229565b34801561009057600080fd5b506100a461009f366004610b26565b61044a565b60405190151581526020015b60405180910390f35b3480156100c557600080fd5b506100d96100d4366004610b0d565b61045d565b6040516100b09190610d29565b3480156100f257600080fd5b5061006f610101366004610a3d565b610602565b3361010f6107d8565b6001600160a01b0316148061012357503033145b6101485760405162461bcd60e51b815260040161013f90610cd2565b60405180910390fd5b600154156101975760405162461bcd60e51b815260206004820152601c60248201527b105a5c991c9bdc1cc8185b1c9958591e481a5b9a5d1a585b1a5e995960221b604482015260640161013f565b806101db5760405162461bcd60e51b8152602060048201526014602482015273139bc8185a5c991c9bdc1cc81c1c9bdd9a59195960621b604482015260640161013f565b60005b81811015610224576102128383838181106101fb576101fb610e9c565b905061022002018036038101906101019190610a3d565b8061021c81610e55565b9150506101de565b505050565b336102326107d8565b6001600160a01b0316148061024657503033145b6102625760405162461bcd60e51b815260040161013f90610cd2565b60008681526003602090815260408083206001600160a01b038816808552908352818420548a855260048452828520918552925290912054816102a557836102a7565b805b9050806102b48684610e3d565b11156103105760405162461bcd60e51b815260206004820152602560248201527f596f75206861766520616c72656164792072656465656d6564207468697320616044820152641b5bdd5b9d60da1b606482015260840161013f565b60008881526004602090815260408083206001600160a01b038a168085529083528184208590558b84526003835281842090845290915281208054879290610359908490610e3d565b90915550506000888152602081905260408082206002015490516306847ca960e31b815273__$860624903cbc2e721b1f7f70307ce6b5fe$__91633423e548916103aa91908c908990600401610c7d565b60206040518083038186803b1580156103c257600080fd5b505af41580156103d6573d6000803e3d6000fd5b505050506040513d601f19601f820116820180604052508101906103fa9190610a20565b90508061043f5760405162461bcd60e51b815260206004820152601360248201527213595c9adb19481c1c9bdbd98819985a5b1959606a1b604482015260640161013f565b505050505050505050565b60006104568383610806565b9392505050565b610465610854565b60008281526020819052604090206001015482146104be5760405162461bcd60e51b8152602060048201526016602482015275105a5c991c9bdc08191bd95cc81b9bdd08195e1a5cdd60521b604482015260640161013f565b6000828152602081815260409182902082516101c081018452815460ff9081161515825260018301548285015260028301548286015260038084015460608401526004840154608080850191909152600585015460a0850152600685015460c0850152600785015460e0850152600885015461010085015260098501546101208501528651908101909652600a840180548752600b850154939694956101408801959491939085019291169081111561057957610579610e86565b600381111561058a5761058a610e86565b81526002820154602080830191909152600390920154604091820152918352600e84015490830152600f83015491019060ff1660018111156105ce576105ce610e86565b60018111156105df576105df610e86565b8152600f919091015461010090046001600160a01b031660209091015292915050565b3361060b6107d8565b6001600160a01b0316148061061f57503033145b61063b5760405162461bcd60e51b815260040161013f90610cd2565b602080820151600081815291829052604090912060010154141561069a5760405162461bcd60e51b815260206004820152601660248201527541697264726f7020616c72656164792065786973747360501b604482015260640161013f565b6020808201805160009081528083526040908190208451815490151560ff19918216178255925160018083019190915591850151600282015560608501516003808301919091556080860151600483015560a0860151600583015560c0860151600683015560e08601516007830155610100860151600883015561012086015160098301556101408601518051600a840190815595810151600b8401805489989597939692949193169190849081111561075657610756610e86565b021790555060408201516002820155606090910151600390910155610160820151600e820155610180820151600f8201805460ff19166001838181111561079f5761079f610e86565b02179055506101a09190910151600f90910180546001600160a01b0390921661010002610100600160a81b031990921691909117905550565b7fc8fcad8db84d3cc18b4c41d551ea0ee66dd599cde068d998e57d5e09332c1320546001600160a01b031690565b60008281526004602090815260408083206001600160a01b03851680855290835281842054868552600384528285209185529252822054811580159061084b57508082145b95945050505050565b604051806101c001604052806000151581526020016000815260200160008019168152602001600081526020016000815260200160008152602001600081526020016000815260200160008152602001600081526020016108d7604080516080810190915260008082526020820190815260200160008152602001600081525090565b815260200160008152602001600060018111156108f6576108f6610e86565b8152600060209091015290565b80356001600160a01b038116811461091a57600080fd5b919050565b803561091a81610ec8565b80356002811061091a57600080fd5b60006080828403121561094b57600080fd5b604051608081016001600160401b038111828210171561096d5761096d610eb2565b6040528235815290508060208301356004811061098957600080fd5b8060208301525060408301356040820152606083013560608201525092915050565b600080602083850312156109be57600080fd5b82356001600160401b03808211156109d557600080fd5b818501915085601f8301126109e957600080fd5b8135818111156109f857600080fd5b86602061022083028501011115610a0e57600080fd5b60209290920196919550909350505050565b600060208284031215610a3257600080fd5b815161045681610ec8565b60006102208284031215610a5057600080fd5b610a58610de4565b610a618361091f565b81526020830135602082015260408301356040820152606083013560608201526080830135608082015260a083013560a082015260c083013560c082015260e083013560e0820152610100808401358183015250610120808401358183015250610140610ad085828601610939565b908201526101c0830135610160820152610aed6101e0840161092a565b610180820152610b006102008401610903565b6101a08201529392505050565b600060208284031215610b1f57600080fd5b5035919050565b60008060408385031215610b3957600080fd5b82359150610b4960208401610903565b90509250929050565b60008060008060008060c08789031215610b6b57600080fd5b863595506020808801359550610b8360408901610903565b9450606088013593506080880135925060a08801356001600160401b0380821115610bad57600080fd5b818a0191508a601f830112610bc157600080fd5b813581811115610bd357610bd3610eb2565b8060051b9150610be4848301610e0d565b8181528481019084860184860187018f1015610bff57600080fd5b600095505b83861015610c22578035835260019590950194918601918601610c04565b508096505050505050509295509295509295565b60028110610c4657610c46610e86565b9052565b80518252602081015160048110610c6357610c63610e86565b602083015260408181015190830152606090810151910152565b6000606082018583526020858185015260606040850152818551808452608086019150828701935060005b81811015610cc457845183529383019391830191600101610ca8565b509098975050505050505050565b60208082526037908201527f455243313135353a206f6e6c792074686520636f6e7472616374206f776e65726040820152761031b0b71031b0b636103a3434b990333ab731ba34b7b760491b606082015260800190565b81511515815261022081016020830151602083015260408301516040830152606083015160608301526080830151608083015260a083015160a083015260c083015160c083015260e083015160e083015261010080840151818401525061012080840151818401525061014080840151610da582850182610c4a565b50506101608301516101c0830152610180830151610dc76101e0840182610c36565b506101a092909201516001600160a01b0316610200919091015290565b6040516101c081016001600160401b0381118282101715610e0757610e07610eb2565b60405290565b604051601f8201601f191681016001600160401b0381118282101715610e3557610e35610eb2565b604052919050565b60008219821115610e5057610e50610e70565b500190565b6000600019821415610e6957610e69610e70565b5060010190565b634e487b7160e01b600052601160045260246000fd5b634e487b7160e01b600052602160045260246000fd5b634e487b7160e01b600052603260045260246000fd5b634e487b7160e01b600052604160045260246000fd5b8015158114610ed657600080fd5b5056fea2646970667358221220bba95d0eb358da0db0c378a0e38ec9c2a66fe24369f6968fc958b8b08b1544ea64736f6c63430008060033",
  "libraries": {
    "AddressSet": "0xf88EB844922B1ab0e153cF9E9bEefecc9512DE06",
    "UInt256Set": "0xCc995d7a8c7c499128cB34Ef0dA290F5f4f4EE71",
    "LibAppStorage": "0x6cfa6c2c41453855A7547426cDF22fE5690439cD",
    "LibDiamond": "0xd77fa05d7Fba908919b3A4b9E41Cc62A1A7F728D",
    "MerkleProof": "0xe2f6D7E396B31d50dc5d11aD23c17859aDc95bB3",
    "InterfaceChecker": "0x5ddA1aCa8aF2E4751208877C15730D51Ac965eF5"
  },
  "devdoc": {
    "kind": "dev",
    "methods": {
      "addAirdrop((bool,uint256,bytes32,uint256,uint256,uint256,uint256,uint256,uint256,uint256,(uint256,uint8,uint256,uint256),uint256,uint8,address))": {
        "params": {
          "_airdrop": "the id of the airdrop"
        }
      },
      "airdrop(uint256)": {
        "returns": {
          "settings": "the token sale settings"
        }
      },
      "airdropRedeemed(uint256,address)": {
        "params": {
          "drop": "the id of the airdrop",
          "redeemer": "the merkle proof"
        },
        "returns": {
          "isRedeemed": "the amount of tokens redeemed"
        }
      },
      "redeemAirdrop(uint256,uint256,address,uint256,uint256,bytes32[])": {
        "params": {
          "amount": "tje amount of tokens to redeem",
          "drop": "the airdrop id",
          "leaf": "the index of the token in the airdrop",
          "merkleProof": "the merkle proof of the token",
          "recipient": "the beneficiary of the tokens"
        }
      }
    },
    "version": 1
  },
  "userdoc": {
    "kind": "user",
    "methods": {
      "addAirdrop((bool,uint256,bytes32,uint256,uint256,uint256,uint256,uint256,uint256,uint256,(uint256,uint8,uint256,uint256),uint256,uint8,address))": {
        "notice": "add a new airdrop"
      },
      "airdrop(uint256)": {
        "notice": "Get the token sale settings"
      },
      "airdropRedeemed(uint256,address)": {
        "notice": "airdrops check to see if proof is redeemed"
      },
      "redeemAirdrop(uint256,uint256,address,uint256,uint256,bytes32[])": {
        "notice": "redeem tokens for airdrop"
      }
    },
    "version": 1
  },
  "storageLayout": {
    "storage": [
      {
        "astId": 2186,
        "contract": "contracts/facets/MerkleAirdropFacet.sol:MerkleAirdropFacet",
        "label": "s",
        "offset": 0,
        "slot": "0",
        "type": "t_struct(AppStorage)2174_storage"
      }
    ],
    "types": {
      "t_address": {
        "encoding": "inplace",
        "label": "address",
        "numberOfBytes": "20"
      },
      "t_bool": {
        "encoding": "inplace",
        "label": "bool",
        "numberOfBytes": "1"
      },
      "t_bytes32": {
        "encoding": "inplace",
        "label": "bytes32",
        "numberOfBytes": "32"
      },
      "t_enum(PaymentType)4879": {
        "encoding": "inplace",
        "label": "enum IAirdropTokenSale.PaymentType",
        "numberOfBytes": "1"
      },
      "t_enum(PriceModifier)6543": {
        "encoding": "inplace",
        "label": "enum ITokenPrice.PriceModifier",
        "numberOfBytes": "1"
      },
      "t_mapping(t_address,t_uint256)": {
        "encoding": "mapping",
        "key": "t_address",
        "label": "mapping(address => uint256)",
        "numberOfBytes": "32",
        "value": "t_uint256"
      },
      "t_mapping(t_uint256,t_bool)": {
        "encoding": "mapping",
        "key": "t_uint256",
        "label": "mapping(uint256 => bool)",
        "numberOfBytes": "32",
        "value": "t_bool"
      },
      "t_mapping(t_uint256,t_mapping(t_address,t_uint256))": {
        "encoding": "mapping",
        "key": "t_uint256",
        "label": "mapping(uint256 => mapping(address => uint256))",
        "numberOfBytes": "32",
        "value": "t_mapping(t_address,t_uint256)"
      },
      "t_mapping(t_uint256,t_mapping(t_uint256,t_uint256))": {
        "encoding": "mapping",
        "key": "t_uint256",
        "label": "mapping(uint256 => mapping(uint256 => uint256))",
        "numberOfBytes": "32",
        "value": "t_mapping(t_uint256,t_uint256)"
      },
      "t_mapping(t_uint256,t_struct(AirdropSettings)4814_storage)": {
        "encoding": "mapping",
        "key": "t_uint256",
        "label": "mapping(uint256 => struct IAirdrop.AirdropSettings)",
        "numberOfBytes": "32",
        "value": "t_struct(AirdropSettings)4814_storage"
      },
      "t_mapping(t_uint256,t_struct(TokenSaleSettings)4920_storage)": {
        "encoding": "mapping",
        "key": "t_uint256",
        "label": "mapping(uint256 => struct IAirdropTokenSale.TokenSaleSettings)",
        "numberOfBytes": "32",
        "value": "t_struct(TokenSaleSettings)4920_storage"
      },
      "t_mapping(t_uint256,t_uint256)": {
        "encoding": "mapping",
        "key": "t_uint256",
        "label": "mapping(uint256 => uint256)",
        "numberOfBytes": "32",
        "value": "t_uint256"
      },
      "t_string_storage": {
        "encoding": "bytes",
        "label": "string",
        "numberOfBytes": "32"
      },
      "t_struct(AirdropSettings)4814_storage": {
        "encoding": "inplace",
        "label": "struct IAirdrop.AirdropSettings",
        "members": [
          {
            "astId": 4785,
            "contract": "contracts/facets/MerkleAirdropFacet.sol:MerkleAirdropFacet",
            "label": "whitelistOnly",
            "offset": 0,
            "slot": "0",
            "type": "t_bool"
          },
          {
            "astId": 4787,
            "contract": "contracts/facets/MerkleAirdropFacet.sol:MerkleAirdropFacet",
            "label": "whitelistId",
            "offset": 0,
            "slot": "1",
            "type": "t_uint256"
          },
          {
            "astId": 4789,
            "contract": "contracts/facets/MerkleAirdropFacet.sol:MerkleAirdropFacet",
            "label": "whitelistHash",
            "offset": 0,
            "slot": "2",
            "type": "t_bytes32"
          },
          {
            "astId": 4791,
            "contract": "contracts/facets/MerkleAirdropFacet.sol:MerkleAirdropFacet",
            "label": "maxQuantity",
            "offset": 0,
            "slot": "3",
            "type": "t_uint256"
          },
          {
            "astId": 4793,
            "contract": "contracts/facets/MerkleAirdropFacet.sol:MerkleAirdropFacet",
            "label": "maxQuantityPerSale",
            "offset": 0,
            "slot": "4",
            "type": "t_uint256"
          },
          {
            "astId": 4795,
            "contract": "contracts/facets/MerkleAirdropFacet.sol:MerkleAirdropFacet",
            "label": "minQuantityPerSale",
            "offset": 0,
            "slot": "5",
            "type": "t_uint256"
          },
          {
            "astId": 4797,
            "contract": "contracts/facets/MerkleAirdropFacet.sol:MerkleAirdropFacet",
            "label": "maxQuantityPerAccount",
            "offset": 0,
            "slot": "6",
            "type": "t_uint256"
          },
          {
            "astId": 4799,
            "contract": "contracts/facets/MerkleAirdropFacet.sol:MerkleAirdropFacet",
            "label": "quantitySold",
            "offset": 0,
            "slot": "7",
            "type": "t_uint256"
          },
          {
            "astId": 4801,
            "contract": "contracts/facets/MerkleAirdropFacet.sol:MerkleAirdropFacet",
            "label": "startTime",
            "offset": 0,
            "slot": "8",
            "type": "t_uint256"
          },
          {
            "astId": 4803,
            "contract": "contracts/facets/MerkleAirdropFacet.sol:MerkleAirdropFacet",
            "label": "endTime",
            "offset": 0,
            "slot": "9",
            "type": "t_uint256"
          },
          {
            "astId": 4806,
            "contract": "contracts/facets/MerkleAirdropFacet.sol:MerkleAirdropFacet",
            "label": "initialPrice",
            "offset": 0,
            "slot": "10",
            "type": "t_struct(TokenPriceData)6553_storage"
          },
          {
            "astId": 4808,
            "contract": "contracts/facets/MerkleAirdropFacet.sol:MerkleAirdropFacet",
            "label": "tokenHash",
            "offset": 0,
            "slot": "14",
            "type": "t_uint256"
          },
          {
            "astId": 4811,
            "contract": "contracts/facets/MerkleAirdropFacet.sol:MerkleAirdropFacet",
            "label": "paymentType",
            "offset": 0,
            "slot": "15",
            "type": "t_enum(PaymentType)4879"
          },
          {
            "astId": 4813,
            "contract": "contracts/facets/MerkleAirdropFacet.sol:MerkleAirdropFacet",
            "label": "tokenAddress",
            "offset": 1,
            "slot": "15",
            "type": "t_address"
          }
        ],
        "numberOfBytes": "512"
      },
      "t_struct(AirdropTokenSaleStorage)2133_storage": {
        "encoding": "inplace",
        "label": "struct AirdropTokenSaleStorage",
        "members": [
          {
            "astId": 2109,
            "contract": "contracts/facets/MerkleAirdropFacet.sol:MerkleAirdropFacet",
            "label": "tsnonce",
            "offset": 0,
            "slot": "0",
            "type": "t_uint256"
          },
          {
            "astId": 2113,
            "contract": "contracts/facets/MerkleAirdropFacet.sol:MerkleAirdropFacet",
            "label": "nonces",
            "offset": 0,
            "slot": "1",
            "type": "t_mapping(t_uint256,t_uint256)"
          },
          {
            "astId": 2118,
            "contract": "contracts/facets/MerkleAirdropFacet.sol:MerkleAirdropFacet",
            "label": "_tokenSales",
            "offset": 0,
            "slot": "2",
            "type": "t_mapping(t_uint256,t_struct(TokenSaleSettings)4920_storage)"
          },
          {
            "astId": 2122,
            "contract": "contracts/facets/MerkleAirdropFacet.sol:MerkleAirdropFacet",
            "label": "tokenSaleOpen",
            "offset": 0,
            "slot": "3",
            "type": "t_mapping(t_uint256,t_bool)"
          },
          {
            "astId": 2128,
            "contract": "contracts/facets/MerkleAirdropFacet.sol:MerkleAirdropFacet",
            "label": "purchased",
            "offset": 0,
            "slot": "4",
            "type": "t_mapping(t_uint256,t_mapping(t_address,t_uint256))"
          },
          {
            "astId": 2132,
            "contract": "contracts/facets/MerkleAirdropFacet.sol:MerkleAirdropFacet",
            "label": "totalPurchased",
            "offset": 0,
            "slot": "5",
            "type": "t_mapping(t_uint256,t_uint256)"
          }
        ],
        "numberOfBytes": "192"
      },
      "t_struct(AppStorage)2174_storage": {
        "encoding": "inplace",
        "label": "struct AppStorage",
        "members": [
          {
            "astId": 2167,
            "contract": "contracts/facets/MerkleAirdropFacet.sol:MerkleAirdropFacet",
            "label": "merkleAirdropStorage",
            "offset": 0,
            "slot": "0",
            "type": "t_struct(MerkleAirdropStorage)2159_storage"
          },
          {
            "astId": 2170,
            "contract": "contracts/facets/MerkleAirdropFacet.sol:MerkleAirdropFacet",
            "label": "airdropTokenSaleStorage",
            "offset": 0,
            "slot": "5",
            "type": "t_struct(AirdropTokenSaleStorage)2133_storage"
          },
          {
            "astId": 2173,
            "contract": "contracts/facets/MerkleAirdropFacet.sol:MerkleAirdropFacet",
            "label": "tokenMinterStorage",
            "offset": 0,
            "slot": "11",
            "type": "t_struct(TokenMinterStorage)2107_storage"
          }
        ],
        "numberOfBytes": "384"
      },
      "t_struct(MerkleAirdropStorage)2159_storage": {
        "encoding": "inplace",
        "label": "struct MerkleAirdropStorage",
        "members": [
          {
            "astId": 2138,
            "contract": "contracts/facets/MerkleAirdropFacet.sol:MerkleAirdropFacet",
            "label": "_settings",
            "offset": 0,
            "slot": "0",
            "type": "t_mapping(t_uint256,t_struct(AirdropSettings)4814_storage)"
          },
          {
            "astId": 2140,
            "contract": "contracts/facets/MerkleAirdropFacet.sol:MerkleAirdropFacet",
            "label": "numSettings",
            "offset": 0,
            "slot": "1",
            "type": "t_uint256"
          },
          {
            "astId": 2146,
            "contract": "contracts/facets/MerkleAirdropFacet.sol:MerkleAirdropFacet",
            "label": "_redeemedData",
            "offset": 0,
            "slot": "2",
            "type": "t_mapping(t_uint256,t_mapping(t_uint256,t_uint256))"
          },
          {
            "astId": 2152,
            "contract": "contracts/facets/MerkleAirdropFacet.sol:MerkleAirdropFacet",
            "label": "_redeemedDataQuantities",
            "offset": 0,
            "slot": "3",
            "type": "t_mapping(t_uint256,t_mapping(t_address,t_uint256))"
          },
          {
            "astId": 2158,
            "contract": "contracts/facets/MerkleAirdropFacet.sol:MerkleAirdropFacet",
            "label": "_totalDataQuantities",
            "offset": 0,
            "slot": "4",
            "type": "t_mapping(t_uint256,t_mapping(t_address,t_uint256))"
          }
        ],
        "numberOfBytes": "160"
      },
      "t_struct(TokenMinterStorage)2107_storage": {
        "encoding": "inplace",
        "label": "struct TokenMinterStorage",
        "members": [
          {
            "astId": 2106,
            "contract": "contracts/facets/MerkleAirdropFacet.sol:MerkleAirdropFacet",
            "label": "token",
            "offset": 0,
            "slot": "0",
            "type": "t_address"
          }
        ],
        "numberOfBytes": "32"
      },
      "t_struct(TokenPriceData)6553_storage": {
        "encoding": "inplace",
        "label": "struct ITokenPrice.TokenPriceData",
        "members": [
          {
            "astId": 6545,
            "contract": "contracts/facets/MerkleAirdropFacet.sol:MerkleAirdropFacet",
            "label": "price",
            "offset": 0,
            "slot": "0",
            "type": "t_uint256"
          },
          {
            "astId": 6548,
            "contract": "contracts/facets/MerkleAirdropFacet.sol:MerkleAirdropFacet",
            "label": "priceModifier",
            "offset": 0,
            "slot": "1",
            "type": "t_enum(PriceModifier)6543"
          },
          {
            "astId": 6550,
            "contract": "contracts/facets/MerkleAirdropFacet.sol:MerkleAirdropFacet",
            "label": "priceModifierFactor",
            "offset": 0,
            "slot": "2",
            "type": "t_uint256"
          },
          {
            "astId": 6552,
            "contract": "contracts/facets/MerkleAirdropFacet.sol:MerkleAirdropFacet",
            "label": "maxPrice",
            "offset": 0,
            "slot": "3",
            "type": "t_uint256"
          }
        ],
        "numberOfBytes": "128"
      },
      "t_struct(TokenSaleSettings)4920_storage": {
        "encoding": "inplace",
        "label": "struct IAirdropTokenSale.TokenSaleSettings",
        "members": [
          {
            "astId": 4881,
            "contract": "contracts/facets/MerkleAirdropFacet.sol:MerkleAirdropFacet",
            "label": "contractAddress",
            "offset": 0,
            "slot": "0",
            "type": "t_address"
          },
          {
            "astId": 4883,
            "contract": "contracts/facets/MerkleAirdropFacet.sol:MerkleAirdropFacet",
            "label": "token",
            "offset": 0,
            "slot": "1",
            "type": "t_address"
          },
          {
            "astId": 4885,
            "contract": "contracts/facets/MerkleAirdropFacet.sol:MerkleAirdropFacet",
            "label": "tokenHash",
            "offset": 0,
            "slot": "2",
            "type": "t_uint256"
          },
          {
            "astId": 4887,
            "contract": "contracts/facets/MerkleAirdropFacet.sol:MerkleAirdropFacet",
            "label": "collectionHash",
            "offset": 0,
            "slot": "3",
            "type": "t_uint256"
          },
          {
            "astId": 4889,
            "contract": "contracts/facets/MerkleAirdropFacet.sol:MerkleAirdropFacet",
            "label": "owner",
            "offset": 0,
            "slot": "4",
            "type": "t_address"
          },
          {
            "astId": 4891,
            "contract": "contracts/facets/MerkleAirdropFacet.sol:MerkleAirdropFacet",
            "label": "payee",
            "offset": 0,
            "slot": "5",
            "type": "t_address"
          },
          {
            "astId": 4893,
            "contract": "contracts/facets/MerkleAirdropFacet.sol:MerkleAirdropFacet",
            "label": "symbol",
            "offset": 0,
            "slot": "6",
            "type": "t_string_storage"
          },
          {
            "astId": 4895,
            "contract": "contracts/facets/MerkleAirdropFacet.sol:MerkleAirdropFacet",
            "label": "name",
            "offset": 0,
            "slot": "7",
            "type": "t_string_storage"
          },
          {
            "astId": 4897,
            "contract": "contracts/facets/MerkleAirdropFacet.sol:MerkleAirdropFacet",
            "label": "description",
            "offset": 0,
            "slot": "8",
            "type": "t_string_storage"
          },
          {
            "astId": 4899,
            "contract": "contracts/facets/MerkleAirdropFacet.sol:MerkleAirdropFacet",
            "label": "openState",
            "offset": 0,
            "slot": "9",
            "type": "t_bool"
          },
          {
            "astId": 4901,
            "contract": "contracts/facets/MerkleAirdropFacet.sol:MerkleAirdropFacet",
            "label": "startTime",
            "offset": 0,
            "slot": "10",
            "type": "t_uint256"
          },
          {
            "astId": 4903,
            "contract": "contracts/facets/MerkleAirdropFacet.sol:MerkleAirdropFacet",
            "label": "endTime",
            "offset": 0,
            "slot": "11",
            "type": "t_uint256"
          },
          {
            "astId": 4905,
            "contract": "contracts/facets/MerkleAirdropFacet.sol:MerkleAirdropFacet",
            "label": "maxQuantity",
            "offset": 0,
            "slot": "12",
            "type": "t_uint256"
          },
          {
            "astId": 4907,
            "contract": "contracts/facets/MerkleAirdropFacet.sol:MerkleAirdropFacet",
            "label": "maxQuantityPerSale",
            "offset": 0,
            "slot": "13",
            "type": "t_uint256"
          },
          {
            "astId": 4909,
            "contract": "contracts/facets/MerkleAirdropFacet.sol:MerkleAirdropFacet",
            "label": "minQuantityPerSale",
            "offset": 0,
            "slot": "14",
            "type": "t_uint256"
          },
          {
            "astId": 4911,
            "contract": "contracts/facets/MerkleAirdropFacet.sol:MerkleAirdropFacet",
            "label": "maxQuantityPerAccount",
            "offset": 0,
            "slot": "15",
            "type": "t_uint256"
          },
          {
            "astId": 4914,
            "contract": "contracts/facets/MerkleAirdropFacet.sol:MerkleAirdropFacet",
            "label": "initialPrice",
            "offset": 0,
            "slot": "16",
            "type": "t_struct(TokenPriceData)6553_storage"
          },
          {
            "astId": 4917,
            "contract": "contracts/facets/MerkleAirdropFacet.sol:MerkleAirdropFacet",
            "label": "paymentType",
            "offset": 0,
            "slot": "20",
            "type": "t_enum(PaymentType)4879"
          },
          {
            "astId": 4919,
            "contract": "contracts/facets/MerkleAirdropFacet.sol:MerkleAirdropFacet",
            "label": "tokenAddress",
            "offset": 1,
            "slot": "20",
            "type": "t_address"
          }
        ],
        "numberOfBytes": "672"
      },
      "t_uint256": {
        "encoding": "inplace",
        "label": "uint256",
        "numberOfBytes": "32"
      }
    }
  }
}