{
  "address": "0x3a423A948A7768B0451a4A95623EbB324a2A7854",
  "abi": [
    {
      "anonymous": false,
      "inputs": [
        {
          "indexed": false,
          "internalType": "uint256",
          "name": "tokenSaleId",
          "type": "uint256"
        },
        {
          "indexed": false,
          "internalType": "uint256",
          "name": "drop",
          "type": "uint256"
        }
      ],
      "name": "AirdropAdded",
      "type": "event"
    },
    {
      "anonymous": false,
      "inputs": [
        {
          "indexed": true,
          "internalType": "uint256",
          "name": "airdropId",
          "type": "uint256"
        },
        {
          "components": [
            {
              "internalType": "bool",
              "name": "whitelistOnly",
              "type": "bool"
            },
            {
              "internalType": "uint256",
              "name": "whitelistId",
              "type": "uint256"
            },
            {
              "internalType": "bytes32",
              "name": "whitelistHash",
              "type": "bytes32"
            },
            {
              "internalType": "uint256",
              "name": "maxQuantity",
              "type": "uint256"
            },
            {
              "internalType": "uint256",
              "name": "maxQuantityPerSale",
              "type": "uint256"
            },
            {
              "internalType": "uint256",
              "name": "minQuantityPerSale",
              "type": "uint256"
            },
            {
              "internalType": "uint256",
              "name": "maxQuantityPerAccount",
              "type": "uint256"
            },
            {
              "internalType": "uint256",
              "name": "quantitySold",
              "type": "uint256"
            },
            {
              "internalType": "uint256",
              "name": "startTime",
              "type": "uint256"
            },
            {
              "internalType": "uint256",
              "name": "endTime",
              "type": "uint256"
            },
            {
              "components": [
                {
                  "internalType": "uint256",
                  "name": "price",
                  "type": "uint256"
                },
                {
                  "internalType": "enum ITokenPrice.PriceModifier",
                  "name": "priceModifier",
                  "type": "uint8"
                },
                {
                  "internalType": "uint256",
                  "name": "priceModifierFactor",
                  "type": "uint256"
                },
                {
                  "internalType": "uint256",
                  "name": "maxPrice",
                  "type": "uint256"
                }
              ],
              "internalType": "struct ITokenPrice.TokenPriceData",
              "name": "initialPrice",
              "type": "tuple"
            },
            {
              "internalType": "uint256",
              "name": "tokenHash",
              "type": "uint256"
            }
          ],
          "indexed": false,
          "internalType": "struct IAirdrop.AirdropSettings",
          "name": "airdrop",
          "type": "tuple"
        }
      ],
      "name": "AirdropLaunched",
      "type": "event"
    },
    {
      "anonymous": false,
      "inputs": [
        {
          "indexed": true,
          "internalType": "uint256",
          "name": "airdropId",
          "type": "uint256"
        },
        {
          "indexed": true,
          "internalType": "address",
          "name": "beneficiary",
          "type": "address"
        },
        {
          "indexed": true,
          "internalType": "uint256",
          "name": "tokenHash",
          "type": "uint256"
        },
        {
          "indexed": false,
          "internalType": "bytes32[]",
          "name": "proof",
          "type": "bytes32[]"
        },
        {
          "indexed": false,
          "internalType": "uint256",
          "name": "amount",
          "type": "uint256"
        }
      ],
      "name": "AirdropRedeemed",
      "type": "event"
    },
    {
      "inputs": [
        {
          "components": [
            {
              "internalType": "bool",
              "name": "whitelistOnly",
              "type": "bool"
            },
            {
              "internalType": "uint256",
              "name": "whitelistId",
              "type": "uint256"
            },
            {
              "internalType": "bytes32",
              "name": "whitelistHash",
              "type": "bytes32"
            },
            {
              "internalType": "uint256",
              "name": "maxQuantity",
              "type": "uint256"
            },
            {
              "internalType": "uint256",
              "name": "maxQuantityPerSale",
              "type": "uint256"
            },
            {
              "internalType": "uint256",
              "name": "minQuantityPerSale",
              "type": "uint256"
            },
            {
              "internalType": "uint256",
              "name": "maxQuantityPerAccount",
              "type": "uint256"
            },
            {
              "internalType": "uint256",
              "name": "quantitySold",
              "type": "uint256"
            },
            {
              "internalType": "uint256",
              "name": "startTime",
              "type": "uint256"
            },
            {
              "internalType": "uint256",
              "name": "endTime",
              "type": "uint256"
            },
            {
              "components": [
                {
                  "internalType": "uint256",
                  "name": "price",
                  "type": "uint256"
                },
                {
                  "internalType": "enum ITokenPrice.PriceModifier",
                  "name": "priceModifier",
                  "type": "uint8"
                },
                {
                  "internalType": "uint256",
                  "name": "priceModifierFactor",
                  "type": "uint256"
                },
                {
                  "internalType": "uint256",
                  "name": "maxPrice",
                  "type": "uint256"
                }
              ],
              "internalType": "struct ITokenPrice.TokenPriceData",
              "name": "initialPrice",
              "type": "tuple"
            },
            {
              "internalType": "uint256",
              "name": "tokenHash",
              "type": "uint256"
            }
          ],
          "internalType": "struct IAirdrop.AirdropSettings",
          "name": "_airdrop",
          "type": "tuple"
        }
      ],
      "name": "addAirdrop",
      "outputs": [],
      "stateMutability": "nonpayable",
      "type": "function"
    },
    {
      "inputs": [
        {
          "internalType": "uint256",
          "name": "drop",
          "type": "uint256"
        }
      ],
      "name": "airdrop",
      "outputs": [
        {
          "components": [
            {
              "internalType": "bool",
              "name": "whitelistOnly",
              "type": "bool"
            },
            {
              "internalType": "uint256",
              "name": "whitelistId",
              "type": "uint256"
            },
            {
              "internalType": "bytes32",
              "name": "whitelistHash",
              "type": "bytes32"
            },
            {
              "internalType": "uint256",
              "name": "maxQuantity",
              "type": "uint256"
            },
            {
              "internalType": "uint256",
              "name": "maxQuantityPerSale",
              "type": "uint256"
            },
            {
              "internalType": "uint256",
              "name": "minQuantityPerSale",
              "type": "uint256"
            },
            {
              "internalType": "uint256",
              "name": "maxQuantityPerAccount",
              "type": "uint256"
            },
            {
              "internalType": "uint256",
              "name": "quantitySold",
              "type": "uint256"
            },
            {
              "internalType": "uint256",
              "name": "startTime",
              "type": "uint256"
            },
            {
              "internalType": "uint256",
              "name": "endTime",
              "type": "uint256"
            },
            {
              "components": [
                {
                  "internalType": "uint256",
                  "name": "price",
                  "type": "uint256"
                },
                {
                  "internalType": "enum ITokenPrice.PriceModifier",
                  "name": "priceModifier",
                  "type": "uint8"
                },
                {
                  "internalType": "uint256",
                  "name": "priceModifierFactor",
                  "type": "uint256"
                },
                {
                  "internalType": "uint256",
                  "name": "maxPrice",
                  "type": "uint256"
                }
              ],
              "internalType": "struct ITokenPrice.TokenPriceData",
              "name": "initialPrice",
              "type": "tuple"
            },
            {
              "internalType": "uint256",
              "name": "tokenHash",
              "type": "uint256"
            }
          ],
          "internalType": "struct IAirdrop.AirdropSettings",
          "name": "settings",
          "type": "tuple"
        }
      ],
      "stateMutability": "view",
      "type": "function"
    },
    {
      "inputs": [
        {
          "internalType": "uint256",
          "name": "drop",
          "type": "uint256"
        },
        {
          "internalType": "address",
          "name": "redeemer",
          "type": "address"
        }
      ],
      "name": "airdropRedeemed",
      "outputs": [
        {
          "internalType": "bool",
          "name": "isRedeemed",
          "type": "bool"
        }
      ],
      "stateMutability": "view",
      "type": "function"
    },
    {
      "inputs": [
        {
          "components": [
            {
              "internalType": "bool",
              "name": "whitelistOnly",
              "type": "bool"
            },
            {
              "internalType": "uint256",
              "name": "whitelistId",
              "type": "uint256"
            },
            {
              "internalType": "bytes32",
              "name": "whitelistHash",
              "type": "bytes32"
            },
            {
              "internalType": "uint256",
              "name": "maxQuantity",
              "type": "uint256"
            },
            {
              "internalType": "uint256",
              "name": "maxQuantityPerSale",
              "type": "uint256"
            },
            {
              "internalType": "uint256",
              "name": "minQuantityPerSale",
              "type": "uint256"
            },
            {
              "internalType": "uint256",
              "name": "maxQuantityPerAccount",
              "type": "uint256"
            },
            {
              "internalType": "uint256",
              "name": "quantitySold",
              "type": "uint256"
            },
            {
              "internalType": "uint256",
              "name": "startTime",
              "type": "uint256"
            },
            {
              "internalType": "uint256",
              "name": "endTime",
              "type": "uint256"
            },
            {
              "components": [
                {
                  "internalType": "uint256",
                  "name": "price",
                  "type": "uint256"
                },
                {
                  "internalType": "enum ITokenPrice.PriceModifier",
                  "name": "priceModifier",
                  "type": "uint8"
                },
                {
                  "internalType": "uint256",
                  "name": "priceModifierFactor",
                  "type": "uint256"
                },
                {
                  "internalType": "uint256",
                  "name": "maxPrice",
                  "type": "uint256"
                }
              ],
              "internalType": "struct ITokenPrice.TokenPriceData",
              "name": "initialPrice",
              "type": "tuple"
            },
            {
              "internalType": "uint256",
              "name": "tokenHash",
              "type": "uint256"
            }
          ],
          "internalType": "struct IAirdrop.AirdropSettings[]",
          "name": "settingsList",
          "type": "tuple[]"
        }
      ],
      "name": "initMerkleAirdrops",
      "outputs": [],
      "stateMutability": "nonpayable",
      "type": "function"
    },
    {
      "inputs": [
        {
          "internalType": "uint256",
          "name": "drop",
          "type": "uint256"
        },
        {
          "internalType": "uint256",
          "name": "leaf",
          "type": "uint256"
        },
        {
          "internalType": "address",
          "name": "recipient",
          "type": "address"
        },
        {
          "internalType": "uint256",
          "name": "amount",
          "type": "uint256"
        },
        {
          "internalType": "uint256",
          "name": "total",
          "type": "uint256"
        },
        {
          "internalType": "bytes32[]",
          "name": "merkleProof",
          "type": "bytes32[]"
        }
      ],
      "name": "redeemAirdrop",
      "outputs": [],
      "stateMutability": "payable",
      "type": "function"
    }
  ],
  "transactionHash": "0x8d5215c5b58d571e92dbde32cedd88f3184c5e1cef800e6eddcb65d3df6c46b9",
  "args": [],
  "numDeployments": 1,
  "solcInputHash": "af54060ac13cd822e4c3f0f7494b07aa",
  "bytecode": "0x608060405234801561001057600080fd5b50610dee806100206000396000f3fe60806040526004361061004a5760003560e01c8063378e98bb1461004f578063671b250f14610064578063868e0be21461008457806386ca9e7a146100b957806397dc4a13146100d9575b600080fd5b61006261005d366004610a62565b610106565b005b34801561007057600080fd5b5061006261007f3660046108e0565b610330565b34801561009057600080fd5b506100a461009f366004610a36565b61044a565b60405190151581526020015b60405180910390f35b3480156100c557600080fd5b506100626100d4366004610972565b61045d565b3480156100e557600080fd5b506100f96100f4366004610a1d565b6105df565b6040516100b09190610c33565b3361010f61073b565b6001600160a01b0316148061012357503033145b6101485760405162461bcd60e51b815260040161013f90610bdc565b60405180910390fd5b60008681526016602090815260408083206001600160a01b038816808552908352818420548a8552601784528285209185529252909120548161018b578361018d565b805b90508061019a8684610d1c565b11156101f65760405162461bcd60e51b815260206004820152602560248201527f596f75206861766520616c72656164792072656465656d6564207468697320616044820152641b5bdd5b9d60da1b606482015260840161013f565b60008881526017602090815260408083206001600160a01b038a168085529083528184208590558b8452601683528184209084529091528120805487929061023f908490610d1c565b90915550506000888152601360205260408082206002015490516306847ca960e31b815273e2f6D7E396B31d50dc5d11aD23c17859aDc95bB391633423e5489161029091908c908990600401610b87565b60206040518083038186803b1580156102a857600080fd5b505af41580156102bc573d6000803e3d6000fd5b505050506040513d601f19601f820116820180604052508101906102e09190610955565b9050806103255760405162461bcd60e51b815260206004820152601360248201527213595c9adb19481c1c9bdbd98819985a5b1959606a1b604482015260640161013f565b505050505050505050565b3361033961073b565b6001600160a01b0316148061034d57503033145b6103695760405162461bcd60e51b815260040161013f90610bdc565b601454156103b85760405162461bcd60e51b815260206004820152601c60248201527b105a5c991c9bdc1cc8185b1c9958591e481a5b9a5d1a585b1a5e995960221b604482015260640161013f565b806103fc5760405162461bcd60e51b8152602060048201526014602482015273139bc8185a5c991c9bdc1cc81c1c9bdd9a59195960621b604482015260640161013f565b60005b818110156104455761043383838381811061041c5761041c610d7b565b90506101e002018036038101906100d49190610972565b8061043d81610d34565b9150506103ff565b505050565b60006104568383610769565b9392505050565b3361046661073b565b6001600160a01b0316148061047a57503033145b6104965760405162461bcd60e51b815260040161013f90610bdc565b6020808201516000818152601390925260409091206001015414156104f65760405162461bcd60e51b815260206004820152601660248201527541697264726f7020616c72656164792065786973747360501b604482015260640161013f565b602080820180516000908152601383526040908190208451815490151560ff19918216178255925160018083019190915591850151600282015560608501516003808301919091556080860151600483015560a0860151600583015560c0860151600683015560e08601516007830155610100860151600883015561012086015160098301556101408601518051600a840190815595810151600b840180548998959793969294919316919084908111156105b3576105b3610d65565b02179055506040820151816002015560608201518160030155505061016082015181600e015590505050565b6105e76107b7565b60008281526013602052604090206001015482146106405760405162461bcd60e51b8152602060048201526016602482015275105a5c991c9bdc08191bd95cc81b9bdd08195e1a5cdd60521b604482015260640161013f565b600082815260136020908152604091829020825161018081018452815460ff9081161515825260018301548285015260028301548286015260038084015460608401526004840154608080850191909152600585015460a0850152600685015460c0850152600785015460e0850152600885015461010085015260098501546101208501528651908101909652600a840180548752600b85015493969495610140880195949193908501929116908111156106fd576106fd610d65565b600381111561070e5761070e610d65565b8152602001600282015481526020016003820154815250508152602001600e820154815250509050919050565b7fc8fcad8db84d3cc18b4c41d551ea0ee66dd599cde068d998e57d5e09332c1320546001600160a01b031690565b60008281526017602090815260408083206001600160a01b0385168085529083528184205486855260168452828520918552925282205481158015906107ae57508082145b95945050505050565b60405180610180016040528060001515815260200160008152602001600080191681526020016000815260200160008152602001600081526020016000815260200160008152602001600081526020016000815260200161083a604080516080810190915260008082526020820190815260200160008152602001600081525090565b8152602001600081525090565b80356001600160a01b038116811461085e57600080fd5b919050565b803561085e81610da7565b60006080828403121561088057600080fd5b604051608081016001600160401b03811182821017156108a2576108a2610d91565b604052823581529050806020830135600481106108be57600080fd5b8060208301525060408301356040820152606083013560608201525092915050565b600080602083850312156108f357600080fd5b82356001600160401b038082111561090a57600080fd5b818501915085601f83011261091e57600080fd5b81358181111561092d57600080fd5b8660206101e08302850101111561094357600080fd5b60209290920196919550909350505050565b60006020828403121561096757600080fd5b815161045681610da7565b60006101e0828403121561098557600080fd5b61098d610cc3565b61099683610863565b81526020830135602082015260408301356040820152606083013560608201526080830135608082015260a083013560a082015260c083013560c082015260e083013560e0820152610100808401358183015250610120808401358183015250610140610a058582860161086e565b908201526101c0929092013561016083015250919050565b600060208284031215610a2f57600080fd5b5035919050565b60008060408385031215610a4957600080fd5b82359150610a5960208401610847565b90509250929050565b60008060008060008060c08789031215610a7b57600080fd5b863595506020808801359550610a9360408901610847565b9450606088013593506080880135925060a08801356001600160401b0380821115610abd57600080fd5b818a0191508a601f830112610ad157600080fd5b813581811115610ae357610ae3610d91565b8060051b9150610af4848301610cec565b8181528481019084860184860187018f1015610b0f57600080fd5b600095505b83861015610b32578035835260019590950194918601918601610b14565b508096505050505050509295509295509295565b80518252602081015160048110610b6d57634e487b7160e01b600052602160045260246000fd5b602083015260408181015190830152606090810151910152565b6000606082018583526020858185015260606040850152818551808452608086019150828701935060005b81811015610bce57845183529383019391830191600101610bb2565b509098975050505050505050565b60208082526037908201527f455243313135353a206f6e6c792074686520636f6e7472616374206f776e65726040820152761031b0b71031b0b636103a3434b990333ab731ba34b7b760491b606082015260800190565b8151151581526101e081016020830151602083015260408301516040830152606083015160608301526080830151608083015260a083015160a083015260c083015160c083015260e083015160e083015261010080840151818401525061012080840151818401525061014080840151610caf82850182610b46565b50506101608301516101c083015292915050565b60405161018081016001600160401b0381118282101715610ce657610ce6610d91565b60405290565b604051601f8201601f191681016001600160401b0381118282101715610d1457610d14610d91565b604052919050565b60008219821115610d2f57610d2f610d4f565b500190565b6000600019821415610d4857610d48610d4f565b5060010190565b634e487b7160e01b600052601160045260246000fd5b634e487b7160e01b600052602160045260246000fd5b634e487b7160e01b600052603260045260246000fd5b634e487b7160e01b600052604160045260246000fd5b8015158114610db557600080fd5b5056fea2646970667358221220a6fc228adb19220cbf724f291c6490c0e124d90d8eddb50cb2318e7b0912f5e964736f6c63430008060033",
  "deployedBytecode": "0x60806040526004361061004a5760003560e01c8063378e98bb1461004f578063671b250f14610064578063868e0be21461008457806386ca9e7a146100b957806397dc4a13146100d9575b600080fd5b61006261005d366004610a62565b610106565b005b34801561007057600080fd5b5061006261007f3660046108e0565b610330565b34801561009057600080fd5b506100a461009f366004610a36565b61044a565b60405190151581526020015b60405180910390f35b3480156100c557600080fd5b506100626100d4366004610972565b61045d565b3480156100e557600080fd5b506100f96100f4366004610a1d565b6105df565b6040516100b09190610c33565b3361010f61073b565b6001600160a01b0316148061012357503033145b6101485760405162461bcd60e51b815260040161013f90610bdc565b60405180910390fd5b60008681526016602090815260408083206001600160a01b038816808552908352818420548a8552601784528285209185529252909120548161018b578361018d565b805b90508061019a8684610d1c565b11156101f65760405162461bcd60e51b815260206004820152602560248201527f596f75206861766520616c72656164792072656465656d6564207468697320616044820152641b5bdd5b9d60da1b606482015260840161013f565b60008881526017602090815260408083206001600160a01b038a168085529083528184208590558b8452601683528184209084529091528120805487929061023f908490610d1c565b90915550506000888152601360205260408082206002015490516306847ca960e31b815273__$860624903cbc2e721b1f7f70307ce6b5fe$__91633423e5489161029091908c908990600401610b87565b60206040518083038186803b1580156102a857600080fd5b505af41580156102bc573d6000803e3d6000fd5b505050506040513d601f19601f820116820180604052508101906102e09190610955565b9050806103255760405162461bcd60e51b815260206004820152601360248201527213595c9adb19481c1c9bdbd98819985a5b1959606a1b604482015260640161013f565b505050505050505050565b3361033961073b565b6001600160a01b0316148061034d57503033145b6103695760405162461bcd60e51b815260040161013f90610bdc565b601454156103b85760405162461bcd60e51b815260206004820152601c60248201527b105a5c991c9bdc1cc8185b1c9958591e481a5b9a5d1a585b1a5e995960221b604482015260640161013f565b806103fc5760405162461bcd60e51b8152602060048201526014602482015273139bc8185a5c991c9bdc1cc81c1c9bdd9a59195960621b604482015260640161013f565b60005b818110156104455761043383838381811061041c5761041c610d7b565b90506101e002018036038101906100d49190610972565b8061043d81610d34565b9150506103ff565b505050565b60006104568383610769565b9392505050565b3361046661073b565b6001600160a01b0316148061047a57503033145b6104965760405162461bcd60e51b815260040161013f90610bdc565b6020808201516000818152601390925260409091206001015414156104f65760405162461bcd60e51b815260206004820152601660248201527541697264726f7020616c72656164792065786973747360501b604482015260640161013f565b602080820180516000908152601383526040908190208451815490151560ff19918216178255925160018083019190915591850151600282015560608501516003808301919091556080860151600483015560a0860151600583015560c0860151600683015560e08601516007830155610100860151600883015561012086015160098301556101408601518051600a840190815595810151600b840180548998959793969294919316919084908111156105b3576105b3610d65565b02179055506040820151816002015560608201518160030155505061016082015181600e015590505050565b6105e76107b7565b60008281526013602052604090206001015482146106405760405162461bcd60e51b8152602060048201526016602482015275105a5c991c9bdc08191bd95cc81b9bdd08195e1a5cdd60521b604482015260640161013f565b600082815260136020908152604091829020825161018081018452815460ff9081161515825260018301548285015260028301548286015260038084015460608401526004840154608080850191909152600585015460a0850152600685015460c0850152600785015460e0850152600885015461010085015260098501546101208501528651908101909652600a840180548752600b85015493969495610140880195949193908501929116908111156106fd576106fd610d65565b600381111561070e5761070e610d65565b8152602001600282015481526020016003820154815250508152602001600e820154815250509050919050565b7fc8fcad8db84d3cc18b4c41d551ea0ee66dd599cde068d998e57d5e09332c1320546001600160a01b031690565b60008281526017602090815260408083206001600160a01b0385168085529083528184205486855260168452828520918552925282205481158015906107ae57508082145b95945050505050565b60405180610180016040528060001515815260200160008152602001600080191681526020016000815260200160008152602001600081526020016000815260200160008152602001600081526020016000815260200161083a604080516080810190915260008082526020820190815260200160008152602001600081525090565b8152602001600081525090565b80356001600160a01b038116811461085e57600080fd5b919050565b803561085e81610da7565b60006080828403121561088057600080fd5b604051608081016001600160401b03811182821017156108a2576108a2610d91565b604052823581529050806020830135600481106108be57600080fd5b8060208301525060408301356040820152606083013560608201525092915050565b600080602083850312156108f357600080fd5b82356001600160401b038082111561090a57600080fd5b818501915085601f83011261091e57600080fd5b81358181111561092d57600080fd5b8660206101e08302850101111561094357600080fd5b60209290920196919550909350505050565b60006020828403121561096757600080fd5b815161045681610da7565b60006101e0828403121561098557600080fd5b61098d610cc3565b61099683610863565b81526020830135602082015260408301356040820152606083013560608201526080830135608082015260a083013560a082015260c083013560c082015260e083013560e0820152610100808401358183015250610120808401358183015250610140610a058582860161086e565b908201526101c0929092013561016083015250919050565b600060208284031215610a2f57600080fd5b5035919050565b60008060408385031215610a4957600080fd5b82359150610a5960208401610847565b90509250929050565b60008060008060008060c08789031215610a7b57600080fd5b863595506020808801359550610a9360408901610847565b9450606088013593506080880135925060a08801356001600160401b0380821115610abd57600080fd5b818a0191508a601f830112610ad157600080fd5b813581811115610ae357610ae3610d91565b8060051b9150610af4848301610cec565b8181528481019084860184860187018f1015610b0f57600080fd5b600095505b83861015610b32578035835260019590950194918601918601610b14565b508096505050505050509295509295509295565b80518252602081015160048110610b6d57634e487b7160e01b600052602160045260246000fd5b602083015260408181015190830152606090810151910152565b6000606082018583526020858185015260606040850152818551808452608086019150828701935060005b81811015610bce57845183529383019391830191600101610bb2565b509098975050505050505050565b60208082526037908201527f455243313135353a206f6e6c792074686520636f6e7472616374206f776e65726040820152761031b0b71031b0b636103a3434b990333ab731ba34b7b760491b606082015260800190565b8151151581526101e081016020830151602083015260408301516040830152606083015160608301526080830151608083015260a083015160a083015260c083015160c083015260e083015160e083015261010080840151818401525061012080840151818401525061014080840151610caf82850182610b46565b50506101608301516101c083015292915050565b60405161018081016001600160401b0381118282101715610ce657610ce6610d91565b60405290565b604051601f8201601f191681016001600160401b0381118282101715610d1457610d14610d91565b604052919050565b60008219821115610d2f57610d2f610d4f565b500190565b6000600019821415610d4857610d48610d4f565b5060010190565b634e487b7160e01b600052601160045260246000fd5b634e487b7160e01b600052602160045260246000fd5b634e487b7160e01b600052603260045260246000fd5b634e487b7160e01b600052604160045260246000fd5b8015158114610db557600080fd5b5056fea2646970667358221220a6fc228adb19220cbf724f291c6490c0e124d90d8eddb50cb2318e7b0912f5e964736f6c63430008060033",
  "libraries": {
    "AddressSet": "0xf88EB844922B1ab0e153cF9E9bEefecc9512DE06",
    "UInt256Set": "0xCc995d7a8c7c499128cB34Ef0dA290F5f4f4EE71",
    "LibAppStorage": "0x36DFFA53Be73EC4DC419d32142dce5577DbBe7DA",
    "LibDiamond": "0xd77fa05d7Fba908919b3A4b9E41Cc62A1A7F728D",
    "MerkleProof": "0xe2f6D7E396B31d50dc5d11aD23c17859aDc95bB3"
  },
  "devdoc": {
    "kind": "dev",
    "methods": {
      "addAirdrop((bool,uint256,bytes32,uint256,uint256,uint256,uint256,uint256,uint256,uint256,(uint256,uint8,uint256,uint256),uint256))": {
        "params": {
          "_airdrop": "the id of the airdrop"
        }
      },
      "airdrop(uint256)": {
        "returns": {
          "settings": "the token sale settings"
        }
      },
      "airdropRedeemed(uint256,address)": {
        "params": {
          "drop": "the id of the airdrop",
          "redeemer": "the merkle proof"
        },
        "returns": {
          "isRedeemed": "the amount of tokens redeemed"
        }
      },
      "redeemAirdrop(uint256,uint256,address,uint256,uint256,bytes32[])": {
        "params": {
          "amount": "tje amount of tokens to redeem",
          "drop": "the airdrop id",
          "leaf": "the index of the token in the airdrop",
          "merkleProof": "the merkle proof of the token",
          "recipient": "the beneficiary of the tokens"
        }
      }
    },
    "version": 1
  },
  "userdoc": {
    "kind": "user",
    "methods": {
      "addAirdrop((bool,uint256,bytes32,uint256,uint256,uint256,uint256,uint256,uint256,uint256,(uint256,uint8,uint256,uint256),uint256))": {
        "notice": "add a new airdrop"
      },
      "airdrop(uint256)": {
        "notice": "Get the token sale settings"
      },
      "airdropRedeemed(uint256,address)": {
        "notice": "airdrops check to see if proof is redeemed"
      },
      "redeemAirdrop(uint256,uint256,address,uint256,uint256,bytes32[])": {
        "notice": "redeem tokens for airdrop"
      }
    },
    "version": 1
  },
  "storageLayout": {
    "storage": [
      {
        "astId": 2452,
        "contract": "contracts/facets/MerkleAirdropFacet.sol:MerkleAirdropFacet",
        "label": "s",
        "offset": 0,
        "slot": "0",
        "type": "t_struct(AppStorage)2440_storage"
      }
    ],
    "types": {
      "t_address": {
        "encoding": "inplace",
        "label": "address",
        "numberOfBytes": "20"
      },
      "t_address_payable": {
        "encoding": "inplace",
        "label": "address payable",
        "numberOfBytes": "20"
      },
      "t_array(t_string_storage)dyn_storage": {
        "base": "t_string_storage",
        "encoding": "dynamic_array",
        "label": "string[]",
        "numberOfBytes": "32"
      },
      "t_array(t_struct(ForgeItemRequirement)6272_storage)dyn_storage": {
        "base": "t_struct(ForgeItemRequirement)6272_storage",
        "encoding": "dynamic_array",
        "label": "struct ForgeItemRequirement[]",
        "numberOfBytes": "32"
      },
      "t_array(t_struct(Requirement)6784_storage)dyn_storage": {
        "base": "t_struct(Requirement)6784_storage",
        "encoding": "dynamic_array",
        "label": "struct IRequirement.Requirement[]",
        "numberOfBytes": "32"
      },
      "t_array(t_struct(Token)6891_storage)dyn_storage": {
        "base": "t_struct(Token)6891_storage",
        "encoding": "dynamic_array",
        "label": "struct IToken.Token[]",
        "numberOfBytes": "32"
      },
      "t_array(t_uint256)dyn_storage": {
        "base": "t_uint256",
        "encoding": "dynamic_array",
        "label": "uint256[]",
        "numberOfBytes": "32"
      },
      "t_bool": {
        "encoding": "inplace",
        "label": "bool",
        "numberOfBytes": "1"
      },
      "t_bytes32": {
        "encoding": "inplace",
        "label": "bytes32",
        "numberOfBytes": "32"
      },
      "t_enum(PriceModifier)7083": {
        "encoding": "inplace",
        "label": "enum ITokenPrice.PriceModifier",
        "numberOfBytes": "1"
      },
      "t_enum(TokenSourceType)6942": {
        "encoding": "inplace",
        "label": "enum IToken.TokenSourceType",
        "numberOfBytes": "1"
      },
      "t_mapping(t_address,t_bool)": {
        "encoding": "mapping",
        "key": "t_address",
        "label": "mapping(address => bool)",
        "numberOfBytes": "32",
        "value": "t_bool"
      },
      "t_mapping(t_address,t_mapping(t_address,t_bool))": {
        "encoding": "mapping",
        "key": "t_address",
        "label": "mapping(address => mapping(address => bool))",
        "numberOfBytes": "32",
        "value": "t_mapping(t_address,t_bool)"
      },
      "t_mapping(t_address,t_mapping(t_uint256,t_uint256))": {
        "encoding": "mapping",
        "key": "t_address",
        "label": "mapping(address => mapping(uint256 => uint256))",
        "numberOfBytes": "32",
        "value": "t_mapping(t_uint256,t_uint256)"
      },
      "t_mapping(t_address,t_struct(AddressData)6187_storage)": {
        "encoding": "mapping",
        "key": "t_address",
        "label": "mapping(address => struct IERC721A.AddressData)",
        "numberOfBytes": "32",
        "value": "t_struct(AddressData)6187_storage"
      },
      "t_mapping(t_address,t_struct(FractionalizedTokenData)2306_storage)": {
        "encoding": "mapping",
        "key": "t_address",
        "label": "mapping(address => struct FractionalizedTokenData)",
        "numberOfBytes": "32",
        "value": "t_struct(FractionalizedTokenData)2306_storage"
      },
      "t_mapping(t_address,t_struct(TokenSaleEntry)7125_storage)": {
        "encoding": "mapping",
        "key": "t_address",
        "label": "mapping(address => struct ITokenSale.TokenSaleEntry)",
        "numberOfBytes": "32",
        "value": "t_struct(TokenSaleEntry)7125_storage"
      },
      "t_mapping(t_address,t_uint256)": {
        "encoding": "mapping",
        "key": "t_address",
        "label": "mapping(address => uint256)",
        "numberOfBytes": "32",
        "value": "t_uint256"
      },
      "t_mapping(t_string_memory_ptr,t_uint256)": {
        "encoding": "mapping",
        "key": "t_string_memory_ptr",
        "label": "mapping(string => uint256)",
        "numberOfBytes": "32",
        "value": "t_uint256"
      },
      "t_mapping(t_uint256,t_address)": {
        "encoding": "mapping",
        "key": "t_uint256",
        "label": "mapping(uint256 => address)",
        "numberOfBytes": "32",
        "value": "t_address"
      },
      "t_mapping(t_uint256,t_array(t_struct(Requirement)6784_storage)dyn_storage)": {
        "encoding": "mapping",
        "key": "t_uint256",
        "label": "mapping(uint256 => struct IRequirement.Requirement[])",
        "numberOfBytes": "32",
        "value": "t_array(t_struct(Requirement)6784_storage)dyn_storage"
      },
      "t_mapping(t_uint256,t_array(t_struct(Token)6891_storage)dyn_storage)": {
        "encoding": "mapping",
        "key": "t_uint256",
        "label": "mapping(uint256 => struct IToken.Token[])",
        "numberOfBytes": "32",
        "value": "t_array(t_struct(Token)6891_storage)dyn_storage"
      },
      "t_mapping(t_uint256,t_bool)": {
        "encoding": "mapping",
        "key": "t_uint256",
        "label": "mapping(uint256 => bool)",
        "numberOfBytes": "32",
        "value": "t_bool"
      },
      "t_mapping(t_uint256,t_mapping(t_address,t_uint256))": {
        "encoding": "mapping",
        "key": "t_uint256",
        "label": "mapping(uint256 => mapping(address => uint256))",
        "numberOfBytes": "32",
        "value": "t_mapping(t_address,t_uint256)"
      },
      "t_mapping(t_uint256,t_mapping(t_string_memory_ptr,t_uint256))": {
        "encoding": "mapping",
        "key": "t_uint256",
        "label": "mapping(uint256 => mapping(string => uint256))",
        "numberOfBytes": "32",
        "value": "t_mapping(t_string_memory_ptr,t_uint256)"
      },
      "t_mapping(t_uint256,t_mapping(t_uint256,t_struct(ForgeItemDefinition)6293_storage))": {
        "encoding": "mapping",
        "key": "t_uint256",
        "label": "mapping(uint256 => mapping(uint256 => struct ForgeItemDefinition))",
        "numberOfBytes": "32",
        "value": "t_mapping(t_uint256,t_struct(ForgeItemDefinition)6293_storage)"
      },
      "t_mapping(t_uint256,t_mapping(t_uint256,t_uint256))": {
        "encoding": "mapping",
        "key": "t_uint256",
        "label": "mapping(uint256 => mapping(uint256 => uint256))",
        "numberOfBytes": "32",
        "value": "t_mapping(t_uint256,t_uint256)"
      },
      "t_mapping(t_uint256,t_struct(AirdropSettings)5195_storage)": {
        "encoding": "mapping",
        "key": "t_uint256",
        "label": "mapping(uint256 => struct IAirdrop.AirdropSettings)",
        "numberOfBytes": "32",
        "value": "t_struct(AirdropSettings)5195_storage"
      },
      "t_mapping(t_uint256,t_struct(Claim)5386_storage)": {
        "encoding": "mapping",
        "key": "t_uint256",
        "label": "mapping(uint256 => struct IClaim.Claim)",
        "numberOfBytes": "32",
        "value": "t_struct(Claim)5386_storage"
      },
      "t_mapping(t_uint256,t_struct(ForgeDefinition)6265_storage)": {
        "encoding": "mapping",
        "key": "t_uint256",
        "label": "mapping(uint256 => struct ForgeDefinition)",
        "numberOfBytes": "32",
        "value": "t_struct(ForgeDefinition)6265_storage"
      },
      "t_mapping(t_uint256,t_struct(ForgeItemDefinition)6293_storage)": {
        "encoding": "mapping",
        "key": "t_uint256",
        "label": "mapping(uint256 => struct ForgeItemDefinition)",
        "numberOfBytes": "32",
        "value": "t_struct(ForgeItemDefinition)6293_storage"
      },
      "t_mapping(t_uint256,t_struct(GemPoolStruct)6489_storage)": {
        "encoding": "mapping",
        "key": "t_uint256",
        "label": "mapping(uint256 => struct IGemPool.GemPoolStruct)",
        "numberOfBytes": "32",
        "value": "t_struct(GemPoolStruct)6489_storage"
      },
      "t_mapping(t_uint256,t_struct(MarketItem)6753_storage)": {
        "encoding": "mapping",
        "key": "t_uint256",
        "label": "mapping(uint256 => struct IMarketplace.MarketItem)",
        "numberOfBytes": "32",
        "value": "t_struct(MarketItem)6753_storage"
      },
      "t_mapping(t_uint256,t_struct(Set)8943_storage)": {
        "encoding": "mapping",
        "key": "t_uint256",
        "label": "mapping(uint256 => struct UInt256Set.Set)",
        "numberOfBytes": "32",
        "value": "t_struct(Set)8943_storage"
      },
      "t_mapping(t_uint256,t_struct(TokenOwnership)6178_storage)": {
        "encoding": "mapping",
        "key": "t_uint256",
        "label": "mapping(uint256 => struct IERC721A.TokenOwnership)",
        "numberOfBytes": "32",
        "value": "t_struct(TokenOwnership)6178_storage"
      },
      "t_mapping(t_uint256,t_struct(TokenSaleSettings)5293_storage)": {
        "encoding": "mapping",
        "key": "t_uint256",
        "label": "mapping(uint256 => struct IAirdropTokenSale.TokenSaleSettings)",
        "numberOfBytes": "32",
        "value": "t_struct(TokenSaleSettings)5293_storage"
      },
      "t_mapping(t_uint256,t_struct(TokenSet)6903_storage)": {
        "encoding": "mapping",
        "key": "t_uint256",
        "label": "mapping(uint256 => struct IToken.TokenSet)",
        "numberOfBytes": "32",
        "value": "t_struct(TokenSet)6903_storage"
      },
      "t_mapping(t_uint256,t_uint256)": {
        "encoding": "mapping",
        "key": "t_uint256",
        "label": "mapping(uint256 => uint256)",
        "numberOfBytes": "32",
        "value": "t_uint256"
      },
      "t_string_memory_ptr": {
        "encoding": "bytes",
        "label": "string",
        "numberOfBytes": "32"
      },
      "t_string_storage": {
        "encoding": "bytes",
        "label": "string",
        "numberOfBytes": "32"
      },
      "t_struct(AddressData)6187_storage": {
        "encoding": "inplace",
        "label": "struct IERC721A.AddressData",
        "members": [
          {
            "astId": 6180,
            "contract": "contracts/facets/MerkleAirdropFacet.sol:MerkleAirdropFacet",
            "label": "balance",
            "offset": 0,
            "slot": "0",
            "type": "t_uint64"
          },
          {
            "astId": 6182,
            "contract": "contracts/facets/MerkleAirdropFacet.sol:MerkleAirdropFacet",
            "label": "numberMinted",
            "offset": 8,
            "slot": "0",
            "type": "t_uint64"
          },
          {
            "astId": 6184,
            "contract": "contracts/facets/MerkleAirdropFacet.sol:MerkleAirdropFacet",
            "label": "numberBurned",
            "offset": 16,
            "slot": "0",
            "type": "t_uint64"
          },
          {
            "astId": 6186,
            "contract": "contracts/facets/MerkleAirdropFacet.sol:MerkleAirdropFacet",
            "label": "aux",
            "offset": 24,
            "slot": "0",
            "type": "t_uint64"
          }
        ],
        "numberOfBytes": "32"
      },
      "t_struct(AirdropSettings)5195_storage": {
        "encoding": "inplace",
        "label": "struct IAirdrop.AirdropSettings",
        "members": [
          {
            "astId": 5171,
            "contract": "contracts/facets/MerkleAirdropFacet.sol:MerkleAirdropFacet",
            "label": "whitelistOnly",
            "offset": 0,
            "slot": "0",
            "type": "t_bool"
          },
          {
            "astId": 5173,
            "contract": "contracts/facets/MerkleAirdropFacet.sol:MerkleAirdropFacet",
            "label": "whitelistId",
            "offset": 0,
            "slot": "1",
            "type": "t_uint256"
          },
          {
            "astId": 5175,
            "contract": "contracts/facets/MerkleAirdropFacet.sol:MerkleAirdropFacet",
            "label": "whitelistHash",
            "offset": 0,
            "slot": "2",
            "type": "t_bytes32"
          },
          {
            "astId": 5177,
            "contract": "contracts/facets/MerkleAirdropFacet.sol:MerkleAirdropFacet",
            "label": "maxQuantity",
            "offset": 0,
            "slot": "3",
            "type": "t_uint256"
          },
          {
            "astId": 5179,
            "contract": "contracts/facets/MerkleAirdropFacet.sol:MerkleAirdropFacet",
            "label": "maxQuantityPerSale",
            "offset": 0,
            "slot": "4",
            "type": "t_uint256"
          },
          {
            "astId": 5181,
            "contract": "contracts/facets/MerkleAirdropFacet.sol:MerkleAirdropFacet",
            "label": "minQuantityPerSale",
            "offset": 0,
            "slot": "5",
            "type": "t_uint256"
          },
          {
            "astId": 5183,
            "contract": "contracts/facets/MerkleAirdropFacet.sol:MerkleAirdropFacet",
            "label": "maxQuantityPerAccount",
            "offset": 0,
            "slot": "6",
            "type": "t_uint256"
          },
          {
            "astId": 5185,
            "contract": "contracts/facets/MerkleAirdropFacet.sol:MerkleAirdropFacet",
            "label": "quantitySold",
            "offset": 0,
            "slot": "7",
            "type": "t_uint256"
          },
          {
            "astId": 5187,
            "contract": "contracts/facets/MerkleAirdropFacet.sol:MerkleAirdropFacet",
            "label": "startTime",
            "offset": 0,
            "slot": "8",
            "type": "t_uint256"
          },
          {
            "astId": 5189,
            "contract": "contracts/facets/MerkleAirdropFacet.sol:MerkleAirdropFacet",
            "label": "endTime",
            "offset": 0,
            "slot": "9",
            "type": "t_uint256"
          },
          {
            "astId": 5192,
            "contract": "contracts/facets/MerkleAirdropFacet.sol:MerkleAirdropFacet",
            "label": "initialPrice",
            "offset": 0,
            "slot": "10",
            "type": "t_struct(TokenPriceData)7093_storage"
          },
          {
            "astId": 5194,
            "contract": "contracts/facets/MerkleAirdropFacet.sol:MerkleAirdropFacet",
            "label": "tokenHash",
            "offset": 0,
            "slot": "14",
            "type": "t_uint256"
          }
        ],
        "numberOfBytes": "480"
      },
      "t_struct(AirdropTokenSaleStorage)2351_storage": {
        "encoding": "inplace",
        "label": "struct AirdropTokenSaleStorage",
        "members": [
          {
            "astId": 2327,
            "contract": "contracts/facets/MerkleAirdropFacet.sol:MerkleAirdropFacet",
            "label": "tsnonce",
            "offset": 0,
            "slot": "0",
            "type": "t_uint256"
          },
          {
            "astId": 2331,
            "contract": "contracts/facets/MerkleAirdropFacet.sol:MerkleAirdropFacet",
            "label": "nonces",
            "offset": 0,
            "slot": "1",
            "type": "t_mapping(t_uint256,t_uint256)"
          },
          {
            "astId": 2336,
            "contract": "contracts/facets/MerkleAirdropFacet.sol:MerkleAirdropFacet",
            "label": "_tokenSales",
            "offset": 0,
            "slot": "2",
            "type": "t_mapping(t_uint256,t_struct(TokenSaleSettings)5293_storage)"
          },
          {
            "astId": 2340,
            "contract": "contracts/facets/MerkleAirdropFacet.sol:MerkleAirdropFacet",
            "label": "tokenSaleOpen",
            "offset": 0,
            "slot": "3",
            "type": "t_mapping(t_uint256,t_bool)"
          },
          {
            "astId": 2346,
            "contract": "contracts/facets/MerkleAirdropFacet.sol:MerkleAirdropFacet",
            "label": "purchased",
            "offset": 0,
            "slot": "4",
            "type": "t_mapping(t_uint256,t_mapping(t_address,t_uint256))"
          },
          {
            "astId": 2350,
            "contract": "contracts/facets/MerkleAirdropFacet.sol:MerkleAirdropFacet",
            "label": "totalPurchased",
            "offset": 0,
            "slot": "5",
            "type": "t_mapping(t_uint256,t_uint256)"
          }
        ],
        "numberOfBytes": "192"
      },
      "t_struct(AppStorage)2440_storage": {
        "encoding": "inplace",
        "label": "struct AppStorage",
        "members": [
          {
            "astId": 2394,
            "contract": "contracts/facets/MerkleAirdropFacet.sol:MerkleAirdropFacet",
            "label": "marketplaceStorage",
            "offset": 0,
            "slot": "0",
            "type": "t_struct(MarketplaceStorage)2284_storage"
          },
          {
            "astId": 2397,
            "contract": "contracts/facets/MerkleAirdropFacet.sol:MerkleAirdropFacet",
            "label": "tokenMinterStorage",
            "offset": 0,
            "slot": "4",
            "type": "t_struct(TokenMinterStorage)2293_storage"
          },
          {
            "astId": 2400,
            "contract": "contracts/facets/MerkleAirdropFacet.sol:MerkleAirdropFacet",
            "label": "erc1155Storage",
            "offset": 0,
            "slot": "7",
            "type": "t_struct(ERC1155Storage)2205_storage"
          },
          {
            "astId": 2403,
            "contract": "contracts/facets/MerkleAirdropFacet.sol:MerkleAirdropFacet",
            "label": "fractionalizerStorage",
            "offset": 0,
            "slot": "15",
            "type": "t_struct(FractionalizerStorage)2314_storage"
          },
          {
            "astId": 2406,
            "contract": "contracts/facets/MerkleAirdropFacet.sol:MerkleAirdropFacet",
            "label": "marketUtilsStorage",
            "offset": 0,
            "slot": "17",
            "type": "t_struct(MarketUtilsStorage)2382_storage"
          },
          {
            "astId": 2409,
            "contract": "contracts/facets/MerkleAirdropFacet.sol:MerkleAirdropFacet",
            "label": "tokenSaleStorage",
            "offset": 0,
            "slot": "18",
            "type": "t_struct(TokenSaleStorage)2320_storage"
          },
          {
            "astId": 2412,
            "contract": "contracts/facets/MerkleAirdropFacet.sol:MerkleAirdropFacet",
            "label": "merkleAirdropStorage",
            "offset": 0,
            "slot": "19",
            "type": "t_struct(MerkleAirdropStorage)2377_storage"
          },
          {
            "astId": 2415,
            "contract": "contracts/facets/MerkleAirdropFacet.sol:MerkleAirdropFacet",
            "label": "erc721AStorage",
            "offset": 0,
            "slot": "24",
            "type": "t_struct(ERC721AStorage)2234_storage"
          },
          {
            "astId": 2418,
            "contract": "contracts/facets/MerkleAirdropFacet.sol:MerkleAirdropFacet",
            "label": "erc2981Storage",
            "offset": 0,
            "slot": "32",
            "type": "t_struct(ERC2981Storage)2243_storage"
          },
          {
            "astId": 2421,
            "contract": "contracts/facets/MerkleAirdropFacet.sol:MerkleAirdropFacet",
            "label": "attributeMutationPoolStorage",
            "offset": 0,
            "slot": "34",
            "type": "t_struct(AttributeMutationPoolStorage)2258_storage"
          },
          {
            "astId": 2424,
            "contract": "contracts/facets/MerkleAirdropFacet.sol:MerkleAirdropFacet",
            "label": "tokenAttributeStorage",
            "offset": 0,
            "slot": "39",
            "type": "t_struct(TokenAttributeStorage)2265_storage"
          },
          {
            "astId": 2427,
            "contract": "contracts/facets/MerkleAirdropFacet.sol:MerkleAirdropFacet",
            "label": "airdropTokenSaleStorage",
            "offset": 0,
            "slot": "40",
            "type": "t_struct(AirdropTokenSaleStorage)2351_storage"
          },
          {
            "astId": 2430,
            "contract": "contracts/facets/MerkleAirdropFacet.sol:MerkleAirdropFacet",
            "label": "feeManagerStorage",
            "offset": 0,
            "slot": "46",
            "type": "t_struct(FeeManagerStorage)2325_storage"
          },
          {
            "astId": 2433,
            "contract": "contracts/facets/MerkleAirdropFacet.sol:MerkleAirdropFacet",
            "label": "bankStorage",
            "offset": 0,
            "slot": "47",
            "type": "t_struct(BankStorage)2391_storage"
          },
          {
            "astId": 2436,
            "contract": "contracts/facets/MerkleAirdropFacet.sol:MerkleAirdropFacet",
            "label": "forgeStorage",
            "offset": 0,
            "slot": "49",
            "type": "t_struct(ForgeStorage)2176_storage"
          },
          {
            "astId": 2439,
            "contract": "contracts/facets/MerkleAirdropFacet.sol:MerkleAirdropFacet",
            "label": "gemPoolStorage",
            "offset": 0,
            "slot": "57",
            "type": "t_struct(GemPoolStorage)2146_storage"
          }
        ],
        "numberOfBytes": "2272"
      },
      "t_struct(AttributeMutationPoolStorage)2258_storage": {
        "encoding": "inplace",
        "label": "struct AttributeMutationPoolStorage",
        "members": [
          {
            "astId": 2245,
            "contract": "contracts/facets/MerkleAirdropFacet.sol:MerkleAirdropFacet",
            "label": "_attributeKey",
            "offset": 0,
            "slot": "0",
            "type": "t_string_storage"
          },
          {
            "astId": 2247,
            "contract": "contracts/facets/MerkleAirdropFacet.sol:MerkleAirdropFacet",
            "label": "_attributeValuePerPeriod",
            "offset": 0,
            "slot": "1",
            "type": "t_uint256"
          },
          {
            "astId": 2249,
            "contract": "contracts/facets/MerkleAirdropFacet.sol:MerkleAirdropFacet",
            "label": "_attributeBlocksPerPeriod",
            "offset": 0,
            "slot": "2",
            "type": "t_uint256"
          },
          {
            "astId": 2251,
            "contract": "contracts/facets/MerkleAirdropFacet.sol:MerkleAirdropFacet",
            "label": "_totalValueThreshold",
            "offset": 0,
            "slot": "3",
            "type": "t_uint256"
          },
          {
            "astId": 2257,
            "contract": "contracts/facets/MerkleAirdropFacet.sol:MerkleAirdropFacet",
            "label": "_tokenDepositHeight",
            "offset": 0,
            "slot": "4",
            "type": "t_mapping(t_address,t_mapping(t_uint256,t_uint256))"
          }
        ],
        "numberOfBytes": "160"
      },
      "t_struct(BankStorage)2391_storage": {
        "encoding": "inplace",
        "label": "struct BankStorage",
        "members": [
          {
            "astId": 2384,
            "contract": "contracts/facets/MerkleAirdropFacet.sol:MerkleAirdropFacet",
            "label": "token",
            "offset": 0,
            "slot": "0",
            "type": "t_address"
          },
          {
            "astId": 2390,
            "contract": "contracts/facets/MerkleAirdropFacet.sol:MerkleAirdropFacet",
            "label": "balances",
            "offset": 0,
            "slot": "1",
            "type": "t_mapping(t_address,t_mapping(t_uint256,t_uint256))"
          }
        ],
        "numberOfBytes": "64"
      },
      "t_struct(Claim)5386_storage": {
        "encoding": "inplace",
        "label": "struct IClaim.Claim",
        "members": [
          {
            "astId": 5361,
            "contract": "contracts/facets/MerkleAirdropFacet.sol:MerkleAirdropFacet",
            "label": "id",
            "offset": 0,
            "slot": "0",
            "type": "t_uint256"
          },
          {
            "astId": 5363,
            "contract": "contracts/facets/MerkleAirdropFacet.sol:MerkleAirdropFacet",
            "label": "poolId",
            "offset": 0,
            "slot": "1",
            "type": "t_uint256"
          },
          {
            "astId": 5365,
            "contract": "contracts/facets/MerkleAirdropFacet.sol:MerkleAirdropFacet",
            "label": "creator",
            "offset": 0,
            "slot": "2",
            "type": "t_address"
          },
          {
            "astId": 5367,
            "contract": "contracts/facets/MerkleAirdropFacet.sol:MerkleAirdropFacet",
            "label": "minter",
            "offset": 0,
            "slot": "3",
            "type": "t_address"
          },
          {
            "astId": 5369,
            "contract": "contracts/facets/MerkleAirdropFacet.sol:MerkleAirdropFacet",
            "label": "depositAmount",
            "offset": 0,
            "slot": "4",
            "type": "t_uint256"
          },
          {
            "astId": 5371,
            "contract": "contracts/facets/MerkleAirdropFacet.sol:MerkleAirdropFacet",
            "label": "depositToken",
            "offset": 0,
            "slot": "5",
            "type": "t_address"
          },
          {
            "astId": 5373,
            "contract": "contracts/facets/MerkleAirdropFacet.sol:MerkleAirdropFacet",
            "label": "mintQuantity",
            "offset": 0,
            "slot": "6",
            "type": "t_uint256"
          },
          {
            "astId": 5375,
            "contract": "contracts/facets/MerkleAirdropFacet.sol:MerkleAirdropFacet",
            "label": "depositLength",
            "offset": 0,
            "slot": "7",
            "type": "t_uint256"
          },
          {
            "astId": 5377,
            "contract": "contracts/facets/MerkleAirdropFacet.sol:MerkleAirdropFacet",
            "label": "createdTime",
            "offset": 0,
            "slot": "8",
            "type": "t_uint256"
          },
          {
            "astId": 5379,
            "contract": "contracts/facets/MerkleAirdropFacet.sol:MerkleAirdropFacet",
            "label": "createdBlock",
            "offset": 0,
            "slot": "9",
            "type": "t_uint256"
          },
          {
            "astId": 5381,
            "contract": "contracts/facets/MerkleAirdropFacet.sol:MerkleAirdropFacet",
            "label": "claimedBlock",
            "offset": 0,
            "slot": "10",
            "type": "t_uint256"
          },
          {
            "astId": 5383,
            "contract": "contracts/facets/MerkleAirdropFacet.sol:MerkleAirdropFacet",
            "label": "gemHash",
            "offset": 0,
            "slot": "11",
            "type": "t_uint256"
          },
          {
            "astId": 5385,
            "contract": "contracts/facets/MerkleAirdropFacet.sol:MerkleAirdropFacet",
            "label": "feePaid",
            "offset": 0,
            "slot": "12",
            "type": "t_uint256"
          }
        ],
        "numberOfBytes": "416"
      },
      "t_struct(ERC1155Storage)2205_storage": {
        "encoding": "inplace",
        "label": "struct ERC1155Storage",
        "members": [
          {
            "astId": 2182,
            "contract": "contracts/facets/MerkleAirdropFacet.sol:MerkleAirdropFacet",
            "label": "_balances",
            "offset": 0,
            "slot": "0",
            "type": "t_mapping(t_uint256,t_mapping(t_address,t_uint256))"
          },
          {
            "astId": 2188,
            "contract": "contracts/facets/MerkleAirdropFacet.sol:MerkleAirdropFacet",
            "label": "_operatorApprovals",
            "offset": 0,
            "slot": "1",
            "type": "t_mapping(t_address,t_mapping(t_address,t_bool))"
          },
          {
            "astId": 2194,
            "contract": "contracts/facets/MerkleAirdropFacet.sol:MerkleAirdropFacet",
            "label": "_minterApprovals",
            "offset": 0,
            "slot": "2",
            "type": "t_mapping(t_address,t_mapping(t_uint256,t_uint256))"
          },
          {
            "astId": 2196,
            "contract": "contracts/facets/MerkleAirdropFacet.sol:MerkleAirdropFacet",
            "label": "_uri",
            "offset": 0,
            "slot": "3",
            "type": "t_string_storage"
          },
          {
            "astId": 2198,
            "contract": "contracts/facets/MerkleAirdropFacet.sol:MerkleAirdropFacet",
            "label": "_uriBase",
            "offset": 0,
            "slot": "4",
            "type": "t_string_storage"
          },
          {
            "astId": 2200,
            "contract": "contracts/facets/MerkleAirdropFacet.sol:MerkleAirdropFacet",
            "label": "_symbol",
            "offset": 0,
            "slot": "5",
            "type": "t_string_storage"
          },
          {
            "astId": 2202,
            "contract": "contracts/facets/MerkleAirdropFacet.sol:MerkleAirdropFacet",
            "label": "_name",
            "offset": 0,
            "slot": "6",
            "type": "t_string_storage"
          },
          {
            "astId": 2204,
            "contract": "contracts/facets/MerkleAirdropFacet.sol:MerkleAirdropFacet",
            "label": "_approvalProxy",
            "offset": 0,
            "slot": "7",
            "type": "t_address"
          }
        ],
        "numberOfBytes": "256"
      },
      "t_struct(ERC2981Storage)2243_storage": {
        "encoding": "inplace",
        "label": "struct ERC2981Storage",
        "members": [
          {
            "astId": 2238,
            "contract": "contracts/facets/MerkleAirdropFacet.sol:MerkleAirdropFacet",
            "label": "royaltyReceiversByHash",
            "offset": 0,
            "slot": "0",
            "type": "t_mapping(t_uint256,t_address)"
          },
          {
            "astId": 2242,
            "contract": "contracts/facets/MerkleAirdropFacet.sol:MerkleAirdropFacet",
            "label": "royaltyFeesByHash",
            "offset": 0,
            "slot": "1",
            "type": "t_mapping(t_uint256,t_uint256)"
          }
        ],
        "numberOfBytes": "64"
      },
      "t_struct(ERC721AStorage)2234_storage": {
        "encoding": "inplace",
        "label": "struct ERC721AStorage",
        "members": [
          {
            "astId": 2207,
            "contract": "contracts/facets/MerkleAirdropFacet.sol:MerkleAirdropFacet",
            "label": "_currentIndex",
            "offset": 0,
            "slot": "0",
            "type": "t_uint256"
          },
          {
            "astId": 2209,
            "contract": "contracts/facets/MerkleAirdropFacet.sol:MerkleAirdropFacet",
            "label": "_burnCounter",
            "offset": 0,
            "slot": "1",
            "type": "t_uint256"
          },
          {
            "astId": 2211,
            "contract": "contracts/facets/MerkleAirdropFacet.sol:MerkleAirdropFacet",
            "label": "_name",
            "offset": 0,
            "slot": "2",
            "type": "t_string_storage"
          },
          {
            "astId": 2213,
            "contract": "contracts/facets/MerkleAirdropFacet.sol:MerkleAirdropFacet",
            "label": "_symbol",
            "offset": 0,
            "slot": "3",
            "type": "t_string_storage"
          },
          {
            "astId": 2218,
            "contract": "contracts/facets/MerkleAirdropFacet.sol:MerkleAirdropFacet",
            "label": "_ownerships",
            "offset": 0,
            "slot": "4",
            "type": "t_mapping(t_uint256,t_struct(TokenOwnership)6178_storage)"
          },
          {
            "astId": 2223,
            "contract": "contracts/facets/MerkleAirdropFacet.sol:MerkleAirdropFacet",
            "label": "_addressData",
            "offset": 0,
            "slot": "5",
            "type": "t_mapping(t_address,t_struct(AddressData)6187_storage)"
          },
          {
            "astId": 2227,
            "contract": "contracts/facets/MerkleAirdropFacet.sol:MerkleAirdropFacet",
            "label": "_tokenApprovals",
            "offset": 0,
            "slot": "6",
            "type": "t_mapping(t_uint256,t_address)"
          },
          {
            "astId": 2233,
            "contract": "contracts/facets/MerkleAirdropFacet.sol:MerkleAirdropFacet",
            "label": "_operatorApprovals",
            "offset": 0,
            "slot": "7",
            "type": "t_mapping(t_address,t_mapping(t_address,t_bool))"
          }
        ],
        "numberOfBytes": "256"
      },
      "t_struct(FeeManagerStorage)2325_storage": {
        "encoding": "inplace",
        "label": "struct FeeManagerStorage",
        "members": [
          {
            "astId": 2324,
            "contract": "contracts/facets/MerkleAirdropFacet.sol:MerkleAirdropFacet",
            "label": "_fees",
            "offset": 0,
            "slot": "0",
            "type": "t_mapping(t_string_memory_ptr,t_uint256)"
          }
        ],
        "numberOfBytes": "32"
      },
      "t_struct(ForgeDefinition)6265_storage": {
        "encoding": "inplace",
        "label": "struct ForgeDefinition",
        "members": [
          {
            "astId": 6252,
            "contract": "contracts/facets/MerkleAirdropFacet.sol:MerkleAirdropFacet",
            "label": "forgeId",
            "offset": 0,
            "slot": "0",
            "type": "t_uint256"
          },
          {
            "astId": 6254,
            "contract": "contracts/facets/MerkleAirdropFacet.sol:MerkleAirdropFacet",
            "label": "name",
            "offset": 0,
            "slot": "1",
            "type": "t_string_storage"
          },
          {
            "astId": 6256,
            "contract": "contracts/facets/MerkleAirdropFacet.sol:MerkleAirdropFacet",
            "label": "symbol",
            "offset": 0,
            "slot": "2",
            "type": "t_string_storage"
          },
          {
            "astId": 6258,
            "contract": "contracts/facets/MerkleAirdropFacet.sol:MerkleAirdropFacet",
            "label": "description",
            "offset": 0,
            "slot": "3",
            "type": "t_string_storage"
          },
          {
            "astId": 6260,
            "contract": "contracts/facets/MerkleAirdropFacet.sol:MerkleAirdropFacet",
            "label": "maxForgeCount",
            "offset": 0,
            "slot": "4",
            "type": "t_uint256"
          },
          {
            "astId": 6262,
            "contract": "contracts/facets/MerkleAirdropFacet.sol:MerkleAirdropFacet",
            "label": "forgedCount",
            "offset": 0,
            "slot": "5",
            "type": "t_uint256"
          },
          {
            "astId": 6264,
            "contract": "contracts/facets/MerkleAirdropFacet.sol:MerkleAirdropFacet",
            "label": "forgeFee",
            "offset": 0,
            "slot": "6",
            "type": "t_uint256"
          }
        ],
        "numberOfBytes": "224"
      },
      "t_struct(ForgeItemDefinition)6293_storage": {
        "encoding": "inplace",
        "label": "struct ForgeItemDefinition",
        "members": [
          {
            "astId": 6274,
            "contract": "contracts/facets/MerkleAirdropFacet.sol:MerkleAirdropFacet",
            "label": "name",
            "offset": 0,
            "slot": "0",
            "type": "t_string_storage"
          },
          {
            "astId": 6276,
            "contract": "contracts/facets/MerkleAirdropFacet.sol:MerkleAirdropFacet",
            "label": "symbol",
            "offset": 0,
            "slot": "1",
            "type": "t_string_storage"
          },
          {
            "astId": 6278,
            "contract": "contracts/facets/MerkleAirdropFacet.sol:MerkleAirdropFacet",
            "label": "description",
            "offset": 0,
            "slot": "2",
            "type": "t_string_storage"
          },
          {
            "astId": 6282,
            "contract": "contracts/facets/MerkleAirdropFacet.sol:MerkleAirdropFacet",
            "label": "requirements",
            "offset": 0,
            "slot": "3",
            "type": "t_array(t_struct(ForgeItemRequirement)6272_storage)dyn_storage"
          },
          {
            "astId": 6284,
            "contract": "contracts/facets/MerkleAirdropFacet.sol:MerkleAirdropFacet",
            "label": "probability",
            "offset": 0,
            "slot": "4",
            "type": "t_uint256"
          },
          {
            "astId": 6286,
            "contract": "contracts/facets/MerkleAirdropFacet.sol:MerkleAirdropFacet",
            "label": "maxForgeCount",
            "offset": 0,
            "slot": "5",
            "type": "t_uint256"
          },
          {
            "astId": 6288,
            "contract": "contracts/facets/MerkleAirdropFacet.sol:MerkleAirdropFacet",
            "label": "forgedCount",
            "offset": 0,
            "slot": "6",
            "type": "t_uint256"
          },
          {
            "astId": 6290,
            "contract": "contracts/facets/MerkleAirdropFacet.sol:MerkleAirdropFacet",
            "label": "forgeFee",
            "offset": 0,
            "slot": "7",
            "type": "t_uint256"
          },
          {
            "astId": 6292,
            "contract": "contracts/facets/MerkleAirdropFacet.sol:MerkleAirdropFacet",
            "label": "tokenHash",
            "offset": 0,
            "slot": "8",
            "type": "t_uint256"
          }
        ],
        "numberOfBytes": "288"
      },
      "t_struct(ForgeItemRequirement)6272_storage": {
        "encoding": "inplace",
        "label": "struct ForgeItemRequirement",
        "members": [
          {
            "astId": 6267,
            "contract": "contracts/facets/MerkleAirdropFacet.sol:MerkleAirdropFacet",
            "label": "tokenAddress",
            "offset": 0,
            "slot": "0",
            "type": "t_address"
          },
          {
            "astId": 6269,
            "contract": "contracts/facets/MerkleAirdropFacet.sol:MerkleAirdropFacet",
            "label": "tokenId",
            "offset": 0,
            "slot": "1",
            "type": "t_uint256"
          },
          {
            "astId": 6271,
            "contract": "contracts/facets/MerkleAirdropFacet.sol:MerkleAirdropFacet",
            "label": "amount",
            "offset": 0,
            "slot": "2",
            "type": "t_uint256"
          }
        ],
        "numberOfBytes": "96"
      },
      "t_struct(ForgeStorage)2176_storage": {
        "encoding": "inplace",
        "label": "struct ForgeStorage",
        "members": [
          {
            "astId": 2151,
            "contract": "contracts/facets/MerkleAirdropFacet.sol:MerkleAirdropFacet",
            "label": "forges",
            "offset": 0,
            "slot": "0",
            "type": "t_mapping(t_uint256,t_struct(ForgeDefinition)6265_storage)"
          },
          {
            "astId": 2154,
            "contract": "contracts/facets/MerkleAirdropFacet.sol:MerkleAirdropFacet",
            "label": "forgeIds",
            "offset": 0,
            "slot": "1",
            "type": "t_array(t_uint256)dyn_storage"
          },
          {
            "astId": 2161,
            "contract": "contracts/facets/MerkleAirdropFacet.sol:MerkleAirdropFacet",
            "label": "forgeItems",
            "offset": 0,
            "slot": "2",
            "type": "t_mapping(t_uint256,t_mapping(t_uint256,t_struct(ForgeItemDefinition)6293_storage))"
          },
          {
            "astId": 2164,
            "contract": "contracts/facets/MerkleAirdropFacet.sol:MerkleAirdropFacet",
            "label": "forgeItemIds",
            "offset": 0,
            "slot": "3",
            "type": "t_array(t_uint256)dyn_storage"
          },
          {
            "astId": 2169,
            "contract": "contracts/facets/MerkleAirdropFacet.sol:MerkleAirdropFacet",
            "label": "forgedItemHashes",
            "offset": 0,
            "slot": "4",
            "type": "t_mapping(t_uint256,t_struct(Set)8943_storage)"
          },
          {
            "astId": 2172,
            "contract": "contracts/facets/MerkleAirdropFacet.sol:MerkleAirdropFacet",
            "label": "allforgedItemHashes",
            "offset": 0,
            "slot": "5",
            "type": "t_struct(Set)8943_storage"
          },
          {
            "astId": 2175,
            "contract": "contracts/facets/MerkleAirdropFacet.sol:MerkleAirdropFacet",
            "label": "symbols",
            "offset": 0,
            "slot": "7",
            "type": "t_array(t_string_storage)dyn_storage"
          }
        ],
        "numberOfBytes": "256"
      },
      "t_struct(FractionalizedTokenData)2306_storage": {
        "encoding": "inplace",
        "label": "struct FractionalizedTokenData",
        "members": [
          {
            "astId": 2295,
            "contract": "contracts/facets/MerkleAirdropFacet.sol:MerkleAirdropFacet",
            "label": "symbol",
            "offset": 0,
            "slot": "0",
            "type": "t_string_storage"
          },
          {
            "astId": 2297,
            "contract": "contracts/facets/MerkleAirdropFacet.sol:MerkleAirdropFacet",
            "label": "name",
            "offset": 0,
            "slot": "1",
            "type": "t_string_storage"
          },
          {
            "astId": 2299,
            "contract": "contracts/facets/MerkleAirdropFacet.sol:MerkleAirdropFacet",
            "label": "tokenAddress",
            "offset": 0,
            "slot": "2",
            "type": "t_address"
          },
          {
            "astId": 2301,
            "contract": "contracts/facets/MerkleAirdropFacet.sol:MerkleAirdropFacet",
            "label": "tokenId",
            "offset": 0,
            "slot": "3",
            "type": "t_uint256"
          },
          {
            "astId": 2303,
            "contract": "contracts/facets/MerkleAirdropFacet.sol:MerkleAirdropFacet",
            "label": "fractionalizedToken",
            "offset": 0,
            "slot": "4",
            "type": "t_address"
          },
          {
            "astId": 2305,
            "contract": "contracts/facets/MerkleAirdropFacet.sol:MerkleAirdropFacet",
            "label": "totalFractions",
            "offset": 0,
            "slot": "5",
            "type": "t_uint256"
          }
        ],
        "numberOfBytes": "192"
      },
      "t_struct(FractionalizerStorage)2314_storage": {
        "encoding": "inplace",
        "label": "struct FractionalizerStorage",
        "members": [
          {
            "astId": 2308,
            "contract": "contracts/facets/MerkleAirdropFacet.sol:MerkleAirdropFacet",
            "label": "fTokenTemplate",
            "offset": 0,
            "slot": "0",
            "type": "t_address"
          },
          {
            "astId": 2313,
            "contract": "contracts/facets/MerkleAirdropFacet.sol:MerkleAirdropFacet",
            "label": "fractionalizedTokens",
            "offset": 0,
            "slot": "1",
            "type": "t_mapping(t_address,t_struct(FractionalizedTokenData)2306_storage)"
          }
        ],
        "numberOfBytes": "64"
      },
      "t_struct(GemPoolData)6442_storage": {
        "encoding": "inplace",
        "label": "struct IGemPool.GemPoolData",
        "members": [
          {
            "astId": 6433,
            "contract": "contracts/facets/MerkleAirdropFacet.sol:MerkleAirdropFacet",
            "label": "pool",
            "offset": 0,
            "slot": "0",
            "type": "t_uint256"
          },
          {
            "astId": 6435,
            "contract": "contracts/facets/MerkleAirdropFacet.sol:MerkleAirdropFacet",
            "label": "nextGemHash",
            "offset": 0,
            "slot": "1",
            "type": "t_uint256"
          },
          {
            "astId": 6437,
            "contract": "contracts/facets/MerkleAirdropFacet.sol:MerkleAirdropFacet",
            "label": "nextGemNumber",
            "offset": 0,
            "slot": "2",
            "type": "t_uint256"
          },
          {
            "astId": 6439,
            "contract": "contracts/facets/MerkleAirdropFacet.sol:MerkleAirdropFacet",
            "label": "gemsMintedCount",
            "offset": 0,
            "slot": "3",
            "type": "t_uint256"
          },
          {
            "astId": 6441,
            "contract": "contracts/facets/MerkleAirdropFacet.sol:MerkleAirdropFacet",
            "label": "totalStakedEth",
            "offset": 0,
            "slot": "4",
            "type": "t_uint256"
          }
        ],
        "numberOfBytes": "160"
      },
      "t_struct(GemPoolSettings)6482_storage": {
        "encoding": "inplace",
        "label": "struct IGemPool.GemPoolSettings",
        "members": [
          {
            "astId": 6444,
            "contract": "contracts/facets/MerkleAirdropFacet.sol:MerkleAirdropFacet",
            "label": "token",
            "offset": 0,
            "slot": "0",
            "type": "t_address"
          },
          {
            "astId": 6447,
            "contract": "contracts/facets/MerkleAirdropFacet.sol:MerkleAirdropFacet",
            "label": "tokenSource",
            "offset": 0,
            "slot": "1",
            "type": "t_struct(TokenSource)6950_storage"
          },
          {
            "astId": 6450,
            "contract": "contracts/facets/MerkleAirdropFacet.sol:MerkleAirdropFacet",
            "label": "tokenDefinition",
            "offset": 0,
            "slot": "4",
            "type": "t_struct(TokenDefinition)6928_storage"
          },
          {
            "astId": 6453,
            "contract": "contracts/facets/MerkleAirdropFacet.sol:MerkleAirdropFacet",
            "label": "initialPrice",
            "offset": 0,
            "slot": "16",
            "type": "t_struct(TokenPriceData)7093_storage"
          },
          {
            "astId": 6455,
            "contract": "contracts/facets/MerkleAirdropFacet.sol:MerkleAirdropFacet",
            "label": "enabled",
            "offset": 0,
            "slot": "20",
            "type": "t_bool"
          },
          {
            "astId": 6457,
            "contract": "contracts/facets/MerkleAirdropFacet.sol:MerkleAirdropFacet",
            "label": "visible",
            "offset": 1,
            "slot": "20",
            "type": "t_bool"
          },
          {
            "astId": 6459,
            "contract": "contracts/facets/MerkleAirdropFacet.sol:MerkleAirdropFacet",
            "label": "minTime",
            "offset": 0,
            "slot": "21",
            "type": "t_uint256"
          },
          {
            "astId": 6461,
            "contract": "contracts/facets/MerkleAirdropFacet.sol:MerkleAirdropFacet",
            "label": "maxTime",
            "offset": 0,
            "slot": "22",
            "type": "t_uint256"
          },
          {
            "astId": 6463,
            "contract": "contracts/facets/MerkleAirdropFacet.sol:MerkleAirdropFacet",
            "label": "diffstep",
            "offset": 0,
            "slot": "23",
            "type": "t_uint256"
          },
          {
            "astId": 6465,
            "contract": "contracts/facets/MerkleAirdropFacet.sol:MerkleAirdropFacet",
            "label": "maxClaims",
            "offset": 0,
            "slot": "24",
            "type": "t_uint256"
          },
          {
            "astId": 6467,
            "contract": "contracts/facets/MerkleAirdropFacet.sol:MerkleAirdropFacet",
            "label": "maxQuantityPerClaim",
            "offset": 0,
            "slot": "25",
            "type": "t_uint256"
          },
          {
            "astId": 6469,
            "contract": "contracts/facets/MerkleAirdropFacet.sol:MerkleAirdropFacet",
            "label": "maxClaimsPerAccount",
            "offset": 0,
            "slot": "26",
            "type": "t_uint256"
          },
          {
            "astId": 6471,
            "contract": "contracts/facets/MerkleAirdropFacet.sol:MerkleAirdropFacet",
            "label": "earnRatePerPeriod",
            "offset": 0,
            "slot": "27",
            "type": "t_uint256"
          },
          {
            "astId": 6473,
            "contract": "contracts/facets/MerkleAirdropFacet.sol:MerkleAirdropFacet",
            "label": "earnPeriodBlocks",
            "offset": 0,
            "slot": "28",
            "type": "t_uint256"
          },
          {
            "astId": 6475,
            "contract": "contracts/facets/MerkleAirdropFacet.sol:MerkleAirdropFacet",
            "label": "payPartialBlocks",
            "offset": 0,
            "slot": "29",
            "type": "t_bool"
          },
          {
            "astId": 6477,
            "contract": "contracts/facets/MerkleAirdropFacet.sol:MerkleAirdropFacet",
            "label": "mintEarnedToken",
            "offset": 1,
            "slot": "29",
            "type": "t_bool"
          },
          {
            "astId": 6479,
            "contract": "contracts/facets/MerkleAirdropFacet.sol:MerkleAirdropFacet",
            "label": "maxTotalEarnedAmount",
            "offset": 0,
            "slot": "30",
            "type": "t_uint256"
          },
          {
            "astId": 6481,
            "contract": "contracts/facets/MerkleAirdropFacet.sol:MerkleAirdropFacet",
            "label": "allowPurchase",
            "offset": 0,
            "slot": "31",
            "type": "t_bool"
          }
        ],
        "numberOfBytes": "1024"
      },
      "t_struct(GemPoolStorage)2146_storage": {
        "encoding": "inplace",
        "label": "struct GemPoolStorage",
        "members": [
          {
            "astId": 2117,
            "contract": "contracts/facets/MerkleAirdropFacet.sol:MerkleAirdropFacet",
            "label": "_gemPools",
            "offset": 0,
            "slot": "0",
            "type": "t_mapping(t_uint256,t_struct(GemPoolStruct)6489_storage)"
          },
          {
            "astId": 2122,
            "contract": "contracts/facets/MerkleAirdropFacet.sol:MerkleAirdropFacet",
            "label": "_recordHashes",
            "offset": 0,
            "slot": "1",
            "type": "t_mapping(t_uint256,t_struct(Set)8943_storage)"
          },
          {
            "astId": 2128,
            "contract": "contracts/facets/MerkleAirdropFacet.sol:MerkleAirdropFacet",
            "label": "_bankedRequirements",
            "offset": 0,
            "slot": "2",
            "type": "t_mapping(t_uint256,t_array(t_struct(Token)6891_storage)dyn_storage)"
          },
          {
            "astId": 2133,
            "contract": "contracts/facets/MerkleAirdropFacet.sol:MerkleAirdropFacet",
            "label": "_claims",
            "offset": 0,
            "slot": "3",
            "type": "t_mapping(t_uint256,t_struct(Claim)5386_storage)"
          },
          {
            "astId": 2135,
            "contract": "contracts/facets/MerkleAirdropFacet.sol:MerkleAirdropFacet",
            "label": "_claimIndex",
            "offset": 0,
            "slot": "4",
            "type": "t_uint256"
          },
          {
            "astId": 2139,
            "contract": "contracts/facets/MerkleAirdropFacet.sol:MerkleAirdropFacet",
            "label": "_stakedTotal",
            "offset": 0,
            "slot": "5",
            "type": "t_mapping(t_address,t_uint256)"
          },
          {
            "astId": 2142,
            "contract": "contracts/facets/MerkleAirdropFacet.sol:MerkleAirdropFacet",
            "label": "_requirementData",
            "offset": 0,
            "slot": "6",
            "type": "t_struct(RequirementData)6807_storage"
          },
          {
            "astId": 2145,
            "contract": "contracts/facets/MerkleAirdropFacet.sol:MerkleAirdropFacet",
            "label": "_symbols",
            "offset": 0,
            "slot": "13",
            "type": "t_array(t_string_storage)dyn_storage"
          }
        ],
        "numberOfBytes": "448"
      },
      "t_struct(GemPoolStruct)6489_storage": {
        "encoding": "inplace",
        "label": "struct IGemPool.GemPoolStruct",
        "members": [
          {
            "astId": 6485,
            "contract": "contracts/facets/MerkleAirdropFacet.sol:MerkleAirdropFacet",
            "label": "_gemPoolSettings",
            "offset": 0,
            "slot": "0",
            "type": "t_struct(GemPoolSettings)6482_storage"
          },
          {
            "astId": 6488,
            "contract": "contracts/facets/MerkleAirdropFacet.sol:MerkleAirdropFacet",
            "label": "_gemPoolData",
            "offset": 0,
            "slot": "32",
            "type": "t_struct(GemPoolData)6442_storage"
          }
        ],
        "numberOfBytes": "1184"
      },
      "t_struct(MarketItem)6753_storage": {
        "encoding": "inplace",
        "label": "struct IMarketplace.MarketItem",
        "members": [
          {
            "astId": 6736,
            "contract": "contracts/facets/MerkleAirdropFacet.sol:MerkleAirdropFacet",
            "label": "itemId",
            "offset": 0,
            "slot": "0",
            "type": "t_uint256"
          },
          {
            "astId": 6738,
            "contract": "contracts/facets/MerkleAirdropFacet.sol:MerkleAirdropFacet",
            "label": "nftContract",
            "offset": 0,
            "slot": "1",
            "type": "t_address"
          },
          {
            "astId": 6740,
            "contract": "contracts/facets/MerkleAirdropFacet.sol:MerkleAirdropFacet",
            "label": "tokenId",
            "offset": 0,
            "slot": "2",
            "type": "t_uint256"
          },
          {
            "astId": 6742,
            "contract": "contracts/facets/MerkleAirdropFacet.sol:MerkleAirdropFacet",
            "label": "seller",
            "offset": 0,
            "slot": "3",
            "type": "t_address"
          },
          {
            "astId": 6744,
            "contract": "contracts/facets/MerkleAirdropFacet.sol:MerkleAirdropFacet",
            "label": "owner",
            "offset": 0,
            "slot": "4",
            "type": "t_address"
          },
          {
            "astId": 6746,
            "contract": "contracts/facets/MerkleAirdropFacet.sol:MerkleAirdropFacet",
            "label": "price",
            "offset": 0,
            "slot": "5",
            "type": "t_uint256"
          },
          {
            "astId": 6748,
            "contract": "contracts/facets/MerkleAirdropFacet.sol:MerkleAirdropFacet",
            "label": "quantity",
            "offset": 0,
            "slot": "6",
            "type": "t_uint256"
          },
          {
            "astId": 6750,
            "contract": "contracts/facets/MerkleAirdropFacet.sol:MerkleAirdropFacet",
            "label": "sold",
            "offset": 0,
            "slot": "7",
            "type": "t_bool"
          },
          {
            "astId": 6752,
            "contract": "contracts/facets/MerkleAirdropFacet.sol:MerkleAirdropFacet",
            "label": "receiver",
            "offset": 1,
            "slot": "7",
            "type": "t_address"
          }
        ],
        "numberOfBytes": "256"
      },
      "t_struct(MarketUtilsStorage)2382_storage": {
        "encoding": "inplace",
        "label": "struct MarketUtilsStorage",
        "members": [
          {
            "astId": 2381,
            "contract": "contracts/facets/MerkleAirdropFacet.sol:MerkleAirdropFacet",
            "label": "validTokens",
            "offset": 0,
            "slot": "0",
            "type": "t_mapping(t_uint256,t_bool)"
          }
        ],
        "numberOfBytes": "32"
      },
      "t_struct(MarketplaceStorage)2284_storage": {
        "encoding": "inplace",
        "label": "struct MarketplaceStorage",
        "members": [
          {
            "astId": 2272,
            "contract": "contracts/facets/MerkleAirdropFacet.sol:MerkleAirdropFacet",
            "label": "itemsSold",
            "offset": 0,
            "slot": "0",
            "type": "t_uint256"
          },
          {
            "astId": 2274,
            "contract": "contracts/facets/MerkleAirdropFacet.sol:MerkleAirdropFacet",
            "label": "itemIds",
            "offset": 0,
            "slot": "1",
            "type": "t_uint256"
          },
          {
            "astId": 2279,
            "contract": "contracts/facets/MerkleAirdropFacet.sol:MerkleAirdropFacet",
            "label": "idToMarketItem",
            "offset": 0,
            "slot": "2",
            "type": "t_mapping(t_uint256,t_struct(MarketItem)6753_storage)"
          },
          {
            "astId": 2283,
            "contract": "contracts/facets/MerkleAirdropFacet.sol:MerkleAirdropFacet",
            "label": "idToListed",
            "offset": 0,
            "slot": "3",
            "type": "t_mapping(t_uint256,t_bool)"
          }
        ],
        "numberOfBytes": "128"
      },
      "t_struct(MerkleAirdropStorage)2377_storage": {
        "encoding": "inplace",
        "label": "struct MerkleAirdropStorage",
        "members": [
          {
            "astId": 2356,
            "contract": "contracts/facets/MerkleAirdropFacet.sol:MerkleAirdropFacet",
            "label": "_settings",
            "offset": 0,
            "slot": "0",
            "type": "t_mapping(t_uint256,t_struct(AirdropSettings)5195_storage)"
          },
          {
            "astId": 2358,
            "contract": "contracts/facets/MerkleAirdropFacet.sol:MerkleAirdropFacet",
            "label": "numSettings",
            "offset": 0,
            "slot": "1",
            "type": "t_uint256"
          },
          {
            "astId": 2364,
            "contract": "contracts/facets/MerkleAirdropFacet.sol:MerkleAirdropFacet",
            "label": "_redeemedData",
            "offset": 0,
            "slot": "2",
            "type": "t_mapping(t_uint256,t_mapping(t_uint256,t_uint256))"
          },
          {
            "astId": 2370,
            "contract": "contracts/facets/MerkleAirdropFacet.sol:MerkleAirdropFacet",
            "label": "_redeemedDataQuantities",
            "offset": 0,
            "slot": "3",
            "type": "t_mapping(t_uint256,t_mapping(t_address,t_uint256))"
          },
          {
            "astId": 2376,
            "contract": "contracts/facets/MerkleAirdropFacet.sol:MerkleAirdropFacet",
            "label": "_totalDataQuantities",
            "offset": 0,
            "slot": "4",
            "type": "t_mapping(t_uint256,t_mapping(t_address,t_uint256))"
          }
        ],
        "numberOfBytes": "160"
      },
      "t_struct(Requirement)6784_storage": {
        "encoding": "inplace",
        "label": "struct IRequirement.Requirement",
        "members": [
          {
            "astId": 6772,
            "contract": "contracts/facets/MerkleAirdropFacet.sol:MerkleAirdropFacet",
            "label": "minter",
            "offset": 0,
            "slot": "0",
            "type": "t_address"
          },
          {
            "astId": 6775,
            "contract": "contracts/facets/MerkleAirdropFacet.sol:MerkleAirdropFacet",
            "label": "source",
            "offset": 0,
            "slot": "1",
            "type": "t_struct(TokenSource)6950_storage"
          },
          {
            "astId": 6777,
            "contract": "contracts/facets/MerkleAirdropFacet.sol:MerkleAirdropFacet",
            "label": "quantity",
            "offset": 0,
            "slot": "4",
            "type": "t_uint256"
          },
          {
            "astId": 6779,
            "contract": "contracts/facets/MerkleAirdropFacet.sol:MerkleAirdropFacet",
            "label": "takeCustody",
            "offset": 0,
            "slot": "5",
            "type": "t_bool"
          },
          {
            "astId": 6781,
            "contract": "contracts/facets/MerkleAirdropFacet.sol:MerkleAirdropFacet",
            "label": "burn",
            "offset": 1,
            "slot": "5",
            "type": "t_bool"
          },
          {
            "astId": 6783,
            "contract": "contracts/facets/MerkleAirdropFacet.sol:MerkleAirdropFacet",
            "label": "requireExactAmount",
            "offset": 2,
            "slot": "5",
            "type": "t_bool"
          }
        ],
        "numberOfBytes": "192"
      },
      "t_struct(RequirementData)6807_storage": {
        "encoding": "inplace",
        "label": "struct IRequirement.RequirementData",
        "members": [
          {
            "astId": 6786,
            "contract": "contracts/facets/MerkleAirdropFacet.sol:MerkleAirdropFacet",
            "label": "token",
            "offset": 0,
            "slot": "0",
            "type": "t_address"
          },
          {
            "astId": 6788,
            "contract": "contracts/facets/MerkleAirdropFacet.sol:MerkleAirdropFacet",
            "label": "manager",
            "offset": 0,
            "slot": "1",
            "type": "t_address"
          },
          {
            "astId": 6794,
            "contract": "contracts/facets/MerkleAirdropFacet.sol:MerkleAirdropFacet",
            "label": "requirements",
            "offset": 0,
            "slot": "2",
            "type": "t_mapping(t_uint256,t_array(t_struct(Requirement)6784_storage)dyn_storage)"
          },
          {
            "astId": 6799,
            "contract": "contracts/facets/MerkleAirdropFacet.sol:MerkleAirdropFacet",
            "label": "tokens",
            "offset": 0,
            "slot": "3",
            "type": "t_mapping(t_uint256,t_struct(TokenSet)6903_storage)"
          },
          {
            "astId": 6802,
            "contract": "contracts/facets/MerkleAirdropFacet.sol:MerkleAirdropFacet",
            "label": "burnedTokenIds",
            "offset": 0,
            "slot": "4",
            "type": "t_struct(Set)8943_storage"
          },
          {
            "astId": 6806,
            "contract": "contracts/facets/MerkleAirdropFacet.sol:MerkleAirdropFacet",
            "label": "burnedTokenQuantities",
            "offset": 0,
            "slot": "6",
            "type": "t_mapping(t_uint256,t_uint256)"
          }
        ],
        "numberOfBytes": "224"
      },
      "t_struct(Set)8943_storage": {
        "encoding": "inplace",
        "label": "struct UInt256Set.Set",
        "members": [
          {
            "astId": 8939,
            "contract": "contracts/facets/MerkleAirdropFacet.sol:MerkleAirdropFacet",
            "label": "keyPointers",
            "offset": 0,
            "slot": "0",
            "type": "t_mapping(t_uint256,t_uint256)"
          },
          {
            "astId": 8942,
            "contract": "contracts/facets/MerkleAirdropFacet.sol:MerkleAirdropFacet",
            "label": "keyList",
            "offset": 0,
            "slot": "1",
            "type": "t_array(t_uint256)dyn_storage"
          }
        ],
        "numberOfBytes": "64"
      },
      "t_struct(Token)6891_storage": {
        "encoding": "inplace",
        "label": "struct IToken.Token",
        "members": [
          {
            "astId": 6886,
            "contract": "contracts/facets/MerkleAirdropFacet.sol:MerkleAirdropFacet",
            "label": "id",
            "offset": 0,
            "slot": "0",
            "type": "t_uint256"
          },
          {
            "astId": 6888,
            "contract": "contracts/facets/MerkleAirdropFacet.sol:MerkleAirdropFacet",
            "label": "balance",
            "offset": 0,
            "slot": "1",
            "type": "t_uint256"
          },
          {
            "astId": 6890,
            "contract": "contracts/facets/MerkleAirdropFacet.sol:MerkleAirdropFacet",
            "label": "burn",
            "offset": 0,
            "slot": "2",
            "type": "t_bool"
          }
        ],
        "numberOfBytes": "96"
      },
      "t_struct(TokenAttributeStorage)2265_storage": {
        "encoding": "inplace",
        "label": "struct TokenAttributeStorage",
        "members": [
          {
            "astId": 2264,
            "contract": "contracts/facets/MerkleAirdropFacet.sol:MerkleAirdropFacet",
            "label": "attributes",
            "offset": 0,
            "slot": "0",
            "type": "t_mapping(t_uint256,t_mapping(t_string_memory_ptr,t_uint256))"
          }
        ],
        "numberOfBytes": "32"
      },
      "t_struct(TokenDefinition)6928_storage": {
        "encoding": "inplace",
        "label": "struct IToken.TokenDefinition",
        "members": [
          {
            "astId": 6905,
            "contract": "contracts/facets/MerkleAirdropFacet.sol:MerkleAirdropFacet",
            "label": "token",
            "offset": 0,
            "slot": "0",
            "type": "t_address"
          },
          {
            "astId": 6907,
            "contract": "contracts/facets/MerkleAirdropFacet.sol:MerkleAirdropFacet",
            "label": "id",
            "offset": 0,
            "slot": "1",
            "type": "t_uint256"
          },
          {
            "astId": 6909,
            "contract": "contracts/facets/MerkleAirdropFacet.sol:MerkleAirdropFacet",
            "label": "collectionId",
            "offset": 0,
            "slot": "2",
            "type": "t_uint256"
          },
          {
            "astId": 6911,
            "contract": "contracts/facets/MerkleAirdropFacet.sol:MerkleAirdropFacet",
            "label": "name",
            "offset": 0,
            "slot": "3",
            "type": "t_string_storage"
          },
          {
            "astId": 6913,
            "contract": "contracts/facets/MerkleAirdropFacet.sol:MerkleAirdropFacet",
            "label": "symbol",
            "offset": 0,
            "slot": "4",
            "type": "t_string_storage"
          },
          {
            "astId": 6915,
            "contract": "contracts/facets/MerkleAirdropFacet.sol:MerkleAirdropFacet",
            "label": "description",
            "offset": 0,
            "slot": "5",
            "type": "t_string_storage"
          },
          {
            "astId": 6917,
            "contract": "contracts/facets/MerkleAirdropFacet.sol:MerkleAirdropFacet",
            "label": "decimals",
            "offset": 0,
            "slot": "6",
            "type": "t_uint8"
          },
          {
            "astId": 6919,
            "contract": "contracts/facets/MerkleAirdropFacet.sol:MerkleAirdropFacet",
            "label": "totalSupply",
            "offset": 0,
            "slot": "7",
            "type": "t_uint256"
          },
          {
            "astId": 6921,
            "contract": "contracts/facets/MerkleAirdropFacet.sol:MerkleAirdropFacet",
            "label": "generateId",
            "offset": 0,
            "slot": "8",
            "type": "t_bool"
          },
          {
            "astId": 6923,
            "contract": "contracts/facets/MerkleAirdropFacet.sol:MerkleAirdropFacet",
            "label": "probability",
            "offset": 0,
            "slot": "9",
            "type": "t_uint256"
          },
          {
            "astId": 6925,
            "contract": "contracts/facets/MerkleAirdropFacet.sol:MerkleAirdropFacet",
            "label": "probabilityIndex",
            "offset": 0,
            "slot": "10",
            "type": "t_uint256"
          },
          {
            "astId": 6927,
            "contract": "contracts/facets/MerkleAirdropFacet.sol:MerkleAirdropFacet",
            "label": "probabilityRoll",
            "offset": 0,
            "slot": "11",
            "type": "t_uint256"
          }
        ],
        "numberOfBytes": "384"
      },
      "t_struct(TokenMinterStorage)2293_storage": {
        "encoding": "inplace",
        "label": "struct TokenMinterStorage",
        "members": [
          {
            "astId": 2286,
            "contract": "contracts/facets/MerkleAirdropFacet.sol:MerkleAirdropFacet",
            "label": "token",
            "offset": 0,
            "slot": "0",
            "type": "t_address"
          },
          {
            "astId": 2288,
            "contract": "contracts/facets/MerkleAirdropFacet.sol:MerkleAirdropFacet",
            "label": "_tokenCounter",
            "offset": 0,
            "slot": "1",
            "type": "t_uint256"
          },
          {
            "astId": 2292,
            "contract": "contracts/facets/MerkleAirdropFacet.sol:MerkleAirdropFacet",
            "label": "_tokenMinters",
            "offset": 0,
            "slot": "2",
            "type": "t_mapping(t_uint256,t_address)"
          }
        ],
        "numberOfBytes": "96"
      },
      "t_struct(TokenOwnership)6178_storage": {
        "encoding": "inplace",
        "label": "struct IERC721A.TokenOwnership",
        "members": [
          {
            "astId": 6173,
            "contract": "contracts/facets/MerkleAirdropFacet.sol:MerkleAirdropFacet",
            "label": "addr",
            "offset": 0,
            "slot": "0",
            "type": "t_address"
          },
          {
            "astId": 6175,
            "contract": "contracts/facets/MerkleAirdropFacet.sol:MerkleAirdropFacet",
            "label": "startTimestamp",
            "offset": 20,
            "slot": "0",
            "type": "t_uint64"
          },
          {
            "astId": 6177,
            "contract": "contracts/facets/MerkleAirdropFacet.sol:MerkleAirdropFacet",
            "label": "burned",
            "offset": 28,
            "slot": "0",
            "type": "t_bool"
          }
        ],
        "numberOfBytes": "32"
      },
      "t_struct(TokenPriceData)7093_storage": {
        "encoding": "inplace",
        "label": "struct ITokenPrice.TokenPriceData",
        "members": [
          {
            "astId": 7085,
            "contract": "contracts/facets/MerkleAirdropFacet.sol:MerkleAirdropFacet",
            "label": "price",
            "offset": 0,
            "slot": "0",
            "type": "t_uint256"
          },
          {
            "astId": 7088,
            "contract": "contracts/facets/MerkleAirdropFacet.sol:MerkleAirdropFacet",
            "label": "priceModifier",
            "offset": 0,
            "slot": "1",
            "type": "t_enum(PriceModifier)7083"
          },
          {
            "astId": 7090,
            "contract": "contracts/facets/MerkleAirdropFacet.sol:MerkleAirdropFacet",
            "label": "priceModifierFactor",
            "offset": 0,
            "slot": "2",
            "type": "t_uint256"
          },
          {
            "astId": 7092,
            "contract": "contracts/facets/MerkleAirdropFacet.sol:MerkleAirdropFacet",
            "label": "maxPrice",
            "offset": 0,
            "slot": "3",
            "type": "t_uint256"
          }
        ],
        "numberOfBytes": "128"
      },
      "t_struct(TokenSaleEntry)7125_storage": {
        "encoding": "inplace",
        "label": "struct ITokenSale.TokenSaleEntry",
        "members": [
          {
            "astId": 7112,
            "contract": "contracts/facets/MerkleAirdropFacet.sol:MerkleAirdropFacet",
            "label": "receiver",
            "offset": 0,
            "slot": "0",
            "type": "t_address_payable"
          },
          {
            "astId": 7114,
            "contract": "contracts/facets/MerkleAirdropFacet.sol:MerkleAirdropFacet",
            "label": "sourceToken",
            "offset": 0,
            "slot": "1",
            "type": "t_address"
          },
          {
            "astId": 7116,
            "contract": "contracts/facets/MerkleAirdropFacet.sol:MerkleAirdropFacet",
            "label": "sourceTokenId",
            "offset": 0,
            "slot": "2",
            "type": "t_uint256"
          },
          {
            "astId": 7118,
            "contract": "contracts/facets/MerkleAirdropFacet.sol:MerkleAirdropFacet",
            "label": "token",
            "offset": 0,
            "slot": "3",
            "type": "t_address"
          },
          {
            "astId": 7120,
            "contract": "contracts/facets/MerkleAirdropFacet.sol:MerkleAirdropFacet",
            "label": "quantity",
            "offset": 0,
            "slot": "4",
            "type": "t_uint256"
          },
          {
            "astId": 7122,
            "contract": "contracts/facets/MerkleAirdropFacet.sol:MerkleAirdropFacet",
            "label": "price",
            "offset": 0,
            "slot": "5",
            "type": "t_uint256"
          },
          {
            "astId": 7124,
            "contract": "contracts/facets/MerkleAirdropFacet.sol:MerkleAirdropFacet",
            "label": "quantitySold",
            "offset": 0,
            "slot": "6",
            "type": "t_uint256"
          }
        ],
        "numberOfBytes": "224"
      },
      "t_struct(TokenSaleSettings)5293_storage": {
        "encoding": "inplace",
        "label": "struct IAirdropTokenSale.TokenSaleSettings",
        "members": [
          {
            "astId": 5259,
            "contract": "contracts/facets/MerkleAirdropFacet.sol:MerkleAirdropFacet",
            "label": "contractAddress",
            "offset": 0,
            "slot": "0",
            "type": "t_address"
          },
          {
            "astId": 5261,
            "contract": "contracts/facets/MerkleAirdropFacet.sol:MerkleAirdropFacet",
            "label": "token",
            "offset": 0,
            "slot": "1",
            "type": "t_address"
          },
          {
            "astId": 5263,
            "contract": "contracts/facets/MerkleAirdropFacet.sol:MerkleAirdropFacet",
            "label": "tokenHash",
            "offset": 0,
            "slot": "2",
            "type": "t_uint256"
          },
          {
            "astId": 5265,
            "contract": "contracts/facets/MerkleAirdropFacet.sol:MerkleAirdropFacet",
            "label": "collectionHash",
            "offset": 0,
            "slot": "3",
            "type": "t_uint256"
          },
          {
            "astId": 5267,
            "contract": "contracts/facets/MerkleAirdropFacet.sol:MerkleAirdropFacet",
            "label": "owner",
            "offset": 0,
            "slot": "4",
            "type": "t_address"
          },
          {
            "astId": 5269,
            "contract": "contracts/facets/MerkleAirdropFacet.sol:MerkleAirdropFacet",
            "label": "payee",
            "offset": 0,
            "slot": "5",
            "type": "t_address"
          },
          {
            "astId": 5271,
            "contract": "contracts/facets/MerkleAirdropFacet.sol:MerkleAirdropFacet",
            "label": "symbol",
            "offset": 0,
            "slot": "6",
            "type": "t_string_storage"
          },
          {
            "astId": 5273,
            "contract": "contracts/facets/MerkleAirdropFacet.sol:MerkleAirdropFacet",
            "label": "name",
            "offset": 0,
            "slot": "7",
            "type": "t_string_storage"
          },
          {
            "astId": 5275,
            "contract": "contracts/facets/MerkleAirdropFacet.sol:MerkleAirdropFacet",
            "label": "description",
            "offset": 0,
            "slot": "8",
            "type": "t_string_storage"
          },
          {
            "astId": 5277,
            "contract": "contracts/facets/MerkleAirdropFacet.sol:MerkleAirdropFacet",
            "label": "openState",
            "offset": 0,
            "slot": "9",
            "type": "t_bool"
          },
          {
            "astId": 5279,
            "contract": "contracts/facets/MerkleAirdropFacet.sol:MerkleAirdropFacet",
            "label": "startTime",
            "offset": 0,
            "slot": "10",
            "type": "t_uint256"
          },
          {
            "astId": 5281,
            "contract": "contracts/facets/MerkleAirdropFacet.sol:MerkleAirdropFacet",
            "label": "endTime",
            "offset": 0,
            "slot": "11",
            "type": "t_uint256"
          },
          {
            "astId": 5283,
            "contract": "contracts/facets/MerkleAirdropFacet.sol:MerkleAirdropFacet",
            "label": "maxQuantity",
            "offset": 0,
            "slot": "12",
            "type": "t_uint256"
          },
          {
            "astId": 5285,
            "contract": "contracts/facets/MerkleAirdropFacet.sol:MerkleAirdropFacet",
            "label": "maxQuantityPerSale",
            "offset": 0,
            "slot": "13",
            "type": "t_uint256"
          },
          {
            "astId": 5287,
            "contract": "contracts/facets/MerkleAirdropFacet.sol:MerkleAirdropFacet",
            "label": "minQuantityPerSale",
            "offset": 0,
            "slot": "14",
            "type": "t_uint256"
          },
          {
            "astId": 5289,
            "contract": "contracts/facets/MerkleAirdropFacet.sol:MerkleAirdropFacet",
            "label": "maxQuantityPerAccount",
            "offset": 0,
            "slot": "15",
            "type": "t_uint256"
          },
          {
            "astId": 5292,
            "contract": "contracts/facets/MerkleAirdropFacet.sol:MerkleAirdropFacet",
            "label": "initialPrice",
            "offset": 0,
            "slot": "16",
            "type": "t_struct(TokenPriceData)7093_storage"
          }
        ],
        "numberOfBytes": "640"
      },
      "t_struct(TokenSaleStorage)2320_storage": {
        "encoding": "inplace",
        "label": "struct TokenSaleStorage",
        "members": [
          {
            "astId": 2319,
            "contract": "contracts/facets/MerkleAirdropFacet.sol:MerkleAirdropFacet",
            "label": "tokenSaleEntries",
            "offset": 0,
            "slot": "0",
            "type": "t_mapping(t_address,t_struct(TokenSaleEntry)7125_storage)"
          }
        ],
        "numberOfBytes": "32"
      },
      "t_struct(TokenSet)6903_storage": {
        "encoding": "inplace",
        "label": "struct IToken.TokenSet",
        "members": [
          {
            "astId": 6895,
            "contract": "contracts/facets/MerkleAirdropFacet.sol:MerkleAirdropFacet",
            "label": "keyPointers",
            "offset": 0,
            "slot": "0",
            "type": "t_mapping(t_uint256,t_uint256)"
          },
          {
            "astId": 6898,
            "contract": "contracts/facets/MerkleAirdropFacet.sol:MerkleAirdropFacet",
            "label": "keyList",
            "offset": 0,
            "slot": "1",
            "type": "t_array(t_uint256)dyn_storage"
          },
          {
            "astId": 6902,
            "contract": "contracts/facets/MerkleAirdropFacet.sol:MerkleAirdropFacet",
            "label": "valueList",
            "offset": 0,
            "slot": "2",
            "type": "t_array(t_struct(Token)6891_storage)dyn_storage"
          }
        ],
        "numberOfBytes": "96"
      },
      "t_struct(TokenSource)6950_storage": {
        "encoding": "inplace",
        "label": "struct IToken.TokenSource",
        "members": [
          {
            "astId": 6945,
            "contract": "contracts/facets/MerkleAirdropFacet.sol:MerkleAirdropFacet",
            "label": "_type",
            "offset": 0,
            "slot": "0",
            "type": "t_enum(TokenSourceType)6942"
          },
          {
            "astId": 6947,
            "contract": "contracts/facets/MerkleAirdropFacet.sol:MerkleAirdropFacet",
            "label": "staticSourceId",
            "offset": 0,
            "slot": "1",
            "type": "t_uint256"
          },
          {
            "astId": 6949,
            "contract": "contracts/facets/MerkleAirdropFacet.sol:MerkleAirdropFacet",
            "label": "collectionSourceAddress",
            "offset": 0,
            "slot": "2",
            "type": "t_address"
          }
        ],
        "numberOfBytes": "96"
      },
      "t_uint256": {
        "encoding": "inplace",
        "label": "uint256",
        "numberOfBytes": "32"
      },
      "t_uint64": {
        "encoding": "inplace",
        "label": "uint64",
        "numberOfBytes": "8"
      },
      "t_uint8": {
        "encoding": "inplace",
        "label": "uint8",
        "numberOfBytes": "1"
      }
    }
  }
}