{
  "address": "0x7BF4e3c79D71e4317Fd9C0cd141513749dc1CAb9",
  "abi": [
    {
      "anonymous": false,
      "inputs": [
        {
          "indexed": true,
          "internalType": "address",
          "name": "receiver",
          "type": "address"
        },
        {
          "indexed": true,
          "internalType": "uint256",
          "name": "tokenId",
          "type": "uint256"
        }
      ],
      "name": "Token",
      "type": "event"
    },
    {
      "anonymous": false,
      "inputs": [
        {
          "indexed": true,
          "internalType": "address",
          "name": "target",
          "type": "address"
        },
        {
          "indexed": true,
          "internalType": "uint256",
          "name": "tokenId",
          "type": "uint256"
        }
      ],
      "name": "TokenBurn",
      "type": "event"
    },
    {
      "inputs": [
        {
          "internalType": "address",
          "name": "target",
          "type": "address"
        },
        {
          "internalType": "uint256",
          "name": "id",
          "type": "uint256"
        }
      ],
      "name": "burn",
      "outputs": [],
      "stateMutability": "nonpayable",
      "type": "function"
    },
    {
      "inputs": [
        {
          "internalType": "address",
          "name": "receiver",
          "type": "address"
        }
      ],
      "name": "mint",
      "outputs": [
        {
          "internalType": "bytes32",
          "name": "publicHash",
          "type": "bytes32"
        }
      ],
      "stateMutability": "nonpayable",
      "type": "function"
    },
    {
      "inputs": [
        {
          "internalType": "address",
          "name": "token",
          "type": "address"
        }
      ],
      "name": "setToken",
      "outputs": [],
      "stateMutability": "nonpayable",
      "type": "function"
    }
  ],
  "transactionHash": "0x77e0ac70f7e2dca77a1dadb94b807df0ae80b68c468236897ba8108df13bc676",
  "args": [],
  "numDeployments": 1,
  "solcInputHash": "af54060ac13cd822e4c3f0f7494b07aa",
  "bytecode": "0x608060405234801561001057600080fd5b50610662806100206000396000f3fe608060405234801561001057600080fd5b50600436106100415760003560e01c8063144fa6d7146100465780636a6278421461005b5780639dc29fac14610080575b600080fd5b610059610054366004610582565b610093565b005b61006e610069366004610582565b610100565b60405190815260200160405180910390f35b61005961008e3660046105a4565b610430565b61009b610538565b6001600160a01b0316336001600160a01b031614806100b957503330145b6100de5760405162461bcd60e51b81526004016100d5906105ce565b60405180910390fd5b600480546001600160a01b0319166001600160a01b0392909216919091179055565b600061010a610538565b6001600160a01b0316336001600160a01b0316148061012857503330145b6101445760405162461bcd60e51b81526004016100d5906105ce565b6001600160a01b0382166101a65760405162461bcd60e51b815260206004820152602360248201527f72656365697665722063616e6e6f7420626520746865207a65726f206164647260448201526265737360e81b60648201526084016100d5565b6005546040516001600160601b03193060601b166020820152603481019190915260540160408051601f1981840301815291905280516020909101206005805491925060006101f483610603565b909155505060008181526006602052604080822080546001600160a01b03191633179055516328342f9960e01b815230916328342f99916102609185916004019182526060602083018190526006908301526552617269747960d01b6080830152604082015260a00190565b600060405180830381600087803b15801561027a57600080fd5b505af115801561028e573d6000803e3d6000fd5b50506040516328342f9960e01b81526004808201859052606060248301526064820152635479706560e01b6084820152600060448201523092506328342f99915060a401600060405180830381600087803b1580156102ec57600080fd5b505af1158015610300573d6000803e3d6000fd5b50506040516328342f9960e01b8152600481018490526060602482015260056064820152642837bbb2b960d91b6084820152600160448201523092506328342f99915060a401600060405180830381600087803b15801561036057600080fd5b505af1158015610374573d6000803e3d6000fd5b50506004805460405163731133e960e01b81526001600160a01b0387811693820193909352602481018690526001604482015260806064820152600060848201529116925063731133e9915060a401600060405180830381600087803b1580156103dd57600080fd5b505af11580156103f1573d6000803e3d6000fd5b50506040518392506001600160a01b03851691507fc5944f30962dfa9215d5658b97f33d61b34dc7a9681977a9a3007edc2fbed88e90600090a3919050565b610438610538565b6001600160a01b0316336001600160a01b0316148061045657503330145b6104725760405162461bcd60e51b81526004016100d5906105ce565b6000818152600660205260409081902080546001600160a01b0319169055600480549151637a94c56560e11b81526001600160a01b0385811692820192909252602481018490526001604482015291169063f5298aca90606401600060405180830381600087803b1580156104e657600080fd5b505af11580156104fa573d6000803e3d6000fd5b50506040518392506001600160a01b03851691507fab85194d35c4ea153d0b51f3a304d1d22cb8023e499a6503fb6c28c5864ae90e90600090a35050565b7fc8fcad8db84d3cc18b4c41d551ea0ee66dd599cde068d998e57d5e09332c1320546001600160a01b031690565b80356001600160a01b038116811461057d57600080fd5b919050565b60006020828403121561059457600080fd5b61059d82610566565b9392505050565b600080604083850312156105b757600080fd5b6105c083610566565b946020939093013593505050565b6020808252818101527f6f6e6c792074686520636f6e7472616374206f776e65722063616e206d696e74604082015260600190565b600060001982141561062557634e487b7160e01b600052601160045260246000fd5b506001019056fea2646970667358221220495b039a661dc1cbc2e3f0a54c8bd126ab5b3eb3428d09ecf2829c1993061f6064736f6c63430008060033",
  "libraries": {
    "AddressSet": "0xf88EB844922B1ab0e153cF9E9bEefecc9512DE06",
    "UInt256Set": "0xCc995d7a8c7c499128cB34Ef0dA290F5f4f4EE71",
    "LibAppStorage": "0x36DFFA53Be73EC4DC419d32142dce5577DbBe7DA",
    "LibDiamond": "0xd77fa05d7Fba908919b3A4b9E41Cc62A1A7F728D",
    "MerkleProof": "0xe2f6D7E396B31d50dc5d11aD23c17859aDc95bB3"
  },
  "devdoc": {
    "kind": "dev",
    "methods": {
      "burn(address,uint256)": {
        "params": {
          "id": "the collection id",
          "target": "the mint receiver"
        }
      }
    },
    "version": 1
  },
  "userdoc": {
    "kind": "user",
    "methods": {
      "burn(address,uint256)": {
        "notice": "mint a token associated with a collection with an amount"
      }
    },
    "version": 1
  },
  "storageLayout": {
    "storage": [
      {
        "astId": 4713,
        "contract": "contracts/facets/TokenMinterFacet.sol:TokenMinterFacet",
        "label": "s",
        "offset": 0,
        "slot": "0",
        "type": "t_struct(AppStorage)2440_storage"
      }
    ],
    "types": {
      "t_address": {
        "encoding": "inplace",
        "label": "address",
        "numberOfBytes": "20"
      },
      "t_address_payable": {
        "encoding": "inplace",
        "label": "address payable",
        "numberOfBytes": "20"
      },
      "t_array(t_string_storage)dyn_storage": {
        "base": "t_string_storage",
        "encoding": "dynamic_array",
        "label": "string[]",
        "numberOfBytes": "32"
      },
      "t_array(t_struct(ForgeItemRequirement)6272_storage)dyn_storage": {
        "base": "t_struct(ForgeItemRequirement)6272_storage",
        "encoding": "dynamic_array",
        "label": "struct ForgeItemRequirement[]",
        "numberOfBytes": "32"
      },
      "t_array(t_struct(Requirement)6784_storage)dyn_storage": {
        "base": "t_struct(Requirement)6784_storage",
        "encoding": "dynamic_array",
        "label": "struct IRequirement.Requirement[]",
        "numberOfBytes": "32"
      },
      "t_array(t_struct(Token)6891_storage)dyn_storage": {
        "base": "t_struct(Token)6891_storage",
        "encoding": "dynamic_array",
        "label": "struct IToken.Token[]",
        "numberOfBytes": "32"
      },
      "t_array(t_uint256)dyn_storage": {
        "base": "t_uint256",
        "encoding": "dynamic_array",
        "label": "uint256[]",
        "numberOfBytes": "32"
      },
      "t_bool": {
        "encoding": "inplace",
        "label": "bool",
        "numberOfBytes": "1"
      },
      "t_bytes32": {
        "encoding": "inplace",
        "label": "bytes32",
        "numberOfBytes": "32"
      },
      "t_enum(PriceModifier)7083": {
        "encoding": "inplace",
        "label": "enum ITokenPrice.PriceModifier",
        "numberOfBytes": "1"
      },
      "t_enum(TokenSourceType)6942": {
        "encoding": "inplace",
        "label": "enum IToken.TokenSourceType",
        "numberOfBytes": "1"
      },
      "t_mapping(t_address,t_bool)": {
        "encoding": "mapping",
        "key": "t_address",
        "label": "mapping(address => bool)",
        "numberOfBytes": "32",
        "value": "t_bool"
      },
      "t_mapping(t_address,t_mapping(t_address,t_bool))": {
        "encoding": "mapping",
        "key": "t_address",
        "label": "mapping(address => mapping(address => bool))",
        "numberOfBytes": "32",
        "value": "t_mapping(t_address,t_bool)"
      },
      "t_mapping(t_address,t_mapping(t_uint256,t_uint256))": {
        "encoding": "mapping",
        "key": "t_address",
        "label": "mapping(address => mapping(uint256 => uint256))",
        "numberOfBytes": "32",
        "value": "t_mapping(t_uint256,t_uint256)"
      },
      "t_mapping(t_address,t_struct(AddressData)6187_storage)": {
        "encoding": "mapping",
        "key": "t_address",
        "label": "mapping(address => struct IERC721A.AddressData)",
        "numberOfBytes": "32",
        "value": "t_struct(AddressData)6187_storage"
      },
      "t_mapping(t_address,t_struct(FractionalizedTokenData)2306_storage)": {
        "encoding": "mapping",
        "key": "t_address",
        "label": "mapping(address => struct FractionalizedTokenData)",
        "numberOfBytes": "32",
        "value": "t_struct(FractionalizedTokenData)2306_storage"
      },
      "t_mapping(t_address,t_struct(TokenSaleEntry)7125_storage)": {
        "encoding": "mapping",
        "key": "t_address",
        "label": "mapping(address => struct ITokenSale.TokenSaleEntry)",
        "numberOfBytes": "32",
        "value": "t_struct(TokenSaleEntry)7125_storage"
      },
      "t_mapping(t_address,t_uint256)": {
        "encoding": "mapping",
        "key": "t_address",
        "label": "mapping(address => uint256)",
        "numberOfBytes": "32",
        "value": "t_uint256"
      },
      "t_mapping(t_string_memory_ptr,t_uint256)": {
        "encoding": "mapping",
        "key": "t_string_memory_ptr",
        "label": "mapping(string => uint256)",
        "numberOfBytes": "32",
        "value": "t_uint256"
      },
      "t_mapping(t_uint256,t_address)": {
        "encoding": "mapping",
        "key": "t_uint256",
        "label": "mapping(uint256 => address)",
        "numberOfBytes": "32",
        "value": "t_address"
      },
      "t_mapping(t_uint256,t_array(t_struct(Requirement)6784_storage)dyn_storage)": {
        "encoding": "mapping",
        "key": "t_uint256",
        "label": "mapping(uint256 => struct IRequirement.Requirement[])",
        "numberOfBytes": "32",
        "value": "t_array(t_struct(Requirement)6784_storage)dyn_storage"
      },
      "t_mapping(t_uint256,t_array(t_struct(Token)6891_storage)dyn_storage)": {
        "encoding": "mapping",
        "key": "t_uint256",
        "label": "mapping(uint256 => struct IToken.Token[])",
        "numberOfBytes": "32",
        "value": "t_array(t_struct(Token)6891_storage)dyn_storage"
      },
      "t_mapping(t_uint256,t_bool)": {
        "encoding": "mapping",
        "key": "t_uint256",
        "label": "mapping(uint256 => bool)",
        "numberOfBytes": "32",
        "value": "t_bool"
      },
      "t_mapping(t_uint256,t_mapping(t_address,t_uint256))": {
        "encoding": "mapping",
        "key": "t_uint256",
        "label": "mapping(uint256 => mapping(address => uint256))",
        "numberOfBytes": "32",
        "value": "t_mapping(t_address,t_uint256)"
      },
      "t_mapping(t_uint256,t_mapping(t_string_memory_ptr,t_uint256))": {
        "encoding": "mapping",
        "key": "t_uint256",
        "label": "mapping(uint256 => mapping(string => uint256))",
        "numberOfBytes": "32",
        "value": "t_mapping(t_string_memory_ptr,t_uint256)"
      },
      "t_mapping(t_uint256,t_mapping(t_uint256,t_struct(ForgeItemDefinition)6293_storage))": {
        "encoding": "mapping",
        "key": "t_uint256",
        "label": "mapping(uint256 => mapping(uint256 => struct ForgeItemDefinition))",
        "numberOfBytes": "32",
        "value": "t_mapping(t_uint256,t_struct(ForgeItemDefinition)6293_storage)"
      },
      "t_mapping(t_uint256,t_mapping(t_uint256,t_uint256))": {
        "encoding": "mapping",
        "key": "t_uint256",
        "label": "mapping(uint256 => mapping(uint256 => uint256))",
        "numberOfBytes": "32",
        "value": "t_mapping(t_uint256,t_uint256)"
      },
      "t_mapping(t_uint256,t_struct(AirdropSettings)5195_storage)": {
        "encoding": "mapping",
        "key": "t_uint256",
        "label": "mapping(uint256 => struct IAirdrop.AirdropSettings)",
        "numberOfBytes": "32",
        "value": "t_struct(AirdropSettings)5195_storage"
      },
      "t_mapping(t_uint256,t_struct(Claim)5386_storage)": {
        "encoding": "mapping",
        "key": "t_uint256",
        "label": "mapping(uint256 => struct IClaim.Claim)",
        "numberOfBytes": "32",
        "value": "t_struct(Claim)5386_storage"
      },
      "t_mapping(t_uint256,t_struct(ForgeDefinition)6265_storage)": {
        "encoding": "mapping",
        "key": "t_uint256",
        "label": "mapping(uint256 => struct ForgeDefinition)",
        "numberOfBytes": "32",
        "value": "t_struct(ForgeDefinition)6265_storage"
      },
      "t_mapping(t_uint256,t_struct(ForgeItemDefinition)6293_storage)": {
        "encoding": "mapping",
        "key": "t_uint256",
        "label": "mapping(uint256 => struct ForgeItemDefinition)",
        "numberOfBytes": "32",
        "value": "t_struct(ForgeItemDefinition)6293_storage"
      },
      "t_mapping(t_uint256,t_struct(GemPoolStruct)6489_storage)": {
        "encoding": "mapping",
        "key": "t_uint256",
        "label": "mapping(uint256 => struct IGemPool.GemPoolStruct)",
        "numberOfBytes": "32",
        "value": "t_struct(GemPoolStruct)6489_storage"
      },
      "t_mapping(t_uint256,t_struct(MarketItem)6753_storage)": {
        "encoding": "mapping",
        "key": "t_uint256",
        "label": "mapping(uint256 => struct IMarketplace.MarketItem)",
        "numberOfBytes": "32",
        "value": "t_struct(MarketItem)6753_storage"
      },
      "t_mapping(t_uint256,t_struct(Set)8943_storage)": {
        "encoding": "mapping",
        "key": "t_uint256",
        "label": "mapping(uint256 => struct UInt256Set.Set)",
        "numberOfBytes": "32",
        "value": "t_struct(Set)8943_storage"
      },
      "t_mapping(t_uint256,t_struct(TokenOwnership)6178_storage)": {
        "encoding": "mapping",
        "key": "t_uint256",
        "label": "mapping(uint256 => struct IERC721A.TokenOwnership)",
        "numberOfBytes": "32",
        "value": "t_struct(TokenOwnership)6178_storage"
      },
      "t_mapping(t_uint256,t_struct(TokenSaleSettings)5293_storage)": {
        "encoding": "mapping",
        "key": "t_uint256",
        "label": "mapping(uint256 => struct IAirdropTokenSale.TokenSaleSettings)",
        "numberOfBytes": "32",
        "value": "t_struct(TokenSaleSettings)5293_storage"
      },
      "t_mapping(t_uint256,t_struct(TokenSet)6903_storage)": {
        "encoding": "mapping",
        "key": "t_uint256",
        "label": "mapping(uint256 => struct IToken.TokenSet)",
        "numberOfBytes": "32",
        "value": "t_struct(TokenSet)6903_storage"
      },
      "t_mapping(t_uint256,t_uint256)": {
        "encoding": "mapping",
        "key": "t_uint256",
        "label": "mapping(uint256 => uint256)",
        "numberOfBytes": "32",
        "value": "t_uint256"
      },
      "t_string_memory_ptr": {
        "encoding": "bytes",
        "label": "string",
        "numberOfBytes": "32"
      },
      "t_string_storage": {
        "encoding": "bytes",
        "label": "string",
        "numberOfBytes": "32"
      },
      "t_struct(AddressData)6187_storage": {
        "encoding": "inplace",
        "label": "struct IERC721A.AddressData",
        "members": [
          {
            "astId": 6180,
            "contract": "contracts/facets/TokenMinterFacet.sol:TokenMinterFacet",
            "label": "balance",
            "offset": 0,
            "slot": "0",
            "type": "t_uint64"
          },
          {
            "astId": 6182,
            "contract": "contracts/facets/TokenMinterFacet.sol:TokenMinterFacet",
            "label": "numberMinted",
            "offset": 8,
            "slot": "0",
            "type": "t_uint64"
          },
          {
            "astId": 6184,
            "contract": "contracts/facets/TokenMinterFacet.sol:TokenMinterFacet",
            "label": "numberBurned",
            "offset": 16,
            "slot": "0",
            "type": "t_uint64"
          },
          {
            "astId": 6186,
            "contract": "contracts/facets/TokenMinterFacet.sol:TokenMinterFacet",
            "label": "aux",
            "offset": 24,
            "slot": "0",
            "type": "t_uint64"
          }
        ],
        "numberOfBytes": "32"
      },
      "t_struct(AirdropSettings)5195_storage": {
        "encoding": "inplace",
        "label": "struct IAirdrop.AirdropSettings",
        "members": [
          {
            "astId": 5171,
            "contract": "contracts/facets/TokenMinterFacet.sol:TokenMinterFacet",
            "label": "whitelistOnly",
            "offset": 0,
            "slot": "0",
            "type": "t_bool"
          },
          {
            "astId": 5173,
            "contract": "contracts/facets/TokenMinterFacet.sol:TokenMinterFacet",
            "label": "whitelistId",
            "offset": 0,
            "slot": "1",
            "type": "t_uint256"
          },
          {
            "astId": 5175,
            "contract": "contracts/facets/TokenMinterFacet.sol:TokenMinterFacet",
            "label": "whitelistHash",
            "offset": 0,
            "slot": "2",
            "type": "t_bytes32"
          },
          {
            "astId": 5177,
            "contract": "contracts/facets/TokenMinterFacet.sol:TokenMinterFacet",
            "label": "maxQuantity",
            "offset": 0,
            "slot": "3",
            "type": "t_uint256"
          },
          {
            "astId": 5179,
            "contract": "contracts/facets/TokenMinterFacet.sol:TokenMinterFacet",
            "label": "maxQuantityPerSale",
            "offset": 0,
            "slot": "4",
            "type": "t_uint256"
          },
          {
            "astId": 5181,
            "contract": "contracts/facets/TokenMinterFacet.sol:TokenMinterFacet",
            "label": "minQuantityPerSale",
            "offset": 0,
            "slot": "5",
            "type": "t_uint256"
          },
          {
            "astId": 5183,
            "contract": "contracts/facets/TokenMinterFacet.sol:TokenMinterFacet",
            "label": "maxQuantityPerAccount",
            "offset": 0,
            "slot": "6",
            "type": "t_uint256"
          },
          {
            "astId": 5185,
            "contract": "contracts/facets/TokenMinterFacet.sol:TokenMinterFacet",
            "label": "quantitySold",
            "offset": 0,
            "slot": "7",
            "type": "t_uint256"
          },
          {
            "astId": 5187,
            "contract": "contracts/facets/TokenMinterFacet.sol:TokenMinterFacet",
            "label": "startTime",
            "offset": 0,
            "slot": "8",
            "type": "t_uint256"
          },
          {
            "astId": 5189,
            "contract": "contracts/facets/TokenMinterFacet.sol:TokenMinterFacet",
            "label": "endTime",
            "offset": 0,
            "slot": "9",
            "type": "t_uint256"
          },
          {
            "astId": 5192,
            "contract": "contracts/facets/TokenMinterFacet.sol:TokenMinterFacet",
            "label": "initialPrice",
            "offset": 0,
            "slot": "10",
            "type": "t_struct(TokenPriceData)7093_storage"
          },
          {
            "astId": 5194,
            "contract": "contracts/facets/TokenMinterFacet.sol:TokenMinterFacet",
            "label": "tokenHash",
            "offset": 0,
            "slot": "14",
            "type": "t_uint256"
          }
        ],
        "numberOfBytes": "480"
      },
      "t_struct(AirdropTokenSaleStorage)2351_storage": {
        "encoding": "inplace",
        "label": "struct AirdropTokenSaleStorage",
        "members": [
          {
            "astId": 2327,
            "contract": "contracts/facets/TokenMinterFacet.sol:TokenMinterFacet",
            "label": "tsnonce",
            "offset": 0,
            "slot": "0",
            "type": "t_uint256"
          },
          {
            "astId": 2331,
            "contract": "contracts/facets/TokenMinterFacet.sol:TokenMinterFacet",
            "label": "nonces",
            "offset": 0,
            "slot": "1",
            "type": "t_mapping(t_uint256,t_uint256)"
          },
          {
            "astId": 2336,
            "contract": "contracts/facets/TokenMinterFacet.sol:TokenMinterFacet",
            "label": "_tokenSales",
            "offset": 0,
            "slot": "2",
            "type": "t_mapping(t_uint256,t_struct(TokenSaleSettings)5293_storage)"
          },
          {
            "astId": 2340,
            "contract": "contracts/facets/TokenMinterFacet.sol:TokenMinterFacet",
            "label": "tokenSaleOpen",
            "offset": 0,
            "slot": "3",
            "type": "t_mapping(t_uint256,t_bool)"
          },
          {
            "astId": 2346,
            "contract": "contracts/facets/TokenMinterFacet.sol:TokenMinterFacet",
            "label": "purchased",
            "offset": 0,
            "slot": "4",
            "type": "t_mapping(t_uint256,t_mapping(t_address,t_uint256))"
          },
          {
            "astId": 2350,
            "contract": "contracts/facets/TokenMinterFacet.sol:TokenMinterFacet",
            "label": "totalPurchased",
            "offset": 0,
            "slot": "5",
            "type": "t_mapping(t_uint256,t_uint256)"
          }
        ],
        "numberOfBytes": "192"
      },
      "t_struct(AppStorage)2440_storage": {
        "encoding": "inplace",
        "label": "struct AppStorage",
        "members": [
          {
            "astId": 2394,
            "contract": "contracts/facets/TokenMinterFacet.sol:TokenMinterFacet",
            "label": "marketplaceStorage",
            "offset": 0,
            "slot": "0",
            "type": "t_struct(MarketplaceStorage)2284_storage"
          },
          {
            "astId": 2397,
            "contract": "contracts/facets/TokenMinterFacet.sol:TokenMinterFacet",
            "label": "tokenMinterStorage",
            "offset": 0,
            "slot": "4",
            "type": "t_struct(TokenMinterStorage)2293_storage"
          },
          {
            "astId": 2400,
            "contract": "contracts/facets/TokenMinterFacet.sol:TokenMinterFacet",
            "label": "erc1155Storage",
            "offset": 0,
            "slot": "7",
            "type": "t_struct(ERC1155Storage)2205_storage"
          },
          {
            "astId": 2403,
            "contract": "contracts/facets/TokenMinterFacet.sol:TokenMinterFacet",
            "label": "fractionalizerStorage",
            "offset": 0,
            "slot": "15",
            "type": "t_struct(FractionalizerStorage)2314_storage"
          },
          {
            "astId": 2406,
            "contract": "contracts/facets/TokenMinterFacet.sol:TokenMinterFacet",
            "label": "marketUtilsStorage",
            "offset": 0,
            "slot": "17",
            "type": "t_struct(MarketUtilsStorage)2382_storage"
          },
          {
            "astId": 2409,
            "contract": "contracts/facets/TokenMinterFacet.sol:TokenMinterFacet",
            "label": "tokenSaleStorage",
            "offset": 0,
            "slot": "18",
            "type": "t_struct(TokenSaleStorage)2320_storage"
          },
          {
            "astId": 2412,
            "contract": "contracts/facets/TokenMinterFacet.sol:TokenMinterFacet",
            "label": "merkleAirdropStorage",
            "offset": 0,
            "slot": "19",
            "type": "t_struct(MerkleAirdropStorage)2377_storage"
          },
          {
            "astId": 2415,
            "contract": "contracts/facets/TokenMinterFacet.sol:TokenMinterFacet",
            "label": "erc721AStorage",
            "offset": 0,
            "slot": "24",
            "type": "t_struct(ERC721AStorage)2234_storage"
          },
          {
            "astId": 2418,
            "contract": "contracts/facets/TokenMinterFacet.sol:TokenMinterFacet",
            "label": "erc2981Storage",
            "offset": 0,
            "slot": "32",
            "type": "t_struct(ERC2981Storage)2243_storage"
          },
          {
            "astId": 2421,
            "contract": "contracts/facets/TokenMinterFacet.sol:TokenMinterFacet",
            "label": "attributeMutationPoolStorage",
            "offset": 0,
            "slot": "34",
            "type": "t_struct(AttributeMutationPoolStorage)2258_storage"
          },
          {
            "astId": 2424,
            "contract": "contracts/facets/TokenMinterFacet.sol:TokenMinterFacet",
            "label": "tokenAttributeStorage",
            "offset": 0,
            "slot": "39",
            "type": "t_struct(TokenAttributeStorage)2265_storage"
          },
          {
            "astId": 2427,
            "contract": "contracts/facets/TokenMinterFacet.sol:TokenMinterFacet",
            "label": "airdropTokenSaleStorage",
            "offset": 0,
            "slot": "40",
            "type": "t_struct(AirdropTokenSaleStorage)2351_storage"
          },
          {
            "astId": 2430,
            "contract": "contracts/facets/TokenMinterFacet.sol:TokenMinterFacet",
            "label": "feeManagerStorage",
            "offset": 0,
            "slot": "46",
            "type": "t_struct(FeeManagerStorage)2325_storage"
          },
          {
            "astId": 2433,
            "contract": "contracts/facets/TokenMinterFacet.sol:TokenMinterFacet",
            "label": "bankStorage",
            "offset": 0,
            "slot": "47",
            "type": "t_struct(BankStorage)2391_storage"
          },
          {
            "astId": 2436,
            "contract": "contracts/facets/TokenMinterFacet.sol:TokenMinterFacet",
            "label": "forgeStorage",
            "offset": 0,
            "slot": "49",
            "type": "t_struct(ForgeStorage)2176_storage"
          },
          {
            "astId": 2439,
            "contract": "contracts/facets/TokenMinterFacet.sol:TokenMinterFacet",
            "label": "gemPoolStorage",
            "offset": 0,
            "slot": "57",
            "type": "t_struct(GemPoolStorage)2146_storage"
          }
        ],
        "numberOfBytes": "2272"
      },
      "t_struct(AttributeMutationPoolStorage)2258_storage": {
        "encoding": "inplace",
        "label": "struct AttributeMutationPoolStorage",
        "members": [
          {
            "astId": 2245,
            "contract": "contracts/facets/TokenMinterFacet.sol:TokenMinterFacet",
            "label": "_attributeKey",
            "offset": 0,
            "slot": "0",
            "type": "t_string_storage"
          },
          {
            "astId": 2247,
            "contract": "contracts/facets/TokenMinterFacet.sol:TokenMinterFacet",
            "label": "_attributeValuePerPeriod",
            "offset": 0,
            "slot": "1",
            "type": "t_uint256"
          },
          {
            "astId": 2249,
            "contract": "contracts/facets/TokenMinterFacet.sol:TokenMinterFacet",
            "label": "_attributeBlocksPerPeriod",
            "offset": 0,
            "slot": "2",
            "type": "t_uint256"
          },
          {
            "astId": 2251,
            "contract": "contracts/facets/TokenMinterFacet.sol:TokenMinterFacet",
            "label": "_totalValueThreshold",
            "offset": 0,
            "slot": "3",
            "type": "t_uint256"
          },
          {
            "astId": 2257,
            "contract": "contracts/facets/TokenMinterFacet.sol:TokenMinterFacet",
            "label": "_tokenDepositHeight",
            "offset": 0,
            "slot": "4",
            "type": "t_mapping(t_address,t_mapping(t_uint256,t_uint256))"
          }
        ],
        "numberOfBytes": "160"
      },
      "t_struct(BankStorage)2391_storage": {
        "encoding": "inplace",
        "label": "struct BankStorage",
        "members": [
          {
            "astId": 2384,
            "contract": "contracts/facets/TokenMinterFacet.sol:TokenMinterFacet",
            "label": "token",
            "offset": 0,
            "slot": "0",
            "type": "t_address"
          },
          {
            "astId": 2390,
            "contract": "contracts/facets/TokenMinterFacet.sol:TokenMinterFacet",
            "label": "balances",
            "offset": 0,
            "slot": "1",
            "type": "t_mapping(t_address,t_mapping(t_uint256,t_uint256))"
          }
        ],
        "numberOfBytes": "64"
      },
      "t_struct(Claim)5386_storage": {
        "encoding": "inplace",
        "label": "struct IClaim.Claim",
        "members": [
          {
            "astId": 5361,
            "contract": "contracts/facets/TokenMinterFacet.sol:TokenMinterFacet",
            "label": "id",
            "offset": 0,
            "slot": "0",
            "type": "t_uint256"
          },
          {
            "astId": 5363,
            "contract": "contracts/facets/TokenMinterFacet.sol:TokenMinterFacet",
            "label": "poolId",
            "offset": 0,
            "slot": "1",
            "type": "t_uint256"
          },
          {
            "astId": 5365,
            "contract": "contracts/facets/TokenMinterFacet.sol:TokenMinterFacet",
            "label": "creator",
            "offset": 0,
            "slot": "2",
            "type": "t_address"
          },
          {
            "astId": 5367,
            "contract": "contracts/facets/TokenMinterFacet.sol:TokenMinterFacet",
            "label": "minter",
            "offset": 0,
            "slot": "3",
            "type": "t_address"
          },
          {
            "astId": 5369,
            "contract": "contracts/facets/TokenMinterFacet.sol:TokenMinterFacet",
            "label": "depositAmount",
            "offset": 0,
            "slot": "4",
            "type": "t_uint256"
          },
          {
            "astId": 5371,
            "contract": "contracts/facets/TokenMinterFacet.sol:TokenMinterFacet",
            "label": "depositToken",
            "offset": 0,
            "slot": "5",
            "type": "t_address"
          },
          {
            "astId": 5373,
            "contract": "contracts/facets/TokenMinterFacet.sol:TokenMinterFacet",
            "label": "mintQuantity",
            "offset": 0,
            "slot": "6",
            "type": "t_uint256"
          },
          {
            "astId": 5375,
            "contract": "contracts/facets/TokenMinterFacet.sol:TokenMinterFacet",
            "label": "depositLength",
            "offset": 0,
            "slot": "7",
            "type": "t_uint256"
          },
          {
            "astId": 5377,
            "contract": "contracts/facets/TokenMinterFacet.sol:TokenMinterFacet",
            "label": "createdTime",
            "offset": 0,
            "slot": "8",
            "type": "t_uint256"
          },
          {
            "astId": 5379,
            "contract": "contracts/facets/TokenMinterFacet.sol:TokenMinterFacet",
            "label": "createdBlock",
            "offset": 0,
            "slot": "9",
            "type": "t_uint256"
          },
          {
            "astId": 5381,
            "contract": "contracts/facets/TokenMinterFacet.sol:TokenMinterFacet",
            "label": "claimedBlock",
            "offset": 0,
            "slot": "10",
            "type": "t_uint256"
          },
          {
            "astId": 5383,
            "contract": "contracts/facets/TokenMinterFacet.sol:TokenMinterFacet",
            "label": "gemHash",
            "offset": 0,
            "slot": "11",
            "type": "t_uint256"
          },
          {
            "astId": 5385,
            "contract": "contracts/facets/TokenMinterFacet.sol:TokenMinterFacet",
            "label": "feePaid",
            "offset": 0,
            "slot": "12",
            "type": "t_uint256"
          }
        ],
        "numberOfBytes": "416"
      },
      "t_struct(ERC1155Storage)2205_storage": {
        "encoding": "inplace",
        "label": "struct ERC1155Storage",
        "members": [
          {
            "astId": 2182,
            "contract": "contracts/facets/TokenMinterFacet.sol:TokenMinterFacet",
            "label": "_balances",
            "offset": 0,
            "slot": "0",
            "type": "t_mapping(t_uint256,t_mapping(t_address,t_uint256))"
          },
          {
            "astId": 2188,
            "contract": "contracts/facets/TokenMinterFacet.sol:TokenMinterFacet",
            "label": "_operatorApprovals",
            "offset": 0,
            "slot": "1",
            "type": "t_mapping(t_address,t_mapping(t_address,t_bool))"
          },
          {
            "astId": 2194,
            "contract": "contracts/facets/TokenMinterFacet.sol:TokenMinterFacet",
            "label": "_minterApprovals",
            "offset": 0,
            "slot": "2",
            "type": "t_mapping(t_address,t_mapping(t_uint256,t_uint256))"
          },
          {
            "astId": 2196,
            "contract": "contracts/facets/TokenMinterFacet.sol:TokenMinterFacet",
            "label": "_uri",
            "offset": 0,
            "slot": "3",
            "type": "t_string_storage"
          },
          {
            "astId": 2198,
            "contract": "contracts/facets/TokenMinterFacet.sol:TokenMinterFacet",
            "label": "_uriBase",
            "offset": 0,
            "slot": "4",
            "type": "t_string_storage"
          },
          {
            "astId": 2200,
            "contract": "contracts/facets/TokenMinterFacet.sol:TokenMinterFacet",
            "label": "_symbol",
            "offset": 0,
            "slot": "5",
            "type": "t_string_storage"
          },
          {
            "astId": 2202,
            "contract": "contracts/facets/TokenMinterFacet.sol:TokenMinterFacet",
            "label": "_name",
            "offset": 0,
            "slot": "6",
            "type": "t_string_storage"
          },
          {
            "astId": 2204,
            "contract": "contracts/facets/TokenMinterFacet.sol:TokenMinterFacet",
            "label": "_approvalProxy",
            "offset": 0,
            "slot": "7",
            "type": "t_address"
          }
        ],
        "numberOfBytes": "256"
      },
      "t_struct(ERC2981Storage)2243_storage": {
        "encoding": "inplace",
        "label": "struct ERC2981Storage",
        "members": [
          {
            "astId": 2238,
            "contract": "contracts/facets/TokenMinterFacet.sol:TokenMinterFacet",
            "label": "royaltyReceiversByHash",
            "offset": 0,
            "slot": "0",
            "type": "t_mapping(t_uint256,t_address)"
          },
          {
            "astId": 2242,
            "contract": "contracts/facets/TokenMinterFacet.sol:TokenMinterFacet",
            "label": "royaltyFeesByHash",
            "offset": 0,
            "slot": "1",
            "type": "t_mapping(t_uint256,t_uint256)"
          }
        ],
        "numberOfBytes": "64"
      },
      "t_struct(ERC721AStorage)2234_storage": {
        "encoding": "inplace",
        "label": "struct ERC721AStorage",
        "members": [
          {
            "astId": 2207,
            "contract": "contracts/facets/TokenMinterFacet.sol:TokenMinterFacet",
            "label": "_currentIndex",
            "offset": 0,
            "slot": "0",
            "type": "t_uint256"
          },
          {
            "astId": 2209,
            "contract": "contracts/facets/TokenMinterFacet.sol:TokenMinterFacet",
            "label": "_burnCounter",
            "offset": 0,
            "slot": "1",
            "type": "t_uint256"
          },
          {
            "astId": 2211,
            "contract": "contracts/facets/TokenMinterFacet.sol:TokenMinterFacet",
            "label": "_name",
            "offset": 0,
            "slot": "2",
            "type": "t_string_storage"
          },
          {
            "astId": 2213,
            "contract": "contracts/facets/TokenMinterFacet.sol:TokenMinterFacet",
            "label": "_symbol",
            "offset": 0,
            "slot": "3",
            "type": "t_string_storage"
          },
          {
            "astId": 2218,
            "contract": "contracts/facets/TokenMinterFacet.sol:TokenMinterFacet",
            "label": "_ownerships",
            "offset": 0,
            "slot": "4",
            "type": "t_mapping(t_uint256,t_struct(TokenOwnership)6178_storage)"
          },
          {
            "astId": 2223,
            "contract": "contracts/facets/TokenMinterFacet.sol:TokenMinterFacet",
            "label": "_addressData",
            "offset": 0,
            "slot": "5",
            "type": "t_mapping(t_address,t_struct(AddressData)6187_storage)"
          },
          {
            "astId": 2227,
            "contract": "contracts/facets/TokenMinterFacet.sol:TokenMinterFacet",
            "label": "_tokenApprovals",
            "offset": 0,
            "slot": "6",
            "type": "t_mapping(t_uint256,t_address)"
          },
          {
            "astId": 2233,
            "contract": "contracts/facets/TokenMinterFacet.sol:TokenMinterFacet",
            "label": "_operatorApprovals",
            "offset": 0,
            "slot": "7",
            "type": "t_mapping(t_address,t_mapping(t_address,t_bool))"
          }
        ],
        "numberOfBytes": "256"
      },
      "t_struct(FeeManagerStorage)2325_storage": {
        "encoding": "inplace",
        "label": "struct FeeManagerStorage",
        "members": [
          {
            "astId": 2324,
            "contract": "contracts/facets/TokenMinterFacet.sol:TokenMinterFacet",
            "label": "_fees",
            "offset": 0,
            "slot": "0",
            "type": "t_mapping(t_string_memory_ptr,t_uint256)"
          }
        ],
        "numberOfBytes": "32"
      },
      "t_struct(ForgeDefinition)6265_storage": {
        "encoding": "inplace",
        "label": "struct ForgeDefinition",
        "members": [
          {
            "astId": 6252,
            "contract": "contracts/facets/TokenMinterFacet.sol:TokenMinterFacet",
            "label": "forgeId",
            "offset": 0,
            "slot": "0",
            "type": "t_uint256"
          },
          {
            "astId": 6254,
            "contract": "contracts/facets/TokenMinterFacet.sol:TokenMinterFacet",
            "label": "name",
            "offset": 0,
            "slot": "1",
            "type": "t_string_storage"
          },
          {
            "astId": 6256,
            "contract": "contracts/facets/TokenMinterFacet.sol:TokenMinterFacet",
            "label": "symbol",
            "offset": 0,
            "slot": "2",
            "type": "t_string_storage"
          },
          {
            "astId": 6258,
            "contract": "contracts/facets/TokenMinterFacet.sol:TokenMinterFacet",
            "label": "description",
            "offset": 0,
            "slot": "3",
            "type": "t_string_storage"
          },
          {
            "astId": 6260,
            "contract": "contracts/facets/TokenMinterFacet.sol:TokenMinterFacet",
            "label": "maxForgeCount",
            "offset": 0,
            "slot": "4",
            "type": "t_uint256"
          },
          {
            "astId": 6262,
            "contract": "contracts/facets/TokenMinterFacet.sol:TokenMinterFacet",
            "label": "forgedCount",
            "offset": 0,
            "slot": "5",
            "type": "t_uint256"
          },
          {
            "astId": 6264,
            "contract": "contracts/facets/TokenMinterFacet.sol:TokenMinterFacet",
            "label": "forgeFee",
            "offset": 0,
            "slot": "6",
            "type": "t_uint256"
          }
        ],
        "numberOfBytes": "224"
      },
      "t_struct(ForgeItemDefinition)6293_storage": {
        "encoding": "inplace",
        "label": "struct ForgeItemDefinition",
        "members": [
          {
            "astId": 6274,
            "contract": "contracts/facets/TokenMinterFacet.sol:TokenMinterFacet",
            "label": "name",
            "offset": 0,
            "slot": "0",
            "type": "t_string_storage"
          },
          {
            "astId": 6276,
            "contract": "contracts/facets/TokenMinterFacet.sol:TokenMinterFacet",
            "label": "symbol",
            "offset": 0,
            "slot": "1",
            "type": "t_string_storage"
          },
          {
            "astId": 6278,
            "contract": "contracts/facets/TokenMinterFacet.sol:TokenMinterFacet",
            "label": "description",
            "offset": 0,
            "slot": "2",
            "type": "t_string_storage"
          },
          {
            "astId": 6282,
            "contract": "contracts/facets/TokenMinterFacet.sol:TokenMinterFacet",
            "label": "requirements",
            "offset": 0,
            "slot": "3",
            "type": "t_array(t_struct(ForgeItemRequirement)6272_storage)dyn_storage"
          },
          {
            "astId": 6284,
            "contract": "contracts/facets/TokenMinterFacet.sol:TokenMinterFacet",
            "label": "probability",
            "offset": 0,
            "slot": "4",
            "type": "t_uint256"
          },
          {
            "astId": 6286,
            "contract": "contracts/facets/TokenMinterFacet.sol:TokenMinterFacet",
            "label": "maxForgeCount",
            "offset": 0,
            "slot": "5",
            "type": "t_uint256"
          },
          {
            "astId": 6288,
            "contract": "contracts/facets/TokenMinterFacet.sol:TokenMinterFacet",
            "label": "forgedCount",
            "offset": 0,
            "slot": "6",
            "type": "t_uint256"
          },
          {
            "astId": 6290,
            "contract": "contracts/facets/TokenMinterFacet.sol:TokenMinterFacet",
            "label": "forgeFee",
            "offset": 0,
            "slot": "7",
            "type": "t_uint256"
          },
          {
            "astId": 6292,
            "contract": "contracts/facets/TokenMinterFacet.sol:TokenMinterFacet",
            "label": "tokenHash",
            "offset": 0,
            "slot": "8",
            "type": "t_uint256"
          }
        ],
        "numberOfBytes": "288"
      },
      "t_struct(ForgeItemRequirement)6272_storage": {
        "encoding": "inplace",
        "label": "struct ForgeItemRequirement",
        "members": [
          {
            "astId": 6267,
            "contract": "contracts/facets/TokenMinterFacet.sol:TokenMinterFacet",
            "label": "tokenAddress",
            "offset": 0,
            "slot": "0",
            "type": "t_address"
          },
          {
            "astId": 6269,
            "contract": "contracts/facets/TokenMinterFacet.sol:TokenMinterFacet",
            "label": "tokenId",
            "offset": 0,
            "slot": "1",
            "type": "t_uint256"
          },
          {
            "astId": 6271,
            "contract": "contracts/facets/TokenMinterFacet.sol:TokenMinterFacet",
            "label": "amount",
            "offset": 0,
            "slot": "2",
            "type": "t_uint256"
          }
        ],
        "numberOfBytes": "96"
      },
      "t_struct(ForgeStorage)2176_storage": {
        "encoding": "inplace",
        "label": "struct ForgeStorage",
        "members": [
          {
            "astId": 2151,
            "contract": "contracts/facets/TokenMinterFacet.sol:TokenMinterFacet",
            "label": "forges",
            "offset": 0,
            "slot": "0",
            "type": "t_mapping(t_uint256,t_struct(ForgeDefinition)6265_storage)"
          },
          {
            "astId": 2154,
            "contract": "contracts/facets/TokenMinterFacet.sol:TokenMinterFacet",
            "label": "forgeIds",
            "offset": 0,
            "slot": "1",
            "type": "t_array(t_uint256)dyn_storage"
          },
          {
            "astId": 2161,
            "contract": "contracts/facets/TokenMinterFacet.sol:TokenMinterFacet",
            "label": "forgeItems",
            "offset": 0,
            "slot": "2",
            "type": "t_mapping(t_uint256,t_mapping(t_uint256,t_struct(ForgeItemDefinition)6293_storage))"
          },
          {
            "astId": 2164,
            "contract": "contracts/facets/TokenMinterFacet.sol:TokenMinterFacet",
            "label": "forgeItemIds",
            "offset": 0,
            "slot": "3",
            "type": "t_array(t_uint256)dyn_storage"
          },
          {
            "astId": 2169,
            "contract": "contracts/facets/TokenMinterFacet.sol:TokenMinterFacet",
            "label": "forgedItemHashes",
            "offset": 0,
            "slot": "4",
            "type": "t_mapping(t_uint256,t_struct(Set)8943_storage)"
          },
          {
            "astId": 2172,
            "contract": "contracts/facets/TokenMinterFacet.sol:TokenMinterFacet",
            "label": "allforgedItemHashes",
            "offset": 0,
            "slot": "5",
            "type": "t_struct(Set)8943_storage"
          },
          {
            "astId": 2175,
            "contract": "contracts/facets/TokenMinterFacet.sol:TokenMinterFacet",
            "label": "symbols",
            "offset": 0,
            "slot": "7",
            "type": "t_array(t_string_storage)dyn_storage"
          }
        ],
        "numberOfBytes": "256"
      },
      "t_struct(FractionalizedTokenData)2306_storage": {
        "encoding": "inplace",
        "label": "struct FractionalizedTokenData",
        "members": [
          {
            "astId": 2295,
            "contract": "contracts/facets/TokenMinterFacet.sol:TokenMinterFacet",
            "label": "symbol",
            "offset": 0,
            "slot": "0",
            "type": "t_string_storage"
          },
          {
            "astId": 2297,
            "contract": "contracts/facets/TokenMinterFacet.sol:TokenMinterFacet",
            "label": "name",
            "offset": 0,
            "slot": "1",
            "type": "t_string_storage"
          },
          {
            "astId": 2299,
            "contract": "contracts/facets/TokenMinterFacet.sol:TokenMinterFacet",
            "label": "tokenAddress",
            "offset": 0,
            "slot": "2",
            "type": "t_address"
          },
          {
            "astId": 2301,
            "contract": "contracts/facets/TokenMinterFacet.sol:TokenMinterFacet",
            "label": "tokenId",
            "offset": 0,
            "slot": "3",
            "type": "t_uint256"
          },
          {
            "astId": 2303,
            "contract": "contracts/facets/TokenMinterFacet.sol:TokenMinterFacet",
            "label": "fractionalizedToken",
            "offset": 0,
            "slot": "4",
            "type": "t_address"
          },
          {
            "astId": 2305,
            "contract": "contracts/facets/TokenMinterFacet.sol:TokenMinterFacet",
            "label": "totalFractions",
            "offset": 0,
            "slot": "5",
            "type": "t_uint256"
          }
        ],
        "numberOfBytes": "192"
      },
      "t_struct(FractionalizerStorage)2314_storage": {
        "encoding": "inplace",
        "label": "struct FractionalizerStorage",
        "members": [
          {
            "astId": 2308,
            "contract": "contracts/facets/TokenMinterFacet.sol:TokenMinterFacet",
            "label": "fTokenTemplate",
            "offset": 0,
            "slot": "0",
            "type": "t_address"
          },
          {
            "astId": 2313,
            "contract": "contracts/facets/TokenMinterFacet.sol:TokenMinterFacet",
            "label": "fractionalizedTokens",
            "offset": 0,
            "slot": "1",
            "type": "t_mapping(t_address,t_struct(FractionalizedTokenData)2306_storage)"
          }
        ],
        "numberOfBytes": "64"
      },
      "t_struct(GemPoolData)6442_storage": {
        "encoding": "inplace",
        "label": "struct IGemPool.GemPoolData",
        "members": [
          {
            "astId": 6433,
            "contract": "contracts/facets/TokenMinterFacet.sol:TokenMinterFacet",
            "label": "pool",
            "offset": 0,
            "slot": "0",
            "type": "t_uint256"
          },
          {
            "astId": 6435,
            "contract": "contracts/facets/TokenMinterFacet.sol:TokenMinterFacet",
            "label": "nextGemHash",
            "offset": 0,
            "slot": "1",
            "type": "t_uint256"
          },
          {
            "astId": 6437,
            "contract": "contracts/facets/TokenMinterFacet.sol:TokenMinterFacet",
            "label": "nextGemNumber",
            "offset": 0,
            "slot": "2",
            "type": "t_uint256"
          },
          {
            "astId": 6439,
            "contract": "contracts/facets/TokenMinterFacet.sol:TokenMinterFacet",
            "label": "gemsMintedCount",
            "offset": 0,
            "slot": "3",
            "type": "t_uint256"
          },
          {
            "astId": 6441,
            "contract": "contracts/facets/TokenMinterFacet.sol:TokenMinterFacet",
            "label": "totalStakedEth",
            "offset": 0,
            "slot": "4",
            "type": "t_uint256"
          }
        ],
        "numberOfBytes": "160"
      },
      "t_struct(GemPoolSettings)6482_storage": {
        "encoding": "inplace",
        "label": "struct IGemPool.GemPoolSettings",
        "members": [
          {
            "astId": 6444,
            "contract": "contracts/facets/TokenMinterFacet.sol:TokenMinterFacet",
            "label": "token",
            "offset": 0,
            "slot": "0",
            "type": "t_address"
          },
          {
            "astId": 6447,
            "contract": "contracts/facets/TokenMinterFacet.sol:TokenMinterFacet",
            "label": "tokenSource",
            "offset": 0,
            "slot": "1",
            "type": "t_struct(TokenSource)6950_storage"
          },
          {
            "astId": 6450,
            "contract": "contracts/facets/TokenMinterFacet.sol:TokenMinterFacet",
            "label": "tokenDefinition",
            "offset": 0,
            "slot": "4",
            "type": "t_struct(TokenDefinition)6928_storage"
          },
          {
            "astId": 6453,
            "contract": "contracts/facets/TokenMinterFacet.sol:TokenMinterFacet",
            "label": "initialPrice",
            "offset": 0,
            "slot": "16",
            "type": "t_struct(TokenPriceData)7093_storage"
          },
          {
            "astId": 6455,
            "contract": "contracts/facets/TokenMinterFacet.sol:TokenMinterFacet",
            "label": "enabled",
            "offset": 0,
            "slot": "20",
            "type": "t_bool"
          },
          {
            "astId": 6457,
            "contract": "contracts/facets/TokenMinterFacet.sol:TokenMinterFacet",
            "label": "visible",
            "offset": 1,
            "slot": "20",
            "type": "t_bool"
          },
          {
            "astId": 6459,
            "contract": "contracts/facets/TokenMinterFacet.sol:TokenMinterFacet",
            "label": "minTime",
            "offset": 0,
            "slot": "21",
            "type": "t_uint256"
          },
          {
            "astId": 6461,
            "contract": "contracts/facets/TokenMinterFacet.sol:TokenMinterFacet",
            "label": "maxTime",
            "offset": 0,
            "slot": "22",
            "type": "t_uint256"
          },
          {
            "astId": 6463,
            "contract": "contracts/facets/TokenMinterFacet.sol:TokenMinterFacet",
            "label": "diffstep",
            "offset": 0,
            "slot": "23",
            "type": "t_uint256"
          },
          {
            "astId": 6465,
            "contract": "contracts/facets/TokenMinterFacet.sol:TokenMinterFacet",
            "label": "maxClaims",
            "offset": 0,
            "slot": "24",
            "type": "t_uint256"
          },
          {
            "astId": 6467,
            "contract": "contracts/facets/TokenMinterFacet.sol:TokenMinterFacet",
            "label": "maxQuantityPerClaim",
            "offset": 0,
            "slot": "25",
            "type": "t_uint256"
          },
          {
            "astId": 6469,
            "contract": "contracts/facets/TokenMinterFacet.sol:TokenMinterFacet",
            "label": "maxClaimsPerAccount",
            "offset": 0,
            "slot": "26",
            "type": "t_uint256"
          },
          {
            "astId": 6471,
            "contract": "contracts/facets/TokenMinterFacet.sol:TokenMinterFacet",
            "label": "earnRatePerPeriod",
            "offset": 0,
            "slot": "27",
            "type": "t_uint256"
          },
          {
            "astId": 6473,
            "contract": "contracts/facets/TokenMinterFacet.sol:TokenMinterFacet",
            "label": "earnPeriodBlocks",
            "offset": 0,
            "slot": "28",
            "type": "t_uint256"
          },
          {
            "astId": 6475,
            "contract": "contracts/facets/TokenMinterFacet.sol:TokenMinterFacet",
            "label": "payPartialBlocks",
            "offset": 0,
            "slot": "29",
            "type": "t_bool"
          },
          {
            "astId": 6477,
            "contract": "contracts/facets/TokenMinterFacet.sol:TokenMinterFacet",
            "label": "mintEarnedToken",
            "offset": 1,
            "slot": "29",
            "type": "t_bool"
          },
          {
            "astId": 6479,
            "contract": "contracts/facets/TokenMinterFacet.sol:TokenMinterFacet",
            "label": "maxTotalEarnedAmount",
            "offset": 0,
            "slot": "30",
            "type": "t_uint256"
          },
          {
            "astId": 6481,
            "contract": "contracts/facets/TokenMinterFacet.sol:TokenMinterFacet",
            "label": "allowPurchase",
            "offset": 0,
            "slot": "31",
            "type": "t_bool"
          }
        ],
        "numberOfBytes": "1024"
      },
      "t_struct(GemPoolStorage)2146_storage": {
        "encoding": "inplace",
        "label": "struct GemPoolStorage",
        "members": [
          {
            "astId": 2117,
            "contract": "contracts/facets/TokenMinterFacet.sol:TokenMinterFacet",
            "label": "_gemPools",
            "offset": 0,
            "slot": "0",
            "type": "t_mapping(t_uint256,t_struct(GemPoolStruct)6489_storage)"
          },
          {
            "astId": 2122,
            "contract": "contracts/facets/TokenMinterFacet.sol:TokenMinterFacet",
            "label": "_recordHashes",
            "offset": 0,
            "slot": "1",
            "type": "t_mapping(t_uint256,t_struct(Set)8943_storage)"
          },
          {
            "astId": 2128,
            "contract": "contracts/facets/TokenMinterFacet.sol:TokenMinterFacet",
            "label": "_bankedRequirements",
            "offset": 0,
            "slot": "2",
            "type": "t_mapping(t_uint256,t_array(t_struct(Token)6891_storage)dyn_storage)"
          },
          {
            "astId": 2133,
            "contract": "contracts/facets/TokenMinterFacet.sol:TokenMinterFacet",
            "label": "_claims",
            "offset": 0,
            "slot": "3",
            "type": "t_mapping(t_uint256,t_struct(Claim)5386_storage)"
          },
          {
            "astId": 2135,
            "contract": "contracts/facets/TokenMinterFacet.sol:TokenMinterFacet",
            "label": "_claimIndex",
            "offset": 0,
            "slot": "4",
            "type": "t_uint256"
          },
          {
            "astId": 2139,
            "contract": "contracts/facets/TokenMinterFacet.sol:TokenMinterFacet",
            "label": "_stakedTotal",
            "offset": 0,
            "slot": "5",
            "type": "t_mapping(t_address,t_uint256)"
          },
          {
            "astId": 2142,
            "contract": "contracts/facets/TokenMinterFacet.sol:TokenMinterFacet",
            "label": "_requirementData",
            "offset": 0,
            "slot": "6",
            "type": "t_struct(RequirementData)6807_storage"
          },
          {
            "astId": 2145,
            "contract": "contracts/facets/TokenMinterFacet.sol:TokenMinterFacet",
            "label": "_symbols",
            "offset": 0,
            "slot": "13",
            "type": "t_array(t_string_storage)dyn_storage"
          }
        ],
        "numberOfBytes": "448"
      },
      "t_struct(GemPoolStruct)6489_storage": {
        "encoding": "inplace",
        "label": "struct IGemPool.GemPoolStruct",
        "members": [
          {
            "astId": 6485,
            "contract": "contracts/facets/TokenMinterFacet.sol:TokenMinterFacet",
            "label": "_gemPoolSettings",
            "offset": 0,
            "slot": "0",
            "type": "t_struct(GemPoolSettings)6482_storage"
          },
          {
            "astId": 6488,
            "contract": "contracts/facets/TokenMinterFacet.sol:TokenMinterFacet",
            "label": "_gemPoolData",
            "offset": 0,
            "slot": "32",
            "type": "t_struct(GemPoolData)6442_storage"
          }
        ],
        "numberOfBytes": "1184"
      },
      "t_struct(MarketItem)6753_storage": {
        "encoding": "inplace",
        "label": "struct IMarketplace.MarketItem",
        "members": [
          {
            "astId": 6736,
            "contract": "contracts/facets/TokenMinterFacet.sol:TokenMinterFacet",
            "label": "itemId",
            "offset": 0,
            "slot": "0",
            "type": "t_uint256"
          },
          {
            "astId": 6738,
            "contract": "contracts/facets/TokenMinterFacet.sol:TokenMinterFacet",
            "label": "nftContract",
            "offset": 0,
            "slot": "1",
            "type": "t_address"
          },
          {
            "astId": 6740,
            "contract": "contracts/facets/TokenMinterFacet.sol:TokenMinterFacet",
            "label": "tokenId",
            "offset": 0,
            "slot": "2",
            "type": "t_uint256"
          },
          {
            "astId": 6742,
            "contract": "contracts/facets/TokenMinterFacet.sol:TokenMinterFacet",
            "label": "seller",
            "offset": 0,
            "slot": "3",
            "type": "t_address"
          },
          {
            "astId": 6744,
            "contract": "contracts/facets/TokenMinterFacet.sol:TokenMinterFacet",
            "label": "owner",
            "offset": 0,
            "slot": "4",
            "type": "t_address"
          },
          {
            "astId": 6746,
            "contract": "contracts/facets/TokenMinterFacet.sol:TokenMinterFacet",
            "label": "price",
            "offset": 0,
            "slot": "5",
            "type": "t_uint256"
          },
          {
            "astId": 6748,
            "contract": "contracts/facets/TokenMinterFacet.sol:TokenMinterFacet",
            "label": "quantity",
            "offset": 0,
            "slot": "6",
            "type": "t_uint256"
          },
          {
            "astId": 6750,
            "contract": "contracts/facets/TokenMinterFacet.sol:TokenMinterFacet",
            "label": "sold",
            "offset": 0,
            "slot": "7",
            "type": "t_bool"
          },
          {
            "astId": 6752,
            "contract": "contracts/facets/TokenMinterFacet.sol:TokenMinterFacet",
            "label": "receiver",
            "offset": 1,
            "slot": "7",
            "type": "t_address"
          }
        ],
        "numberOfBytes": "256"
      },
      "t_struct(MarketUtilsStorage)2382_storage": {
        "encoding": "inplace",
        "label": "struct MarketUtilsStorage",
        "members": [
          {
            "astId": 2381,
            "contract": "contracts/facets/TokenMinterFacet.sol:TokenMinterFacet",
            "label": "validTokens",
            "offset": 0,
            "slot": "0",
            "type": "t_mapping(t_uint256,t_bool)"
          }
        ],
        "numberOfBytes": "32"
      },
      "t_struct(MarketplaceStorage)2284_storage": {
        "encoding": "inplace",
        "label": "struct MarketplaceStorage",
        "members": [
          {
            "astId": 2272,
            "contract": "contracts/facets/TokenMinterFacet.sol:TokenMinterFacet",
            "label": "itemsSold",
            "offset": 0,
            "slot": "0",
            "type": "t_uint256"
          },
          {
            "astId": 2274,
            "contract": "contracts/facets/TokenMinterFacet.sol:TokenMinterFacet",
            "label": "itemIds",
            "offset": 0,
            "slot": "1",
            "type": "t_uint256"
          },
          {
            "astId": 2279,
            "contract": "contracts/facets/TokenMinterFacet.sol:TokenMinterFacet",
            "label": "idToMarketItem",
            "offset": 0,
            "slot": "2",
            "type": "t_mapping(t_uint256,t_struct(MarketItem)6753_storage)"
          },
          {
            "astId": 2283,
            "contract": "contracts/facets/TokenMinterFacet.sol:TokenMinterFacet",
            "label": "idToListed",
            "offset": 0,
            "slot": "3",
            "type": "t_mapping(t_uint256,t_bool)"
          }
        ],
        "numberOfBytes": "128"
      },
      "t_struct(MerkleAirdropStorage)2377_storage": {
        "encoding": "inplace",
        "label": "struct MerkleAirdropStorage",
        "members": [
          {
            "astId": 2356,
            "contract": "contracts/facets/TokenMinterFacet.sol:TokenMinterFacet",
            "label": "_settings",
            "offset": 0,
            "slot": "0",
            "type": "t_mapping(t_uint256,t_struct(AirdropSettings)5195_storage)"
          },
          {
            "astId": 2358,
            "contract": "contracts/facets/TokenMinterFacet.sol:TokenMinterFacet",
            "label": "numSettings",
            "offset": 0,
            "slot": "1",
            "type": "t_uint256"
          },
          {
            "astId": 2364,
            "contract": "contracts/facets/TokenMinterFacet.sol:TokenMinterFacet",
            "label": "_redeemedData",
            "offset": 0,
            "slot": "2",
            "type": "t_mapping(t_uint256,t_mapping(t_uint256,t_uint256))"
          },
          {
            "astId": 2370,
            "contract": "contracts/facets/TokenMinterFacet.sol:TokenMinterFacet",
            "label": "_redeemedDataQuantities",
            "offset": 0,
            "slot": "3",
            "type": "t_mapping(t_uint256,t_mapping(t_address,t_uint256))"
          },
          {
            "astId": 2376,
            "contract": "contracts/facets/TokenMinterFacet.sol:TokenMinterFacet",
            "label": "_totalDataQuantities",
            "offset": 0,
            "slot": "4",
            "type": "t_mapping(t_uint256,t_mapping(t_address,t_uint256))"
          }
        ],
        "numberOfBytes": "160"
      },
      "t_struct(Requirement)6784_storage": {
        "encoding": "inplace",
        "label": "struct IRequirement.Requirement",
        "members": [
          {
            "astId": 6772,
            "contract": "contracts/facets/TokenMinterFacet.sol:TokenMinterFacet",
            "label": "minter",
            "offset": 0,
            "slot": "0",
            "type": "t_address"
          },
          {
            "astId": 6775,
            "contract": "contracts/facets/TokenMinterFacet.sol:TokenMinterFacet",
            "label": "source",
            "offset": 0,
            "slot": "1",
            "type": "t_struct(TokenSource)6950_storage"
          },
          {
            "astId": 6777,
            "contract": "contracts/facets/TokenMinterFacet.sol:TokenMinterFacet",
            "label": "quantity",
            "offset": 0,
            "slot": "4",
            "type": "t_uint256"
          },
          {
            "astId": 6779,
            "contract": "contracts/facets/TokenMinterFacet.sol:TokenMinterFacet",
            "label": "takeCustody",
            "offset": 0,
            "slot": "5",
            "type": "t_bool"
          },
          {
            "astId": 6781,
            "contract": "contracts/facets/TokenMinterFacet.sol:TokenMinterFacet",
            "label": "burn",
            "offset": 1,
            "slot": "5",
            "type": "t_bool"
          },
          {
            "astId": 6783,
            "contract": "contracts/facets/TokenMinterFacet.sol:TokenMinterFacet",
            "label": "requireExactAmount",
            "offset": 2,
            "slot": "5",
            "type": "t_bool"
          }
        ],
        "numberOfBytes": "192"
      },
      "t_struct(RequirementData)6807_storage": {
        "encoding": "inplace",
        "label": "struct IRequirement.RequirementData",
        "members": [
          {
            "astId": 6786,
            "contract": "contracts/facets/TokenMinterFacet.sol:TokenMinterFacet",
            "label": "token",
            "offset": 0,
            "slot": "0",
            "type": "t_address"
          },
          {
            "astId": 6788,
            "contract": "contracts/facets/TokenMinterFacet.sol:TokenMinterFacet",
            "label": "manager",
            "offset": 0,
            "slot": "1",
            "type": "t_address"
          },
          {
            "astId": 6794,
            "contract": "contracts/facets/TokenMinterFacet.sol:TokenMinterFacet",
            "label": "requirements",
            "offset": 0,
            "slot": "2",
            "type": "t_mapping(t_uint256,t_array(t_struct(Requirement)6784_storage)dyn_storage)"
          },
          {
            "astId": 6799,
            "contract": "contracts/facets/TokenMinterFacet.sol:TokenMinterFacet",
            "label": "tokens",
            "offset": 0,
            "slot": "3",
            "type": "t_mapping(t_uint256,t_struct(TokenSet)6903_storage)"
          },
          {
            "astId": 6802,
            "contract": "contracts/facets/TokenMinterFacet.sol:TokenMinterFacet",
            "label": "burnedTokenIds",
            "offset": 0,
            "slot": "4",
            "type": "t_struct(Set)8943_storage"
          },
          {
            "astId": 6806,
            "contract": "contracts/facets/TokenMinterFacet.sol:TokenMinterFacet",
            "label": "burnedTokenQuantities",
            "offset": 0,
            "slot": "6",
            "type": "t_mapping(t_uint256,t_uint256)"
          }
        ],
        "numberOfBytes": "224"
      },
      "t_struct(Set)8943_storage": {
        "encoding": "inplace",
        "label": "struct UInt256Set.Set",
        "members": [
          {
            "astId": 8939,
            "contract": "contracts/facets/TokenMinterFacet.sol:TokenMinterFacet",
            "label": "keyPointers",
            "offset": 0,
            "slot": "0",
            "type": "t_mapping(t_uint256,t_uint256)"
          },
          {
            "astId": 8942,
            "contract": "contracts/facets/TokenMinterFacet.sol:TokenMinterFacet",
            "label": "keyList",
            "offset": 0,
            "slot": "1",
            "type": "t_array(t_uint256)dyn_storage"
          }
        ],
        "numberOfBytes": "64"
      },
      "t_struct(Token)6891_storage": {
        "encoding": "inplace",
        "label": "struct IToken.Token",
        "members": [
          {
            "astId": 6886,
            "contract": "contracts/facets/TokenMinterFacet.sol:TokenMinterFacet",
            "label": "id",
            "offset": 0,
            "slot": "0",
            "type": "t_uint256"
          },
          {
            "astId": 6888,
            "contract": "contracts/facets/TokenMinterFacet.sol:TokenMinterFacet",
            "label": "balance",
            "offset": 0,
            "slot": "1",
            "type": "t_uint256"
          },
          {
            "astId": 6890,
            "contract": "contracts/facets/TokenMinterFacet.sol:TokenMinterFacet",
            "label": "burn",
            "offset": 0,
            "slot": "2",
            "type": "t_bool"
          }
        ],
        "numberOfBytes": "96"
      },
      "t_struct(TokenAttributeStorage)2265_storage": {
        "encoding": "inplace",
        "label": "struct TokenAttributeStorage",
        "members": [
          {
            "astId": 2264,
            "contract": "contracts/facets/TokenMinterFacet.sol:TokenMinterFacet",
            "label": "attributes",
            "offset": 0,
            "slot": "0",
            "type": "t_mapping(t_uint256,t_mapping(t_string_memory_ptr,t_uint256))"
          }
        ],
        "numberOfBytes": "32"
      },
      "t_struct(TokenDefinition)6928_storage": {
        "encoding": "inplace",
        "label": "struct IToken.TokenDefinition",
        "members": [
          {
            "astId": 6905,
            "contract": "contracts/facets/TokenMinterFacet.sol:TokenMinterFacet",
            "label": "token",
            "offset": 0,
            "slot": "0",
            "type": "t_address"
          },
          {
            "astId": 6907,
            "contract": "contracts/facets/TokenMinterFacet.sol:TokenMinterFacet",
            "label": "id",
            "offset": 0,
            "slot": "1",
            "type": "t_uint256"
          },
          {
            "astId": 6909,
            "contract": "contracts/facets/TokenMinterFacet.sol:TokenMinterFacet",
            "label": "collectionId",
            "offset": 0,
            "slot": "2",
            "type": "t_uint256"
          },
          {
            "astId": 6911,
            "contract": "contracts/facets/TokenMinterFacet.sol:TokenMinterFacet",
            "label": "name",
            "offset": 0,
            "slot": "3",
            "type": "t_string_storage"
          },
          {
            "astId": 6913,
            "contract": "contracts/facets/TokenMinterFacet.sol:TokenMinterFacet",
            "label": "symbol",
            "offset": 0,
            "slot": "4",
            "type": "t_string_storage"
          },
          {
            "astId": 6915,
            "contract": "contracts/facets/TokenMinterFacet.sol:TokenMinterFacet",
            "label": "description",
            "offset": 0,
            "slot": "5",
            "type": "t_string_storage"
          },
          {
            "astId": 6917,
            "contract": "contracts/facets/TokenMinterFacet.sol:TokenMinterFacet",
            "label": "decimals",
            "offset": 0,
            "slot": "6",
            "type": "t_uint8"
          },
          {
            "astId": 6919,
            "contract": "contracts/facets/TokenMinterFacet.sol:TokenMinterFacet",
            "label": "totalSupply",
            "offset": 0,
            "slot": "7",
            "type": "t_uint256"
          },
          {
            "astId": 6921,
            "contract": "contracts/facets/TokenMinterFacet.sol:TokenMinterFacet",
            "label": "generateId",
            "offset": 0,
            "slot": "8",
            "type": "t_bool"
          },
          {
            "astId": 6923,
            "contract": "contracts/facets/TokenMinterFacet.sol:TokenMinterFacet",
            "label": "probability",
            "offset": 0,
            "slot": "9",
            "type": "t_uint256"
          },
          {
            "astId": 6925,
            "contract": "contracts/facets/TokenMinterFacet.sol:TokenMinterFacet",
            "label": "probabilityIndex",
            "offset": 0,
            "slot": "10",
            "type": "t_uint256"
          },
          {
            "astId": 6927,
            "contract": "contracts/facets/TokenMinterFacet.sol:TokenMinterFacet",
            "label": "probabilityRoll",
            "offset": 0,
            "slot": "11",
            "type": "t_uint256"
          }
        ],
        "numberOfBytes": "384"
      },
      "t_struct(TokenMinterStorage)2293_storage": {
        "encoding": "inplace",
        "label": "struct TokenMinterStorage",
        "members": [
          {
            "astId": 2286,
            "contract": "contracts/facets/TokenMinterFacet.sol:TokenMinterFacet",
            "label": "token",
            "offset": 0,
            "slot": "0",
            "type": "t_address"
          },
          {
            "astId": 2288,
            "contract": "contracts/facets/TokenMinterFacet.sol:TokenMinterFacet",
            "label": "_tokenCounter",
            "offset": 0,
            "slot": "1",
            "type": "t_uint256"
          },
          {
            "astId": 2292,
            "contract": "contracts/facets/TokenMinterFacet.sol:TokenMinterFacet",
            "label": "_tokenMinters",
            "offset": 0,
            "slot": "2",
            "type": "t_mapping(t_uint256,t_address)"
          }
        ],
        "numberOfBytes": "96"
      },
      "t_struct(TokenOwnership)6178_storage": {
        "encoding": "inplace",
        "label": "struct IERC721A.TokenOwnership",
        "members": [
          {
            "astId": 6173,
            "contract": "contracts/facets/TokenMinterFacet.sol:TokenMinterFacet",
            "label": "addr",
            "offset": 0,
            "slot": "0",
            "type": "t_address"
          },
          {
            "astId": 6175,
            "contract": "contracts/facets/TokenMinterFacet.sol:TokenMinterFacet",
            "label": "startTimestamp",
            "offset": 20,
            "slot": "0",
            "type": "t_uint64"
          },
          {
            "astId": 6177,
            "contract": "contracts/facets/TokenMinterFacet.sol:TokenMinterFacet",
            "label": "burned",
            "offset": 28,
            "slot": "0",
            "type": "t_bool"
          }
        ],
        "numberOfBytes": "32"
      },
      "t_struct(TokenPriceData)7093_storage": {
        "encoding": "inplace",
        "label": "struct ITokenPrice.TokenPriceData",
        "members": [
          {
            "astId": 7085,
            "contract": "contracts/facets/TokenMinterFacet.sol:TokenMinterFacet",
            "label": "price",
            "offset": 0,
            "slot": "0",
            "type": "t_uint256"
          },
          {
            "astId": 7088,
            "contract": "contracts/facets/TokenMinterFacet.sol:TokenMinterFacet",
            "label": "priceModifier",
            "offset": 0,
            "slot": "1",
            "type": "t_enum(PriceModifier)7083"
          },
          {
            "astId": 7090,
            "contract": "contracts/facets/TokenMinterFacet.sol:TokenMinterFacet",
            "label": "priceModifierFactor",
            "offset": 0,
            "slot": "2",
            "type": "t_uint256"
          },
          {
            "astId": 7092,
            "contract": "contracts/facets/TokenMinterFacet.sol:TokenMinterFacet",
            "label": "maxPrice",
            "offset": 0,
            "slot": "3",
            "type": "t_uint256"
          }
        ],
        "numberOfBytes": "128"
      },
      "t_struct(TokenSaleEntry)7125_storage": {
        "encoding": "inplace",
        "label": "struct ITokenSale.TokenSaleEntry",
        "members": [
          {
            "astId": 7112,
            "contract": "contracts/facets/TokenMinterFacet.sol:TokenMinterFacet",
            "label": "receiver",
            "offset": 0,
            "slot": "0",
            "type": "t_address_payable"
          },
          {
            "astId": 7114,
            "contract": "contracts/facets/TokenMinterFacet.sol:TokenMinterFacet",
            "label": "sourceToken",
            "offset": 0,
            "slot": "1",
            "type": "t_address"
          },
          {
            "astId": 7116,
            "contract": "contracts/facets/TokenMinterFacet.sol:TokenMinterFacet",
            "label": "sourceTokenId",
            "offset": 0,
            "slot": "2",
            "type": "t_uint256"
          },
          {
            "astId": 7118,
            "contract": "contracts/facets/TokenMinterFacet.sol:TokenMinterFacet",
            "label": "token",
            "offset": 0,
            "slot": "3",
            "type": "t_address"
          },
          {
            "astId": 7120,
            "contract": "contracts/facets/TokenMinterFacet.sol:TokenMinterFacet",
            "label": "quantity",
            "offset": 0,
            "slot": "4",
            "type": "t_uint256"
          },
          {
            "astId": 7122,
            "contract": "contracts/facets/TokenMinterFacet.sol:TokenMinterFacet",
            "label": "price",
            "offset": 0,
            "slot": "5",
            "type": "t_uint256"
          },
          {
            "astId": 7124,
            "contract": "contracts/facets/TokenMinterFacet.sol:TokenMinterFacet",
            "label": "quantitySold",
            "offset": 0,
            "slot": "6",
            "type": "t_uint256"
          }
        ],
        "numberOfBytes": "224"
      },
      "t_struct(TokenSaleSettings)5293_storage": {
        "encoding": "inplace",
        "label": "struct IAirdropTokenSale.TokenSaleSettings",
        "members": [
          {
            "astId": 5259,
            "contract": "contracts/facets/TokenMinterFacet.sol:TokenMinterFacet",
            "label": "contractAddress",
            "offset": 0,
            "slot": "0",
            "type": "t_address"
          },
          {
            "astId": 5261,
            "contract": "contracts/facets/TokenMinterFacet.sol:TokenMinterFacet",
            "label": "token",
            "offset": 0,
            "slot": "1",
            "type": "t_address"
          },
          {
            "astId": 5263,
            "contract": "contracts/facets/TokenMinterFacet.sol:TokenMinterFacet",
            "label": "tokenHash",
            "offset": 0,
            "slot": "2",
            "type": "t_uint256"
          },
          {
            "astId": 5265,
            "contract": "contracts/facets/TokenMinterFacet.sol:TokenMinterFacet",
            "label": "collectionHash",
            "offset": 0,
            "slot": "3",
            "type": "t_uint256"
          },
          {
            "astId": 5267,
            "contract": "contracts/facets/TokenMinterFacet.sol:TokenMinterFacet",
            "label": "owner",
            "offset": 0,
            "slot": "4",
            "type": "t_address"
          },
          {
            "astId": 5269,
            "contract": "contracts/facets/TokenMinterFacet.sol:TokenMinterFacet",
            "label": "payee",
            "offset": 0,
            "slot": "5",
            "type": "t_address"
          },
          {
            "astId": 5271,
            "contract": "contracts/facets/TokenMinterFacet.sol:TokenMinterFacet",
            "label": "symbol",
            "offset": 0,
            "slot": "6",
            "type": "t_string_storage"
          },
          {
            "astId": 5273,
            "contract": "contracts/facets/TokenMinterFacet.sol:TokenMinterFacet",
            "label": "name",
            "offset": 0,
            "slot": "7",
            "type": "t_string_storage"
          },
          {
            "astId": 5275,
            "contract": "contracts/facets/TokenMinterFacet.sol:TokenMinterFacet",
            "label": "description",
            "offset": 0,
            "slot": "8",
            "type": "t_string_storage"
          },
          {
            "astId": 5277,
            "contract": "contracts/facets/TokenMinterFacet.sol:TokenMinterFacet",
            "label": "openState",
            "offset": 0,
            "slot": "9",
            "type": "t_bool"
          },
          {
            "astId": 5279,
            "contract": "contracts/facets/TokenMinterFacet.sol:TokenMinterFacet",
            "label": "startTime",
            "offset": 0,
            "slot": "10",
            "type": "t_uint256"
          },
          {
            "astId": 5281,
            "contract": "contracts/facets/TokenMinterFacet.sol:TokenMinterFacet",
            "label": "endTime",
            "offset": 0,
            "slot": "11",
            "type": "t_uint256"
          },
          {
            "astId": 5283,
            "contract": "contracts/facets/TokenMinterFacet.sol:TokenMinterFacet",
            "label": "maxQuantity",
            "offset": 0,
            "slot": "12",
            "type": "t_uint256"
          },
          {
            "astId": 5285,
            "contract": "contracts/facets/TokenMinterFacet.sol:TokenMinterFacet",
            "label": "maxQuantityPerSale",
            "offset": 0,
            "slot": "13",
            "type": "t_uint256"
          },
          {
            "astId": 5287,
            "contract": "contracts/facets/TokenMinterFacet.sol:TokenMinterFacet",
            "label": "minQuantityPerSale",
            "offset": 0,
            "slot": "14",
            "type": "t_uint256"
          },
          {
            "astId": 5289,
            "contract": "contracts/facets/TokenMinterFacet.sol:TokenMinterFacet",
            "label": "maxQuantityPerAccount",
            "offset": 0,
            "slot": "15",
            "type": "t_uint256"
          },
          {
            "astId": 5292,
            "contract": "contracts/facets/TokenMinterFacet.sol:TokenMinterFacet",
            "label": "initialPrice",
            "offset": 0,
            "slot": "16",
            "type": "t_struct(TokenPriceData)7093_storage"
          }
        ],
        "numberOfBytes": "640"
      },
      "t_struct(TokenSaleStorage)2320_storage": {
        "encoding": "inplace",
        "label": "struct TokenSaleStorage",
        "members": [
          {
            "astId": 2319,
            "contract": "contracts/facets/TokenMinterFacet.sol:TokenMinterFacet",
            "label": "tokenSaleEntries",
            "offset": 0,
            "slot": "0",
            "type": "t_mapping(t_address,t_struct(TokenSaleEntry)7125_storage)"
          }
        ],
        "numberOfBytes": "32"
      },
      "t_struct(TokenSet)6903_storage": {
        "encoding": "inplace",
        "label": "struct IToken.TokenSet",
        "members": [
          {
            "astId": 6895,
            "contract": "contracts/facets/TokenMinterFacet.sol:TokenMinterFacet",
            "label": "keyPointers",
            "offset": 0,
            "slot": "0",
            "type": "t_mapping(t_uint256,t_uint256)"
          },
          {
            "astId": 6898,
            "contract": "contracts/facets/TokenMinterFacet.sol:TokenMinterFacet",
            "label": "keyList",
            "offset": 0,
            "slot": "1",
            "type": "t_array(t_uint256)dyn_storage"
          },
          {
            "astId": 6902,
            "contract": "contracts/facets/TokenMinterFacet.sol:TokenMinterFacet",
            "label": "valueList",
            "offset": 0,
            "slot": "2",
            "type": "t_array(t_struct(Token)6891_storage)dyn_storage"
          }
        ],
        "numberOfBytes": "96"
      },
      "t_struct(TokenSource)6950_storage": {
        "encoding": "inplace",
        "label": "struct IToken.TokenSource",
        "members": [
          {
            "astId": 6945,
            "contract": "contracts/facets/TokenMinterFacet.sol:TokenMinterFacet",
            "label": "_type",
            "offset": 0,
            "slot": "0",
            "type": "t_enum(TokenSourceType)6942"
          },
          {
            "astId": 6947,
            "contract": "contracts/facets/TokenMinterFacet.sol:TokenMinterFacet",
            "label": "staticSourceId",
            "offset": 0,
            "slot": "1",
            "type": "t_uint256"
          },
          {
            "astId": 6949,
            "contract": "contracts/facets/TokenMinterFacet.sol:TokenMinterFacet",
            "label": "collectionSourceAddress",
            "offset": 0,
            "slot": "2",
            "type": "t_address"
          }
        ],
        "numberOfBytes": "96"
      },
      "t_uint256": {
        "encoding": "inplace",
        "label": "uint256",
        "numberOfBytes": "32"
      },
      "t_uint64": {
        "encoding": "inplace",
        "label": "uint64",
        "numberOfBytes": "8"
      },
      "t_uint8": {
        "encoding": "inplace",
        "label": "uint8",
        "numberOfBytes": "1"
      }
    }
  }
}