{
  "address": "0x2ea6921e9c0C9dd9686bcABb79FECC7E20E2E65e",
  "abi": [
    {
      "anonymous": false,
      "inputs": [
        {
          "indexed": true,
          "internalType": "address",
          "name": "receiver",
          "type": "address"
        },
        {
          "indexed": true,
          "internalType": "uint256",
          "name": "tokenId",
          "type": "uint256"
        }
      ],
      "name": "Token",
      "type": "event"
    },
    {
      "anonymous": false,
      "inputs": [
        {
          "indexed": true,
          "internalType": "address",
          "name": "target",
          "type": "address"
        },
        {
          "indexed": true,
          "internalType": "uint256",
          "name": "tokenId",
          "type": "uint256"
        }
      ],
      "name": "TokenBurn",
      "type": "event"
    },
    {
      "inputs": [
        {
          "internalType": "address",
          "name": "token",
          "type": "address"
        }
      ],
      "name": "setToken",
      "outputs": [],
      "stateMutability": "nonpayable",
      "type": "function"
    }
  ],
  "transactionHash": "0xb4320e87f38f8d9d19ee683f12f2af5a8916cffa4cc17f7da7ec6feb75364171",
  "args": [],
  "numDeployments": 2,
  "solcInputHash": "f5e1fc7fb8c13bf287022000b09bdd26",
  "bytecode": "0x608060405234801561001057600080fd5b50610154806100206000396000f3fe608060405234801561001057600080fd5b506004361061002b5760003560e01c8063144fa6d714610030575b600080fd5b61004361003e3660046100ee565b610045565b005b7fc8fcad8db84d3cc18b4c41d551ea0ee66dd599cde068d998e57d5e09332c1320546001600160a01b031633148061007c57503330145b6100cc5760405162461bcd60e51b815260206004820181905260248201527f6f6e6c792074686520636f6e7472616374206f776e65722063616e206d696e74604482015260640160405180910390fd5b600b80546001600160a01b0319166001600160a01b0392909216919091179055565b60006020828403121561010057600080fd5b81356001600160a01b038116811461011757600080fd5b939250505056fea264697066735822122098e271b5e63af9c7c14cc89ddfdfcd82bf9dbb97ebad2e612e67ecb2c94095d664736f6c63430008060033",
  "libraries": {
    "AddressSet": "0xf88EB844922B1ab0e153cF9E9bEefecc9512DE06",
    "UInt256Set": "0xCc995d7a8c7c499128cB34Ef0dA290F5f4f4EE71",
    "LibAppStorage": "0xE8AFAC55a08d23d049555A65Db1f6B76aDAB012A",
    "LibDiamond": "0xd77fa05d7Fba908919b3A4b9E41Cc62A1A7F728D",
    "MerkleProof": "0xe2f6D7E396B31d50dc5d11aD23c17859aDc95bB3"
  },
  "devdoc": {
    "kind": "dev",
    "methods": {},
    "version": 1
  },
  "userdoc": {
    "kind": "user",
    "methods": {},
    "version": 1
  },
  "storageLayout": {
    "storage": [
      {
        "astId": 4483,
        "contract": "contracts/facets/TokenMinterFacet.sol:TokenMinterFacet",
        "label": "s",
        "offset": 0,
        "slot": "0",
        "type": "t_struct(AppStorage)2186_storage"
      }
    ],
    "types": {
      "t_address": {
        "encoding": "inplace",
        "label": "address",
        "numberOfBytes": "20"
      },
      "t_bool": {
        "encoding": "inplace",
        "label": "bool",
        "numberOfBytes": "1"
      },
      "t_bytes32": {
        "encoding": "inplace",
        "label": "bytes32",
        "numberOfBytes": "32"
      },
      "t_enum(PaymentType)4878": {
        "encoding": "inplace",
        "label": "enum IAirdropTokenSale.PaymentType",
        "numberOfBytes": "1"
      },
      "t_enum(PriceModifier)6700": {
        "encoding": "inplace",
        "label": "enum ITokenPrice.PriceModifier",
        "numberOfBytes": "1"
      },
      "t_mapping(t_address,t_uint256)": {
        "encoding": "mapping",
        "key": "t_address",
        "label": "mapping(address => uint256)",
        "numberOfBytes": "32",
        "value": "t_uint256"
      },
      "t_mapping(t_uint256,t_bool)": {
        "encoding": "mapping",
        "key": "t_uint256",
        "label": "mapping(uint256 => bool)",
        "numberOfBytes": "32",
        "value": "t_bool"
      },
      "t_mapping(t_uint256,t_mapping(t_address,t_uint256))": {
        "encoding": "mapping",
        "key": "t_uint256",
        "label": "mapping(uint256 => mapping(address => uint256))",
        "numberOfBytes": "32",
        "value": "t_mapping(t_address,t_uint256)"
      },
      "t_mapping(t_uint256,t_mapping(t_uint256,t_uint256))": {
        "encoding": "mapping",
        "key": "t_uint256",
        "label": "mapping(uint256 => mapping(uint256 => uint256))",
        "numberOfBytes": "32",
        "value": "t_mapping(t_uint256,t_uint256)"
      },
      "t_mapping(t_uint256,t_struct(AirdropSettings)4813_storage)": {
        "encoding": "mapping",
        "key": "t_uint256",
        "label": "mapping(uint256 => struct IAirdrop.AirdropSettings)",
        "numberOfBytes": "32",
        "value": "t_struct(AirdropSettings)4813_storage"
      },
      "t_mapping(t_uint256,t_struct(TokenSaleSettings)4919_storage)": {
        "encoding": "mapping",
        "key": "t_uint256",
        "label": "mapping(uint256 => struct IAirdropTokenSale.TokenSaleSettings)",
        "numberOfBytes": "32",
        "value": "t_struct(TokenSaleSettings)4919_storage"
      },
      "t_mapping(t_uint256,t_uint256)": {
        "encoding": "mapping",
        "key": "t_uint256",
        "label": "mapping(uint256 => uint256)",
        "numberOfBytes": "32",
        "value": "t_uint256"
      },
      "t_string_storage": {
        "encoding": "bytes",
        "label": "string",
        "numberOfBytes": "32"
      },
      "t_struct(AirdropSettings)4813_storage": {
        "encoding": "inplace",
        "label": "struct IAirdrop.AirdropSettings",
        "members": [
          {
            "astId": 4784,
            "contract": "contracts/facets/TokenMinterFacet.sol:TokenMinterFacet",
            "label": "whitelistOnly",
            "offset": 0,
            "slot": "0",
            "type": "t_bool"
          },
          {
            "astId": 4786,
            "contract": "contracts/facets/TokenMinterFacet.sol:TokenMinterFacet",
            "label": "whitelistId",
            "offset": 0,
            "slot": "1",
            "type": "t_uint256"
          },
          {
            "astId": 4788,
            "contract": "contracts/facets/TokenMinterFacet.sol:TokenMinterFacet",
            "label": "whitelistHash",
            "offset": 0,
            "slot": "2",
            "type": "t_bytes32"
          },
          {
            "astId": 4790,
            "contract": "contracts/facets/TokenMinterFacet.sol:TokenMinterFacet",
            "label": "maxQuantity",
            "offset": 0,
            "slot": "3",
            "type": "t_uint256"
          },
          {
            "astId": 4792,
            "contract": "contracts/facets/TokenMinterFacet.sol:TokenMinterFacet",
            "label": "maxQuantityPerSale",
            "offset": 0,
            "slot": "4",
            "type": "t_uint256"
          },
          {
            "astId": 4794,
            "contract": "contracts/facets/TokenMinterFacet.sol:TokenMinterFacet",
            "label": "minQuantityPerSale",
            "offset": 0,
            "slot": "5",
            "type": "t_uint256"
          },
          {
            "astId": 4796,
            "contract": "contracts/facets/TokenMinterFacet.sol:TokenMinterFacet",
            "label": "maxQuantityPerAccount",
            "offset": 0,
            "slot": "6",
            "type": "t_uint256"
          },
          {
            "astId": 4798,
            "contract": "contracts/facets/TokenMinterFacet.sol:TokenMinterFacet",
            "label": "quantitySold",
            "offset": 0,
            "slot": "7",
            "type": "t_uint256"
          },
          {
            "astId": 4800,
            "contract": "contracts/facets/TokenMinterFacet.sol:TokenMinterFacet",
            "label": "startTime",
            "offset": 0,
            "slot": "8",
            "type": "t_uint256"
          },
          {
            "astId": 4802,
            "contract": "contracts/facets/TokenMinterFacet.sol:TokenMinterFacet",
            "label": "endTime",
            "offset": 0,
            "slot": "9",
            "type": "t_uint256"
          },
          {
            "astId": 4805,
            "contract": "contracts/facets/TokenMinterFacet.sol:TokenMinterFacet",
            "label": "initialPrice",
            "offset": 0,
            "slot": "10",
            "type": "t_struct(TokenPriceData)6710_storage"
          },
          {
            "astId": 4807,
            "contract": "contracts/facets/TokenMinterFacet.sol:TokenMinterFacet",
            "label": "tokenHash",
            "offset": 0,
            "slot": "14",
            "type": "t_uint256"
          },
          {
            "astId": 4810,
            "contract": "contracts/facets/TokenMinterFacet.sol:TokenMinterFacet",
            "label": "paymentType",
            "offset": 0,
            "slot": "15",
            "type": "t_enum(PaymentType)4878"
          },
          {
            "astId": 4812,
            "contract": "contracts/facets/TokenMinterFacet.sol:TokenMinterFacet",
            "label": "tokenAddress",
            "offset": 1,
            "slot": "15",
            "type": "t_address"
          }
        ],
        "numberOfBytes": "512"
      },
      "t_struct(AirdropTokenSaleStorage)2145_storage": {
        "encoding": "inplace",
        "label": "struct AirdropTokenSaleStorage",
        "members": [
          {
            "astId": 2121,
            "contract": "contracts/facets/TokenMinterFacet.sol:TokenMinterFacet",
            "label": "tsnonce",
            "offset": 0,
            "slot": "0",
            "type": "t_uint256"
          },
          {
            "astId": 2125,
            "contract": "contracts/facets/TokenMinterFacet.sol:TokenMinterFacet",
            "label": "nonces",
            "offset": 0,
            "slot": "1",
            "type": "t_mapping(t_uint256,t_uint256)"
          },
          {
            "astId": 2130,
            "contract": "contracts/facets/TokenMinterFacet.sol:TokenMinterFacet",
            "label": "_tokenSales",
            "offset": 0,
            "slot": "2",
            "type": "t_mapping(t_uint256,t_struct(TokenSaleSettings)4919_storage)"
          },
          {
            "astId": 2134,
            "contract": "contracts/facets/TokenMinterFacet.sol:TokenMinterFacet",
            "label": "tokenSaleOpen",
            "offset": 0,
            "slot": "3",
            "type": "t_mapping(t_uint256,t_bool)"
          },
          {
            "astId": 2140,
            "contract": "contracts/facets/TokenMinterFacet.sol:TokenMinterFacet",
            "label": "purchased",
            "offset": 0,
            "slot": "4",
            "type": "t_mapping(t_uint256,t_mapping(t_address,t_uint256))"
          },
          {
            "astId": 2144,
            "contract": "contracts/facets/TokenMinterFacet.sol:TokenMinterFacet",
            "label": "totalPurchased",
            "offset": 0,
            "slot": "5",
            "type": "t_mapping(t_uint256,t_uint256)"
          }
        ],
        "numberOfBytes": "192"
      },
      "t_struct(AppStorage)2186_storage": {
        "encoding": "inplace",
        "label": "struct AppStorage",
        "members": [
          {
            "astId": 2179,
            "contract": "contracts/facets/TokenMinterFacet.sol:TokenMinterFacet",
            "label": "merkleAirdropStorage",
            "offset": 0,
            "slot": "0",
            "type": "t_struct(MerkleAirdropStorage)2171_storage"
          },
          {
            "astId": 2182,
            "contract": "contracts/facets/TokenMinterFacet.sol:TokenMinterFacet",
            "label": "airdropTokenSaleStorage",
            "offset": 0,
            "slot": "5",
            "type": "t_struct(AirdropTokenSaleStorage)2145_storage"
          },
          {
            "astId": 2185,
            "contract": "contracts/facets/TokenMinterFacet.sol:TokenMinterFacet",
            "label": "tokenMinterStorage",
            "offset": 0,
            "slot": "11",
            "type": "t_struct(TokenMinterStorage)2113_storage"
          }
        ],
        "numberOfBytes": "384"
      },
      "t_struct(MerkleAirdropStorage)2171_storage": {
        "encoding": "inplace",
        "label": "struct MerkleAirdropStorage",
        "members": [
          {
            "astId": 2150,
            "contract": "contracts/facets/TokenMinterFacet.sol:TokenMinterFacet",
            "label": "_settings",
            "offset": 0,
            "slot": "0",
            "type": "t_mapping(t_uint256,t_struct(AirdropSettings)4813_storage)"
          },
          {
            "astId": 2152,
            "contract": "contracts/facets/TokenMinterFacet.sol:TokenMinterFacet",
            "label": "numSettings",
            "offset": 0,
            "slot": "1",
            "type": "t_uint256"
          },
          {
            "astId": 2158,
            "contract": "contracts/facets/TokenMinterFacet.sol:TokenMinterFacet",
            "label": "_redeemedData",
            "offset": 0,
            "slot": "2",
            "type": "t_mapping(t_uint256,t_mapping(t_uint256,t_uint256))"
          },
          {
            "astId": 2164,
            "contract": "contracts/facets/TokenMinterFacet.sol:TokenMinterFacet",
            "label": "_redeemedDataQuantities",
            "offset": 0,
            "slot": "3",
            "type": "t_mapping(t_uint256,t_mapping(t_address,t_uint256))"
          },
          {
            "astId": 2170,
            "contract": "contracts/facets/TokenMinterFacet.sol:TokenMinterFacet",
            "label": "_totalDataQuantities",
            "offset": 0,
            "slot": "4",
            "type": "t_mapping(t_uint256,t_mapping(t_address,t_uint256))"
          }
        ],
        "numberOfBytes": "160"
      },
      "t_struct(TokenMinterStorage)2113_storage": {
        "encoding": "inplace",
        "label": "struct TokenMinterStorage",
        "members": [
          {
            "astId": 2112,
            "contract": "contracts/facets/TokenMinterFacet.sol:TokenMinterFacet",
            "label": "token",
            "offset": 0,
            "slot": "0",
            "type": "t_address"
          }
        ],
        "numberOfBytes": "32"
      },
      "t_struct(TokenPriceData)6710_storage": {
        "encoding": "inplace",
        "label": "struct ITokenPrice.TokenPriceData",
        "members": [
          {
            "astId": 6702,
            "contract": "contracts/facets/TokenMinterFacet.sol:TokenMinterFacet",
            "label": "price",
            "offset": 0,
            "slot": "0",
            "type": "t_uint256"
          },
          {
            "astId": 6705,
            "contract": "contracts/facets/TokenMinterFacet.sol:TokenMinterFacet",
            "label": "priceModifier",
            "offset": 0,
            "slot": "1",
            "type": "t_enum(PriceModifier)6700"
          },
          {
            "astId": 6707,
            "contract": "contracts/facets/TokenMinterFacet.sol:TokenMinterFacet",
            "label": "priceModifierFactor",
            "offset": 0,
            "slot": "2",
            "type": "t_uint256"
          },
          {
            "astId": 6709,
            "contract": "contracts/facets/TokenMinterFacet.sol:TokenMinterFacet",
            "label": "maxPrice",
            "offset": 0,
            "slot": "3",
            "type": "t_uint256"
          }
        ],
        "numberOfBytes": "128"
      },
      "t_struct(TokenSaleSettings)4919_storage": {
        "encoding": "inplace",
        "label": "struct IAirdropTokenSale.TokenSaleSettings",
        "members": [
          {
            "astId": 4880,
            "contract": "contracts/facets/TokenMinterFacet.sol:TokenMinterFacet",
            "label": "contractAddress",
            "offset": 0,
            "slot": "0",
            "type": "t_address"
          },
          {
            "astId": 4882,
            "contract": "contracts/facets/TokenMinterFacet.sol:TokenMinterFacet",
            "label": "token",
            "offset": 0,
            "slot": "1",
            "type": "t_address"
          },
          {
            "astId": 4884,
            "contract": "contracts/facets/TokenMinterFacet.sol:TokenMinterFacet",
            "label": "tokenHash",
            "offset": 0,
            "slot": "2",
            "type": "t_uint256"
          },
          {
            "astId": 4886,
            "contract": "contracts/facets/TokenMinterFacet.sol:TokenMinterFacet",
            "label": "collectionHash",
            "offset": 0,
            "slot": "3",
            "type": "t_uint256"
          },
          {
            "astId": 4888,
            "contract": "contracts/facets/TokenMinterFacet.sol:TokenMinterFacet",
            "label": "owner",
            "offset": 0,
            "slot": "4",
            "type": "t_address"
          },
          {
            "astId": 4890,
            "contract": "contracts/facets/TokenMinterFacet.sol:TokenMinterFacet",
            "label": "payee",
            "offset": 0,
            "slot": "5",
            "type": "t_address"
          },
          {
            "astId": 4892,
            "contract": "contracts/facets/TokenMinterFacet.sol:TokenMinterFacet",
            "label": "symbol",
            "offset": 0,
            "slot": "6",
            "type": "t_string_storage"
          },
          {
            "astId": 4894,
            "contract": "contracts/facets/TokenMinterFacet.sol:TokenMinterFacet",
            "label": "name",
            "offset": 0,
            "slot": "7",
            "type": "t_string_storage"
          },
          {
            "astId": 4896,
            "contract": "contracts/facets/TokenMinterFacet.sol:TokenMinterFacet",
            "label": "description",
            "offset": 0,
            "slot": "8",
            "type": "t_string_storage"
          },
          {
            "astId": 4898,
            "contract": "contracts/facets/TokenMinterFacet.sol:TokenMinterFacet",
            "label": "openState",
            "offset": 0,
            "slot": "9",
            "type": "t_bool"
          },
          {
            "astId": 4900,
            "contract": "contracts/facets/TokenMinterFacet.sol:TokenMinterFacet",
            "label": "startTime",
            "offset": 0,
            "slot": "10",
            "type": "t_uint256"
          },
          {
            "astId": 4902,
            "contract": "contracts/facets/TokenMinterFacet.sol:TokenMinterFacet",
            "label": "endTime",
            "offset": 0,
            "slot": "11",
            "type": "t_uint256"
          },
          {
            "astId": 4904,
            "contract": "contracts/facets/TokenMinterFacet.sol:TokenMinterFacet",
            "label": "maxQuantity",
            "offset": 0,
            "slot": "12",
            "type": "t_uint256"
          },
          {
            "astId": 4906,
            "contract": "contracts/facets/TokenMinterFacet.sol:TokenMinterFacet",
            "label": "maxQuantityPerSale",
            "offset": 0,
            "slot": "13",
            "type": "t_uint256"
          },
          {
            "astId": 4908,
            "contract": "contracts/facets/TokenMinterFacet.sol:TokenMinterFacet",
            "label": "minQuantityPerSale",
            "offset": 0,
            "slot": "14",
            "type": "t_uint256"
          },
          {
            "astId": 4910,
            "contract": "contracts/facets/TokenMinterFacet.sol:TokenMinterFacet",
            "label": "maxQuantityPerAccount",
            "offset": 0,
            "slot": "15",
            "type": "t_uint256"
          },
          {
            "astId": 4913,
            "contract": "contracts/facets/TokenMinterFacet.sol:TokenMinterFacet",
            "label": "initialPrice",
            "offset": 0,
            "slot": "16",
            "type": "t_struct(TokenPriceData)6710_storage"
          },
          {
            "astId": 4916,
            "contract": "contracts/facets/TokenMinterFacet.sol:TokenMinterFacet",
            "label": "paymentType",
            "offset": 0,
            "slot": "20",
            "type": "t_enum(PaymentType)4878"
          },
          {
            "astId": 4918,
            "contract": "contracts/facets/TokenMinterFacet.sol:TokenMinterFacet",
            "label": "tokenAddress",
            "offset": 1,
            "slot": "20",
            "type": "t_address"
          }
        ],
        "numberOfBytes": "672"
      },
      "t_uint256": {
        "encoding": "inplace",
        "label": "uint256",
        "numberOfBytes": "32"
      }
    }
  }
}