{
  "address": "0x490d4D78f3651728BAfA488C448ef2eb94577f76",
  "abi": [
    {
      "anonymous": false,
      "inputs": [
        {
          "indexed": false,
          "internalType": "address",
          "name": "recipient",
          "type": "address"
        },
        {
          "indexed": false,
          "internalType": "address",
          "name": "token",
          "type": "address"
        },
        {
          "indexed": false,
          "internalType": "uint256",
          "name": "id",
          "type": "uint256"
        },
        {
          "indexed": false,
          "internalType": "uint256",
          "name": "amount",
          "type": "uint256"
        }
      ],
      "name": "TokenWithdrawn",
      "type": "event"
    },
    {
      "inputs": [
        {
          "internalType": "address",
          "name": "recipient",
          "type": "address"
        },
        {
          "internalType": "address",
          "name": "token",
          "type": "address"
        },
        {
          "internalType": "uint256",
          "name": "id",
          "type": "uint256"
        },
        {
          "internalType": "uint256",
          "name": "amount",
          "type": "uint256"
        }
      ],
      "name": "withdraw",
      "outputs": [],
      "stateMutability": "payable",
      "type": "function"
    }
  ],
  "transactionHash": "0x74be2719d4a2072c2f9bcdbb12118e069abcc17bf1a61c52666b2e9f86563353",
  "args": [],
  "numDeployments": 2,
  "solcInputHash": "afe5007c1f3b66f010b53beae8f59210",
  "bytecode": "0x608060405234801561001057600080fd5b50610935806100206000396000f3fe60806040526004361061001e5760003560e01c80637bfe950c14610023575b600080fd5b6100366100313660046107c4565b610038565b005b3361006a7fc8fcad8db84d3cc18b4c41d551ea0ee66dd599cde068d998e57d5e09332c1320546001600160a01b031690565b6001600160a01b0316148061007e57503033145b6100ef5760405162461bcd60e51b815260206004820152603760248201527f455243313135353a206f6e6c792074686520636f6e7472616374206f776e65726044820152761031b0b71031b0b636103a3434b990333ab731ba34b7b760491b60648201526084015b60405180910390fd5b6001600160a01b0384166101455760405162461bcd60e51b815260206004820181905260248201527f726563697069656e74206973206e6f7420616c6c6f77656420746f206265203060448201526064016100e6565b600081116101955760405162461bcd60e51b815260206004820152601d60248201527f616d6f756e74206d7573742062652067726561746572207468616e203000000060448201526064016100e6565b6001600160a01b03831661020b576040516001600160a01b0385169082156108fc029083906000818181858888f193505050501580156101d9573d6000803e3d6000fd5b506000805160206108e083398151915284600080846040516101fe9493929190610859565b60405180910390a161079a565b60405163263e0c1b60e01b8152600090735ddA1aCa8aF2E4751208877C15730D51Ac965eF59063263e0c1b90610245908790600401610845565b60206040518083038186803b15801561025d57600080fd5b505af4158015610271573d6000803e3d6000fd5b505050506040513d601f19601f82011682018060405250810190610295919061080a565b905080156103eb576040516370a0823160e01b815282906001600160a01b038616906370a08231906102cb903090600401610845565b60206040518083038186803b1580156102e357600080fd5b505afa1580156102f7573d6000803e3d6000fd5b505050506040513d601f19601f8201168201806040525081019061031b919061082c565b10156103395760405162461bcd60e51b81526004016100e69061089b565b60405163a9059cbb60e01b81526001600160a01b0385169063a9059cbb906103679088908690600401610882565b602060405180830381600087803b15801561038157600080fd5b505af1158015610395573d6000803e3d6000fd5b505050506040513d601f19601f820116820180604052508101906103b9919061080a565b506000805160206108e0833981519152858585856040516103dd9493929190610859565b60405180910390a15061079a565b6040516336a8279560e21b8152600090735ddA1aCa8aF2E4751208877C15730D51Ac965eF59063daa09e5490610425908890600401610845565b60206040518083038186803b15801561043d57600080fd5b505af4158015610451573d6000803e3d6000fd5b505050506040513d601f19601f82011682018060405250810190610475919061080a565b905080156105b8576040516331a9108f60e11b81526004810185905230906001600160a01b03871690636352211e9060240160206040518083038186803b1580156104bf57600080fd5b505afa1580156104d3573d6000803e3d6000fd5b505050506040513d601f19601f820116820180604052508101906104f791906107a0565b6001600160a01b03161461051d5760405162461bcd60e51b81526004016100e69061089b565b6040516323b872dd60e01b81523060048201526001600160a01b038781166024830152604482018590528616906323b872dd90606401600060405180830381600087803b15801561056d57600080fd5b505af1158015610581573d6000803e3d6000fd5b505050506000805160206108e083398151915286868660016040516105a99493929190610859565b60405180910390a1505061079a565b604051631417230560e11b8152600090735ddA1aCa8aF2E4751208877C15730D51Ac965eF59063282e460a906105f2908990600401610845565b60206040518083038186803b15801561060a57600080fd5b505af415801561061e573d6000803e3d6000fd5b505050506040513d601f19601f82011682018060405250810190610642919061080a565b9050801561079657604051627eeac760e11b815284906001600160a01b0388169062fdd58e906106789030908a90600401610882565b60206040518083038186803b15801561069057600080fd5b505afa1580156106a4573d6000803e3d6000fd5b505050506040513d601f19601f820116820180604052508101906106c8919061082c565b10156106e65760405162461bcd60e51b81526004016100e69061089b565b604051637921219560e11b81523060048201526001600160a01b038881166024830152604482018790526064820186905260a06084830152600060a483015287169063f242432a9060c401600060405180830381600087803b15801561074b57600080fd5b505af115801561075f573d6000803e3d6000fd5b505050506000805160206108e0833981519152878787876040516107869493929190610859565b60405180910390a150505061079a565b5050505b50505050565b6000602082840312156107b257600080fd5b81516107bd816108c7565b9392505050565b600080600080608085870312156107da57600080fd5b84356107e5816108c7565b935060208501356107f5816108c7565b93969395505050506040820135916060013590565b60006020828403121561081c57600080fd5b815180151581146107bd57600080fd5b60006020828403121561083e57600080fd5b5051919050565b6001600160a01b0391909116815260200190565b6001600160a01b0394851681529290931660208301526040820152606081019190915260800190565b6001600160a01b03929092168252602082015260400190565b602080825260129082015271696e73756666696369656e742066756e647360701b604082015260600190565b6001600160a01b03811681146108dc57600080fd5b5056fe7a163cc3488948c84f02deddd608c9465235f04837413e5f1051007d0da746d2a264697066735822122020af33b79490490d025e77c72cd05fea4cbc6ad98f895a8c1a001ce34eb707a064736f6c63430008060033",
  "deployedBytecode": "0x60806040526004361061001e5760003560e01c80637bfe950c14610023575b600080fd5b6100366100313660046107c4565b610038565b005b3361006a7fc8fcad8db84d3cc18b4c41d551ea0ee66dd599cde068d998e57d5e09332c1320546001600160a01b031690565b6001600160a01b0316148061007e57503033145b6100ef5760405162461bcd60e51b815260206004820152603760248201527f455243313135353a206f6e6c792074686520636f6e7472616374206f776e65726044820152761031b0b71031b0b636103a3434b990333ab731ba34b7b760491b60648201526084015b60405180910390fd5b6001600160a01b0384166101455760405162461bcd60e51b815260206004820181905260248201527f726563697069656e74206973206e6f7420616c6c6f77656420746f206265203060448201526064016100e6565b600081116101955760405162461bcd60e51b815260206004820152601d60248201527f616d6f756e74206d7573742062652067726561746572207468616e203000000060448201526064016100e6565b6001600160a01b03831661020b576040516001600160a01b0385169082156108fc029083906000818181858888f193505050501580156101d9573d6000803e3d6000fd5b506000805160206108e083398151915284600080846040516101fe9493929190610859565b60405180910390a161079a565b60405163263e0c1b60e01b815260009073__$37c7ec0c0732e24e320253a62eeabf3f4f$__9063263e0c1b90610245908790600401610845565b60206040518083038186803b15801561025d57600080fd5b505af4158015610271573d6000803e3d6000fd5b505050506040513d601f19601f82011682018060405250810190610295919061080a565b905080156103eb576040516370a0823160e01b815282906001600160a01b038616906370a08231906102cb903090600401610845565b60206040518083038186803b1580156102e357600080fd5b505afa1580156102f7573d6000803e3d6000fd5b505050506040513d601f19601f8201168201806040525081019061031b919061082c565b10156103395760405162461bcd60e51b81526004016100e69061089b565b60405163a9059cbb60e01b81526001600160a01b0385169063a9059cbb906103679088908690600401610882565b602060405180830381600087803b15801561038157600080fd5b505af1158015610395573d6000803e3d6000fd5b505050506040513d601f19601f820116820180604052508101906103b9919061080a565b506000805160206108e0833981519152858585856040516103dd9493929190610859565b60405180910390a15061079a565b6040516336a8279560e21b815260009073__$37c7ec0c0732e24e320253a62eeabf3f4f$__9063daa09e5490610425908890600401610845565b60206040518083038186803b15801561043d57600080fd5b505af4158015610451573d6000803e3d6000fd5b505050506040513d601f19601f82011682018060405250810190610475919061080a565b905080156105b8576040516331a9108f60e11b81526004810185905230906001600160a01b03871690636352211e9060240160206040518083038186803b1580156104bf57600080fd5b505afa1580156104d3573d6000803e3d6000fd5b505050506040513d601f19601f820116820180604052508101906104f791906107a0565b6001600160a01b03161461051d5760405162461bcd60e51b81526004016100e69061089b565b6040516323b872dd60e01b81523060048201526001600160a01b038781166024830152604482018590528616906323b872dd90606401600060405180830381600087803b15801561056d57600080fd5b505af1158015610581573d6000803e3d6000fd5b505050506000805160206108e083398151915286868660016040516105a99493929190610859565b60405180910390a1505061079a565b604051631417230560e11b815260009073__$37c7ec0c0732e24e320253a62eeabf3f4f$__9063282e460a906105f2908990600401610845565b60206040518083038186803b15801561060a57600080fd5b505af415801561061e573d6000803e3d6000fd5b505050506040513d601f19601f82011682018060405250810190610642919061080a565b9050801561079657604051627eeac760e11b815284906001600160a01b0388169062fdd58e906106789030908a90600401610882565b60206040518083038186803b15801561069057600080fd5b505afa1580156106a4573d6000803e3d6000fd5b505050506040513d601f19601f820116820180604052508101906106c8919061082c565b10156106e65760405162461bcd60e51b81526004016100e69061089b565b604051637921219560e11b81523060048201526001600160a01b038881166024830152604482018790526064820186905260a06084830152600060a483015287169063f242432a9060c401600060405180830381600087803b15801561074b57600080fd5b505af115801561075f573d6000803e3d6000fd5b505050506000805160206108e0833981519152878787876040516107869493929190610859565b60405180910390a150505061079a565b5050505b50505050565b6000602082840312156107b257600080fd5b81516107bd816108c7565b9392505050565b600080600080608085870312156107da57600080fd5b84356107e5816108c7565b935060208501356107f5816108c7565b93969395505050506040820135916060013590565b60006020828403121561081c57600080fd5b815180151581146107bd57600080fd5b60006020828403121561083e57600080fd5b5051919050565b6001600160a01b0391909116815260200190565b6001600160a01b0394851681529290931660208301526040820152606081019190915260800190565b6001600160a01b03929092168252602082015260400190565b602080825260129082015271696e73756666696369656e742066756e647360701b604082015260600190565b6001600160a01b03811681146108dc57600080fd5b5056fe7a163cc3488948c84f02deddd608c9465235f04837413e5f1051007d0da746d2a264697066735822122020af33b79490490d025e77c72cd05fea4cbc6ad98f895a8c1a001ce34eb707a064736f6c63430008060033",
  "libraries": {
    "AddressSet": "0xf88EB844922B1ab0e153cF9E9bEefecc9512DE06",
    "UInt256Set": "0xCc995d7a8c7c499128cB34Ef0dA290F5f4f4EE71",
    "LibAppStorage": "0x6cfa6c2c41453855A7547426cDF22fE5690439cD",
    "LibDiamond": "0xd77fa05d7Fba908919b3A4b9E41Cc62A1A7F728D",
    "MerkleProof": "0xe2f6D7E396B31d50dc5d11aD23c17859aDc95bB3",
    "InterfaceChecker": "0x5ddA1aCa8aF2E4751208877C15730D51Ac965eF5"
  },
  "devdoc": {
    "kind": "dev",
    "methods": {
      "withdraw(address,address,uint256,uint256)": {
        "params": {
          "amount": "the amount to withdraw",
          "id": "the token id to withdraw or 0 for the base token (ether)",
          "token": "the erc20 token to withdraw or 0 for the base token (ether)"
        }
      }
    },
    "version": 1
  },
  "userdoc": {
    "events": {
      "TokenWithdrawn(address,address,uint256,uint256)": {
        "notice": "emitted when a withdrawal is made"
      }
    },
    "kind": "user",
    "methods": {
      "withdraw(address,address,uint256,uint256)": {
        "notice": "withdraw some amount of either a token or ether out of contract to caller"
      }
    },
    "notice": "the manager of fees",
    "version": 1
  },
  "storageLayout": {
    "storage": [
      {
        "astId": 2186,
        "contract": "contracts/facets/WithdrawalFacet.sol:WithdrawalFacet",
        "label": "s",
        "offset": 0,
        "slot": "0",
        "type": "t_struct(AppStorage)2174_storage"
      }
    ],
    "types": {
      "t_address": {
        "encoding": "inplace",
        "label": "address",
        "numberOfBytes": "20"
      },
      "t_bool": {
        "encoding": "inplace",
        "label": "bool",
        "numberOfBytes": "1"
      },
      "t_bytes32": {
        "encoding": "inplace",
        "label": "bytes32",
        "numberOfBytes": "32"
      },
      "t_enum(PaymentType)4879": {
        "encoding": "inplace",
        "label": "enum IAirdropTokenSale.PaymentType",
        "numberOfBytes": "1"
      },
      "t_enum(PriceModifier)6543": {
        "encoding": "inplace",
        "label": "enum ITokenPrice.PriceModifier",
        "numberOfBytes": "1"
      },
      "t_mapping(t_address,t_uint256)": {
        "encoding": "mapping",
        "key": "t_address",
        "label": "mapping(address => uint256)",
        "numberOfBytes": "32",
        "value": "t_uint256"
      },
      "t_mapping(t_uint256,t_bool)": {
        "encoding": "mapping",
        "key": "t_uint256",
        "label": "mapping(uint256 => bool)",
        "numberOfBytes": "32",
        "value": "t_bool"
      },
      "t_mapping(t_uint256,t_mapping(t_address,t_uint256))": {
        "encoding": "mapping",
        "key": "t_uint256",
        "label": "mapping(uint256 => mapping(address => uint256))",
        "numberOfBytes": "32",
        "value": "t_mapping(t_address,t_uint256)"
      },
      "t_mapping(t_uint256,t_mapping(t_uint256,t_uint256))": {
        "encoding": "mapping",
        "key": "t_uint256",
        "label": "mapping(uint256 => mapping(uint256 => uint256))",
        "numberOfBytes": "32",
        "value": "t_mapping(t_uint256,t_uint256)"
      },
      "t_mapping(t_uint256,t_struct(AirdropSettings)4814_storage)": {
        "encoding": "mapping",
        "key": "t_uint256",
        "label": "mapping(uint256 => struct IAirdrop.AirdropSettings)",
        "numberOfBytes": "32",
        "value": "t_struct(AirdropSettings)4814_storage"
      },
      "t_mapping(t_uint256,t_struct(TokenSaleSettings)4920_storage)": {
        "encoding": "mapping",
        "key": "t_uint256",
        "label": "mapping(uint256 => struct IAirdropTokenSale.TokenSaleSettings)",
        "numberOfBytes": "32",
        "value": "t_struct(TokenSaleSettings)4920_storage"
      },
      "t_mapping(t_uint256,t_uint256)": {
        "encoding": "mapping",
        "key": "t_uint256",
        "label": "mapping(uint256 => uint256)",
        "numberOfBytes": "32",
        "value": "t_uint256"
      },
      "t_string_storage": {
        "encoding": "bytes",
        "label": "string",
        "numberOfBytes": "32"
      },
      "t_struct(AirdropSettings)4814_storage": {
        "encoding": "inplace",
        "label": "struct IAirdrop.AirdropSettings",
        "members": [
          {
            "astId": 4785,
            "contract": "contracts/facets/WithdrawalFacet.sol:WithdrawalFacet",
            "label": "whitelistOnly",
            "offset": 0,
            "slot": "0",
            "type": "t_bool"
          },
          {
            "astId": 4787,
            "contract": "contracts/facets/WithdrawalFacet.sol:WithdrawalFacet",
            "label": "whitelistId",
            "offset": 0,
            "slot": "1",
            "type": "t_uint256"
          },
          {
            "astId": 4789,
            "contract": "contracts/facets/WithdrawalFacet.sol:WithdrawalFacet",
            "label": "whitelistHash",
            "offset": 0,
            "slot": "2",
            "type": "t_bytes32"
          },
          {
            "astId": 4791,
            "contract": "contracts/facets/WithdrawalFacet.sol:WithdrawalFacet",
            "label": "maxQuantity",
            "offset": 0,
            "slot": "3",
            "type": "t_uint256"
          },
          {
            "astId": 4793,
            "contract": "contracts/facets/WithdrawalFacet.sol:WithdrawalFacet",
            "label": "maxQuantityPerSale",
            "offset": 0,
            "slot": "4",
            "type": "t_uint256"
          },
          {
            "astId": 4795,
            "contract": "contracts/facets/WithdrawalFacet.sol:WithdrawalFacet",
            "label": "minQuantityPerSale",
            "offset": 0,
            "slot": "5",
            "type": "t_uint256"
          },
          {
            "astId": 4797,
            "contract": "contracts/facets/WithdrawalFacet.sol:WithdrawalFacet",
            "label": "maxQuantityPerAccount",
            "offset": 0,
            "slot": "6",
            "type": "t_uint256"
          },
          {
            "astId": 4799,
            "contract": "contracts/facets/WithdrawalFacet.sol:WithdrawalFacet",
            "label": "quantitySold",
            "offset": 0,
            "slot": "7",
            "type": "t_uint256"
          },
          {
            "astId": 4801,
            "contract": "contracts/facets/WithdrawalFacet.sol:WithdrawalFacet",
            "label": "startTime",
            "offset": 0,
            "slot": "8",
            "type": "t_uint256"
          },
          {
            "astId": 4803,
            "contract": "contracts/facets/WithdrawalFacet.sol:WithdrawalFacet",
            "label": "endTime",
            "offset": 0,
            "slot": "9",
            "type": "t_uint256"
          },
          {
            "astId": 4806,
            "contract": "contracts/facets/WithdrawalFacet.sol:WithdrawalFacet",
            "label": "initialPrice",
            "offset": 0,
            "slot": "10",
            "type": "t_struct(TokenPriceData)6553_storage"
          },
          {
            "astId": 4808,
            "contract": "contracts/facets/WithdrawalFacet.sol:WithdrawalFacet",
            "label": "tokenHash",
            "offset": 0,
            "slot": "14",
            "type": "t_uint256"
          },
          {
            "astId": 4811,
            "contract": "contracts/facets/WithdrawalFacet.sol:WithdrawalFacet",
            "label": "paymentType",
            "offset": 0,
            "slot": "15",
            "type": "t_enum(PaymentType)4879"
          },
          {
            "astId": 4813,
            "contract": "contracts/facets/WithdrawalFacet.sol:WithdrawalFacet",
            "label": "tokenAddress",
            "offset": 1,
            "slot": "15",
            "type": "t_address"
          }
        ],
        "numberOfBytes": "512"
      },
      "t_struct(AirdropTokenSaleStorage)2133_storage": {
        "encoding": "inplace",
        "label": "struct AirdropTokenSaleStorage",
        "members": [
          {
            "astId": 2109,
            "contract": "contracts/facets/WithdrawalFacet.sol:WithdrawalFacet",
            "label": "tsnonce",
            "offset": 0,
            "slot": "0",
            "type": "t_uint256"
          },
          {
            "astId": 2113,
            "contract": "contracts/facets/WithdrawalFacet.sol:WithdrawalFacet",
            "label": "nonces",
            "offset": 0,
            "slot": "1",
            "type": "t_mapping(t_uint256,t_uint256)"
          },
          {
            "astId": 2118,
            "contract": "contracts/facets/WithdrawalFacet.sol:WithdrawalFacet",
            "label": "_tokenSales",
            "offset": 0,
            "slot": "2",
            "type": "t_mapping(t_uint256,t_struct(TokenSaleSettings)4920_storage)"
          },
          {
            "astId": 2122,
            "contract": "contracts/facets/WithdrawalFacet.sol:WithdrawalFacet",
            "label": "tokenSaleOpen",
            "offset": 0,
            "slot": "3",
            "type": "t_mapping(t_uint256,t_bool)"
          },
          {
            "astId": 2128,
            "contract": "contracts/facets/WithdrawalFacet.sol:WithdrawalFacet",
            "label": "purchased",
            "offset": 0,
            "slot": "4",
            "type": "t_mapping(t_uint256,t_mapping(t_address,t_uint256))"
          },
          {
            "astId": 2132,
            "contract": "contracts/facets/WithdrawalFacet.sol:WithdrawalFacet",
            "label": "totalPurchased",
            "offset": 0,
            "slot": "5",
            "type": "t_mapping(t_uint256,t_uint256)"
          }
        ],
        "numberOfBytes": "192"
      },
      "t_struct(AppStorage)2174_storage": {
        "encoding": "inplace",
        "label": "struct AppStorage",
        "members": [
          {
            "astId": 2167,
            "contract": "contracts/facets/WithdrawalFacet.sol:WithdrawalFacet",
            "label": "merkleAirdropStorage",
            "offset": 0,
            "slot": "0",
            "type": "t_struct(MerkleAirdropStorage)2159_storage"
          },
          {
            "astId": 2170,
            "contract": "contracts/facets/WithdrawalFacet.sol:WithdrawalFacet",
            "label": "airdropTokenSaleStorage",
            "offset": 0,
            "slot": "5",
            "type": "t_struct(AirdropTokenSaleStorage)2133_storage"
          },
          {
            "astId": 2173,
            "contract": "contracts/facets/WithdrawalFacet.sol:WithdrawalFacet",
            "label": "tokenMinterStorage",
            "offset": 0,
            "slot": "11",
            "type": "t_struct(TokenMinterStorage)2107_storage"
          }
        ],
        "numberOfBytes": "384"
      },
      "t_struct(MerkleAirdropStorage)2159_storage": {
        "encoding": "inplace",
        "label": "struct MerkleAirdropStorage",
        "members": [
          {
            "astId": 2138,
            "contract": "contracts/facets/WithdrawalFacet.sol:WithdrawalFacet",
            "label": "_settings",
            "offset": 0,
            "slot": "0",
            "type": "t_mapping(t_uint256,t_struct(AirdropSettings)4814_storage)"
          },
          {
            "astId": 2140,
            "contract": "contracts/facets/WithdrawalFacet.sol:WithdrawalFacet",
            "label": "numSettings",
            "offset": 0,
            "slot": "1",
            "type": "t_uint256"
          },
          {
            "astId": 2146,
            "contract": "contracts/facets/WithdrawalFacet.sol:WithdrawalFacet",
            "label": "_redeemedData",
            "offset": 0,
            "slot": "2",
            "type": "t_mapping(t_uint256,t_mapping(t_uint256,t_uint256))"
          },
          {
            "astId": 2152,
            "contract": "contracts/facets/WithdrawalFacet.sol:WithdrawalFacet",
            "label": "_redeemedDataQuantities",
            "offset": 0,
            "slot": "3",
            "type": "t_mapping(t_uint256,t_mapping(t_address,t_uint256))"
          },
          {
            "astId": 2158,
            "contract": "contracts/facets/WithdrawalFacet.sol:WithdrawalFacet",
            "label": "_totalDataQuantities",
            "offset": 0,
            "slot": "4",
            "type": "t_mapping(t_uint256,t_mapping(t_address,t_uint256))"
          }
        ],
        "numberOfBytes": "160"
      },
      "t_struct(TokenMinterStorage)2107_storage": {
        "encoding": "inplace",
        "label": "struct TokenMinterStorage",
        "members": [
          {
            "astId": 2106,
            "contract": "contracts/facets/WithdrawalFacet.sol:WithdrawalFacet",
            "label": "token",
            "offset": 0,
            "slot": "0",
            "type": "t_address"
          }
        ],
        "numberOfBytes": "32"
      },
      "t_struct(TokenPriceData)6553_storage": {
        "encoding": "inplace",
        "label": "struct ITokenPrice.TokenPriceData",
        "members": [
          {
            "astId": 6545,
            "contract": "contracts/facets/WithdrawalFacet.sol:WithdrawalFacet",
            "label": "price",
            "offset": 0,
            "slot": "0",
            "type": "t_uint256"
          },
          {
            "astId": 6548,
            "contract": "contracts/facets/WithdrawalFacet.sol:WithdrawalFacet",
            "label": "priceModifier",
            "offset": 0,
            "slot": "1",
            "type": "t_enum(PriceModifier)6543"
          },
          {
            "astId": 6550,
            "contract": "contracts/facets/WithdrawalFacet.sol:WithdrawalFacet",
            "label": "priceModifierFactor",
            "offset": 0,
            "slot": "2",
            "type": "t_uint256"
          },
          {
            "astId": 6552,
            "contract": "contracts/facets/WithdrawalFacet.sol:WithdrawalFacet",
            "label": "maxPrice",
            "offset": 0,
            "slot": "3",
            "type": "t_uint256"
          }
        ],
        "numberOfBytes": "128"
      },
      "t_struct(TokenSaleSettings)4920_storage": {
        "encoding": "inplace",
        "label": "struct IAirdropTokenSale.TokenSaleSettings",
        "members": [
          {
            "astId": 4881,
            "contract": "contracts/facets/WithdrawalFacet.sol:WithdrawalFacet",
            "label": "contractAddress",
            "offset": 0,
            "slot": "0",
            "type": "t_address"
          },
          {
            "astId": 4883,
            "contract": "contracts/facets/WithdrawalFacet.sol:WithdrawalFacet",
            "label": "token",
            "offset": 0,
            "slot": "1",
            "type": "t_address"
          },
          {
            "astId": 4885,
            "contract": "contracts/facets/WithdrawalFacet.sol:WithdrawalFacet",
            "label": "tokenHash",
            "offset": 0,
            "slot": "2",
            "type": "t_uint256"
          },
          {
            "astId": 4887,
            "contract": "contracts/facets/WithdrawalFacet.sol:WithdrawalFacet",
            "label": "collectionHash",
            "offset": 0,
            "slot": "3",
            "type": "t_uint256"
          },
          {
            "astId": 4889,
            "contract": "contracts/facets/WithdrawalFacet.sol:WithdrawalFacet",
            "label": "owner",
            "offset": 0,
            "slot": "4",
            "type": "t_address"
          },
          {
            "astId": 4891,
            "contract": "contracts/facets/WithdrawalFacet.sol:WithdrawalFacet",
            "label": "payee",
            "offset": 0,
            "slot": "5",
            "type": "t_address"
          },
          {
            "astId": 4893,
            "contract": "contracts/facets/WithdrawalFacet.sol:WithdrawalFacet",
            "label": "symbol",
            "offset": 0,
            "slot": "6",
            "type": "t_string_storage"
          },
          {
            "astId": 4895,
            "contract": "contracts/facets/WithdrawalFacet.sol:WithdrawalFacet",
            "label": "name",
            "offset": 0,
            "slot": "7",
            "type": "t_string_storage"
          },
          {
            "astId": 4897,
            "contract": "contracts/facets/WithdrawalFacet.sol:WithdrawalFacet",
            "label": "description",
            "offset": 0,
            "slot": "8",
            "type": "t_string_storage"
          },
          {
            "astId": 4899,
            "contract": "contracts/facets/WithdrawalFacet.sol:WithdrawalFacet",
            "label": "openState",
            "offset": 0,
            "slot": "9",
            "type": "t_bool"
          },
          {
            "astId": 4901,
            "contract": "contracts/facets/WithdrawalFacet.sol:WithdrawalFacet",
            "label": "startTime",
            "offset": 0,
            "slot": "10",
            "type": "t_uint256"
          },
          {
            "astId": 4903,
            "contract": "contracts/facets/WithdrawalFacet.sol:WithdrawalFacet",
            "label": "endTime",
            "offset": 0,
            "slot": "11",
            "type": "t_uint256"
          },
          {
            "astId": 4905,
            "contract": "contracts/facets/WithdrawalFacet.sol:WithdrawalFacet",
            "label": "maxQuantity",
            "offset": 0,
            "slot": "12",
            "type": "t_uint256"
          },
          {
            "astId": 4907,
            "contract": "contracts/facets/WithdrawalFacet.sol:WithdrawalFacet",
            "label": "maxQuantityPerSale",
            "offset": 0,
            "slot": "13",
            "type": "t_uint256"
          },
          {
            "astId": 4909,
            "contract": "contracts/facets/WithdrawalFacet.sol:WithdrawalFacet",
            "label": "minQuantityPerSale",
            "offset": 0,
            "slot": "14",
            "type": "t_uint256"
          },
          {
            "astId": 4911,
            "contract": "contracts/facets/WithdrawalFacet.sol:WithdrawalFacet",
            "label": "maxQuantityPerAccount",
            "offset": 0,
            "slot": "15",
            "type": "t_uint256"
          },
          {
            "astId": 4914,
            "contract": "contracts/facets/WithdrawalFacet.sol:WithdrawalFacet",
            "label": "initialPrice",
            "offset": 0,
            "slot": "16",
            "type": "t_struct(TokenPriceData)6553_storage"
          },
          {
            "astId": 4917,
            "contract": "contracts/facets/WithdrawalFacet.sol:WithdrawalFacet",
            "label": "paymentType",
            "offset": 0,
            "slot": "20",
            "type": "t_enum(PaymentType)4879"
          },
          {
            "astId": 4919,
            "contract": "contracts/facets/WithdrawalFacet.sol:WithdrawalFacet",
            "label": "tokenAddress",
            "offset": 1,
            "slot": "20",
            "type": "t_address"
          }
        ],
        "numberOfBytes": "672"
      },
      "t_uint256": {
        "encoding": "inplace",
        "label": "uint256",
        "numberOfBytes": "32"
      }
    }
  }
}